:020000040800F2
:10000000B0BC002055020008211500086712000846
:100010001D1500083F040008DD2200080000000054
:100020000000000000000000000000009D0100082A
:100030008104000800000000F1010008B11D000863
:100040006F0200086F0200086F0200086F020008CC
:100050006F0200086F020008830400086F020008A6
:100060006F0200086F0200086F0200086F020008AC
:100070006F0200086F0200086F0200086F0200089C
:100080006F0200086F0200086F0200086F0200088C
:100090006F0200086F0200086F0200086F0200087C
:1000A0006F0200086F0200086F0200086F0200086C
:1000B0006F0200086F0200086F0200086F0200085C
:1000C0006F0200086F0200086F0200086F0200084C
:1000D0006F0200086F0200086F0200086F0200083C
:1000E0006F0200086F0200086F0200086F0200082C
:1000F0006F0200086F0200086F0200086F0200081C
:100100006F0200086F0200086F0200086F0200080B
:100110006F0200086F0200086F0200086F020008FB
:100120006F0200086F0200086F0200086F020008EB
:100130006F0200086F0200086F0200086F020008DB
:100140006F0200086F0200086F0200086F020008CB
:100150006F0200086F0200086F0200086F020008BB
:100160006F0200086F0200086F0200086F020008AB
:100170006F0200086F0200086F0200080000000014
:100180006F0200086F020008DFF80CD000F0DAF808
:1001900000480047D5440008B0BC00202A4B19682D
:1001A0000868B0E8F04F80F30988BFF36F8F4FF015
:1001B000000080F3118870470000000006480068C6
:1001C000006880F3088862B661B6BFF34F8FBFF353
:1001D0006F8F00DF00BF00BF08ED00E0DFF80C000C
:1001E000016841F470010160704700BF88ED00E0D4
:1001F000EFF30980BFF36F8F134B1A681EF0100FD7
:1002000008BF20ED108A20E9F04F106008B44FF0CD
:10021000500080F31188BFF34F8FBFF36F8F05F04D
:1002200009FA4FF0000080F3118808BC19680868CB
:10023000B0E8F04F1EF0100F08BFB0EC108A80F34A
:100240000988BFF36F8F70476C000020EFF30580C3
:10025000704700000648804706480047FEE7FEE773
:10026000FEE7FEE7FEE7FEE7FEE7FEE7FEE7FEE766
:10027000851E0008890100082DE9F05F0546002071
:1002800092469B4688460646814640241BE0284607
:1002900041464746224600F045F853465A46C01AA2
:1002A000914110D311461846224600F02CF82D1A21
:1002B00067EB01084F4622460120002100F023F899
:1002C00017EB00094E41201EA4F10104DFDC484673
:1002D00031462A464346BDE8F09F30B50B460146FD
:1002E00000202022012409E021FA02F59D4205D3D5
:1002F00003FA02F5491B04FA02F52844151EA2F17F
:100300000102F1DC30BD202A04DB203A00FA02F1C0
:10031000002070479140C2F1200320FA03F31943F3
:1003200090407047202A04DB203A21FA02F0002195
:10033000704721FA02F3D040C2F1200291400843F5
:1003400019467047064C074D06E0E06840F001038F
:1003500094E8070098471034AC42F6D3FFF718FF33
:10036000BC0C0308DC0C03081CB5012404F086FE59
:100370001348022100230A02CDE9001011A11448FC
:1003800005F08EFA0446012C02D112A001F0A8FF5C
:100390001748032100234FF40072CDE9001015A186
:1003A000174805F07DFA0446012C02D115A001F092
:1003B00097FF1A48006804F07FFF04F0A1FE1CBDFF
:1003C00014000020546573745F5461736B00000067
:1003D000E91E0008B4B4BDA8546573745F5461731A
:1003E0006BC8CECEF1B3C9B9A6210D0A000000003A
:1003F000180000204B45595F5461736B00000000EA
:100400006D120008B4B4BDA84B45595F5461736BBD
:10041000C8CECEF1B3C9B9A6210D0A001000002044
:1004200010B501F0CFFC032000F0C0F900F0FCFF94
:1004300000F06CFF00F006F801F02EF910BD00BFCF
:10044000FEE7000010B50C480C4908604FF4E1309D
:100450004860002109488160C160016181610C210F
:10046000416100F003FE05480068C06840F02000CC
:1004700002490968C86010BD001001403025002005
:1004800070477047F8B502460B460025002400204F
:100490000021DCE0012606FA01F51E6806EA0504E3
:1004A000AC4273D15E68022E02D05E68122E13D168
:1004B000CF0802F1200656F827004E07F70E0F2648
:1004C000BE40B0434F07FF0E1E69BE403043CF0809
:1004D00002F1200646F8270010684F000326BE40B0
:1004E000B0431E7906F003064F00BE403043106053
:1004F0005E68012E08D05E68022E05D05E68112E5F
:1005000002D05E68122E13D190684F000326BE40C1
:10051000B0434F00DE68BE40304390605068012613
:100520008E40B0431E79C6F300168E4030435060B3
:10053000D0684F000326BE40B0434F009E68BE40C7
:100540003043D0605E6806F08056B6F1805F7DD1A2
:1005500000BF00260096404E366846F480463E4F67
:100560003E603E46366806F48046009600BF00BFF7
:100570003A4E8F0856F827008E07370F0F26BE40D9
:10058000B043374EB24202D1002624E05EE0354E41
:10059000B24201D101261EE0334EB24201D1022601
:1005A00019E0324EB24201D1032614E0304EB2427D
:1005B00001D104260FE02F4EB24201D105260AE0F8
:1005C0002D4EB24201D1062605E02C4EB24201D199
:1005D000072600E008268F073F0FBE4030431F4E1E
:1005E0008F0846F82700264E3068A0435E6806F460
:1005F0008036B6F5803F00D12043214E3060361D55
:100600003068A0435E6806F40036B6F5003F00D1BE
:1006100020431B4E361D3060361D3068A0435E6897
:1006200006F48016B6F5801F00D12043144E08361C
:100630003060361D3068A0435E6806F40016B6F5DB
:10064000001F00D120430E4E0C363060491C10298B
:10065000FFF420AFF8BD00004438024008380140E4
:10066000000002400004024000080240000C02406A
:10067000001002400014024000180240001C02401A
:10068000003C0140024613690B400BB1012000E021
:100690000020704701480068000C7047002004E00B
:1006A000014800687047000004000020034800680B
:1006B0000349097808440149086070470400002094
:1006C0000C00002070B504460E4800784FF47A7193
:1006D000B1FBF0F00C490968B1FBF0F5284600F0D9
:1006E000ABFC08B1012070BD102C07D200222146BE
:1006F000501E00F01DF80548046001E00120F2E7FB
:100700000020F0E70C00002000000020080000207E
:1007100001460846002809DB00F01F0301229A4029
:1007200043099B0003F1E023C3F8002100BF704799
:100730002DE9F05F80460D461646002701F0E0FDEA
:10074000074639462A46334601F00700C0F1070A3A
:10075000BAF1040F02D94FF0040A01E0C0F1070A10
:10076000D14600F1040ABAF1070F02D24FF0000A95
:1007700001E0A0F1030AD4464FF0010A0AFA09FA8F
:10078000AAF1010A0AEA020A0AFA0CFA4FF0010B6E
:100790000BFA0CFBABF1010B0BEA030B4AEA0B045F
:1007A0002146404601F0B4FDBDE8F09F00BF00F0D7
:1007B0000702064B19684FF6FF031940044B0B4321
:1007C00043EA0221014B196000BF70470CED00E0C5
:1007D0000000FA0570B504460D460CB9012070BD45
:1007E0005848006800F00F00A84209D255490D7022
:1007F0000846006800F00F00A84201D00120EEE793
:10080000207800F0020002281DD1207800F00400BA
:10081000042805D14C48006840F4E0504A4908607B
:10082000207800F00800082805D14748006840F407
:100830006040454908604448006820F0F000A16825
:10084000084341490860207800F00100A8B36068BF
:10085000012807D13C4808380068C0F34040B8B9C7
:100860000120BCE76068022802D06068032807D135
:10087000354808380068C0F3406048B90120AEE749
:10088000314808380068C0F3400008B90120A6E7E5
:100890002D48006820F00300616808432A49086079
:1008A000FFF7FEFE064609E0FFF7FAFE801B41F265
:1008B0008831884202D9032091E707E02248006886
:1008C00000F00C006168B0EB810FEDD11D480068AD
:1008D00000F00F00A84209D91A490D7008460068B7
:1008E00000F00F00A84201D0012078E7207800F046
:1008F0000400042807D11448006820F4E050E1689F
:10090000084311490860207800F00800082808D141
:100910000D48006820F46040216940EAC1000A499E
:10092000086000F03DF808490968C1F30311074A5F
:10093000515CC840064908600F20FFF7C3FE002045
:100940004DE70000003C024008380240A85B000868
:1009500000000020014800687047000000000020EF
:1009600000B5FFF7F7FF04490968C1F38221034A84
:10097000515CC84000BD000008380240B85B000868
:1009800000B5FFF7E7FF04490968C1F34231034AA4
:10099000515CC84000BD000008380240B85B000848
:1009A0002DE9F047002400250026A14625480068CF
:1009B00000F00C0020B1042805D008283AD105E049
:1009C000DFF8849039E0DFF8849036E01D48001F9E
:1009D000006800F03F041B48001F006800F480001E
:1009E00078B11A481749091F0968C1F38811A0FB9B
:1009F00001700146224600233846FFF73DFC0546BC
:100A00000EE011480F49091F0968C1F38811A0FBC6
:100A100001700146224600233846FFF72DFC0546AB
:100A20000848001F0068C0F30140401C4600B5FBA9
:100A3000F6F902E0DFF8109000BF00BF4846BDE8BD
:100A4000F0870000083802400024F40040787D015F
:100A5000F8B504460CB90120F8BD207800F001007B
:100A6000002874D0F948006800F00C0004280DD06C
:100A7000F648006800F00C00082813D1F348001F66
:100A8000006800F48000B0F5800F0BD1EF48083803
:100A90000068C0F34040002859D06068002856D153
:100AA0000120D9E700BF6068B0F5803F08D1E74872
:100AB0000838006840F48030E449083908601EE0D6
:100AC0006068B0F5A02F0DD1E0480838006840F408
:100AD0008020DE49083908600846006840F480300C
:100AE00008600CE0D9480838006820F48030D74905
:100AF000083908600846006820F48020086000BFBC
:100B0000606890B1FFF7CCFD054606E0FFF7C8FD31
:100B1000401B642801D903209EE7CC4808380068B0
:100B2000C0F340400028F1D011E0FFF7B9FD0546C1
:100B300006E0FFF7B5FD401B642801D903208BE7D1
:100B4000C24808380068C0F340400028F1D120783E
:100B500000F0020002285FD1BC48006800F00C00E1
:100B600058B1BA48006800F00C0008281CD1B748FA
:100B7000001F006800F48000B0B9B448083800686D
:100B8000C0F3400020B1E068012801D0012063E7F4
:100B9000AE480838006820F0F800216940EAC1003A
:100BA000AA490839086037E0E06800B30120A84985
:100BB0000860FFF775FD054606E0FFF771FD401B75
:100BC000022801D9032047E7A04808380068C0F38D
:100BD00040000028F1D09D480838006820F0F80057
:100BE000216940EAC10099490839086014E00020F1
:100BF00097490860FFF754FD054606E0FFF750FDF2
:100C0000401B022801D9032026E7904808380068D5
:100C1000C0F340000028F1D1207800F00800082837
:100C20002CD16069A8B101208A490860FFF738FD1E
:100C3000054606E0FFF734FD401B022801D90320DA
:100C40000AE782486C300068C0F340000028F1D009
:100C500014E000207F490860FFF722FD054606E00A
:100C6000FFF71EFD401B022801D90320F4E6774858
:100C70006C300068C0F340000028F1D1207800F00B
:100C80000400042870D1002670483830006800F055
:100C9000805090B900BF002000906C483830006848
:100CA00040F080506949383108600846006800F01B
:100CB0008050009000BF00BF01266748006800F424
:100CC0008070B0B96448006840F480706249086080
:100CD000FFF7E6FC054606E0FFF7E2FC401B0228B2
:100CE00001D90320B8E65C48006800F48070002851
:100CF000F2D000BFA068012808D1544868300068CD
:100D000040F001005149683108601DE0A0680528E5
:100D10000DD14E486830006840F004004B496831FE
:100D200008600846006840F0010008600CE0474891
:100D30006830006820F001004449683108600846C6
:100D4000006820F00400086000BFA068A8B1FFF7A9
:100D5000A7FC054609E0FFF7A3FC401B41F28831E0
:100D6000884202D9032077E626E0384868300068D8
:100D7000C0F340000028EED013E0FFF791FC0546D9
:100D800008E0FFF78DFC401B41F28831884201D911
:100D9000032061E62D4868300068C0F34000002859
:100DA000EFD1012E07D129483830006820F080505B
:100DB00026493831086000BFA069B8B323480068ED
:100DC00000F00C0008285ED0A069022846D100205F
:100DD0001F490866FFF764FC054606E0FFF760FC64
:100DE000401B022801D9032036E61848083800685D
:100DF000C0F340600028F1D1D4E907010843616ADB
:100E000040EA81110122A06AC2EB500041EA004190
:100E10002C20005D41EA00600C49091F0860012098
:100E20000B490866FFF73CFC054607E02DE0FFF79D
:100E300037FC401B022801D903200DE6034808387F
:100E40000068C0F340600028F1D01EE0083802407E
:100E500000004742800E47420070004000200C49CD
:100E60000866FFF71DFC054606E0FFF719FC401B6E
:100E7000022801D90320EFE506480068C0F340606E
:100E80000028F2D101E00120E6E50020E4E50000C1
:100E9000000047420038024010B504460CB901205A
:100EA00010BD606A00B900BFA06AB0F5005F00D154
:100EB00000BF94F8510028B9002084F85000204663
:100EC00000F03AF8022084F851002068006820F011
:100ED000400021680860D4E901010843E168084343
:100EE0002169084361690843218B01F400710843BB
:100EF000E1690843216A0843A16A08432168086040
:100F00000421A06901EA1040616A08432168486031
:100F1000A06AB0F5005F02D12168E06A086120682C
:100F2000C06920F400602168C8610020606501206C
:100F300084F851000020B3E710B586B0044600BF26
:100F4000002000903948006840F0020037490860EE
:100F50000846006800F00200009000BF00BF00BF1C
:100F6000002000900846006840F002000860084633
:100F7000006800F00200009000BF00BF00BF00202A
:100F800000900846006840F00200086008460068CB
:100F900000F00200009000BF00BF00BF00200090E2
:100FA0000846006840F0400008600846006800F00D
:100FB0004000009000BF00BF00BF002000901B4811
:100FC0001430006840F48050184914310860084615
:100FD000006800F48050009000BF00BF082001901E
:100FE0000220029001200390022004900520059029
:100FF00001A90F48FFF746FA10200190052005903F
:1010000001A90B48FFF73EFA20200190052005902A
:1010100001A90748FFF736FA40200190012002900D
:1010200001A90448FFF72EFA06B010BD303802407F
:10103000000402400018024070B504462546681EB0
:10104000B0F1807F01D301200FE0681E4FF0E02156
:1010500048610F214FF0FF3001F05AF900204FF0A6
:10106000E021886107200861002070BD10B50446AA
:101070000CB9012010BDA06900B100E000BF94F8D8
:10108000390028B9002084F83800204600F028F8FC
:10109000242084F839002068C06820F400502168BA
:1010A000C860204600F030FF2068006920F49040BE
:1010B000216808612068406920F02A0021684861A1
:1010C0002068C06840F400502168C8600020E063D8
:1010D000202084F8390084F83A000020CAE7000094
:1010E00010B586B0044600BF002000902648006876
:1010F00040F01000244908600846006800F0100025
:10110000009000BF00BF00BF002000901E481438B0
:10111000006840F002001C49143908600846006865
:1011200000F00200009000BF00BF00BF0020009050
:101130000846006840F0020008600846006800F0B9
:101140000200009000BF00BF4020019002200290EA
:1011500001200390032004900720059001A90B486B
:10116000FFF790F9802001900720059001A907481A
:10117000FFF788F9012200212520FFF7D9FA252061
:10118000FFF7C6FA06B010BD443802400004024022
:101190002DE9F84304460D4616461F464FF0000958
:1011A00094F8390020285CD105B116B90120BDE8BA
:1011B000F88300BF94F83800012801D10220F6E737
:1011C000012084F8380000BF0020E063212084F86B
:1011D0003900FFF765FA8146A684E6842BE0E08CAF
:1011E000401EE084A068B0F5805F16D14B46002217
:1011F00080212046009701F03BF808B10320D6E794
:10120000A846B8F80000C0F30800216848602069CB
:1012100008B9AD1C0FE06D1C0DE04B46002280218B
:101220002046009701F024F808B10320BFE715F825
:10123000010B21684860E08C0028D0D14B46002289
:1012400040212046009701F013F808B10320AEE7D3
:10125000202084F8390000BF002084F8380000BF47
:10126000A5E70220A3E700BFFEE7000023E001217D
:10127000114800F0C5F8012809D110A001F030F89C
:101280001248006804F04CF911A001F029F84FF45D
:101290000051144800F0B4F8012809D112A001F05F
:1012A0001FF80A48006804F08FF813A001F018F83E
:1012B000142003F0C5FFDAE700000240B9D2C6F0FF
:1012C00054657374C8CECEF1A3A10A0014000020A7
:1012D000B9D2C6F054657374C8CECEF1B3C9B9A6FD
:1012E000A3A10A0000080240BBD6B8B454657374C9
:1012F000C8CECEF1A3A10A00BBD6B8B454657374AE
:10130000C8CECEF1B3C9B9A6A3A10A0000B587B073
:1013100000BF002001903648006840F001003449C9
:1013200008600846006800F00100019000BF00BF9F
:1013300000BF002001900846006840F004000860EB
:101340000846006800F00400019000BF00BF00BF25
:10135000002001900846006840F040000860084600
:10136000006800F04000019000BF00BF00BF0020F7
:1013700001900846006840F0400008600846006898
:1013800000F04000019000BF00BF00BF00200190AE
:101390000846006840F0400008600846006800F019
:1013A0004000019000BF00BF012002900020039088
:1013B000049002A90F48FFF765F84FF4005002901F
:1013C00002A90D48FFF75EF80420029002A90B481D
:1013D000FFF758F80820029002A90848FFF752F8D2
:1013E0001020029002A90548FFF74CF807B000BD95
:1013F000303802400000024000080240001802405D
:1014000070B504460D4629462046FFF73BF90128F2
:1014100008D100BF29462046FFF734F90128F9D04A
:10142000012070BD0020FCE700B587B000BF0020A0
:1014300001903548006840F00100334908600846D3
:10144000006800F00100019000BF00BF00BF002055
:1014500001900846006840F01000086008460068E7
:1014600000F01000019000BF00BF00BF00200190FD
:101470000846006840F0400008600846006800F038
:101480004000019000BF00BF00BF0020019008464F
:10149000006840F0020008600846006800F00200A2
:1014A000019000BF00BF4FF4004002900120039064
:1014B00004900320059002A91448FEF7E3FF0420DE
:1014C000029002A91248FEF7DDFF4FF4004002909F
:1014D00002A91048FEF7D6FF4FF48070029002A9CF
:1014E0000D48FEF7CFFF4FF4004008498861042003
:1014F000074988614003074918310860C01106494F
:101500001831086007B000BD3038024000000240CA
:1015100000100240001802400004024000BFFEE735
:101520007047000070B505460C4616464FF4800023
:101530000F490860032000F06DF9C4F3074000F084
:1015400069F9C4F3072000F065F9E0B200F062F930
:1015500004E0FF2000F05EF928706D1C301EA6F13B
:1015600001018EB2F5D140200149086070BD000034
:10157000181802402DE9F05F07460E4614464FF05A
:101580000008C146C2460025AB4606F0FF0ACAF174
:101590000000C5B22046E11704EB1161C1F3072832
:1015A000E11704EB11610912A4EB012101F0FF091D
:1015B000BAF1000F20D1B8F1000F05D12246314613
:1015C000384600F095F864E009E04FF48072314647
:1015D000384600F08DF806F5807607F58077B8F18B
:1015E0000000A8F1010101F0FF08EED14A463146A2
:1015F000384600F07DF84CE0B8F1000F18D1A9454D
:1016000010DDA9EB050000F0FF0B2A4631463846F5
:1016100000F06EF82E442F445A463146384600F00A
:1016200067F836E022463146384600F061F830E08F
:10163000601B84B22046E11704EB1161C1F3072857
:10164000E11704EB11610912A4EB012101F0FF097C
:101650002A463146384600F04BF82E442F4409E024
:101660004FF480723146384600F042F806F5807635
:1016700007F58077B8F10000A8F1010101F0FF083B
:10168000EED1B9F1000F04D04A463146384600F099
:101690002FF8BDE8F09F000010B51348134908600B
:1016A00000211248C1618160012141610221016173
:1016B000002181620721C1620021C16001624FF4F3
:1016C00000718161002141624FF4827007494860D6
:1016D0000846FFF7E1FB05480068006840F040005D
:1016E00002490968086010BD0030014070250020E3
:1016F00070B505460C46164600F0F2F84FF480002F
:1017000013490860022000F085F8C4F3074000F098
:1017100081F8C4F3072000F07DF8E0B200F07AF819
:10172000B6F5807F04DD4FF480760AA000F0D8FD86
:1017300003E0287800F06EF86D1C301EA6F1010160
:101740008EB2F6D140200249086000F09FF870BDCB
:10175000181802403C3C2D464C4153482D455252EE
:101760004F522D3E3E205350495F464C4153485FF7
:1017700050616765577269746520746F6F206C6182
:10178000726765210A0000002DE9F0410024002560
:10179000002600274FF480000D4908609F2000F0CC
:1017A00039F8FF2000F036F80546FF2000F032F847
:1017B0000646FF2000F02EF8074640200449086046
:1017C000280440EA062040EA07042046BDE8F081EC
:1017D0001818024010B5044600F082F800F056F8E0
:1017E0004FF480000A490860202000F013F8C4F389
:1017F000074000F00FF8C4F3072000F00BF8E0B248
:1018000000F008F840200249086000F03FF810BDE1
:101810001818024010B504464FF48050194908606A
:101820000AE018490868411E164A116020B90020D4
:1018300000F072F8C0B210BD134800688068C0F3B1
:1018400040000028EDD010480068C4604FF480507C
:101850000C4908600AE00B490868411E094A1160FA
:1018600020B9012000F058F8C0B2E4E7064800684B
:10187000806800F001000028EDD003480068C068CF
:10188000C0B2D8E7680000207025002010B5002401
:101890004FF48000104908600520FFF7BBFF4FF4AC
:1018A00080500E49086000BFFF20FFF7B3FF0446D9
:1018B0000A490868411E094A116018B9042000F05D
:1018C0002BF810BD04F001000028EDD140200249A2
:1018D000086000BFF5E7000018180240680000200B
:1018E00010B54FF48000044908600620FFF792FF0E
:1018F00040200149086010BD1818024010B54FF48F
:10190000800004490860AB20FFF784FF40200149B4
:10191000086010BD1818024010B50446214602A008
:1019200000F0DEFC002010BD3C3C2D464C415348ED
:101930002D4552524F522D3E3E2053504920B5C89E
:10194000B4FDB3ACCAB1216572726F72436F646546
:10195000203D2025640A000010B55EA000F0C0FC08
:10196000012268A1684801F053FE684908700846E2
:1019700000780D2827D166A000F0B2FC00221146A5
:1019800060A001F003FB614908700846007888B93F
:101990006AA000F0A5FC01225AA1002001F038FE47
:1019A0005A490870012257A1574801F031FE5749A2
:1019B000087018E04FF480206849886168A000F042
:1019C0008FFC00BFFEE75148007848B14F480178CE
:1019D00069A000F085FC72A000F082FC00BFFEE769
:1019E00079A000F07DFC82A000F07AFC0A228BA195
:1019F000904801F03BFE45490870084600780028F1
:101A000020D18DA000F06CFC9B4B44229B4989485F
:101A100002F02BF83D4908700846007848B996480E
:101A2000016897A000F05CFC94499EA000F058FC6F
:101A300004E036480178A3A000F052FC7D4801F094
:101A400095FA06E04FF4802044498861A3A000F095
:101A500047FCA9A000F044FC012270A1754801F0E8
:101A600005FE2A49087008460078002822D14FF068
:101A70000040AB498861ABA000F032FC7E4B4FF4D4
:101A80008062AD496B4801F0B0FE204908700846FD
:101A9000007848B978480168A8A000F021FCA64960
:101AA000AFA000F01DFC0CE018480178B4A000F0D5
:101AB00017FC06E04FF4802028498861B6A000F0AA
:101AC0000FFC5C4801F052FA01220EA1002001F047
:101AD0009FFD10BD2A2A2A2A2A2A20D5E2CAC7D267
:101AE000BBB8F653504920464C41534820CEC4BCA5
:101AF000FECFB5CDB3CAB5D1E9202A2A2A2A2A2A8F
:101B00000D0A0000313A0000DC0000201C0000201B
:101B1000A1B7464C415348BBB9C3BBD3D0CEC4BC1C
:101B2000FECFB5CDB3A3ACBCB4BDABBDF8D0D0B87F
:101B3000F1CABDBBAF2E2E2E0D0A0000A1B7464C38
:101B4000415348D2D1B3C9B9A6B8F1CABDBBAFCED3
:101B5000C4BCFECFB5CDB3A1A30D0A000010024056
:101B6000A1B6A1B6B8F1CABDBBAFCAA7B0DCA1A3EC
:101B7000A1B7A1B70D0A0000A3A1A3A1CDE2B2BFF6
:101B8000466C617368B9D2D4D8CEC4BCFECFB5CD93
:101B9000B3CAA7B0DCA1A3282564290D0A00000060
:101BA000A3A1A3A1BFC9C4DCD4ADD2F2A3BA535040
:101BB0004920466C617368B3F5CABCBBAFB2BBB316
:101BC000C9B9A6A1A30D0A00A1B7CEC4BCFECFB56A
:101BD000CDB3B9D2D4D8B3C9B9A6A3ACBFC9D2D4F6
:101BE000BDF8D0D0B6C1D0B4B2E2CAD40D0A00005C
:101BF0000D0A2A2A2A2A2A2A20BCB4BDABBDF8D055
:101C0000D0CEC4BCFED0B4C8EBB2E2CAD42E2E2EC5
:101C1000202A2A2A2A2A2A0D0A000000313A46617F
:101C2000744673B6C1D0B4B2E2CAD4CEC4BCFE2EE0
:101C3000747874000C110020A1B7B4F2BFAA2FB4BD
:101C4000B4BDA84661744673B6C1D0B4B2E2CAD47A
:101C5000CEC4BCFE2E747874CEC4BCFEB3C9B9A683
:101C6000A3ACCFF2CEC4BCFED0B4C8EBCAFDBEDD7F
:101C7000A1A30D0A00000000200000202400002085
:101C8000A1B7CEC4BCFED0B4C8EBB3C9B9A6A3AC4F
:101C9000D0B4C8EBD7D6BDDACAFDBEDDA3BA256481
:101CA0000A000000A1B7CFF2CEC4BCFED0B4C8EB8E
:101CB000B5C4CAFDBEDDCEAAA3BA0D0A25730D0AAE
:101CC00000000000A3A1A3A1CEC4BCFED0B4C8EB09
:101CD000CAA7B0DCA3BA282564290A00A3A1A3A13E
:101CE000B4F2BFAA2FB4B4BDA8CEC4BCFECAA7B07C
:101CF000DCA1A30D0A0000002A2A2A2A2A2A20BCD5
:101D0000B4BDABBDF8D0D0CEC4BCFEB6C1C8A1B284
:101D1000E2CAD42E2E2E202A2A2A2A2A2A0D0A0086
:101D200000000240A1B7B4F2BFAACEC4BCFEB3C942
:101D3000B9A6A1A30D0A000030210020A1B7CEC48E
:101D4000BCFEB6C1C8A1B3C9B9A62CB6C1B5BDD732
:101D5000D6BDDACAFDBEDDA3BA25640D0A000000B7
:101D6000A1B7B6C1C8A1B5C3B5C4CEC4BCFECAFD37
:101D7000BEDDCEAAA3BA0D0A2573200D0A0000000D
:101D8000A3A1A3A1CEC4BCFEB6C1C8A1CAA7B0DCA2
:101D9000A3BA282564290A00A3A1A3A1B4F2BFAA6B
:101DA000CEC4BCFECAA7B0DCA1A30D0A000000008F
:101DB00010B503F0A5FD012801D003F057FDFEF793
:101DC00075FC10BD00B593B000BF002001902A48FB
:101DD000006840F08050284908600846006800F01C
:101DE0008050019000BF00BF00BF00200190234839
:101DF000006840F48040214908600846006800F40B
:101E00008040019000BF00BF0120029000040390B9
:101E1000022008904105099119210A914FF4A871F7
:101E20000B9102210C9107210D9102A8FEF710FEE3
:101E300008B100BFFEE70F200E9002200F90002097
:101E400010904FF4A05011904FF480501290052143
:101E50000EA8FEF7BFFC08B100BFFEE7FEF71AFCB4
:101E600041F20101884205D10548006840F48070C4
:101E70000349086013B000BD4038024000700040C4
:101E8000003C02401448006840F4700012490860A9
:101E90001248006840F001001049086000200F4916
:101EA000083108600D4800680D4908400B4908607A
:101EB0000C48091D0860081F006820F48020091FD5
:101EC0000860002005490C3108604FF000600249AD
:101ED000803908607047000088ED00E0003802405B
:101EE000FFFFF6FE10300024FFF736FD09E005483D
:101EF000406980F40040034948614FF47A7003F070
:101F00009FF9F4E7000002402DE9F0410446206803
:101F1000006920F44050E1680843216808612169A4
:101F2000A068084361690843E16940EA0105206847
:101F3000C06849F20C61884328432168C860206862
:101F4000406920F44070A169084321684861E06954
:101F5000B0F5004F7ED1C4492068884203D0C34900
:101F6000206888425DD1FEF70BFD00EBC00101EB5C
:101F7000001061684900B0FBF1F06421B0FBF1F0A2
:101F80000601FEF7FDFC00EBC00101EB00106168EB
:101F90004900B0FBF1F7FEF7F3FC00EBC00101EBE9
:101FA000001061684900B0FBF1F06421B0FBF1F072
:101FB00000EBC00101EB0010A7EB8000322101EB28
:101FC000C0006421B0FBF1F000F0F80006EB400621
:101FD000FEF7D6FC00EBC00101EB00106168490080
:101FE000B0FBF1F7FEF7CCFC00EBC00101EB0010F9
:101FF00061684900B0FBF1F06421B0FBF1F000EB47
:10200000C00101EB0010A7EB8000322101EBC00002
:102010006421B0FBF1F000F00700304421688860D3
:1020200020E1FEF79DFC00EBC00101EB00106168B0
:102030004900B0FBF1F06421B0FBF1F00601FEF7BE
:102040008FFC00EBC00101EB001061684900B0FBA0
:10205000F1F700E045E0FEF783FC00EBC00101EB87
:10206000001061684900B0FBF1F06421B0FBF1F0B1
:1020700000EBC00101EB0010A7EB8000322101EB67
:10208000C0006421B0FBF1F000F0F80006EB400660
:10209000FEF766FC00EBC00101EB0010616849002F
:1020A000B0FBF1F7FEF75CFC00EBC00101EB0010A8
:1020B00061684900B0FBF1F06421B0FBF1F000EB86
:1020C000C00101EB0010A7EB8000322101EBC00042
:1020D0006421B0FBF1F000F0070030442168886013
:1020E000C0E061492068884203D060492068884286
:1020F0005CD1FEF745FC00EBC00101EB001061680C
:102100008900B0FBF1F6FEF73BFC00EBC00101EBF0
:10211000001061688900B0FBF1F06421B0FBF1F0C0
:1021200000EBC00101EB0010A6EB8000322101EBB7
:1021300000106421B0FBF1F000F0F006FEF720FC87
:1021400000EBC00101EB001061688900B0FBF1F009
:102150006421B0FBF1F006EB0016FEF711FC00EB7A
:10216000C00101EB001061688900B0FBF1F7FEF7D8
:1021700007FC00EBC00101EB001061688900B0FBB7
:10218000F1F06421B0FBF1F000EBC00101EB0010B5
:10219000A7EB8000322101EB00106421B0FBF1F0CD
:1021A00000F00F003044216888605BE0FEF7D8FB48
:1021B00000EBC00101EB001061688900B0FBF1F693
:1021C000FEF7CEFB00EBC00101EB00106168890057
:1021D000B0FBF1F06421B0FBF1F000EBC00101EBCA
:1021E0000010A6EB8000322101EB00106421B0FB4F
:1021F000F1F000F0F006FEF7B3FB00EBC00101EBDD
:10220000001061688900B0FBF1F06421B0FBF1F0CF
:1022100006EB0016FEF7A4FB00EBC00101EB00107B
:1022200061688900B0FBF1F7FEF79AFB00EBC00193
:1022300001EB001061688900B0FBF1F06421B0FB94
:10224000F1F000EBC00101EB0010A7EB80003221A0
:1022500001EB00106421B0FBF1F000F00F003044FE
:1022600021688860BDE8F081001001400014014041
:102270002DE9F04104460D4617469846069E21E09A
:10228000701CF8B12EB1FEF70BFAA0EB0800B042BB
:1022900018D92068C06820F4D0702168C860206810
:1022A000406920F0010021684861202084F839004D
:1022B00084F83A0000BF002084F8380000BF0320F3
:1022C000BDE8F081206800682840A84201D10120C3
:1022D00000E00020B842D3D00020F1E700BFFEE7C5
:1022E0000FB4054B10B503A9044A029800F034F866
:1022F00010BC5DF814FB000039420008D800002033
:1023000002480068C0F30220704700000CED00E0B6
:1023100010B5002804DB0A07130E054A135406E023
:102320000A07140E034A00F00F031B1FD45410BDFC
:1023300000E400E018ED00E002E008C8121F08C148
:10234000002AFAD170477047002001E001C1121F36
:10235000002AFBD1704700002DE9FF4F8BB09A4651
:102360000F460546002606E025280BD052460D995B
:1023700090476D1C761C28780028F5D10FB03046A8
:10238000BDE8F08F0024A0460122604900E004432C
:1023900015F8013F203B02FA03F00842F7D12878F4
:1023A0002E2817D115F8010F44F004042A280ED066
:1023B0006FF02F022878A0F1300109290AD808EB24
:1023C000880102EB410100EB01086D1CF2E757F8B0
:1023D000048B6D1C287869283ED006DC0028CDD0FF
:1023E00063280BD0642804D136E0732810D07528F8
:1023F0004BD052460D999047761C85E017F8040B98
:102400008DF8000000208DF80100E946012003E06E
:1024100057F8049B4FF0FF3061074FF0000401D4E0
:102420000AE0641C44450DDA8442FADB19F8041012
:102430000029F6D106E0641C8442FCDB19F8041084
:102440000029F8D1264404E019F8010B52460D99F1
:102450009047641EF8D257E001CF4FF00A0B0028D6
:1024600002DA40422D2102E0210504D52B218DF80E
:102470002410012103E0E10705D02021F7E70DF149
:10248000200908910CE00021F9E701CF4FF00A0B79
:10249000F9E75946FDF721FF01F1300209F8012D56
:1024A0000028F6D1ADEB090000F1200B600701D444
:1024B0004FF00108D84502DDA8EB0B0000E000203A
:1024C0008046002406E009A85246005D0D99904719
:1024D000641C761C08988442F5DB04E030205246E8
:1024E0000D999047761CB8F10001A8F10108F5DCC0
:1024F00005E019F8010B52460D999047761CBBF187
:102500000001ABF1010BF4DC6D1C34E7092801007C
:1025100070B504460D4600202071401EE062294639
:10252000204602F05DF808B1032070BD94F82E1229
:1025300094F82F0241EA00204AF65521884201D042
:102540000220F2E794F86900010694F8680041EA75
:10255000004194F8670041EA002094F866100843AF
:1025600020F07F400D49884201D10020DDE794F83A
:102570008500010694F8840041EA004194F8830044
:1025800041EA002094F88210084320F07F4003497C
:10259000884201D10020C8E70120C6E74641540027
:1025A000024600E0521C107810B110788842F9D130
:1025B000107870470246891E5069801E884201D8F3
:1025C000002070479378906A01FB0300F9E7000050
:1025D0002DE9F04780460C46A17EE07E41EA0020CE
:1025E00010B10020BDE8F087207800F03F00401EC9
:1025F00000EB800101EBC0064FF00109002524E04B
:102600001A48405D205C1949495D2144497840EAF7
:102610000127B9F1000F11D0FF2E0BD2384601F07F
:1026200069FB82463146761C38F8110001F062FBE6
:10263000824501D00020D5E7B94605E04FF6FF708E
:10264000874201D00020CDE76D1C0D2DD8D3207816
:1026500000F0400038B1B9F1000F04D038F816008E
:1026600008B10020BEE70120BCE70000C05B000805
:102670002DE9F04704468946B9F1000F06D1E76815
:1026800017B16069B84215D8012713E049462046C2
:1026900001F046FE0646022E02D20120BDE8F08778
:1026A000701C08B93046F9E76069B04201D930467C
:1026B000F4E74F463D4600BF6D1C6069A84204D850
:1026C0000225BD4201D90020E8E72946204601F055
:1026D00027FE064606B909E0701C08B1012E01D19B
:1026E0003046DBE7BD42E7D10020D7E700BF6FF0FF
:1026F00070422946204602F019FA8046B8F1000FD0
:1027000008D1B9F1000F05D02A464946204602F00B
:102710000DFA8046B8F1000F0BD1E5602069401C2E
:1027200078B12069401E2061607940F0010060713D
:1027300007E0B8F1010F02D14FF0FF3000E00120B7
:1027400005462846AAE700002DE9F34F83B08146ED
:1027500004980068019002E00198401C01900198E3
:1027600000782F28F8D0019800785C28F4D0D9F8A8
:102770001CA000252F4600BF38467F1C01990C5C29
:10278000202C03DB2F2C01D05C2C00D132E0FF2D5C
:1027900003D3062005B0BDE8F08FE4B2812C13DB33
:1027A000E0B2FE2810DC38467F1C01990E5C06EB77
:1027B000042084B2402E01DB7E2E05DD802E01DB5D
:1027C000FE2E01DD0620E5E70121204601F054FA46
:1027D00004460CB90620DDE7802C06DA214671A0FC
:1027E000FFF7DEFE08B10620D4E728466D1C2AF864
:1027F0001040C1E700BF0198C11904980160202C66
:1028000001DA042000E00020804608E0681E3AF863
:102810001040202C02D02E2C00D002E06D1E002D86
:10282000F4D100BF0DB90620B4E700202AF8150046
:102830000B222021D9F8180001F0C8FE002700E083
:102840007F1C3AF817002028FAD03AF817002E28F3
:10285000F6D00FB148F0030800E06D1E25B1681EE8
:102860003AF810002E28F8D10020064602904FF0CA
:10287000080B00BF38467F1C3AF8104004B963E0EB
:10288000202C03D02E2C04D1AF4202D048F00308F4
:10289000F0E70298584501D2AF4214D1BBF10B0FBB
:1028A00002D148F003084FE0AF4201D048F00308DE
:1028B000AF4200D948E02F46082002904FF00B0BA2
:1028C000B006060ED6E7802C09DB204601F012FA8E
:1028D0000021009001F0D0F9044648F00208FF2CD6
:1028E00011DDABF101000299884204D848F00308D9
:1028F000CDF808B0BEE72212D9F818300298411C72
:1029000002911A5419E024B1214629A0FFF748FE8C
:1029100018B15F2448F003080FE0412C04DB5A2C67
:1029200002DC46F0020608E0612C06DB7A2C04DCAF
:1029300046F00106A4F1200084B2D9F818300298BC
:10294000411C02911C5495E700BFD9F8180000788B
:10295000E52803D10520D9F818100870BBF1080F3D
:1029600001D1B006060E06F00C000C2803D006F0CC
:102970000300032801D148F0020808F0020058B90A
:1029800006F00300012801D148F0100806F00C0001
:10299000042801D148F00808D9F8180080F80B8005
:1029A0000020F7E6222A3A3C3E3F7C7F00000000F0
:1029B0002B2C3B3D5B5D00002DE9F04104460E46AB
:1029C0000021204600F0CDF90546EDB9002700BFF3
:1029D0002169206801F004FE054605B113E0606935
:1029E0000078E52802D06069007820B9781C074695
:1029F000B04201D107E000270121204600F07FF816
:102A00000546002DE4D000BF042D00D1072528463F
:102A1000BDE8F0812DE9F04704460021204600F092
:102A2000A0F9074617B13846BDE8F0874FF0FF0917
:102A3000CA464FF6FF70208400BF2169206801F06C
:102A4000CFFD074607B157E065692E780EB9042718
:102A500052E0E87A00F03F08E52E05D008F00800C3
:102A600040B1B8F10F0F05D04FF0FF094FF6FF70DE
:102A700020843AE0B8F10F0F1CD1E06978B306F07A
:102A8000400030B195F80DA026F04006B146E08830
:102A900020844E450AD1687B504507D12946E0691C
:102AA000FFF796FD10B1A9F1010000E0FF2000F052
:102AB000FF091AE0B9F1000F05D1284602F0F6F936
:102AC000504500D118E0A069C07A00F0010038B983
:102AD0000B222846A16901F059FD08B90CE004E079
:102AE0004FF0FF094FF6FF7020840021204600F0D0
:102AF00006F80746002FA0D000BF384694E72DE91E
:102B0000F04104468846E088461CB0B208B120690E
:102B100010B90420BDE8F08121684889C11700EB95
:102B2000D1614911B6FBF1F201FB1261002971D1AB
:102B30002069401C2061E06828B920680089B04203
:102B400068D80420E6E721684889C11700EBD16105
:102B50004911B6FBF1F122689278521E114000290A
:102B600058D1E168206801F0DBFB0546012D01D852
:102B70000220CFE7681C08B90120CBE72068406934
:102B8000A84241D8B8F1000F01D10420C2E7E168A2
:102B90002068FFF76DFD05460DB90720BAE7012D46
:102BA00001D10220B6E7681C08B90120B2E720680D
:102BB00002F0F0F908B10120ACE721684A8901F17F
:102BC0003000002101F002FD29462068FFF7F2FCE9
:102BD0002168C86200270EE0012021680871206882
:102BE00002F0D8F908B1012094E72068C06A401CBF
:102BF0002168C8627F1C20688078B842ECD82068C1
:102C0000C06AC01B2168C862E56029462068FFF7DA
:102C1000D1FC2061E68021684889C11700EBD161B1
:102C20004911B6FBF1F201FB12612268303202EB6E
:102C30004111616100206DE72DE9FE4F0446D4F893
:102C40001880D4F81C900C224146684601F0B1FC73
:102C500000BF9DF80B0000F0010020B3002088F8B1
:102C60000B00E06101260CE033464A4669464046C7
:102C700001F0F0FA2046FFF7CDFE054605B102E06F
:102C8000761C642EF0D300BF642E02D10720BDE86D
:102C9000FE8F042D01D02846F9E79DF80B0088F837
:102CA0000B00C4F81C909DF80B0000F0020060B10E
:102CB000002600E0761C39F816000028FAD106F14B
:102CC00019000D21B0FBF1F700E00127394620463D
:102CD000FFF772FE054645BB781E071E25D0E0882B
:102CE000C11B204600F03DF80546F5B9A06902F089
:102CF000DDF8824600BF2169206801F071FC0546BD
:102D000005B111E0FAB253466169E06901F00CFACD
:102D100001202168087100212046FFF7F0FE0546DA
:102D200015B9781E071EE6D100BFC5B92169206814
:102D300001F056FC054695B920220021606901F09A
:102D400045FC0B22D4E9050101F033FCA069C07AEF
:102D500000F0180061690873012021680871284695
:102D600095E72DE9F04104460E46E680A568012D61
:102D700003D020684069A84202D80220BDE8F08153
:102D80002DB920680078032801D12068456A45B92B
:102D900020680089B04201D80220EFE72068476A26
:102DA00024E021684889C11700EBD16149112268EC
:102DB000927811FB02F812E02946206801F0B0FA7F
:102DC0000546681C08B90120D8E7022D03D3206806
:102DD0004069A84201D80220D0E7A6EB0806464584
:102DE000EAD229462068FFF7E5FB0746E5600FB900
:102DF0000220C3E721684889C11700EBD16149115E
:102E0000B6FBF1F13944216121684889C11700EB13
:102E1000D1614911B6FBF1F201FB12612268303237
:102E200002EB411161610020A8E770B5044601265C
:102E300014B1012C11D100E011E0FEF72DFC4FF48C
:102E4000FA7500BF681E80B2051EFBD1FEF756FD65
:102E5000012000F049F8064601E0012600BF00BF4E
:102E6000304670BD10B50346042013B1012B16D1B6
:102E700000E016E0012904D0022906D003290BD175
:102E800007E04FF42064146006E04FF4805414808F
:102E900002E00124146000BF00BF002001E0042014
:102EA00000BF00BF10BD2DE9F04105460E46144697
:102EB0001F464FF0040815B1012D0ED100E00FE0C0
:102EC00004F5C0644FF6FF7000EA07322103304674
:102ED000FEF728FB4FF0000802E04FF0040800BFA7
:102EE00000BF4046BDE8F08170B50446012514B12D
:102EF000012C0BD100E00BE0FEF746FC06498842AE
:102F000002D125F0010500E0012501E0012500BF07
:102F100000BF284670BD00001840EF002DE9F047C3
:102F20000746884614461D464FF0040915B904208B
:102F3000BDE8F08717B1012F12D100E013E004F5CE
:102F4000C06426033046FEF745FC4FF6FF7000EAEA
:102F5000053231464046FEF70DFB4FF0000902E016
:102F60004FF0040900BF00BF4846E1E770B50546D1
:102F7000284600F022FD044634B9284602F0B0FB92
:102F800004460CB900202860204670BD2DE9F74F9B
:102F900090B091461198012803DD132013B0BDE8CD
:102FA000F08F10A801F060FA0F900F98002801DA56
:102FB0000B20F3E7FA490F9851F820500DB90C2077
:102FC000ECE7002028700F98C0B20C9000200B9006
:102FD0000C98FFF72AFF0190019800F0010008B15A
:102FE0000320DBE7019800F0040008B10A20D5E7D0
:102FF00005F10A0202210C98FFF734FF38B96889FD
:10300000B0F5805F03DC6889B0F5007F01DA01204C
:10301000C4E700BF04AA01210C98FFF723FF10B9F1
:103020000498802801D20120B8E7119808B1002047
:1030300000E03F2082460498A0EB0A000490A9F12A
:10304000010000EA090008B14FF00009B9F1000FD2
:103050001AD16889C11700EBD15149124FF4FA62B5
:1030600092FBF1F1049AB2FBF1F10A914FF0000BDF
:1030700001E00BF1010BCB4830F81B100A9881429C
:10308000F7D8C94830F81B90B9F5007F02D368899A
:10309000B9FBF0F9B9F1000F01D14FF00109B9F115
:1030A000800F01D94FF080090498B0FBF9F8012690
:1030B00040F6F670804500D302264FF6F670804544
:1030C00000D30326032E0CD1082000EB8800698969
:1030D0000844401EB0FBF1F720200390002002902E
:1030E00019E0012E05D108EB4800401C4008C01C27
:1030F00002E04FEA4800001D074668893844401E38
:103100006989B0FBF1F70120039068894FF4804191
:10311000B1FBF0F0029003985044079007983844B0
:103120000690029906980844059005984844A0EB3B
:103130000A000499884201D90E202FE709AA032129
:103140000C98FFF78FFE28B9099818B10998B0F5C7
:10315000004F01D901200990099905980844401EA3
:10316000491E8843099009990598081A0990032E69
:1031700008D10999039808440390099907980844CD
:10318000079001E009980744DDE90301081AC11B13
:103190000298081AB0FBF9F8022E03D140F6F67037
:1031A000804505D3032E05D14FF6F670804501D238
:1031B0000E20F3E6032E02D10C200D9010E0012E1C
:1031C00006D10498B0F5803F02D201200D9007E0AF
:1031D0000498B0F5803F01D2042000E006200D9055
:1031E00000BF119810B1F0200E9043E06A890021D1
:1031F00005F1300001F0EAF905F5F774012060707F
:10320000A0700020E0700D982071FE20607104987D
:1032100050443F21B0FBF1F0FF21B0FBF1F00990E9
:103220003F21099841EA9000A0710998E0713F2080
:10323000207200216172A172E172049820730498D7
:10324000010A61730498010CA1730498010EE173E3
:10325000552185F82E12AA2185F82F12012300226C
:1032600005F130010C98FFF759FE08B1012095E6F1
:10327000F8200E9005F130046A890021204601F003
:10328000A5F90B2249A1204601F093F9B5F80AB03F
:1032900084F80BB04FEA1B21217384F80D9003983A
:1032A000A0730398010AE17301202074032E01D159
:1032B000002001E04FF40070834684F811B04FEA1B
:1032C0001B21A1740498B0F5803F05D20498E074E6
:1032D0000498010A217510E0049884F820000498ED
:1032E000C0F30721212001550498C0F30741222093
:1032F00001550498010E232001550E9860753F205A
:10330000207600216176FF20A076E17684F81CA06B
:103310004FEA1A2161774FEA1A41A1774FEA1A6101
:10332000E17701F09DF80990032E4BD1099884F8BC
:1033300043000998C0F30721442001550998C0F3C0
:103340000741452001550998010E4620015584F892
:103350002470C7F3072125200155C7F30741262014
:103360000155390E27200155022084F82C00002138
:103370002D2001552E2001552F200155012084F8C4
:10338000300031200155062084F8320033200155E9
:10339000802084F84000292084F8420013220BE0AA
:1033A000CC000020CE5B0008E45B0008EBFE904DF3
:1033B00053444F53352E30008AA104F1470001F0E9
:1033C000F8F81FE0099884F827000998C0F307214E
:1033D000282001550998C0F3074129200155099873
:1033E000010E2A200155A775390AE175802084F85D
:1033F0002400292084F8260013227FA104F12B0049
:1034000001F0D7F8552084F8FE01AA2140F2FF1000
:1034100001550123524621460C98FFF77FFD08B164
:103420000120BBE5032E06D101230AF10602214645
:103430000C98FFF773FD079808904FF0000B5FE0C2
:103440006A890021204601F0C1F80E980990032EE8
:1034500014D0012E01D16D4801E06FF0FF000999F1
:1034600008430990099820700998000A607009982B
:10347000000CA0700998000EE07019E0099860F047
:10348000FF000990099820700998000A6070099857
:10349000000CA0700998000EE070FF202071FF2141
:1034A0006171A171E17120726172A1720F21E172EB
:1034B0000898411C02460123089121460C98FFF709
:1034C0002DFD08B1012069E56A890021204601F03F
:1034D0007DF8012009900EE00898411C0246012366
:1034E000089121460C98FFF719FD08B1012055E518
:1034F0000998401C09900998B842EDD30BF1010BD3
:10350000BBF1000F9CD0032E01D1484600E0029889
:10351000834600BF0898411C0246012308912146BA
:103520000C98FFF7FBFC08B1012037E5ABF1010077
:10353000B0F1000BEED1032E49D152202070607003
:103540006120A0704120E070722084F8E4017221B3
:1035500040F2E51001554121401C01556121401CFC
:103560000155A8F1010084F8E801C0F3072140F2F9
:10357000E9100155A8F10100C0F307414FF4F570BF
:103580000155A8F10100010E40F2EB100155022097
:1035900084F8EC01002140F2ED100155401C01556A
:1035A000401C0155552084F8FE01AA2140F2FF106D
:1035B000015501230AF1010221460C98FFF7AEFCE8
:1035C00001230AF1070221460C98FFF7A7FC00220D
:1035D00011460C98FFF746FC08B10120DEE40020FC
:1035E000DCE400004E4F204E414D45202020204677
:1035F00041543332202020004E4F204E414D452073
:1036000020202046415420202020200000FFFF00E1
:10361000F7B582B016460398019001A800F024FF88
:103620000546002D02DA0B2005B0F0BD0E4850F81B
:1036300025400CB100202070029810B100200299A2
:1036400008700949029841F82500029808B1012E36
:1036500001D00020E8E7002203A902A800F078FBCF
:1036600007463846E0E70000CC0000202DE9F7438C
:10367000ADF50C7D0546164625B909200DF50F7DE3
:10368000BDE8F0830020286006F01F0626F0010246
:103690008DA983A800F05CFB0746002F74D180A899
:1036A0008990CDF828D283A88D9900F07DFD07463A
:1036B000889C0FB904B9062706F01C0000285CD0CE
:1036C0004FB1042F03D183A8FFF7B6FA074646F09F
:1036D0000806889C09E0E07A00F0110008B107278D
:1036E00003E006F0040000B10827002F55D106F0D2
:1036F0000800002851D000F0B3FE804684F80E8008
:103700004FEA1821E1734FEA184121744FEA18611A
:10371000617484F816804FEA1821E1754FEA184168
:1037200021764FEA186161760020E072207700214F
:103730006177A177E1772146839800F0BAFE814650
:103740000021204601F0AAFB012083990871B9F1FC
:10375000000F22D08398D0F82C804946839801F03E
:1037600067FB0746CFB9A9F101008399C8604146BC
:10377000839800F035FF07460FE077B9E07A00F054
:10378000100010B1042708E02DE006F0020020B17F
:10379000E07A00F0010000B1072747B906F0080001
:1037A00008B146F020068398C06AE8612C62D7B958
:1037B000AE710020E8712146839800F07AFE2861FE
:1037C000E07F0106A07F41EA0041607F41EA0020DE
:1037D000217F0843E8600020A860A86183982860E2
:1037E0002868C088A880384648E72DE9FF4F85B093
:1037F000044615469A46DDF818B00020CAF80000C5
:10380000204601F06DFF0490049818B1049809B0A7
:10381000BDE8F08FE07908B1E079F8E7A07900F031
:10382000010008B90720F2E7D4E90210401A02901B
:103830000298854200D9029DBAE021684989A068B2
:10384000B0FBF1F201FB1200002877D12168498911
:10385000A068B0FBF1F021688978491E084000F0AB
:10386000FF09B9F1000F17D1A06810B920690390C2
:1038700004E06169206800F053FD0390039802287A
:1038800002D20220E071C2E70398401C10B9012067
:10389000E071BCE70398606161692068FEF78AFE09
:1038A000064616B90220E071B1E74E44206840890F
:1038B000B5FBF0F8B8F1000F2DD009EB0800216836
:1038C0008978884203D920688078A0EB09082168AC
:1038D0004878434632465946FFF7E5FA10B10120D1
:1038E000E07194E7A07900F0400078B1A069801BF6
:1038F00040450BD2A169891B23685B8901FB03B09A
:1039000021684A8904F1240100F053FE20684089AF
:1039100000FB08F742E0A069B04220D0A07900F097
:10392000400080B121684878012304F12401A26994
:10393000FFF7F4FA18B10120E07168E710E0A07910
:1039400020F04000A071216848780123324604F13C
:103950002401FFF7A8FA10B10120E07157E7A66132
:1039600021684989A068B0FBF1F201FB12002168CF
:1039700049890F1AAF4200D92F4621684989A068AA
:10398000B0FBF1F201FB120104F1240008443A46B5
:1039900001460190584600F00CFE00BFBB44A068F1
:1039A0003844A060DAF800003844CAF80000ED1B83
:1039B000002D7FF442AF002029E72DE9F0410446B5
:1039C000204601F08DFE0746002F4CD1A07900F073
:1039D0002000002847D0A07900F0400078B121688D
:1039E0004878012304F12401A269FFF797FA10B186
:1039F0000120BDE8F081A07920F04000A071E169CC
:103A0000206800F0EDFD0746002F2CD1256AE87AEA
:103A100040F02000E872207B2877A089010A6977AE
:103A2000E068010CA977E068010EE9772846216972
:103A300001F034FA00F014FD0646AE75310AE9755E
:103A4000310C2976310E69760020A8740021E974C2
:103A5000A07920F02000A071012021680871206861
:103A600001F034FA07463846C3E72DE9FF4F83B02B
:103A7000044615469B46049801900020CBF80000B0
:103A8000204601F02DFE0290029818B1029807B06E
:103A9000BDE8F08FE07908B1E079F8E7A07900F0AF
:103AA000020008B90720F2E7A0682844A16888420C
:103AB00000D20025CFE021684989A068B0FBF1F26F
:103AC00001FB120000287ED121684989A068B0FB63
:103AD000F1F021688978491E084000F0FF0ABAF128
:103AE000000F1ED1A06838B9276957B90021206896
:103AF000FEF7BEFD074604E061692068FEF7B8FDE9
:103B0000074607B9AAE0012F02D10220E071BEE703
:103B1000781C10B90120E071B9E76761206900B92C
:103B20002761A07900F0400078B12168487801232E
:103B300004F12401A269FFF7F1F910B10120E0714D
:103B4000A5E7A07920F04000A07161692068FEF728
:103B500031FD064616B90220E07198E75644206808
:103B60004089B5FBF0F9B9F1000F31D00AEB09003B
:103B700021688978884203D920688078A0EB0A09F7
:103B8000216848784B4632460199FFF7C7F910B1D2
:103B90000120E0717BE7A069801B484511D2A06934
:103BA000831B2068B0F80AC0019803FB0C01206851
:103BB000428904F1240000F0FCFCA07920F04000D0
:103BC000A071206800E017E0408900FB09F835E0AB
:103BD000A069B0420FD0D4E9020188420BD221681B
:103BE00048780123324604F12401FFF75CF910B153
:103BF0000120E0714BE7A66121684989A068B0FB0C
:103C0000F1F201FB120021684989A1EB0008A845E7
:103C100000D9A84621684989A068B0FBF1F201FBF0
:103C2000120104F12400084442460090019900F07A
:103C3000C0FCA07940F04000A07100BF0198404452
:103C40000190A0684044A060DBF800004044CBF83D
:103C50000000A5EB0805002D7FF42DAF00BFD4E9CF
:103C60000201884201D9A068E060A07940F02000FC
:103C7000A07100200BE700002DE9F04102460F463D
:103C8000802A01DA10462FE01FB1184B45F220566A
:103C900002E0174B45F220560025102416E0A6EB53
:103CA000050C0CEBDC7805EB68014FEA410C33F8AE
:103CB0001CC0944500D10BE04FEA410C33F81CC006
:103CC000944501DA0D4600E00E46641E002CE6D154
:103CD00000BF34B14FF0010C0CEB410C33F81CC0A9
:103CE00001E04FF0000C6046BDE8F0817EB00108B5
:103CF000FA5B000830B5802807DA612823DB7A28D0
:103D000021DCA0F12005A8B21DE00C2200234FF415
:103D1000F77400BFE51A03EB55010B4D35F8115050
:103D2000854200D10AE0084D35F81150854201DA8C
:103D30000B4600E00C46551E2A1EEBD100BF12B107
:103D4000024D35F8110030BD02050308DE080308F6
:103D50002DE9F74F8AB000210A9801600B9800F016
:103D600083FB09900998002803DA0B200DB0BDE809
:103D7000F08FE949099851F820400CB90C20F5E77B
:103D80000A980460207878B16078FFF7ADF8814632
:103D900009F0010040B90C9820B109F0040008B105
:103DA0000A20E3E70020E1E7002020700998607016
:103DB0006078FFF73AF8814609F0010008B1032066
:103DC000D4E70C9820B109F0040008B10A20CDE72F
:103DD000607804F10A020221FFF744F838B96089DB
:103DE000B0F5007F03DB6089B0F5805F01DD012065
:103DF000BCE7002739462046FEF78AFB0546012D21
:103E000001D09DBB32E000261AE004F5F77000EB0C
:103E1000061898F8040070B198F80B00010698F89D
:103E20000A0041EA004198F8090041EA002098F8A8
:103E30000810084300E0002002A941F82600761C83
:103E4000042EE2D3002606B1761E00BF02A850F869
:103E5000267027B139462046FEF75AFB00E00220C3
:103E600005461DB1701C06460428EFD3032D01D171
:103E700001207BE70DB10D2078E73B20015D94F830
:103E80003C0041EA00206189884201D00D206DE7A5
:103E90004620015D94F8470041EA002ABAF1000F7C
:103EA0000ED194F85700010694F8560041EA0041FB
:103EB00094F8550041EA002094F8541040EA010AB1
:103EC000C4F818A04020005DE070E078012804D01C
:103ED000E078022801D00D2048E7E0780AFB00FADC
:103EE0003D20005DA070A07818B1A078411E084068
:103EF00008B10D203AE74120015D94F8420041EA03
:103F0000002020816089C11700EBD161491122890D
:103F100092FBF1F301FB132109B10D2026E74320A9
:103F2000015D94F8440041EA00200890089870B9B7
:103F300094F85300010694F8520041EA004194F8C5
:103F4000510041EA002094F85010084308903E20A8
:103F5000015D94F83F0041EA00200190019808B902
:103F60000D2003E76089C11700EBD1614911228957
:103F700092FBF1F20199514411440791DDE90710D8
:103F8000884201D20D20F1E6DDE90710401AA17840
:103F9000B0FBF1FBBBF1000F01D10D20E6E60125DE
:103FA00040F6F670834500D302254FF6F670834540
:103FB00000D303250BF102006061E76101983844EA
:103FC000206207983844A062032D16D1208908B1D9
:103FD0000D20CBE694F85F00010694F85E0041EAFC
:103FE000004194F85D0041EA002094F85C10084319
:103FF000606260698000069014E0208908B90D2095
:10400000B4E6206A50446062022D02D1606940002B
:1040100007E0207D00F00100616901EB410100EB48
:10402000510006906089401E069908446189B0FBE2
:10403000F1F0A169884201D90D2097E64FF0FF30D9
:104040002061E06080206071032D5AD194F86010E7
:1040500094F8610041EA0020012852D1791C2046E1
:1040600000F0BEFAE8BB0020607194F82E1294F8BC
:104070002F0241EA00204AF65521884241D13320DF
:10408000005D01063220005D41EA00413120005D03
:1040900041EA002094F8301008432049884230D18A
:1040A00094F81702010694F8160241EA004194F8C8
:1040B000150241EA002094F8141208431849884276
:1040C0001FD194F81B02010694F81A0241EA00413C
:1040D00094F8190241EA002094F81812084320616C
:1040E00000E00EE094F81F02010694F81E0241EA77
:1040F000004194F81D0241EA002094F81C12084384
:10410000E060257007480088401C80B2054908809F
:10411000E08000202AE60000CC00002052526141DD
:1041200072724161D4000020F0B504461D464D7303
:104130000F27CF7200270F738F76BC4681F81BC004
:10414000571E07EB870C0CEBC706002738463B468B
:1041500000BF4FF6FF77B84203D03746761C34F8DD
:104160001700DFF840C01CF803C001F80C0007126C
:10417000DFF830C01CF803C08C448CF8017008B91B
:104180004FF6FF705F1C3B460D2FE2D34FF6FF77D3
:10419000B84202D034F816700FB942F040020A70EB
:1041A000F0BD0000C05B00082DE9F3410446019812
:1041B00000782F2803D0019800785C2802D101985C
:1041C000401C01900020A06001980078202807D2B0
:1041D00000212046FEF7C5FD05460020606128E06D
:1041E00000BF01A92046FEF7AFFA054605B11FE062
:1041F0002046FEF70FFC0546A069C67A3DB1042DA6
:1042000004D100BF06F0040000B9052510E006F057
:10421000040000B10CE06769F87A00F0100008B9FA
:10422000052505E03946206800F043F9A060D8E78D
:1042300000BF2846BDE8FC8113B50C464FF47A73E5
:10424000012269460248FCF7A3FF00981CBD00004C
:10425000302500202DE9FF4F83B0074691461E46CA
:104260000B223846049900F0A4F9052E19D9B0465E
:1042700012E039F802BB00250CE0584668F35F00F5
:1042800080464FEA6B0B08F4803010B1234888EA6F
:1042900000086D1C102DF0D3B9F800000028E8D1FB
:1042A0004646072500BF06F00F0000F1300ABAF1BC
:1042B000390F03DD0AF1070000F0FF0A28466D1EE2
:1042C00001A901F800A03609002EECD17E20485546
:1042D00000240BE0385D812807DB385DFE2804DC14
:1042E000681EA04200D106E0641C641CAC4202D2ED
:1042F000385D2028EED100BF00BF082D04D228462B
:104300006D1C01A9095C00E020212046641C395481
:10431000082CF2D307B0BDE8F08F00002110010097
:104320002DE9F05F04460D46022D02D36069A842D4
:1043300002D84FF001098FE04FF0FF3920780128B3
:1043400004D002283CD003287ED157E02F4607EB4B
:1043500057076089B7FBF0F0216A00EB010A51466C
:10436000204600F03DF900B175E038467F1C6189B8
:10437000B0FBF1F201FB120104F1300010F80180F2
:104380006089B7FBF0F0216A00EB010A5146204634
:1043900000F026F900B15EE06089B7FBF0F100FBA8
:1043A000117104F13000405C48EA002805F001007A
:1043B00010B14FEA181001E0C8F30B0081464AE043
:1043C000B4F80AA00AEBDA704010B5FBF0F0216AED
:1043D00000EB010B5946204600F002F900B13AE02B
:1043E00068006189B0FBF1F201FB120104F13000B9
:1043F0000E183078717840EA01292CE0B4F80AA050
:104400004FEAEA700AEB90708010B5FBF0F0216A79
:1044100000EB010B5946204600F0E2F800B11AE02B
:10442000A8006189B0FBF1F201FB120104F1300038
:104430000E18F0780006B17840EA0140717840EA41
:1044400001203178084300E002E020F0704902E0EA
:104450004FF0010900BF00BF4846BDE8F09F0000D3
:10446000004870470000214670B502464FF0FF300B
:104470001568E5B1116800E0491C0D78202D02D3C4
:104480000D783A2DF8D10D783A2D0FD1146814F823
:10449000015BA5F130030A2B07D28C4205D1022B18
:1044A00003D218464D1C2946156070BD002000BF80
:1044B000FBE710B502468C7ECB7E44EA03201378DE
:1044C000032B05D10C7D4B7D44EA032340EA0340D6
:1044D00010BD00001CB50124FBF7A2FF0AA0FDF7E8
:1044E000FFFE17A0FDF7FCFE2248012100234A022F
:1044F000CDE9001020A1244801F0D2F904460CB106
:1045000000F0BAFF00BFFEE7D5E2CAC7D2BBB8F6DB
:104510005BD2B0BBF05D2D53544D3332C8ABCFB539
:10452000C1D0BFAAB7A2B0E52D4672656552544FFF
:1045300053B9CCBCFEBFE2C0FDB3CCA3A10A0A00B4
:10454000B0B4CFC24B455931B9D2C6F0C8CECEF1C6
:10455000A3ACB0B4CFC24B455932BBD6B8B4C8CE69
:10456000CEF1A3ACB2E2CAD45350492D464C4153CC
:10457000480A0000100000204170705461736B43C2
:10458000726561746500000069030008F0B50346B8
:104590001C460D46002000BF161EA2F1010207D0E6
:1045A00014F8017B15F801CBA7EB0C06301EF3D0F5
:1045B000F0BD70B503460C4603E014F8015B03F848
:1045C000015B151EA2F10102F7D170BD30B50346A3
:1045D00001E003F8011B141EA2F10102F9D130BD64
:1045E00070B504460D460026E06AA84210D0204669
:1045F00000F0D0FC06465EB9607801232A4604F13B
:104600003001FEF750FC10B14FF0FF350126E56296
:10461000304670BD2DE9F04105460E461C4807683E
:104620001C480068001D00F0DEFC50B91948006805
:1046300090F82C10012088401749096881431648DA
:104640000160681C38B936B112480168091D134869
:1046500000F007FD1AE07C190E4800684460BC4277
:1046600007D20C480168091D0D48006800F0DFFC06
:104670000CE008480168091D0A48006800F0D7FCF2
:1046800009480068844201D207480460BDE8F0810F
:10469000800000206C00002084000020982800206A
:1046A00074000020700000209C00002010B504461B
:1046B00000F0E4FC23480068401C224908602248BE
:1046C000006840B9204804600846006801280DD100
:1046D00000F036F90AE01D48006838B91A48006849
:1046E000C06AE16A884201D8174804601848006827
:1046F000401C1749086094F82C1001208840154987
:104700000968084313490860E16A01EB8101124A14
:1047100002EB8100211D00F0A4FC00F0F1FC0B482D
:10472000006868B108480068C06AE16A884207D238
:104730004FF0805009490860BFF34F8FBFF36F8F70
:1047400010BD00007C0000206C00002088000020CC
:104750009800002084000020C825002004ED00E01F
:1047600070B523E000F05EFF1348006808B901202F
:1047700000E00020054601F085F9BDB900F07EFC9F
:104780000D48C068C468201D00F02DFC0B4800686F
:10479000401E0A4908600A480068401E084908602F
:1047A00000F0AEFC204600F00DF800BF04480068A1
:1047B0000028D7D170BD0000842800207C00002094
:1047C0007800002010B50446206B00F0CFFC204696
:1047D00000F0CCFC10BD000030B54FF4104317487A
:1047E00000F007042CB1C01D20F00700134C041B7F
:1047F0001B1B0246124C22600024114D6C60D01825
:10480000083820F007000F4C206000240D4D2D6863
:104810006C600C4D2D682C601146441A4C60094C9C
:1048200024680C60084D4C682C60084D4C682C6066
:104830004FF00044064D2C6030BD0000AC28002035
:10484000A8000020B0000020B8000020B400002024
:10485000BC00002000BFFFF783FF06480068012866
:10486000F9D94FF0805004490860BFF34F8FBFF370
:104870006F8FF0E7C825002004ED00E02DE9FF5F11
:1048800081460E469246DDE90E7B109CAAF101009E
:10489000216B01EB800828F0070808F0070008B931
:1048A000012000E0002028B940F22B321AA120A0FC
:1048B000FDF716FD002507E0715D04F13400415558
:1048C000705D00B902E06D1C102DF5D300BF002112
:1048D00043200155202F00D31F27E762201D00F041
:1048E000A3FB04F1180000F09FFB2461C7F1200036
:1048F000A06164620020606484F848004946404634
:10490000039A00F07FFA2060BBF1000F01D0CBF8D2
:104910000040BDE8FF9F00002E2E5C467265655288
:10492000544F535C7372635C7461736B732E6300DA
:104930004572726F723A25732C25640D0A000000CF
:1049400010B5002407E004EB84010F4A02EB81005C
:1049500000F05DFB641C202CF5D30C4800F057FBE5
:104960000B4800F054FB0B4800F051FB0A4800F0E4
:104970004EFB0A4800F04BFB044809490860044814
:104980000849086010BD0000C82500204828002004
:104990005C2800207028002084280020982800200F
:1049A000700000207400002010B50146164800E099
:1049B000006803688B42FBD30246436813448B4272
:1049C00004D143684C682344436001460A464B685F
:1049D00013440468A34211D10C4C03682468A34219
:1049E00008D04B680468646823444B6003681B6804
:1049F0000B6005E0054B1B680B6001E003680B6072
:104A0000884200D0016010BDA8000020B000002046
:104A10000A490968096809B9012100E0002121B1AA
:104A20004FF0FF31064A116006E004490968C96881
:104A3000C868034A41681160704700007000002098
:104A40009C0000200C480068401C08B9012000E0D0
:104A5000002028B940F20F1208A112A0FDF740FC77
:104A600000BF502080F31188BFF34F8FBFF36F8FCB
:104A700000BF00BFFEE70000C00000202E2E5C46F5
:104A800072656552544F535C706F72745C52564439
:104A9000535C41524D5F434D34465C706F72742ECF
:104AA000630000004572726F723A25732C25640D05
:104AB0000A00000070B5054600262C462DB940F2CC
:104AC00081620EA113A0FDF70BFC164960698842B4
:104AD00001D1012000E0002070B11349A06A884292
:104AE00001D1012000E0002030B9A06A08B90120FE
:104AF00000E0002000B10126304670BD2E2E5C463D
:104B000072656552544F535C7372635C7461736B6E
:104B1000732E63004572726F723A25732C25640DF3
:104B20000A00000098280020702800202DE9F05F7E
:104B300004460E461746022E02D36069B04202D8E0
:104B40004FF00208B3E02078012804D0022852D0A8
:104B5000032872D172E0B14609EB59096089B9FBAB
:104B6000F0F0216A00EB010A51462046FFF738FDBC
:104B70008046B8F1000F00D098E0484609F10109DD
:104B80006189B0FBF1F201FB120104F130000D1854
:104B900006F0010020B1F9B2287861F31F1000E09F
:104BA00038462870012020716089B9FBF0F0216A35
:104BB00000EB010A51462046FFF712FD8046B8F18E
:104BC000000F00D072E06089B9FBF0F100FB119199
:104BD00004F130000D1806F0010010B1C7F3071002
:104BE00005E0287800F0F000C7F30321084328709F
:104BF000012020715AE0B4F80AA00AEBDA704010E4
:104C0000B6FBF0F0216A00EB010B59462046FFF796
:104C1000E7FC8046B8F1000F00D047E070006189E2
:104C2000B0FBF1F201FB120104F130000D182F70FE
:104C3000380A68700120207138E034E0B4F80AA026
:104C40004FEAEA700AEB90708010B6FBF0F0216A30
:104C500000EB010B59462046FFF7C2FC8046B8F135
:104C6000000F00D022E0B0006189B0FBF1F201FB3F
:104C7000120104F130000D18E8780006A97840EA26
:104C80000140697840EA01202978084300F070402B
:104C900007432F70380A6870380CA870380EE87017
:104CA0000120207102E04FF0020800BF00BF404623
:104CB000BDE8F09F2DE9F04104464FF0000800F0F8
:104CC000B1FC3E48006808B9FFF786FD3C48006823
:104CD000204000285FD1A4B1083404F0070080B15F
:104CE00004F00700C0F10800044404F0070008B90C
:104CF000012000E0002020B9BF2232A13AA0FDF738
:104D0000EFFA002C47D03C480068844243D83B4E21
:104D10003046056801E02E462D686868A04202D240
:104D200028680028F7D125480068854233D03068CC
:104D300000F10808286830606868001B102813D943
:104D40002F1907F0070008B9012000E0002020B962
:104D5000EC221CA124A0FDF7C3FA6868001B786050
:104D60006C603846FFF720FE234968680968081A16
:104D7000214908600846006821490968884203D231
:104D80001D4800681E4908600D49686809680843A5
:104D900068600020286000F075FE08F0070008B980
:104DA000012000E0002028B94FF4967205A10EA062
:104DB000FDF796FA4046BDE8F0810000B000002003
:104DC000BC0000202E2E5C4672656552544F535C29
:104DD000706F72745C4D656D4D616E675C68656186
:104DE000705F342E630000004572726F723A257353
:104DF0002C25640D0A000000B4000020A80000204B
:104E0000B8000020001F4FF080730360001F21F0E6
:104E100001030360001F054B036014380260001F8C
:104E20006FF002030360203870470000454A000815
:104E30002DE9F04104460E46022E02D36069B042CD
:104E400001D8022727E0002721E031462046FFF75E
:104E500067FA054605B91DE0012D01D1022719E0C9
:104E6000681C08B9012715E0002231462046FFF7EB
:104E70005DFE074607B10DE02069401C30B1206996
:104E8000401C2061607940F0010060712E4660692D
:104E9000B042DAD800BF3846BDE8F08181760B0A0F
:104EA000C3760A0C02750B0E4375704730B5014688
:104EB00000200B2200BF431003EBC01411F8015B6C
:104EC0006319D8B2531E1A1EF5D130BD70B5044611
:104ED000204600F05FF80546002D59D120780328C0
:104EE0004FD1607901284CD16289002104F1300052
:104EF000FFF76CFB552184F82E12AA2184F82F129B
:104F0000522084F830005221312001556121322095
:104F10000155412133200155722184F8141284F87F
:104F20001512412184F81612612184F81712217C90
:104F300084F81812208A010A84F819122069010CD9
:104F400084F81A122069010E84F81B12217B84F860
:104F50001C12A089010A84F81D12E068010C84F873
:104F60001E12E068010E84F81F12E069401CE06226
:104F70006078012304F13001E26AFDF7CFFF0020E1
:104F80006071607800221146FDF76CFF00B10125C9
:104F9000284670BD2DE9F041044600272079F8B17C
:104FA000E56A607801232A4604F13001FDF7B6FF77
:104FB00008B1012714E000202071206A281AA16995
:104FC00088420DD2E67809E0A069054460780123A3
:104FD0002A4604F13001FDF7A1FF761E022EF3D21E
:104FE0003846BDE8F08101460A69D1E90130986090
:104FF000D1E9010358605068884201D18868506047
:10500000002008611068401E10601068704700F1B1
:10501000080141604FF0FF31816000F10801C1607B
:10502000016100210160704700210161704710B5E6
:1050300002460B685C1C0CB9106907E002F108001D
:1050400000E04068446824689C42FAD944684C6097
:105050004C68A160886041600A611468641C146037
:1050600010BD42684A6093688B6093685960916094
:10507000086103685B1C03607047000010B500BF47
:10508000502080F31188BFF34F8FBFF36F8F00BFA5
:105090000B480068401C0A4908600846006801285F
:1050A0000DD108480068C0B208B9012000E0002016
:1050B00028B940F2B91204A10DA0FDF711F910BDF5
:1050C000C000002004ED00E02E2E5C4672656552A3
:1050D000544F535C706F72745C525644535C41522F
:1050E0004D5F434D34465C706F72742E6300000058
:1050F0004572726F723A25732C25640D0A00000008
:1051000010B50B48006828B94FF4E07209A113A04C
:10511000FDF7E6F806480068401E054908600846A5
:10512000006820B9002080F3118800BF00BF10BDC7
:10513000C00000202E2E5C4672656552544F535CB1
:10514000706F72745C525644535C41524D5F434DD4
:1051500034465C706F72742E630000004572726F8B
:10516000723A25732C25640D0A00000070B50646BE
:105170003546002E35D0083D2C461A49606809682E
:10518000084008B1012000E0002028B94FF4A072C7
:1051900015A11EA0FDF7A4F8206808B9012000E0C1
:1051A000002028B940F241120FA118A0FDF798F88D
:1051B0000C4960680968084098B1206888B90949B5
:1051C000606809688843606000F02CFA13496068E1
:1051D00009680844114908602046FFF7E5FB00F024
:1051E00051FC70BDBC0000202E2E5C4672656552DD
:1051F000544F535C706F72745C4D656D4D616E679A
:105200005C686561705F342E630000004572726FE8
:10521000723A25732C25640D0A000000B4000020AA
:10522000064800684FF47A71B0FBF1F0401E4FF071
:10523000E02148610720086170470000000000205D
:1052400070B504460025ACB10F48006808B90120CC
:1052500000E0002028B940F2CF420CA111A0FDF7D8
:105260003FF800F0DFF900212046FFF7D3F900F006
:1052700009FC05463DB94FF080500E490860BFF368
:105280004F8FBFF36F8F70BDA40000202E2E5C46A1
:1052900072656552544F535C7372635C7461736BD7
:1052A000732E63004572726F723A25732C25640D5C
:1052B0000A00000004ED00E070B50546FFF7DEFED1
:1052C00015B92D48006800E028460446201DFFF768
:1052D0008AFE78B9E06A00EB8000284951F8200086
:1052E00040B994F82C100120884025490968814371
:1052F00023480160A06A18B104F11800FFF773FE9B
:1053000020480068401C1F4908601B480068844210
:1053100009D1211D1C48FFF7A4FE1C480068401C51
:105320001A49086009E01A480068401E18490860D8
:105330002046FFF747FAFFF76BFBFFF7E1FE154842
:105340000068C0B10C480068844214D1124800685B
:1053500008B9012000E0002028B940F265420FA101
:1053600014A0FCF7BDFF4FF0805016490860BFF352
:105370004F8FBFF36F8F70BD6C000020C8250020D9
:10538000840000209800002084280020780000205D
:105390007C00002088000020A40000202E2E5C4607
:1053A00072656552544F535C7372635C7461736BC6
:1053B000732E63004572726F723A25732C25640D4B
:1053C0000A00000004ED00E070B505462C462DB93A
:1053D00040F2AB621AA120A0FCF782FF74B322480E
:1053E000006884422AD0FFF749FE2046FFF762FB9F
:1053F00010B3201DFFF7F7FD94F82C100120884012
:105400001A490968084319490860E16A01EB8101FA
:10541000174A02EB8100211DFFF723FE1249E06AC3
:105420000968C96A884207D34FF080501149086063
:10543000BFF34F8FBFF36F8FFFF762FE70BD0000A9
:105440002E2E5C4672656552544F535C7372635CDA
:105450007461736B732E63004572726F723A2573B9
:105460002C25640D0A0000006C0000208400002040
:10547000C825002004ED00E01CB5184800210B46AB
:105480008022CDE9001016A1174800F009FA044661
:10549000012C15D100BF502080F31188BFF34F8F2E
:1054A000BFF36F8F00BF4FF0FF301049086001203D
:1054B0000F49086000200F49086000F02BF90BE04D
:1054C000601C08B1012000E0002028B940F284727D
:1054D00009A10FA0FCF704FF1CBD0000A0000020E4
:1054E00049444C4500000000554800089C0000203D
:1054F00088000020800000202E2E5C4672656552D8
:10550000544F535C7372635C7461736B732E6300EE
:105510004572726F723A25732C25640D0A000000E3
:1055200070B50546FFF7AAFD15B92C48006800E0E4
:1055300028460446201DFFF756FD78B9E06A00EBC7
:105540008000274951F8200040B994F82C10012020
:10555000884024490968814322480160A06A18B143
:1055600004F11800FFF73FFD211D1F48FFF779FDEB
:10557000FFF7C6FD1D48006828B1FFF77FFDFFF764
:1055800047FAFFF7BDFD15480068844224D117484B
:105590000068A8B11648006808B9012000E00020A2
:1055A00028B940F2576213A118A0FCF799FE4FF0FA
:1055B00080501A490860BFF34F8FBFF36F8F0BE025
:1055C0000948006816490968884203D10020034948
:1055D000086001E000F02EF870BD00006C000020B3
:1055E000C825002084000020982800208800002082
:1055F000A40000202E2E5C4672656552544F535C09
:105600007372635C7461736B732E63004572726FA7
:10561000723A25732C25640D0A00000004ED00E0A9
:105620007C00002002480068401C01490860704767
:10563000A400002010B51B48006818B101201A49C9
:1056400008602DE000201849086018480068B0FA8A
:1056500080F0C0F11F0404EB8400154951F82000CC
:1056600008B1012000E0002028B940F6F62211A17F
:1056700016A0FCF735FE04EB84010D4A02EB810015
:1056800041684968416000F1080142688A4202D1DC
:105690004168496841604168C968104A116000BFAB
:1056A00010BD0000A4000020900000208400002015
:1056B000C82500202E2E5C4672656552544F535CFF
:1056C0007372635C7461736B732E63004572726FE7
:1056D000723A25732C25640D0A0000006C0000202E
:1056E00070B505462C4684B1206870B120680078FA
:1056F00058B12068C088A188884206D121684878BE
:10570000FDF7F2FB00F0010008B1092070BD002098
:10571000FCE700001CB5404800684049884201D0C1
:10572000012000E0002028B940F259123CA146A017
:10573000FCF7D6FD384800683849491E884201D038
:10574000012000E0002028B94FF4AD7234A13EA042
:10575000FCF7C6FD404C204600780190FF20214612
:1057600008700846007800909DF8000000F0F000F6
:105770009DF80010884201D1012000E0002028B9E6
:1057800040F2731226A130A0FCF7AAFD9DF800009C
:1057900000F050003149087007203149086009E0E5
:1057A0002F480068401E2E4908609DF80000400602
:1057B000000E00909DF8000000F080008028EFD0DF
:1057C000274800680002264908600846008800F45F
:1057D000E06008602049019808700F482030006898
:1057E00040F470000C49203108600846006840F021
:1057F00070400860FFF714FD00201A490860FAF7AE
:10580000EDFC1948006840F0404017490860FAF77D
:10581000D5FC00201CBD000000ED00E071C20F416E
:105820002E2E5C4672656552544F535C706F7274D5
:105830005C525644535C41524D5F434D34465C705C
:105840006F72742E630000004572726F723A257396
:105850002C25640D0A00000000E400E0C4000020D4
:10586000C8000020C000002034EF00E010B500BFE9
:10587000502080F31188BFF34F8FBFF36F8F00BFAD
:1058800000F04EF818B14FF080500449086000BF96
:10589000002080F3118800BF10BD000004ED00E07F
:1058A0002DE9FF4F85B0804689461746DDE912ABEA
:1058B000B800FFF7FFF9064656B14C20FFF7FAF99A
:1058C00004460CB1266304E03046FFF74FFC00E0CD
:1058D00000247CB10020CDE900ABCDE902403A467E
:1058E00049464046089BFEF7C9FF2046FEF7DEFE0C
:1058F000012501E04FF0FF35284609B0BDE8F08FE3
:105900000549096809B9012005E00449096809B990
:10591000022000E00020704788000020A400002042
:105920002DE9F0414FF0000841480068002872D18D
:1059300040480068451C3F480560EDB93E48006896
:10594000006808B9012000E0002028B940F6D9120B
:105950003AA140A0FCF7C4FC3748076841480068FA
:10596000354908603F4807603F480068401C3E4991
:105970000860FFF74DF800BF3C48006885423CD303
:1059800000BF2D480068006808B9012000E0002031
:1059900020B14FF0FF30354908602DE026480068FF
:1059A000C068C4686668B54202D23048066023E029
:1059B000201DFFF718FBA06A18B104F11800FFF7CB
:1059C00012FB94F82C1001208840294909680843EB
:1059D00027490860E16A01EB8101264A02EB810058
:1059E000211DFFF73EFB2449E06A0968C96A884225
:1059F000C7D34FF00108C4E700BF1F480068C06A62
:105A000000EB80001B4951F82000012801D94FF01C
:105A1000010805E0FFE719480068401C17490860C5
:105A20001748006808B14FF001084046BDE8F08112
:105A3000A400002080000020700000202E2E5C4674
:105A400072656552544F535C7372635C7461736B1F
:105A5000732E63004572726F723A25732C25640DA4
:105A60000A00000074000020940000209C00002028
:105A700084000020C82500206C0000208C0000203D
:105A80009000002070B5002400263448006828B932
:105A90004FF4FD6232A138A0FCF722FCFFF7EEFACA
:105AA0002E480068401E2D490860084600680028FE
:105AB0004FD13548006800284BD024E03348C068F7
:105AC000C46804F11800FFF78EFA201DFFF78BFA67
:105AD00094F82C10012088402D49096808432C496E
