:020000040800F2
:1000000048D8002055020008A92A00080126000847
:10001000A52A000823050008675D0008000000000D
:100020000000000000000000000000009D0100082A
:10003000B705000800000000F1010008BD2A000813
:100040006F0200086F0200086F0200086F020008CC
:100050006F0200086F020008B90500086F0200086F
:100060006F0200086F0200086F0200086F020008AC
:100070006F0200086F0200086F0200086F0200089C
:100080006F0200086F0200086F0200086F0200088C
:100090006F0200086F0200086F0200086F0200087C
:1000A0006F0200086F0200086F0200086F0200086C
:1000B0006F0200086F0200086F0200086F0200085C
:1000C0006F0200086F0200086F0200086F0200084C
:1000D0006F0200086F0200086F0200086F0200083C
:1000E0006F0200086F0200086F0200086F0200082C
:1000F0006F0200086F0200086F0200086F0200081C
:100100006F0200086F0200086F0200086F0200080B
:100110006F0200086F0200086F0200086F020008FB
:100120006F0200086F0200086F0200086F020008EB
:100130006F0200086F0200086F0200086F020008DB
:100140006F0200086F0200086F020008AD2A000865
:100150006F0200086F0200086F0200086F020008BB
:100160006F0200086F0200086F0200086F020008AB
:100170006F0200086F0200086F0200080000000014
:100180006F0200086F020008DFF80CD000F006F9DB
:1001900000480047C579000848D800202A4B196854
:1001A0000868B0E8F04F80F30988BFF36F8F4FF015
:1001B000000080F3118870470000000006480068C6
:1001C000006880F3088862B661B6BFF34F8FBFF353
:1001D0006F8F00DF00BF00BF08ED00E0DFF80C000C
:1001E000016841F470010160704700BF88ED00E0D4
:1001F000EFF30980BFF36F8F134B1A681EF0100FD7
:1002000008BF20ED108A20E9F04F106008B44FF0CD
:10021000500080F31188BFF34F8FBFF36F8F08F04A
:100220004FFC4FF0000080F3118808BC1968086883
:10023000B0E8F04F1EF0100F08BFB0EC108A80F34A
:100240000988BFF36F8F704774010020EFF30580BA
:10025000704700000648804706480047FEE7FEE773
:10026000FEE7FEE7FEE7FEE7FEE7FEE7FEE7FEE766
:10027000912B0008890100082DE9F05F0546002058
:1002800092469B4688460646814640241BE0284607
:1002900041464746224600F070F853465A46C01A77
:1002A000914110D311461846224600F057F82D1AF6
:1002B00067EB01084F4622460120002100F04EF86E
:1002C00017EB00094E41201EA4F10104DFDC484673
:1002D00031462A464346BDE8F09F40EA01039B07AA
:1002E00003D009E008C9121F08C0042AFAD203E0AB
:1002F00011F8013B00F8013B521EF9D27047D2B20F
:1003000001E000F8012B491EFBD270470022F6E7FE
:1003100010B513460A4604461946FFF7F0FF20467B
:1003200010BD421C10F8011B0029FBD1801A704738
:1003300030B50B46014600202022012409E021FAB5
:1003400002F59D4205D303FA02F5491B04FA02F5B2
:100350002844151EA2F10102F1DC30BD202A04DB85
:10036000203A00FA02F1002070479140C2F12003C8
:1003700020FA03F3194390407047202A04DB203A07
:1003800021FA02F00021704721FA02F3D040C2F1B5
:10039000200291400843194670470000064C074D63
:1003A00006E0E06840F0010394E807009847103445
:1003B000AC42F6D3FFF7ECFE7842030898420308FC
:1003C00070B58C1810F8015B15F0070301D110F817
:1003D000013B2A1106D110F8012B03E010F8016B44
:1003E00001F8016B5B1EF9D12B0705D40023521EC7
:1003F0000DD401F8013BFAE710F8013BCB1A921C2F
:1004000003E013F8015B01F8015B521EF9D5A1422C
:10041000D8D3002070BD00001CB5012408F04EF9AF
:100420001648022100230A02CDE9001014A1174842
:1004300008F07CFC04461CB115A005F097FC02E016
:1004400019A005F093FC1E48032100234FF400720D
:10045000CDE900101BA11E4808F068FC04461CB141
:100460001CA005F083FC02E020A005F07FFC2548DD
:10047000006808F041FA08F063F91CBD180000207C
:100480004C45445F5461736B00000000392A00083A
:10049000B4B4BDA85553425F5461736BC8CECEF15E
:1004A000B3C9B9A6210A0000B4B4BDA85553425F30
:1004B0005461736BC8CECEF1CAA7B0DC210A00002C
:1004C0001C0000204B45595F5461736B0000000015
:1004D00005260008B4B4BDA84B45595F5461736B41
:1004E000C8CECEF1B3C9B9A6210A0000B4B4BDA8E4
:1004F0004B45595F5461736BC8CECEF1CAA7B0DCCF
:10050000210A00001400002010B502F0E1FA0320D7
:1005100000F098FD02F016FA02F086F900F004F8F7
:1005200010BD00BFFEE7000010B50C480C49086084
:100530004FF4E1304860002109488160C1600161E9
:1005400081610C21416101F00DF905480068C06826
:1005500040F0200002490968C86010BD0010014049
:10056000842800200146002205E0002301F5607088
:1005700040F82230521C0F2AF7D3002204E0002357
:1005800001F58E708354521CB2F5007FF7D3002022
:1005900008704870012088700020C1F8BC03012356
:1005A0000B7640238B7100234B7681F81C3301239B
:1005B00081F81D33704770477047000002A005F0B6
:1005C000D5FB00BFFEE700004572726F72204861E4
:1005D0006E646C65210A000030B504460D460022A9
:1005E0002946204600F002F830BD0000F0B5034671
:1005F000012500241148807B02281CDA00200F4EC0
:10060000B67B0E4FB8553846867B001D40F8263025
:10061000001F867B0C3082553E46B07B461CBE7365
:10062000044604F1300008703A2048702F2088708A
:100630000020C87000252846F0BD000038D20020F8
:1006400070B5044600F01EF906462546681C10B138
:1006500004480078054400BF00F014F9801BA8424C
:10066000FAD370BD0C000020F8B502460B460025F9
:10067000002400200021DCE0012606FA01F51E68B6
:1006800006EA0504AC4273D15E68022E02D05E68B1
:10069000122E13D1CF0802F1200656F827004E077C
:1006A000F70E0F26BE40B0434F07FF0E1E69BE4037
:1006B0003043CF0802F1200646F8270010684F00AB
:1006C0000326BE40B0431E7906F003064F00BE402D
:1006D000304310605E68012E08D05E68022E05D09F
:1006E0005E68112E02D05E68122E13D190684F0002
:1006F0000326BE40B0434F00DE68BE4030439060EA
:10070000506801268E40B0431E79C6F300168E4015
:1007100030435060D0684F000326BE40B0434F00C6
:100720009E68BE403043D0605E6806F08056B6F1E9
:10073000805F7DD100BF00260096404E366846F4AB
:1007400080463E4F3E603E46366806F48046009640
:1007500000BF00BF3A4E8F0856F827008E07370FAC
:100760000F26BE40B043374EB24202D1002624E0ED
:100770005EE0354EB24201D101261EE0334EB24258
:1007800001D1022619E0324EB24201D1032614E013
:10079000304EB24201D104260FE02F4EB24201D1B9
:1007A00005260AE02D4EB24201D1062605E02C4E68
:1007B000B24201D1072600E008268F073F0FBE4056
:1007C00030431F4E8F0846F82700264E3068A0435E
:1007D0005E6806F48036B6F5803F00D12043214E96
:1007E0003060361D3068A0435E6806F40036B6F50A
:1007F000003F00D120431B4E361D3060361D30684F
:10080000A0435E6806F48016B6F5801F00D1204331
:10081000144E08363060361D3068A0435E6806F41A
:100820000016B6F5001F00D120430E4E0C36306086
:10083000491C1029FFF420AFF8BD000044380240E5
:100840000838014000000240000402400008024055
:10085000000C024000100240001402400018024048
:10086000001C0240003C0140024613690B400BB1E2
:10087000012000E00020704701480068000C70472C
:10088000002004E0014800687047000004000020D8
:1008900010B50446D4F8C00202F028FF10BD10B510
:1008A0000446D4F8C00202F039FF10BD10B504466A
:1008B000206804F04FFE10BD10B50446206804F017
:1008C00050FE10BD024601EB810302F1380000EB3F
:1008D000C30090F824007047024601EB810302F147
:1008E000380000EBC3004069704770B504460D4600
:1008F000002600BF94F8B802012801D1022070BD83
:10090000012084F8B80200BF2946206804F03AFEAE
:1009100000BF002084F8B80200BF3046EFE72DE9A1
:10092000FE4F04460D4616461F46DDE90D9ADDF8DA
:10093000308000BF94F8B802012802D10220BDE83F
:10094000FE8F012084F8B80200BF002105EB85026C
:1009500004F1380000EBC200417105EB850104F1A0
:10096000380000F8317005EB850100EBC100A0F8FC
:1009700008A005EB850104F1380000EBC1004570CB
:1009800005EB850104F1380000EBC10080F8079009
:1009900006F07F0105EB850204F1380000EBC20090
:1009A000817006F08000802808D1012105EB8502C6
:1009B00004F1380000EBC200C17007E0002105EB34
:1009C000850204F1380000EBC200C17005EB85011F
:1009D00004F1380000EBC10080F804808DE80007C6
:1009E0003B4632462946206804F087FE834600BF16
:1009F000002084F8B80200BF5846A0E770472DE9F0
:100A0000F05F04460D4616461F46DDE90C9BDDE906
:100A10000A8A05EB850104F1380000EBC100C670BD
:100A200005EB850104F1380000EBC100C771B8F196
:100A3000000F08D1032105EB850204F1380000EB1B
:100A4000C200817207E0022105EB850204F1380043
:100A500000EBC200817237B1012F74D0022F2BD06E
:100A6000032F71D15DE0B8F1010F24D11EBBB9F1A4
:100A7000000F07D1012105EB850204F1380000EBDE
:100A8000C200417605EB850104F1380000EBC1009E
:100A9000407E40B9002105EB850204F1380000EBEF
:100AA000C200817207E0022105EB850204F13800E3
:100AB00000EBC200817275E0CEB905EB850104F14F
:100AC000380000EBC100407E40B9002105EB8502F3
:100AD00004F1380000EBC200817221E0022105EB35
:100AE000850204F1380000EBC200817218E005EBCA
:100AF000850104F1380000EBC100007E40B90021FF
:100B000005EB850204F1380000EBC200817207E0BA
:100B1000022105EB850204F1380000EBC20081726E
:100B200040E0DEB905EB850104F1380000EBC100BF
:100B3000407E50B9002105EB850204F1380000EB3E
:100B4000C200817223E023E02BE0022105EB850245
:100B500004F1380000EBC200817218E005EB85015A
:100B600004F1380000EBC100007E40B9002105EB24
:100B7000850204F1380000EBC200817207E0022117
:100B800005EB850204F1380000EBC200817209E038
:100B9000002105EB850204F1380000EBC2008172F0
:100BA00000E000BF00BF05EB850104F1380000EB59
:100BB000C100C0F80CA005EB850104F1380000EB82
:100BC000C100C0F81090002105EB850204F1380047
:100BD00000EBC20080F8241005EB850204F1380018
:100BE00000EBC200416105EB850104F1380000EB28
:100BF000C1004570002105EB850204F1380000EBCF
:100C0000C20080F82510227C05EB850C04F1380326
:100C100003EBCC01206804F053FEBDE8F09F2DE902
:100C2000F0410446D4F800804646206804F0A5FC54
:100C3000012871D1206804F0CFFF08B9BDE8F08128
:100C4000206804F0C9FF00F40010B0F5001F03D1C4
:100C50004FF4001021684861206804F0BDFF00F4E3
:100C60008010B0F5801F03D14FF4801021684861D7
:100C7000206804F0B1FF00F08060B0F1806F03D114
:100C80004FF0806021684861206804F0A5FF00F003
:100C90000200022801D121684861206804F09CFF0D
:100CA00000F00050B0F1005F10D1D6F8400420F001
:100CB0002E00C6F840042046FFF7F1FD0121206810
:100CC00004F068FF4FF0005021684861206804F08C
:100CD00083FF00F08070B0F1807F02D1204601F0E8
:100CE0009BFB206804F078FF00F00800082805D17D
:100CF000204600F0EDF8082021684861206804F0E3
:100D00006BFF00F00070B0F1007F27D1206804F085
:100D1000CFFD074600251AE035E005F00F01012060
:100D20008840384090B106F5A06000EB451000689F
:100D300000F40040B0F5004F04D1E9B2204600F0C5
:100D40000EFE03E0E9B2204601F0C1F86D1CA06878
:100D5000A842E2D84FF0007021684861206804F092
:100D60003BFFC0F3001070B12068806920F01000D4
:100D700021688861204601F0BFFB2068806940F04F
:100D800010002168886100BF58E730B58BB0044679
:100D900014B901200BB030BD256894F8B90228B908
:100DA000002084F8B802204600F02AF8032084F8D6
:100DB000B902E86B00F4807008B900212161206855
:100DC00004F044FB282204F110016846FFF785FA7D
:100DD00094E80F0004F0D2FA0121206804F030FFFB
:100DE000282204F110016846FFF777FA94E80F0013
:100DF00004F050FE012084F8B9020020CAE7000088
:100E000010B586B00446142101A8FFF77FFA2068C8
:100E1000B0F1A04F42D100BF0020009020480068F0
:100E200040F001001E4908600846006800F001001B
:100E3000009000BF00BF4FF4C0500190022002900C
:100E400000200390032004900A20059001A9154872
:100E5000FFF70AFC00BF1248001D006840F0800048
:100E60000F49091D086000BF002000900C48143095
:100E7000006840F480400A49143108600846006860
:100E800000F48040009000BF00BF00BF0022052199
:100E9000432000F099F8432000F086F806B010BD1A
:100EA000303802400000024010B50446D4F8C002B9
:100EB00002F000FD10BD10B50446D4F8C00202F0E7
:100EC000FDFC10BD10B50446206804F09BFE10BD6B
:100ED00010B50446D4F8C00202F095FC10BD10B560
:100EE000044600BF94F8B802012801D1022010BDC9
:100EF000012084F8B80200BF206804F0F6FA01214E
:100F0000206804F0CDFA00BF002084F8B80200BFCA
:100F100000BFECE710B5044600BF94F8B802012802
:100F200001D1022010BD012084F8B80200BF206862
:100F300004F0A1FE00BF002084F8B80200BF00BF8B
:100F4000F0E70000034800680349097808440149B4
:100F500008607047040000200C00002070B50446B3
:100F60000E4800784FF47A71B1FBF0F00C49096833
:100F7000B1FBF0F5284600F0DBFB08B1012070BDA5
:100F8000102C07D200222146501E00F01DF8054803
:100F9000046001E00120F2E70020F0E70C000020EF
:100FA000000000200800002001460846002809DB58
:100FB00000F01F0301229A4043099B0003F1E02344
:100FC000C3F8002100BF70472DE9F05F80460D4651
:100FD0001646002704F0EEFE074639462A463346F9
:100FE00001F00700C0F1070ABAF1040F02D94FF06F
:100FF000040A01E0C0F1070AD14600F1040ABAF17F
:10100000070F02D24FF0000A01E0A0F1030AD44614
:101010004FF0010A0AFA09FAAAF1010A0AEA020AD9
:101020000AFA0CFA4FF0010B0BFA0CFBABF1010BB7
:101030000BEA030B4AEA0B042146404604F0C2FEC9
:10104000BDE8F09F00BF00F00702064B19684FF69D
:10105000FF031940044B0B4343EA0221014B196083
:1010600000BF70470CED00E00000FA0570B50446C3
:101070000D460CB9012070BD5848006800F00F0003
:10108000A84209D255490D700846006800F00F00CB
:10109000A84201D00120EEE7207800F002000228EB
:1010A0001DD1207800F00400042805D14C480068C8
:1010B00040F4E0504A490860207800F00800082811
:1010C00005D14748006840F46040454908604448FD
:1010D000006820F0F000A1680843414908602078CA
:1010E00000F00100A8B36068012807D13C48083827
:1010F0000068C0F34040B8B90120BCE7606802282E
:1011000002D06068032807D1354808380068C0F36A
:10111000406048B90120AEE7314808380068C0F3A4
:10112000400008B90120A6E72D48006820F0030020
:10113000616808432A490860FFF7A4FB064609E0F6
:10114000FFF7A0FB801B41F28831884202D90320BF
:1011500091E707E02248006800F00C006168B0EBFE
:10116000810FEDD11D48006800F00F00A84209D999
:101170001A490D700846006800F00F00A84201D01F
:10118000012078E7207800F00400042807D11448F3
:10119000006820F4E050E1680843114908602078B5
:1011A00000F00800082808D10D48006820F46040CD
:1011B000216940EAC1000A49086000F03DF8084989
:1011C0000968C1F30311074A515CC8400649086029
:1011D0000F20FFF7C3FE00204DE70000003C024057
:1011E000083802404C9100080000002001480068C7
:1011F000704700000000002000B5FFF7F7FF04492A
:101200000968C1F38221034A515CC84000BD000057
:10121000083802405C91000800B5FFF7E7FF044979
:101220000968C1F34231034A515CC84000BD000067
:10123000083802405C9100082DE9F04700240025A1
:101240000026A1462548006800F00C0020B10428C3
:1012500005D008283AD105E0DFF8849039E0DFF8BE
:10126000849036E01D48001F006800F03F041B48D2
:10127000001F006800F4800078B11A481749091F60
:101280000968C1F38811A0FB0170014622460023C2
:101290003846FEF7F1FF05460EE011480F49091FD9
:1012A0000968C1F38811A0FB0170014622460023A2
:1012B0003846FEF7E1FF05460848001F0068C0F306
:1012C0000140401C4600B5FBF6F902E0DFF8109043
:1012D00000BF00BF4846BDE8F08700000838024064
:1012E0000024F40040787D01F8B504460CB90120D3
:1012F000F8BD207800F00100002874D0F94800689B
:1013000000F00C0004280DD0F648006800F00C0036
:10131000082813D1F348001F006800F48000B0F5DE
:10132000800F0BD1EF4808380068C0F34040002818
:1013300059D06068002856D10120D9E700BF606805
:10134000B0F5803F08D1E7480838006840F48030A5
:10135000E449083908601EE06068B0F5A02F0DD19F
:10136000E0480838006840F48020DE490839086009
:101370000846006840F4803008600CE0D94808381E
:10138000006820F48030D7490839086008460068B2
:1013900020F48020086000BF606890B1FFF772FA07
:1013A000054606E0FFF76EFA401B642801D90320CA
:1013B0009EE7CC4808380068C0F340400028F1D0D0
:1013C00011E0FFF75FFA054606E0FFF75BFA401B06
:1013D000642801D903208BE7C24808380068C0F3AD
:1013E00040400028F1D1207800F0020002285FD1AF
:1013F000BC48006800F00C0058B1BA48006800F022
:101400000C0008281CD1B748001F006800F48000B9
:10141000B0B9B44808380068C0F3400020B1E068B3
:10142000012801D0012063E7AE480838006820F0A9
:10143000F800216940EAC100AA490839086037E08C
:10144000E06800B30120A8490860FFF71BFA0546D1
:1014500006E0FFF717FA401B022801D9032047E7EF
:10146000A04808380068C0F340000028F1D09D482B
:101470000838006820F0F800216940EAC100994965
:101480000839086014E0002097490860FFF7FAF96E
:10149000054606E0FFF7F6F9401B022801D90320B4
:1014A00026E7904808380068C0F340000028F1D1D2
:1014B000207800F0080008282CD16069A8B101202C
:1014C0008A490860FFF7DEF9054606E0FFF7DAF91A
:1014D000401B022801D903200AE782486C300068CB
:1014E000C0F340000028F1D014E000207F490860DC
:1014F000FFF7C8F9054606E0FFF7C4F9401B0228CC
:1015000001D90320F4E677486C300068C0F340004E
:101510000028F1D1207800F00400042870D10026C2
:1015200070483830006800F0805090B900BF00204B
:1015300000906C483830006840F08050694938317C
:1015400008600846006800F08050009000BF00BFAF
:1015500001266748006800F48070B0B964480068EC
:1015600040F4807062490860FFF78CF9054606E098
:10157000FFF788F9401B022801D90320B8E65C4830
:10158000006800F480700028F2D000BFA068012835
:1015900008D154486830006840F001005149683172
:1015A00008601DE0A06805280DD14E48683000682D
:1015B00040F004004B49683108600846006840F07C
:1015C000010008600CE047486830006820F0010026
:1015D0004449683108600846006820F0040008604B
:1015E00000BFA068A8B1FFF74DF9054609E0FFF775
:1015F00049F9401B41F28831884202D9032077E63D
:1016000026E0384868300068C0F340000028EED07B
:1016100013E0FFF737F9054608E0FFF733F9401B01
:1016200041F28831884201D9032061E62D486830B3
:101630000068C0F340000028EFD1012E07D12948EF
:101640003830006820F0805026493831086000BFEB
:10165000A069B8B32348006800F00C0008285ED0E9
:10166000A069022846D100201F490866FFF70AF941
:10167000054606E0FFF706F9401B022801D90320C2
:1016800036E6184808380068C0F340600028F1D1F9
:10169000D4E907010843616A40EA81110122A06A86
:1016A000C2EB500041EA00412C20005D41EA00609D
:1016B0000C49091F086001200B490866FFF7E2F892
:1016C000054607E02DE0FFF7DDF8401B022801D9B1
:1016D00003200DE6034808380068C0F34060002886
:1016E000F1D01EE00838024000004742800E474219
:1016F0000070004000200C490866FFF7C3F805465B
:1017000006E0FFF7BFF8401B022801D90320EFE5F0
:1017100006480068C0F340600028F2D101E00120D3
:10172000E6E50020E4E50000000047420038024002
:1017300070B504462546681EB0F1807F01D30120B4
:101740000FE0681E4FF0E02148610F214FF0FF309D
:1017500004F038FB00204FF0E02188610720086189
:10176000002070BD10B504460CB9012010BDA06961
:1017700000B100E000BF94F8390028B9002084F8D7
:101780003800204600F028F8242084F8390020682A
:10179000C06820F400502168C860204601F02AFA91
:1017A0002068006920F49040216808612068406941
:1017B00020F02A00216848612068C06840F4005089
:1017C0002168C8600020E063202084F8390084F894
:1017D0003A000020CAE7000010B586B0044600BFFA
:1017E000002000902648006840F01000244908605E
:1017F0000846006800F01000009000BF00BF00BF66
:10180000002000901E481438006840F002001C4977
:10181000143908600846006800F00200009000BF1C
:1018200000BF00BF002000900846006840F00200A2
:1018300008600846006800F00200009000BF00BF8A
:101840004020019002200290012003900320049088
:101850000720059001A90B48FEF706FF80200190A4
:101860000720059001A90748FEF7FEFE012200218E
:101870002520FFF7A9FB2520FFF796FB06B010BD3A
:1018800044380240000402402DE9F84304460D4666
:1018900016461F464FF0000994F8390020285CD105
:1018A00005B116B90120BDE8F88300BF94F83800EF
:1018B000012801D10220F6E7012084F8380000BF9A
:1018C0000020E063212084F83900FEF7DBFF814629
:1018D000A684E6842BE0E08C401EE084A068B0F58E
:1018E000805F16D14B46002280212046009701F0F0
:1018F00035FB08B10320D6E7A846B8F80000C0F3CE
:10190000080021684860206908B9AD1C0FE06D1C13
:101910000DE04B46002280212046009701F01EFB7F
:1019200008B10320BFE715F8010B21684860E08C7F
:101930000028D0D14B46002240212046009701F0DC
:101940000DFB08B10320AEE7202084F8390000BF6A
:10195000002084F8380000BFA5E70220A3E72DE9A6
:10196000F04705468846D5F800904E46444606F5B1
:10197000A06000EB4410806800F00400042812D13D
:10198000042106F5A06000EB4410816006F5A0601C
:1019900000EB4410C06840F0020106F5A06000EBC7
:1019A0004410C1606DE006F5A06000EB4410806853
:1019B00000F02000202806D1202106F5A06000EBD1
:1019C000441081605DE006F5A06000EB4410806883
:1019D00000F00800082825D106F5A06000EB4410AF
:1019E000C06840F0020106F5A06000EB4410C16041
:1019F000052104EB840205F1380000EBC20080F8F9
:101A00002510102106F5A06000EB4410816008212C
:101A100006F5A06000EB44108160E1B2286803F095
:101A2000B1FD2EE006F5A06000EB4410806800F4E4
:101A30008060B0F5806F24D106F5A06000EB441003
:101A4000C06840F0020106F5A06000EB4410C160E0
:101A5000E1B2286803F096FD102106F5A06000EBC6
:101A600044108160082104EB840205F1380000EB8A
:101A7000C20080F82510C90106F5A06000EB4410F3
:101A8000816006F5A06000EB4410806800F40070EF
:101A9000B0F5007F17D106F5A06000EB4410C068D8
:101AA00040F0020106F5A06000EB4410C160E1B215
:101AB000286803F067FD4FF4007106F5A06000EBA5
:101AC0004410816001E206F5A06000EB44108068DC
:101AD00000F0010000287ED02869A8B104EB840141
:101AE00005F1380000EBC100016906F5A06000EBCC
:101AF00044100069C0F31200091A04EB840205F1D6
:101B0000380000EBC2004161012104EB840205F1C1
:101B1000380000EBC20080F82510002104EB84029D
:101B200005F1380000EBC2000162012106F5A0605A
:101B300000EB4410816004EB840105F1380000EBF8
:101B4000C100C07940B104EB840105F1380000EB1D
:101B5000C100C079022816D106F5A06000EB441040
:101B6000C06840F0020106F5A06000EB4410C160BF
:101B7000E1B2286803F006FD102106F5A06000EB35
:101B8000441081602BE004EB840105F1380000EB88
:101B9000C100C079032822D106F5A06000EB4410F3
:101BA000006840F0005106F5A06000EB44100160B1
:101BB000012104EB840205F1380000EBC20080F83B
:101BC000241004EB840305F1380000EBC30090F807
:101BD0002420E1B200E013E02846FEF70FFF04EBFB
:101BE000840105F1380000EBC100007E80F00101A6
:101BF00004EB840205F1380000EBC200017664E1D9
:101C000006F5A06000EB4410806800F00200022896
:101C100071D106F5A06000EB4410C06820F002010D
:101C200006F5A06000EB4410C16004EB840105F1EF
:101C3000380000EBC10090F82500012809D10121EE
:101C400004EB840205F1380000EBC20080F8241098
:101C50008BE004EB840105F1380000EBC10090F843
:101C60002500052809D1052104EB840205F138007F
:101C700000EBC20080F8241077E004EB840105F14A
:101C8000380000EBC10090F82500062809D004EBCD
:101C9000840105F1380000EBC10090F82500082808
:101CA00042D104EB840105F1380000EBC100006A69
:101CB000401C04EB840205F1380101EBC20108620B
:101CC00004EB840105F1380000EBC100006A032831
:101CD00012D9002104EB840205F1380000EBC200A8
:101CE0000162042104EB840205F1380000EBC2001C
:101CF00080F8241009E04BE0022104EB840205F196
:101D0000380000EBC20080F8241006F5A06000EB5C
:101D10004410076827F0804747F0004706F5A060A9
:101D200000EB4410076020E004EB840105F138006B
:101D300000EBC10090F82500032816D1022104EB26
:101D4000840205F1380000EBC20080F8241006F58B
:101D5000A06000EB4410076827F0804747F0004779
:101D600006F5A06000EB44100760022106F5A060B4
:101D700000EB4410816004EB840305F1380000EBB4
:101D8000C30090F82420E1B22846FEF737FE9CE01D
:101D900006F5A06000EB4410806800F08000802809
:101DA0002ED106F5A06000EB4410C06840F002019F
:101DB00006F5A06000EB4410C16004EB840105F15E
:101DC000380000EBC100006A401C04EB840205F1FE
:101DD000380101EBC2010862062104EB840205F11F
:101DE000380000EBC20080F82510E1B2286803F04B
:101DF000C9FB802106F5A06000EB4410816064E01F
:101E000006F5A06000EB4410806800F01000102878
:101E10005BD104EB840105F1380000EBC100C0790F
:101E2000032818D1002104EB840205F1380000EBEF
:101E3000C200016206F5A06000EB4410C06840F0EB
:101E4000020106F5A06000EB4410C160E1B2286811
:101E500003F098FB33E004EB840105F1380000EB5C
:101E6000C100C07940B104EB840105F1380000EBFA
:101E7000C100C079022822D1002104EB840205F1BF
:101E8000380000EBC20001622869C0B9032104EBED
:101E9000840205F1380000EBC20080F8251006F539
:101EA000A06000EB4410C06840F0020106F5A0609D
:101EB00000EB4410C160E1B2286803F063FB10211D
:101EC00006F5A06000EB44108160BDE8F0872DE9C5
:101ED000F04705460F46D5F800904E463C4606F5BD
:101EE000A06000EB4410806800F00400042812D1C8
:101EF000042106F5A06000EB4410816006F5A060A7
:101F000000EB4410C06840F0020106F5A06000EB51
:101F10004410C1607EE206F5A06000EB44108068CA
:101F200000F02000202830D1202106F5A06000EB31
:101F30004410816004EB840105F1380000EBC1001E
:101F400040790128E6D1002104EB840205F1380034
:101F500000EBC2004171022104EB840205F138005C
:101F600000EBC20080F8241006F5A06000EB4410DE
:101F7000C06840F0020106F5A06000EB4410C160AB
:101F8000E1B2286803F0FEFA44E206F5A06000EB37
:101F90004410806800F0400040282FD1042104EB59
:101FA000840205F1380000EBC20080F82510012101
:101FB00004EB840205F1380000EBC20041710021FE
:101FC00004EB840205F1380000EBC200016206F563
:101FD000A06000EB4410C06840F0020106F5A0606C
:101FE00000EB4410C160E1B2286803F0CBFA402155
:101FF00006F5A06000EB441081600BE206F5A060DE
:1020000000EB4410806800F40070B0F5007F17D139
:1020100006F5A06000EB4410C06840F0020106F530
:10202000A06000EB4410C160E1B2286803F0AAFA96
:102030004FF4007106F5A06000EB44108160E9E107
:1020400006F5A06000EB4410806800F0010030B39A
:10205000002104EB840205F1380000EBC2000162AC
:1020600006F5A06000EB4410C06840F0020106F5E0
:10207000A06000EB4410C160E1B2286803F082FA6E
:10208000012106F5A06000EB4410816004EB84029E
:1020900005F1380000EBC20080F82510BAE106F522
:1020A000A06000EB4410806800F0080008281FD1F1
:1020B000082106F5A06000EB4410816006F5A060E1
:1020C00000EB4410C06840F0020106F5A06000EB90
:1020D0004410C160E1B2286803F054FA052104EB12
:1020E000840205F1380000EBC20080F8251091E170
:1020F00006F5A06000EB4410806800F01000102886
:102100003FD1002104EB840205F1380000EBC2004E
:102110000162032104EB840205F1380000EBC200E8
:1021200080F8251004EB840105F1380000EBC100B4
:10213000407978B904EB840105F1380000EBC10067
:10214000007938B9012104EB840205F1380000EB75
:10215000C200417106F5A06000EB4410C06840F079
:10216000020106F5A06000EB4410C160E1B22868EE
:1021700003F008FA102106F5A06000EB441081601E
:1021800048E106F5A06000EB4410806800F0800094
:1021900080281FD106F5A06000EB4410C06840F015
:1021A000020106F5A06000EB4410C160E1B22868AE
:1021B00003F0E8F9062104EB840205F1380000EB96
:1021C000C20080F82510802106F5A06000EB4410C5
:1021D00081601FE106F5A06000EB4410806800F408
:1021E0008060B0F5806F25D106F5A06000EB44104B
:1021F000C06840F0020106F5A06000EB4410C16029
:10220000E1B2286803F0BEF9102106F5A06000EBEA
:1022100044108160890106F5A06000EB44108160E4
:10222000082104EB840205F1380000EBC20080F8BD
:102230002510EFE006F5A06000EB4410806800F088
:10224000020002289CD106F5A06000EB4410C06893
:1022500020F0020106F5A06000EB4410C16004EB21
:10226000840105F1380000EBC10090F82500012839
:102270002BD1012104EB840205F1380000EBC200F0
:1022800080F8241004EB840105F1380000EBC10054
:10229000C079022808D004EB840105F1380000EB76
:1022A000C100C07903280FD104EB840105F1380087
:1022B00000EBC100407E80F0010104EB840205F1D7
:1022C000380000EBC200417692E004EB840105F196
:1022D000380000EBC10090F82500032809D1022145
:1022E00004EB840205F1380000EBC20080F82410F2
:1022F0007EE004EB840105F1380000EBC10090F8AA
:102300002500042809D1022104EB840205F13800DC
:1023100000EBC20080F824106AE004EB840105F1B0
:10232000380000EBC10090F82500052809D10521EF
:1023300004EB840205F1380000EBC20080F82410A1
:1023400056E004EB840105F1380000EBC10090F881
:102350002500062809D004EB840105F1380000EBC4
:10236000C10090F82500082842D104EB840105F152
:10237000380000EBC100006A401C04EB840205F148
:10238000380101EBC201086204EB840105F1380059
:1023900000EBC100006A032811D9002104EB84027C
:1023A00005F1380000EBC2000162042104EB840255
:1023B00005F1380000EBC20080F8241008E002218B
:1023C00004EB840205F1380000EBC20080F8241011
:1023D00006F5A06000EB4410D0F8008028F080489B
:1023E00048F0004806F5A06000EB4410C0F80080FB
:1023F000022106F5A06000EB4410816004EB840329
:1024000005F1380000EBC30090F82420E1B2284623
:10241000FEF7F4FABDE8F0877CB504462668354639
:10242000D5F840040190D5F840040090009820F0C1
:102430002E000090019800F00200022810D10198AF
:1024400000F0010040B12068806920F00050216850
:1024500088612046FEF71CFA009840F002000090C8
:10246000019800F00800082839D1009840F00800D1
:102470000090019800F00400042821D1A0690228EE
:102480000FD1019800F4C020B0F5802F04D10221B3
:10249000206803F07FFB0CE00121206803F07AFB49
:1024A00007E0E068012804D14EF6602140F20440C4
:1024B00041512046FEF7FFFC2046FEF7E9F90EE009
:1024C0002046FEF7F1FCD5F8400420F02E00C5F8B8
:1024D00040042068806940F00050216888610198BC
:1024E00000F02000202803D1009840F02000009048
:1024F0000098C5F840047CBD2DE9F05F0546D5F88D
:1025000000A057462868D0F8208008F00F04C8F3D0
:10251000434BC8F30A16BBF1020F09D0BBF1030FFE
:1025200066D0BBF1050F61D0BBF1070F5FD160E052
:10253000002E5AD004EB840105F1380000EBC100F5
:10254000C068E8B3B2B204EB840C05F1380303EBC6
:10255000CC03D968286803F044FB04EB840105F13F
:10256000380000EBC100C068811904EB840205F15A
:10257000380000EBC200C16004EB840105F13800B3
:1025800000EBC1004069811904EB840205F13800B9
:1025900000EBC200416107F5A06000EB4410006948
:1025A0001649084060B107F5A06000EB4410D0F870
:1025B000009029F0804949F0004907F5A06000E04B
:1025C00013E000EB4410C0F8009004EB840105F127
:1025D000380000EBC100007E80F0010104EB8402B2
:1025E00005F1380000EBC200017603E002E000BF15
:1025F00000BF00BF00BFBDE8F09F00000000F81F53
:1026000000BFFEE737A003F0B1FB40494048FDF7AB
:10261000E3FF10B901203F4908704FF0FF3101205E
:1026200005F0C8FF5CE001213B4800F077F9012884
:1026300052D138480078012843D138480078002822
:102640003FD1012236A1374804F02AFA36490870F2
:102650000846007818B135A003F088FB40E001205F
:102660002E490870374805F0B1FE0A2236A13C48D1
:1026700004F044FA2C4908700846007800282BD151
:1026800038A003F073FB474B48224749344804F015
:10269000B9FB254908700846007848B941480168E7
:1026A00042A003F063FB404949A003F05FFB04E054
:1026B0001D4801784EA003F059FB294804F0E0F9C9
:1026C0000AE016480078012803D11E4805F07EFE76
:1026D00002E04DA003F04AFB142006F0D1F800BF41
:1026E000A1E70000B5B1555342BECDD0F7BAF3A370
:1026F000ACB0B4CFC24B657931D2D4C9A8C3E855C8
:10270000C5CCC4DACEC4BCFE0A0000002000002004
:102710006491000872010020000002407101002055
:10272000303A000054160020700100200D0ACEC47B
:10273000BCFECFB5CDB3B9D2D4D8CAA7B0DCA3A163
:102740000D0A000024000020303A4661744673B63A
:10275000C1D0B4B2E2CAD4CEC4BCFE2E7478740028
:1027600030020020A1B7B4F2BFAA2FB4B4BDA8466E
:1027700061744673B6C1D0B4B2E2CAD4CEC4BCFE52
:102780002E747874CEC4BCFEB3C9B9A6A3ACCFF284
:10279000CEC4BCFED0B4C8EBCAFDBEDDA1A30D0AF9
:1027A000000000002401002028010020A1B7CEC4B1
:1027B000BCFED0B4C8EBB3C9B9A6A3ACD0B4C8EBC7
:1027C000D7D6BDDACAFDBEDDA3BA25640A00000073
:1027D000A1B7CFF2CEC4BCFED0B4C8EBB5C4CAFD1D
:1027E000BEDDCEAAA3BA0D0A25730D0A00000000B3
:1027F000A3A1A3A1CEC4BCFED0B4C8EBCAA7B0DCD1
:10280000A3BA282564290A000D0ACEC4BCFECFB5A0
:10281000CDB3C1B4BDD3CAA7B0DCB9D2D4D8CAA78E
:10282000B0DCA3A10D0A000000B587B000BF0020F6
:1028300001903648006840F00100344908600846BD
:10284000006800F00100019000BF00BF00BF002041
:1028500001900846006840F00400086008460068DF
:1028600000F00400019000BF00BF00BF00200190F5
:102870000846006840F0400008600846006800F024
:102880004000019000BF00BF00BF0020019008463B
:10289000006840F0400008600846006800F0400012
:1028A000019000BF00BF00BF0020019008460068F3
:1028B00040F0400008600846006800F040000190C9
:1028C00000BF00BF0120029000200390049002A9E5
:1028D0000F48FDF7C9FE4FF40050029002A90D48C1
:1028E000FDF7C2FE0420029002A90B48FDF7BCFED2
:1028F0000820029002A90848FDF7B6FE10200290B9
:1029000002A90548FDF7B0FE07B000BD303802400F
:1029100000000240000802400018024070B5044662
:102920000D4629462046FDF79FFF012808D100BF2C
:1029300029462046FDF798FF0128F9D0012070BDF7
:102940000020FCE700B587B000BF002001903548AB
:10295000006840F00100334908600846006800F054
:102960000100019000BF00BF00BF00200190084699
:10297000006840F0100008600846006800F0100091
:10298000019000BF00BF00BF002001900846006812
:1029900040F0400008600846006800F040000190E8
:1029A00000BF00BF00BF002001900846006840F053
:1029B000020008600846006800F00200019000BFB5
:1029C00000BF4FF4004002900120039004900320C8
:1029D000059002A91448FDF747FE0420029002A9C1
:1029E0001248FDF741FE4FF40040029002A9104842
:1029F000FDF73AFE4FF48070029002A90D48FDF7F2
:102A000033FE4FF40040084988610420074988617B
:102A10004003074918310860C011064918310860A1
:102A200007B000BD303802400000024000100240F4
:102A3000001802400004024000F00EF84FF0004081
:102A40000449886104E0012005F01AFF00F022F833
:102A5000F9E700000000024010B501220A490B48C6
:102A600000F012FE08B1FDF7A9FD0949074802F080
:102A70008DFA08B1FDF7A2FD044802F0F0FA08B1A2
:102A8000FDF79CFD10BD000075500008C428002013
:102A9000D401002010B5024802F06DF910BD00000D
:102AA000C428002000BFFEE77047000010B50248B0
:102AB000FEF7B5F810BD0000902C002010B506F010
:102AC000F1F9012801D006F017F9FEF73BFA10BD25
:102AD00000B593B000BF002001902A48006840F084
:102AE0008050284908600846006800F08050019036
:102AF00000BF00BF00BF002001902348006840F4E1
:102B00008040214908600846006800F48040019038
:102B100000BF00BF01200290000403900220089033
:102B20004105099119210A914FF4A8710B910221D5
:102B30000C9107210D9102A8FEF7D6FB08B100BF4A
:102B4000FEE70F200E9002200F90002010904FF40F
:102B5000A05011904FF48050129005210EA8FEF75E
:102B600085FA08B100BFFEE7FDF786FE41F20101DC
:102B7000884205D10548006840F480700349086028
:102B800013B000BD4038024000700040003C0240DD
:102B90001448006840F47000124908601248006848
:102BA00040F001001049086000200F49083108601A
:102BB0000D4800680D4908400B4908600C48091D84
:102BC0000860081F006820F48020091F08600020AA
:102BD00005490C3108604FF00060024980390860F7
:102BE0007047000088ED00E000380240FFFFF6FE6D
:102BF000103000242DE9F04104462068006920F4DB
:102C00004050E1680843216808612169A0680843D1
:102C100061690843E16940EA01052068C06849F23A
:102C20000C61884328432168C8602068406920F40B
:102C30004070A169084321684861E069B0F5004F20
:102C40007ED1C4492068884203D0C34920688842A5
:102C50005DD1FEF7E1FA00EBC00101EB0010616805
:102C60004900B0FBF1F06421B0FBF1F00601FEF782
:102C7000D3FA00EBC00101EB001061684900B0FB22
:102C8000F1F7FEF7C9FA00EBC00101EB0010616833
:102C90004900B0FBF1F06421B0FBF1F000EBC001A2
:102CA00001EB0010A7EB8000322101EBC000642192
:102CB000B0FBF1F000F0F80006EB4006FEF7ACFACE
:102CC00000EBC00101EB001061684900B0FBF1F7B7
:102CD000FEF7A2FA00EBC00101EB001061684900A9
:102CE000B0FBF1F06421B0FBF1F000EBC00101EBAF
:102CF0000010A7EB8000322101EBC0006421B0FB83
:102D0000F1F000F0070030442168886020E1FEF710
:102D100073FA00EBC00101EB001061684900B0FBE1
:102D2000F1F06421B0FBF1F00601FEF765FA00EB6B
:102D3000C00101EB001061684900B0FBF1F700E051
:102D400045E0FEF759FA00EBC00101EB00106168A5
:102D50004900B0FBF1F06421B0FBF1F000EBC001E1
:102D600001EB0010A7EB8000322101EBC0006421D1
:102D7000B0FBF1F000F0F80006EB4006FEF73CFA7D
:102D800000EBC00101EB001061684900B0FBF1F7F6
:102D9000FEF732FA00EBC00101EB00106168490058
:102DA000B0FBF1F06421B0FBF1F000EBC00101EBEE
:102DB0000010A7EB8000322101EBC0006421B0FBC2
:102DC000F1F000F00700304421688860C0E06149FC
:102DD0002068884203D06049206888425CD1FEF7B1
:102DE0001BFA00EBC00101EB001061688900B0FB29
:102DF000F1F6FEF711FA00EBC00101EB001061687B
:102E00008900B0FBF1F06421B0FBF1F000EBC001F0
:102E100001EB0010A6EB8000322101EB00106421D1
:102E2000B0FBF1F000F0F006FEF7F6F900EBC001A0
:102E300001EB001061688900B0FBF1F06421B0FB88
:102E4000F1F006EB0016FEF7E7F900EBC00101EB2D
:102E5000001061688900B0FBF1F7FEF7DDF900EBC7
:102E6000C00101EB001061688900B0FBF1F0642142
:102E7000B0FBF1F000EBC00101EB0010A7EB80000C
:102E8000322101EB00106421B0FBF1F000F00F00E3
:102E90003044216888605BE0FEF7AEF900EBC001CA
:102EA00001EB001061688900B0FBF1F6FEF7A4F9B0
:102EB00000EBC00101EB001061688900B0FBF1F08C
:102EC0006421B0FBF1F000EBC00101EB0010A6EBB8
:102ED0008000322101EB00106421B0FBF1F000F022
:102EE000F006FEF789F900EBC00101EB0010616804
:102EF0008900B0FBF1F06421B0FBF1F006EB0016A5
:102F0000FEF77AF900EBC00101EB0010616889005F
:102F1000B0FBF1F7FEF770F900EBC00101EB001018
:102F200061688900B0FBF1F06421B0FBF1F000EBC7
:102F3000C00101EB0010A7EB8000322101EB001073
:102F40006421B0FBF1F000F00F003044216888608C
:102F5000BDE8F08100100140001401402DE9F0416E
:102F600004460D4617469846069E21E0701CF8B1AF
:102F70002EB1FDF787FCA0EB0800B04218D92068FD
:102F8000C06820F4D0702168C8602068406920F0D3
:102F9000010021684861202084F8390084F83A0053
:102FA00000BF002084F8380000BF0320BDE8F08196
:102FB000206800682840A84201D1012000E00020DC
:102FC000B842D3D00020F1E770B506460D46304632
:102FD00000F02EF904464FF6FF70844205D045F408
:102FE000004106F5607040F82410E0B270BD2DE994
:102FF000FF4107460C4615461E46002001210223CC
:103000000A468DE8320003903146384600F0A7FCAE
:10301000002004B0BDE8F0812DE9FF4104460D46D3
:1030200017461E46DDF8288094F81D0308B14FF0BE
:10303000000801200223002231468DE8A10120462C
:1030400000F08DFC002004B0BDE8F08170B50446AE
:103050000D462946204600F036FB002070BD70B5B5
:1030600004460D46A078012807D1022121740121D0
:10307000617400216182A582E1820022114620460E
:1030800000F016F870BD2DE9FF4107460C461546C5
:103090001E460020012103460A468DE832000390B7
:1030A0003146384600F05BFC002004B0BDE8F081FA
:1030B0002DE9F04104460E4617460125A078012867
:1030C00002D0022820D107E0A660A7810121217645
:1030D0000220A070012518E0204600F025F90546E1
:1030E0002DB90120A0700021217600250BE0032DD1
:1030F00004D10120A0700021217604E0022D02D12C
:103100000120A07000BF00E000BF00BF2846BDE85E
:10311000F0812DE9FF4104460D4617461E46DDF8B5
:10312000288094F81D0308B14FF000080120002307
:103130001A4631468DE8A101204600F010FC00201F
:1031400004B0BDE8F0817FB506460C461546002068
:103150000821CDE9000403460246CDE902102946C4
:10316000304600F0FCFB002004B070BD10B50446F2
:103170002046FDF765FA10BDF0B506460C4615462B
:103180000022002106F54D771AE002EB820000EBE9
:10319000C20C07F10A0000EB4C014879A04201D0B3
:1031A000FF2C0BD18879A84201D0FF2D06D1C87918
:1031B000984201D0FF2B01D11046F0BD501CC2B285
:1031C000022AE2D3FF20F8E702460B2909D202F5D2
:1031D000607030F82100C0F30E0302F5607040F813
:1031E0002130002070472DE9F04104460E46154677
:1031F0001F46DDF81880A078012812D146F0800122
:10320000217406216174658205F47F40B0F5407F2A
:1032100003D140F20941A18201E00021A182A4F87A
:103220001680424639462046FFF742FFBDE8F0814E
:103230000246002100BF0AE002F5607030F821006C
:1032400000F4004008B908467047481CC1B20B2979
:10325000F2D34FF6FF70F7E710B502460B881478EB
:1032600023440B801378981810BDF8B504460D461A
:1032700004F11C0633464FF40072002120460095ED
:10328000FFF7B1FF071E05D12A46314604F54D7000
:1032900001F09AFC3846F8BDF8B504460D4604F531
:1032A0008E734FF48072002120460095FFF79BFF3C
:1032B000061E06D12A4604F58E7104F2223001F072
:1032C000F0FC3046F8BD2DE9F84304460E4617469B
:1032D0001D4646F4407204F58E7300212046009589
:1032E000FFF781FFB0F1000805D12A46394604F501
:1032F0008E7001F025FD4046BDE8F88301460020B0
:1033000031B1012906D0022906D0032908D105E0F0
:10331000002007E0022005E0012003E0022001E098
:10332000022000BF00BF7047F8B504460127002502
:10333000207E0C286FD2DFE800F0D6060F323E5018
:103340005E7A869AA8BD627904F110012046FFF7E3
:10335000FAFE02212176C7E06179204600F04AFAA0
:103360000546012D14D1207C00F08006E08A38B19A
:10337000802E02D10321217610E0052121760DE077
:10338000802E02D10921217608E00721217605E06F
:10339000042D01D0022D01D10B212176A4E0D4F817
:1033A000BC03E0812379A2892046A168FFF76BFE68
:1033B0000421217698E02179204600F01BFA054689
:1033C000012D01D109212176052D01D1032703E02B
:1033D000042D01D10B21217686E001200090637934
:1033E000A2892046A168FFF794FED4F8BC03E081CF
:1033F0000621217678E06179204600F0FBF9054648
:10340000012D02D10721217610E0052D04D10C21D8
:10341000217603270AE066E0022D02D105212176FC
:1034200004E0042D02D10B21217602275CE02379F0
:10343000002211462046FFF726FED4F8BC03E081A7
:103440000821217650E02179204600F0D3F9054685
:10345000012D03D10D212176002707E0042D02D193
:103460000B21217602E0052D00D103273CE001204D
:1034700000906379002211462046FFF74AFED4F8F7
:10348000BC03E0810A2121762EE06179204600F01C
:10349000B1F90546012D03D100270D21217608E061
:1034A000022D02D10921217603E0042D01D10B2147
:1034B000217619E0607E401CC1B26176022907D8EE
:1034C000204600F03DFA012121760120A07009E09C
:1034D00006212046D4F8C82390470021617600BF1A
:1034E00000BF022700E000BF00BF3846F8BD3EB570
:1034F000044601256078082873D2DFE800F0042A2A
:1035000036616973899F08212046FFF7C5FEF8B927
:1035100094F82913A17101206070A079002294F819
:103520001D13CDE90012029094F81C3321798022FA
:10353000204601F034FBA079002294F81D13CDE958
:103540000012029094F81C336179204601F027FBA9
:1035500089E012212046FFF79FFE28B900BF00BF77
:1035600000BF00BF022060707DE00121204601F015
:103570003AFD20BB0220FFF7F9FD012184F81C135E
:1035800000BF00BF03206070A079002294F81D13D3
:10359000CDE90012029094F81C3321798022204654
:1035A00001F0FDFAA079002294F81D13CDE9001274
:1035B000029094F81C336179204601F0F0FA52E051
:1035C00009212046FFF751FE08B9042060704AE047
:1035D000B4F836132046FFF748FE08B9052060709E
:1035E00041E03FE094F8300368B194F83013FF23D2
:1035F00004F58E722046FFF766FE40B900BF00BF9B
:103600000620607003E000BF00BF062060702AE063
:1036100094F8310368B194F83113FF2304F58E72E6
:103620002046FFF750FE40B900BF00BF0720607082
:1036300003E000BF00BF0720607014E094F832037D
:1036400060B194F83213FF2304F58E722046FFF721
:103650003AFE30B900BF00BF002502E000BF00BF46
:10366000002500E000BF00BF28463EBD10B504465F
:1036700020780B2807D1D4F8780320B1D4F8780348
:1036800081692046884710BD70B504460D46164630
:103690001CB900BF00BF022070BD84F8C0630020C9
:1036A000C4F87803C4F87C032046FCF75BFF0DB137
:1036B000C4F8C853204600F0B1F80020ECE70146FA
:1036C00091F81F0370472DE9F04104460D4600268E
:1036D00000272946D4F8C403FDF707F9064630460B
:1036E000FFF70CFE07463846BDE8F08110B50446EA
:1036F000207858B9012184F81E13D4F8C80358B1B2
:1037000004212046D4F8C823904705E094F81F030D
:10371000012801D102202070002010BD10B5044600
:10372000204600F00DF921792046FFF74DFD617923
:103730002046FFF749FD002184F81E13D4F8C80382
:1037400020B105212046D4F8C823904700BF00BF10
:10375000204600F0E6F803202070002010BD70B570
:1037600004460D4694F8C003012800D100BFC820CC
:10377000FCF766FF002070BD70B504460D46294673
:10378000D4F8C403FDF7A8F870BD70B50446012550
:10379000D4F8C403FDF790F820B1012804D0022822
:1037A00006D103E0002505E0012503E0022501E044
:1037B000012500BF00BF284670BD30B5034600207C
:1037C000D3F8C42301EB810502F1380404EBC504EE
:1037D000E4783CB101EB810502F1380404EBC50447
:1037E000207E06E001EB810502F1380404EBC504FC
:1037F000607E30BD70B504460D462946D4F8C4033A
:10380000FDF760F870BD10B50446D4F8BC03401C49
:10381000C4F8BC032046FFF729FF10BD70B504466D
:1038200094F8C003012820D11148C0F8C042C4F860
:10383000C4034FF0A0400E49086008210C48816085
:103840000121C16000210161022181610021C1616A
:10385000FDF79BFA08B1FCF7B1FE0548FDF726F825
:1038600005462946204600F03CF8002070BD0000C7
:10387000902C00202DE9FF5F04460D4616461F469A
:10388000DDE90F9ADDF838804FF0000B002003903F
:103890008DE800073B4632462946D4F8C403FDF7BD
:1038A0003EF883465846FFF729FD0390039804B07D
:1038B000BDE8F09F002280F81F237047012280F8A6
:1038C0001F23704770B5044600250026D4F8C403B2
:1038D000FDF7F8FA05462846FFF710FD0646304684
:1038E00070BDC0F8BC13704730B50446D4F8C4337B
:1038F00001EB810503F1380000EBC500C07838B159
:1039000001EB810503F1380000EBC500027606E00B
:1039100001EB810503F1380000EBC5004276002081
:1039200030BD70B5044600250026D4F8C403FDF769
:10393000D6FA05462846FFF7E1FC0646304670BD3C
:1039400070B5044600250026D4F8C403FDF7E2FA5A
:1039500005462846FFF7D2FC0646304670BD2DE9E5
:10396000F04F87B004460D4616461F46DDE912AB00
:10397000DDE910890020069005908DE8000F3B4698
:1039800032462946D4F8C403FDF739F80690069864
:10399000FFF7B4FC0590059807B0BDE8F08F2DE95E
:1039A000F0410446884615460227D4F87803C669D4
:1039B00015B1012D0CD105E0F1792046FFF74FFB41
:1039C000074606E0B1792046FFF749FB074600E0CD
:1039D00000BF00BF3846BDE8F08100000246D2F8C3
:1039E0007803C169054B4B65054B8B65012381F855
:1039F000503081F852300020704700005553424348
:103A0000504030202DE9F84F074688464FF0010915
:103A10000126B2460025D7F87803C469AB4694F86E
:103A200050000C2874D2DFE800F07306153C477490
:103A300081B5C0DFF2F084F86180022184F8501073
:103A40000120009063791F2204F154013846FFF7EA
:103A5000E3FA0AE161793846FFF7CCFE0546012D0D
:103A600013D1E06D68B194F8600000F08000802808
:103A700003D1032184F8501012E0052184F850107E
:103A80000EE0072184F850100AE0022D03D1012135
:103A900084F8501004E0052D02D10A2184F850105A
:103AA000E3E0237962898C2001593846FFF79FFAB9
:103AB000042184F85010D8E021793846FFF79AFEA7
:103AC0000546012D1ED16189E06D88420AD98C20FE
:103AD0000059618901448C2001516189E06D411ACE
:103AE000E16501E00021E165E06D38B1237962898B
:103AF0008C2001593846FFF77AFA08E0072184F84C
:103B0000501004E0052D02D1092184F85010ACE0DA
:103B1000AAE001200090637922898C20015938465F
:103B2000FFF77AFA062184F850109EE06179384652
:103B3000FFF760FE0546012D20D12189E06D884206
:103B40000AD98C200059218901448C2001512189F6
:103B5000E06D411AE16501E00021E165E06D48B1E9
:103B600001200090637922898C2001593846FFF7A3
:103B700053FA0EE0072184F850100AE0022D03D119
:103B8000052184F8501004E0052D02D10A2184F8A3
:103B900050106AE023790D2204F178013846FFF7CE
:103BA00026FA082184F850105FE021793846FFF7A3
:103BB00021FE0546012D11D1012184F8501084F811
:103BC0005210384600F0C6F88246BAF1000F02D112
:103BD0004FF0000907E04FF0020904E0052D02D183
:103BE000092184F8501040E0002241463846FFF792
:103BF000D6FE06461EB9072184F8501004E0042EB4
:103C000002D10B2184F850102FE022E0FFE70122BF
:103C100041463846FFF7C3FE0646A6B961793846E5
:103C2000FFF7CBFD8346CBF10100C2B26179384684
:103C3000FFF75AFE217900223846FFF755FE092189
:103C400084F8501004E0042E02D10B2184F85010A7
:103C50000BE0384600F01FF88146B9F1000F02D1A1
:103C6000012184F8501000E000BF00BF4846BDE8C5
:103C7000F88F70B504460D46A1212174FE216174B0
:103C800000216182A1820121E18201222946204690
:103C9000FFF70EFA70BD10B5044621212174FF21F3
:103CA000617400216182A182E182002211462046D6
:103CB000FFF7FEF910BD2DE9F0410746D7F878036C
:103CC000C4690126A07B20B1022803D003283BD180
:103CD00032E000BF21463846FFF7CBFF0646032EF1
:103CE00002D10020206000262EBB2068022801D9C6
:103CF000022001E02078401C206000BF00BF0025AA
:103D000016E0022105EB850000EBC50204F19000EE
:103D100000EB82008170002105EB850000EBC502FD
:103D200004F1900000EB820080F83110681CC5B2ED
:103D30002068A842E5D808E000213846FFF78FF94F
:103D400008B9E07BA07300E000BF00BF3046BDE8CB
:103D5000F081000070B50546D5F87803C4690126E6
:103D600021792846FFF708FD0D2801D0022619E029
:103D70000D49A06F884214D1E16FA06D814211D12D
:103D800094F8840008B900260CE094F88400012817
:103D900001D1012606E094F88400022802D102260F
:103DA00000E00226304670BD555342532DE9F041E4
:103DB00004460D461646D4F87803C76920780B28C8
:103DC0000ED105EB850000EBC50207F1900000EB7A
:103DD000820134223046FCF780FA0020BDE8F081F1
:103DE0000220FBE770B50546D5F87803C469607911
:103DF00048B161792846FFF729F961792846FFF72C
:103E0000E3F900206071207948B121792846FFF755
:103E10001DF921792846FFF7D7F900202071D5F840
:103E20007803C06940B1D5F87813C86903F0DEFBA8
:103E30000020D5F87813C861002070BDFEB5044697
:103E400000260227D4F87803017950230622204661
:103E5000FFF792F90646FF2E02D100BF00BFCCE06B
:103E60003146204601F0ABF84FF4807003F0ECFDD2
:103E7000D4F87813C861D4F87803C56994F820039E
:103E800000EB800101EBC00104F23E3000EB410089
:103E9000007B00F08000C0B194F8200300EB8001AB
:103EA00001EBC00104F23E3000EB4100007BE87101
:103EB00094F8200300EB800101EBC00104F23E30D6
:103EC00000EB4100C089688117E094F8200300EB03
:103ED000800101EBC00104F23E3000EB4100007BA9
:103EE000A87194F8200300EB800101EBC00104F2FB
:103EF0003E3000EB4100C089288194F8200300EB9C
:103F0000800101EBC00104F23E3000EB4100007D76
:103F100000F08000C0B194F8200300EB800101EBB9
:103F2000C00104F23E3000EB4100007DE87194F8DE
:103F3000200300EB800101EBC00104F23E3000EBF6
:103F40004100C08A688117E094F8200300EB8001EB
:103F500001EBC00104F23E3000EB4100007DA8718E
:103F600094F8200300EB800101EBC00104F23E3025
:103F700000EB4100C08A28810020A5F8F800A5F8D0
:103F8000FA0028736873A873A9792046FFF71CF814
:103F90006871E9792046FFF717F828712046FFF786
:103FA0001DFD682105F19000FCF7B0F92889022277
:103FB00094F81D13CDE90012029094F81C33AA79ED
:103FC0006979204600F0EBFD6889022294F81D1300
:103FD000CDE90012029094F81C33EA792979204641
:103FE00000F0DDFD297900222046FFF77DFC69798C
:103FF00000222046FFF778FC00273846FEBD2DE959
:10400000F0410646D6F87803C4694FF0010801254F
:104010000127207B10B101287DD149E2B4F8F800D6
:104020002168884278D20121B4F8F80000EB8002C0
:1040300002EBC00204F1900000EB82004170B4F882
:10404000F80000EB800101EBC00104F1900010F8D2
:10405000210009287CD2DFE800F0057B66FD17FC13
:104060007B7BFB0000BF00BF0421B4F8F80000EB2D
:10407000800202EBC00204F1900000F82210D6F892
:10408000BC03C4F8FC0007E2B4F8F80000EB8003BE
:1040900003EBC00304F1900000EB830000F10F027A
:1040A00094F8F810304600F00FFB054685B900BFC4
:1040B00000BF00BF00BF00BF00BF0221B4F8F8007E
:1040C00000EB800202EBC00204F1900000F8221025
:1040D000022D0BD10521B4F8F80000EB800202EBB1
:1040E000C00204F1900000F822101BE0042D19D149
:1040F0000121B4F8F80000EB800202EBC00204F1E9
:10410000900000F822100221B4F8F80000EB8002C1
:1041100002EBC00201E0CEE1BFE104F1900000EB50
:1041200082004170B8E194F8F810304600F04CFC81
:104130000746F7BBB4F8F80000EB800101EBC001C3
:1041400004F1900000EB8100807880B1012100E053
:10415000A1E1B4F8F80000EB800202EBC00204F128
:10416000900000EB820080F8311000BF0CE00021CD
:10417000B4F8F80000EB800202EBC00204F19000FA
:1041800000EB820080F831100321B4F8F80000EB56
:10419000800202EBC00204F1900000F8221000211E
:1041A000B4F8F80000EB800202EBC00204F19000CA
:1041B00000E00DE000EB82004170B4F8F80000EB85
:1041C000800202EBC00204F1900000EB82008170DB
:1041D000022F50D1B4F8F80000EB800101EBC001D0
:1041E00004F1900000EB8100807802280ED00121BC
:1041F000B4F8F80000EB800202EBC00204F190007A
:1042000000EB820080F8311000BF0CE00021B4F810
:10421000F80000EB800202EBC00204F1900000EB1A
:10422000820080F831100521B4F8F80000EB80021C
:1042300002EBC00204F1900000F822100121B4F852
:10424000F80000EB800202EBC00204F1900002E0F3
:104250001BE196E029E000EB820041700221B4F8F6
:10426000F80000EB800202EBC00204F1900000EBCA
:104270008200817018E0042F16D10121B4F8F800F3
:1042800000EB800202EBC00204F1900000F8221063
:104290000221B4F8F80000EB800202EBC00204F146
:1042A000900000EB82004170F6E0B4F8F80000EBFB
:1042B000800303EBC00304F1900000EB8300021DB8
:1042C00094F8F810304600F0D2FA054685BBB4F8F1
:1042D000F80000EB800101EBC00104F1900000EB5D
:1042E000810090F83100012805D100BF00BF00BF58
:1042F00000BF00BF00BF0121B4F8F80000EB80024E
:1043000002EBC00204F1900000F822100021B4F882
:10431000F80000EB800202EBC00204F1900000EB19
:1043200082004170B4F8F800401CA4F8F80027E0BF
:10433000FFE7022D0BD10521B4F8F80000EB800255
:1043400002EBC00204F1900000F8221018E0042DE6
:1043500016D10121B4F8F80000EB800202EBC00294
:1043600004F1900000F822100221B4F8F80000EBEC
:10437000800202EBC00204F1900000EB8200417069
:104380008AE0B4F8F80000EB800303EBC00304F10B
:10439000900000EB830000F10C0294F8F810304616
:1043A00000F0B9FA0546F5BBB4F8F80000EB80015F
:1043B00001EBC00104F1900000EB8100007B0628B6
:1043C0000CD0B4F8F80000EB800101EBC00104F15F
:1043D000900000EB8100007B022814D1D6F8BC03CA
:1043E000D4F8FC10401A42F2107188420BD202211C
:1043F000B4F8F80000EB800202EBC00204F1900078
:1044000000F8221048E000BF00BF00BF00BF00BF9F
:1044100000BF0121B4F8F80000EB800202EBC002FB
:1044200004F1900000E006E000F82210B4F8F80073
:10443000401CA4F8F800022D0DD100BF00BF0821D8
:10444000B4F8F80000EB800202EBC00204F1900027
:1044500000F8221018E0042D16D10121B4F8F8005C
:1044600000EB800202EBC00204F1900000F8221081
:104470000221B4F8F80000EB800202EBC00204F164
:10448000900000EB8200417006E0B4F8F800401C98
:10449000A4F8F80000E000BF09E00020A4F8F8004C
:1044A0000120207302213046D6F8C823904703E04C
:1044B0004FF0000800E000BF00BF4046BDE8F081BB
:1044C0002DE9F84380460C46D8F87803C5690127E2
:1044D000012604EB840000EBC40105F1900010F804
:1044E0002100052860D0062802D007287DD12DE0C4
:1044F00000200346024621460090404600F064F941
:10450000064656B9012104EB840000EBC40205F114
:10451000900000F82210002717E0022E09D1052193
:1045200004EB840000EBC40205F1900000F82210B7
:104530000BE0042E09D1082104EB840000EBC40237
:1045400005F1900000F8221002276BE000200346DE
:10455000024621460090404600F067FA064656B9EA
:10456000012104EB840000EBC40205F1900000F887
:104570002210002717E0022E09D1052104EB840048
:1045800000EBC40205F1900000F822100BE0042EAD
:1045900009D1082104EB840000EBC40205F190006E
:1045A00000F8221002273DE004EB840000EBC40178
:1045B00005F1900000EB810000F10C02214640461D
:1045C00000F0A9F90646DEB900BF00BF00BF00BF7A
:1045D00000BF00BF012104EB840000EBC40205F121
:1045E000900000F82210022100E01AE004EB8400A1
:1045F00000EBC40205F1900000EB8200417002273D
:10460000022E01D100BF0BE0042E09D1082104EBDA
:10461000840000EBC40205F1900000F8221002278C
:1046200000E000BF00BF3846BDE8F8832DE9F84F31
:1046300004460E4691469A460A9FD4F87803C56907
:1046400094F81E0360B120780B2809D106EB860090
:1046500000EBC60105F1900010F82100012802D0FE
:104660000220BDE8F88F06202873062106EB86009D
:1046700000EBC60205F1900000F82210A5F8FA60E0
:1046800053464A4631462046009700F09DF8D4F83C
:10469000BC830FE0D4F8BC03A0EB080142F2107019
:1046A0007843814202D894F81E0318B90120287378
:1046B0000220D6E731462046FFF702FF0128E9D065
:1046C000012028730020CCE72DE9F04106460F4673
:1046D00015464FF00208D6F87803C46994F85200E2
:1046E000012802D002286AD12FE02421E16580212F
:1046F00084F860100A2184F86210002104F10F0090
:10470000C4F86310C4F86710A4F86B10122184F881
:1047100063107807010E84F86410002184F8651096
:1047200084F86610242184F86710002184F868104A
:10473000012184F85010022184F8521004F1100075
:104740008C2108514FF001083AE039463046FFF716
:1047500059F98046B8F1000F30D122212846FBF7E5
:10476000D5FD8C200059007800F01F0068708C2067
:1047700000590078401128708C200059407800F0D2
:104780008000802802D10120A87001E00020A870DC
:104790008C2000598168C5F80310C068C5F807006F
:1047A0008C20005900F11001102205F10C00FBF7DC
:1047B00094FD8C200059006AC5F81D0000E000BF80
:1047C00000BF4046BDE8F0812DE9FF4105460F4698
:1047D0001E464FF00208D5F87803C46994F85200D9
:1047E000012802D002283CD135E0B4F898100A988C
:1047F0004143E165802184F860100A2184F8621049
:10480000102104F16300FBF781FD282184F8631077
:104810009DF80B1084F865109DF80A1084F8661056
:104820009DF8091084F867109DF8081084F8681046
:104830009DF8291084F86A109DF8281084F86B10F0
:10484000012184F85010022184F852108C20065166
:104850004FF0010806E039462846FFF7D3F88046B6
:1048600000E000BF00BF404604B0BDE8F0812DE984
:10487000F0410646884615460127D6F87803C469F4
:1048800094F85200012802D002283FD11BE00821F1
:10489000E165802184F860100A2184F862101021FB
:1048A00004F16300FBF732FD252184F86310012138
:1048B00084F85010022184F8521004F110008C2169
:1048C0000851012723E041463046FFF79BF8074691
:1048D000DFB98C200059C1788C200059807841EADA
:1048E00000218C200059407841EA00418C20005979
:1048F000007841EA006028608C200059C1798C2042
:104900000059807941EA0020A88000E000BF00BF84
:104910003846BDE8F0812DE9F04106460F461546C0
:104920004FF00208D6F87803C46994F852000128C1
:1049300002D0022843D12BE00E21E165802184F8CA
:1049400060100A2184F86210102104F16300FBF763
:10495000DDFC032184F863107807010E84F86410ED
:10496000002184F8651084F866100E2184F8671021
:10497000002184F86810012184F85010022184F885
:10498000521004F110008C2108514FF0010817E07B
:1049900039463046FFF736F88046B8F1000F0DD1A2
:1049A0008C200059807800F00F0028708C2000596E
:1049B000007B68708C200059407BA87000E000BF2D
:1049C00000BF4046BDE8F0812DE9F04105460E46A6
:1049D0000227D5F87803C46994F85200012802D060
:1049E00002281DD116E00021E16584F860100A213B
:1049F00084F86210102104F16300FBF787FC0021AA
:104A000084F86310012184F85010022184F85210B8
:104A1000012706E031462846FEF7F4FF074600E08E
:104A200000BF00BF3846BDE8F0812DE9FF410546D3
:104A30000F461E464FF00208D5F87803C46994F873
:104A40005200012802D002283CD135E0B4F8981079
:104A50000A984143E165002184F860100A2184F836
:104A60006210102104F16300FBF750FC2A2184F846
:104A700063109DF80B1084F865109DF80A1084F8F7
:104A800066109DF8091084F867109DF8081084F8E6
:104A900068109DF8291084F86A109DF8281084F891
:104AA0006B10012184F85010022184F852108C20E0
:104AB00006514FF0010806E039462846FEF7A2FFEE
:104AC000804600E000BF00BF404604B0BDE8F08172
:104AD00001460020704730B50246D2F87843E369BA
:104AE00014780B2C0BD101EB810404EBC10503F10D
:104AF000900404EB850464780CB9012000E00020E8
:104B000030BD2DE9F84F04460E4691469A460A9F5D
:104B1000D4F87803C56994F81E0360B120780B2897
:104B200009D106EB860000EBC60105F1900010F8F4
:104B30002100012802D00220BDE8F88F0720287349
:104B4000072106EB860000EBC60205F1900000F895
:104B50002210A5F8FA6053464A463146204600978F
:104B6000FFF763FFD4F8BC830FE0D4F8BC03A0EBDD
:104B7000080142F210707843814202D894F81E0373
:104B800018B9012028730220D6E731462046FFF7E6
:104B900097FC0128E9D0012028730020CCE72DE9FB
:104BA000FE4F04460D4616461F46DDE90D9ADDF818
:104BB00030803B463246294620468DE80007FEF706
:104BC00059FE0020BDE8FE8F2DE9F84F04460E4641
:104BD000934635464FF00008C14600BF307820703C
:104BE00070786070B178F07841EA002060803079A8
:104BF000207170796071B079A071F079E071307ACC
:104C00002072BBF1090F4AD90920009000273EE02D
:104C100069462846FEF720FB05466878042836D109
:104C200008EB880000EBC80104F10A0000EB410723
:104C30002946384600F071F84FF00009CA461AE0DC
:104C400069462846FEF708FB05466878052812D114
:104C500008EB880000EBC80104F10A0000EB4100FA
:104C60000A3000EBC90A2946504600F046F809F11F
:104C7000010000F0FF093879484504DD6088BDF87F
:104C800000108842DCDC08F1010000F0FF08B8F1F8
:104C9000020F04D26088BDF800108842B8DCBDE87D
:104CA000F88F10B50B7803704B7843708C78CB7805
:104CB00044EA032343800B7903714B7943718B7969
:104CC0008371CB79C371082A16D90C7A4B7A44EADE
:104CD000032303818C7ACB7A44EA032343810C7B40
:104CE0004B7B44EA032383818B7B8373CB7BC3732E
:104CF0000B7C03744B7C437410BD0A7802704A78B5
:104D000042708A788270CA78C2700B794A7943EA15
:104D1000022282808A79827170470A7802704A780A
:104D200042708A788270CA78C2700A7902714A79B0
:104D300042718A798271CA79C2710A7A02727047A5
:104D400030B513464578032D14D10578AD1E9D422C
:104D500002D80578AD1E00E01D46ACB2801C0022D2
:104D600004E0855C0D70491C951CAAB2A242F8DBD8
:104D700000250D7030BD7FB504460220039000254C
:104D80002046FEF79CFC30B9207820B1207803281B
:104D900001D00320207020780E2878D2DFE800F0C0
:104DA00007131AE0F04CC3616C788AD7F0F194F8DD
:104DB0001E0338B101202070C820FEF7D7F9204625
:104DC000FEF780FDDEE094F81F03012801D10220E8
:104DD0002070D7E000BF00BF6420FEF7C7F920466F
:104DE000FEF7D3FC84F81D03052020700021204627
:104DF000FEF7EAF8607180212046FEF7E5F82071A1
:104E0000A079002294F81D13CDE90012029094F8C5
:104E10001C33217980222046FFF7C1FEA0790022B1
:104E200094F81D13CDE90012029094F81C336179B7
:104E30002046FFF7B4FEA5E02046FEF758FB78B900
:104E400000BF00BF002184F8201394F83303012829
:104E500004D100BF00BF0820207001E007202070AF
:104E600090E0D4F8C80330B101212046D4F8C8231B
:104E700090470820207085E094F83913204600F010
:104E8000C6F818B90920207000BF00BF7AE077E0AB
:104E900094F83B0300F0200048B10121204600F0C7
:104EA000CAF830B900BF00BF0A20207001E00A2014
:104EB000207067E0D4F87C0308B900BF32E000201E
:104EC000C4F87803002510E004F55D7050F8250063
:104ED000017994F84303814205D104F55D7050F8DF
:104EE0002500C4F87803681CC5B2002DECD0D4F8B6
:104EF000780398B1D4F8780381682046884748B988
:104F00000620207000BF00BF03212046D4F8C8232C
:104F1000904707E00D20207000BF03E00D202070B7
:104F200000BF00BF2EE0D4F8780358B1D4F878035E
:104F300001692046884703909DF80C0030B90B208A
:104F4000207003E00D20207000BF00BF1AE0D4F8ED
:104F5000780320B1D4F8780341692046884711E0EE
:104F60002046FBF7FFFAD4F8780338B1D4F8780379
:104F7000C168204688470020C4F8780302E000E0BA
:104F800000BF00BF00BF002004B070BD10B50246D6
:104F9000002081B1D2F87C334BB9D2F87C43631C3A
:104FA000C2F87C3302F55D7343F8241006E000BFBD
:104FB00000BF022002E000BF00BF022010BD024679
:104FC000002092F838338B4209DD82F8201300BFAD
:104FD00000BF00BF00BF00BF00BF00BF02E000BFB6
:104FE00000BF0220704770B504460D46A078012826
:104FF00007D1002121740521617465820021A182FD
:10500000E182002211462046FEF752F870BD70B5CD
:1050100004460D46A078012807D1002121740921FA
:10502000617465820021A182E1820022114620463E
:10503000FEF73EF870BD70B504460D46A078012815
:1050400007D1002121740321617465820021A182AE
:10505000E182002211462046FEF72AF870BD10B505
:1050600004462046FEF75DFC01212046FEF777FB53
:10507000002010BD70B506460C460125012C06D057
:10508000022C18D0042C27D0052C2CD103E017A01B
:1050900000F06CFE28E000221CA1104601F000FD8B
:1050A0001B491C48FBF798FA1BA000F05FFE032089
:1050B0001C49087018E00023022219461A480068AB
:1050C00003F064FE0546012D02D118A000F04EFE4B
:1050D00002201449087007E018A000F047FE0120E4
:1050E0001049087000E000BF00BF70BD484F535426
:1050F0005F555345525F53454C4543545F434F4EB4
:1051000046494755524154494F4E0A00303A000033
:105110002000002064910008555342D2D1B6CFBF81
:10512000AA0A0000730100201C000020555342D23F
:10513000D1BECDD0F7210D0A00000000555342D258
:10514000D1C1ACBDD32CB5C8B4FDBECDD0F70A00DB
:105150000146002070470000F0B58DB005460E46B0
:105160001446012736B1012E06D0022E10D0032E90
:105170002CD11AE000272BE06A4629461648FEF794
:1051800015FE18B901982060002700E001271FE0F4
:105190006A4629461048FEF709FE20B9BDF8080006
:1051A0002060002700E0012712E06A4629460A48ED
:1051B000FEF7FCFD40B9BDF80800C11700EBD15166
:1051C00049122160002700E0012701E0042700BF09
:1051D00000BF38460DB0F0BDC42800202DE9F043D3
:1051E0008FB007460D4690461C464FF00109002639
:1051F00005F0030000B32548D0F8C4030069D8B116
:1052000013E0012008EB0402214B394600901F48AF
:10521000FFF70CFA06463EB905EB04304FF4805216
:105220001B49FBF75AF800E005E0201EA4F1010439
:1052300001D0002EE5D007E02B4642463946134800
:105240000094FFF7F3F9064616B94FF0000918E08D
:1052500002AA39460D48FEF7A9FD9DF8150004285D
:1052600004D0282804D03A2807D100E000BF00BFAE
:1052700000BF00BF4FF0030902E04FF0010900BF7B
:1052800000BF48460FB0BDE8F0830000C4280020EE
:10529000542F002070B50446012521460448FFF72D
:1052A0001AFC08B1002500E00125284670BD000069
:1052B000C42800202DE9F0438FB006460D4617465E
:1052C0001C464FF001094FF0000805F00300F0B153
:1052D0002848D0F8C4030069C8B113E005EB0431D5
:1052E0004FF480522448FAF7F8FF01203A19224B74
:1052F000314600901F48FFF704FC8046B8F1020FCA
:1053000000D103E0201EA4F10104E7D107E02B4601
:105310003A46314617480094FFF7F3FB8046B8F150
:10532000000F02D14FF000091FE002AA31461148D8
:10533000FEF73CFD9DF8150004280BD0272804D06B
:10534000282809D03A280CD105E000BF00BF4FF053
:10535000020909E000BF00BF00BF00BF4FF0030912
:1053600002E04FF0010900BF00BF48460FB0BDE8A2
:10537000F0830000C4280020542F00200FB470B523
:1053800004460A98012817D1A06B20F48030A0634E
:10539000E0681A490840E060E06820F44010E060EE
:1053A0001198012803D1E06840F48010E0602046A5
:1053B00000F026F8054612E0E06840F04000E060AA
:1053C000204600F01DF805460E9820B9A06B40F469
:1053D0008030A06303E0A06B20F48030A0630898C5
:1053E000012807D1A06840F00600A060A06840F046
:1053F0002000A060284670BC5DF814FBBFFFBDFF15
:105400000146002200BF501C02460F4B984201D9B2
:1054100003207047086900F000400028F3D0002204
:10542000086940F00100086100BF501C0246064BAD
:10543000984201D90320ECE7086900F00100002838
:10544000F3D100BFE5E70000400D03000146886886
:1054500020F001008860002070470000F0B503468E
:105460001C460A4601260D4800EAC64040F00047A7
:10547000114604F5A06000EB4110076104F5A0603F
:1054800000EB4110056825F0804545F0004504F526
:10549000A06000EB411005600020F0BD0000F81F87
:1054A00008B50246134600200090D3F8400400904F
:1054B000009820F02E000090009800F4805030B941
:1054C000012904D1009840F48050C3F840040098AA
:1054D00000F48050B0F5805F05D121B9009820F428
:1054E0008050C3F84004002008BD0146886840F0A1
:1054F00001008860002070470146002210200861EA
:1055000000BF501C0246064B984201D90320704749
:10551000086900F010001028F3D00020F7E7000021
:10552000400D030010B502460023202040EA811000
:10553000106100BF581C0346054CA04201D903204E
:1055400010BD106900F020002028F3D00020F7E7FC
:10555000400D030001460A464FF48160805880B236
:10556000704708B501460A4600200090D2F8400472
:1055700000900098C0F3414008BD0146486900F022
:1055800001007047F0B503460C461A462146002537
:1055900002F5A06000EB41100068C0F381460EB137
:1055A000022E53D102F5A06000EB4110006840F0DC
:1055B000804702F5A06000EB41100760D86A00F454
:1055C0007F00A8BB02F5A06000EB4110006820F04E
:1055D000004702F5A06000EB4110076002F5A060F3
:1055E00000EB4110006840F0004702F5A06000EBBE
:1055F0004110076002F5A06000EB4110006820F444
:10560000004702F5A06000EB4110076000BF681C76
:105610000546B0F57A7F00D909E002F5A06000EBFD
:105620004110006800F00040B0F1004FEFD062E0A0
:10563000FFE702F5A06000EB4110006840F0004772
:1056400002F5A06000EB4110076054E002F5A06095
:1056500000EB4110006840F0804702F5A06000EBCD
:10566000411007604FF48260805800F47F00A8BBAF
:1056700002F5A06000EB4110006820F0004702F541
:10568000A06000EB4110076002F5A06000EB411044
:10569000006840F0004702F5A06000EB4110076091
:1056A00002F5A06000EB4110006820F4004702F50D
:1056B000A06000EB4110076000BF681C0546B0F514
:1056C0007A7F00D909E002F5A06000EB4110006884
:1056D00000F00040B0F1004FEFD00CE0FFE702F522
:1056E000A06000EB4110006840F0004702F5A060A8
:1056F00000EB411007600020F0BD2DE9F04F04469B
:1057000015469C46DDE90A69DDF824800020224622
:105710004FF0FF3A02F5A06B0BEB411BCBF808A052
:1057200036B1012E53D0022E03D0032E6BD132E0BE
:1057300000BF40F29D4A02F5A06B0BEB411BCBF87A
:105740000CA005F0800ABAF1800F0ED102F5A06A14
:105750000AEB411ADAF80CA04AF4807A02F5A06B41
:105760000BEB411BCBF80CA014E0D4F83CA00AF4DE
:10577000807ABAF1000F0DD002F5A06A0AEB411A47
:10578000DAF80CA04AF0600A02F5A06B0BEB411BA3
:10579000CBF80CA039E040F29D6A02F5A06B0BEB50
:1057A000411BCBF80CA005F0800ABAF1800F0DD197
:1057B00002F5A06A0AEB411ADAF80CA04AF4807AE2
:1057C00002F5A06B0BEB411BCBF80CA01DE040F2E7
:1057D000252A02F5A06B0BEB411BCBF80CA005F0C2
:1057E000800ABAF1800F0DD102F5A06A0AEB411AC6
:1057F000DAF80CA04AF4C07A02F5A06B0BEB411B5F
:10580000CBF80CA001E0012000BF00BFD2F818A423
:1058100001F00F0E4FF0010B0BFA0EFB4AEA0B0AD8
:10582000C2F818A4D4F818A04AF0007AC4F818A056
:1058300005F0800ABAF1800F02D14FF4004300E076
:105840000023B8F1020F02D14FF4003700E0002727
:105850004FF0FE5A0AEA8C5A4FF4F04B0BEAC52B74
:105860004AEA0B0A4FF4402B0BEA864B4AEA0B0A32
:10587000C9F30A0B4AEA0B0A4AEA030A4AEA070A88
:1058800002F5A06B0BEB411BCBF800A0032E0DD152
:1058900002F5A06A0AEB411ADAF800A04AF0005AB1
:1058A00002F5A06B0BEB411BCBF800A0BDE8F08F1D
:1058B00001460A4640F21440805880B2704700000A
:1058C0002DE9FC4F07460C4691463E4665784FF45D
:1058D000807BF86B00F48070F8B12079E8B9B9F1F9
:1058E000000F09D16079012806D161783846FFF7A9
:1058F000B5FD0020BDE8FC8FB9F1010F0DD106F513
:10590000A06000EB4510C06820F0600106F5A060C3
:1059100000EB4510C16000206071206978B12189D9
:1059200020690844401EB0FBF1F01FFA80F8D8450A
:1059300007DDD846208900FB08F0206101E04FF028
:105940000108E07818B1208900FB08F02061206987
:10595000C0F312004D4901EAC8410843A17A4FF053
:10596000C04202EA4171084306F5A06101EB45110E
:105970000861B9F1000F05D006F5A06000EB4510F5
:10598000E16841614FF48160805900F0010080F0CE
:105990000100019006F5A06000EB4510006820F0C2
:1059A000005106F5A06000EB4510016006F5A0600F
:1059B00000EB45100168019841EA407106F5A060CE
:1059C00000EB4510016006F5A06000EB4510006893
:1059D0002F4908600846006820F080400860E078A1
:1059E00028B10846006840F40040086005E02848F7
:1059F000006820F40040264908602548006840F00F
:105A00000040234908600846016806F5A06000EBE5
:105A100045100160B9F1000F35D1E07898BB2069DD
:105A200088B3E07930B1012813D0022803D00328CD
:105A30001ED10DE000BF2069C01CC0F38F0AF86AB8
:105A400080B2504503D2B86940F02000B86110E040
:105A500000BF2069C01CC0F38F0A4FF482608059D8
:105A600080B2504503D2B86940F08060B86100E070
:105A700000BF00BF00200090208A83B262783846C1
:105A8000E16800F052F9002034E700000000F81F40
:105A9000100000200FB470B5044625460020C5F85C
:105AA000000EA06B40F40010A063A06B20F4002057
:105AB000A063A06B20F48020A063E06B00F48070F2
:105AC00080B10798032806D1D5F8000440F00400FF
:105AD000C5F800040CE0D5F8000420F00400C5F877
