:020000040800F2
:10000000A8970020550200085D130008A3100008FF
:10001000591300080F040008A5180008000000008C
:100020000000000000000000000000009D0100082A
:100030005104000800000000F10100085F130008EF
:100040006F0200086F0200086F0200086F020008CC
:100050006F0200086F020008530400086F020008D6
:100060006F0200086F0200086F0200086F020008AC
:100070006F0200086F0200086F0200086F0200089C
:100080006F0200086F0200086F0200086F0200088C
:100090006F0200086F0200086F0200086F0200087C
:1000A0006F0200086F0200086F0200086F0200086C
:1000B0006F0200086F0200086F0200086F0200085C
:1000C0006F0200086F0200086F0200086F0200084C
:1000D0006F0200086F0200086F0200086F0200083C
:1000E0006F0200086F0200086F0200086F0200082C
:1000F0006F0200086F0200086F0200086F0200081C
:100100006F0200086F0200086F0200086F0200080B
:100110006F0200086F0200086F0200086F020008FB
:100120006F0200086F0200086F0200086F020008EB
:100130006F0200086F0200086F0200086F020008DB
:100140006F0200086F0200086F0200086F020008CB
:100150006F0200086F0200086F0200086F020008BB
:100160006F0200086F0200086F0200086F020008AB
:100170006F0200086F0200086F0200080000000014
:100180006F0200086F020008DFF80CD000F0C4F81E
:100190000048004779220008A89700202A4B1968D8
:1001A0000868B0E8F04F80F30988BFF36F8F4FF015
:1001B000000080F3118870470000000006480068C6
:1001C000006880F3088862B661B6BFF34F8FBFF353
:1001D0006F8F00DF00BF00BF08ED00E0DFF80C000C
:1001E000016841F470010160704700BF88ED00E0D4
:1001F000EFF30980BFF36F8F134B1A681EF0100FD7
:1002000008BF20ED108A20E9F04F106008B44FF0CD
:10021000500080F31188BFF34F8FBFF36F8F02F050
:10022000F5FE4FF0000080F3118808BC19680868DB
:10023000B0E8F04F1EF0100F08BFB0EC108A80F34A
:100240000988BFF36F8F70471C000020EFF3058013
:10025000704700000648804706480047FEE7FEE773
:10026000FEE7FEE7FEE7FEE7FEE7FEE7FEE7FEE766
:1002700035140008890100082DE9F05F05460020CB
:1002800092469B4688460646814640241BE0284607
:1002900041464746224600F02FF853465A46C01AB8
:1002A000914110D311461846224600F016F82D1A37
:1002B00067EB01084F4622460120002100F00DF8AF
:1002C00017EB00094E41201EA4F10104DFDC484673
:1002D00031462A464346BDE8F09F202A04DB203AF7
:1002E00000FA02F1002070479140C2F1200320FA89
:1002F00003F3194390407047202A04DB203A21FA87
:1003000002F00021704721FA02F3D040C2F120022E
:100310009140084319467047064C074D06E0E068D7
:1003200040F0010394E8070098471034AC42F6D33C
:10033000FFF72EFF64350008843500081CB5012442
:1003400002F088FB1348022100230A02CDE90010C5
:1003500011A1144802F076FF0446012C02D112A02C
:1003600001F0A2FA1748032100234FF40072CDE9EF
:10037000001015A1174802F065FF0446012C02D1B8
:1003800015A001F091FA1A48006802F081FC02F011
:10039000A3FB1CBD14000020546573745F5461738B
:1003A0006B00000099140008B4B4BDA854657374C0
:1003B0005F5461736BC8CECEF1B3C9B9A6210D0AE3
:1003C00000000000180000204B45595F5461736B1A
:1003D00000000000A9100008B4B4BDA84B45595F47
:1003E0005461736BC8CECEF1B3C9B9A6210D0A0012
:1003F0001000002010B500F0BDFF032000F0C4F98C
:1004000000F030FF00F0A0FE00F004F810BD00BFC7
:10041000FEE7000010B50C480C4908604FF4E130CD
:100420004860002109488160C160016181610C213F
:10043000416100F039FD05480068C06840F02000C7
:1004400002490968C86010BD00100140800000200A
:1004500070477047F8B502460B460025002400207F
:100460000021DCE0012606FA01F51E6806EA050413
:10047000AC4273D15E68022E02D05E68122E13D198
:10048000CF0802F1200656F827004E07F70E0F2678
:10049000BE40B0434F07FF0E1E69BE403043CF0839
:1004A00002F1200646F8270010684F000326BE40E0
:1004B000B0431E7906F003064F00BE403043106083
:1004C0005E68012E08D05E68022E05D05E68112E8F
:1004D00002D05E68122E13D190684F000326BE40F2
:1004E000B0434F00DE68BE40304390605068012644
:1004F0008E40B0431E79C6F300168E4030435060E4
:10050000D0684F000326BE40B0434F009E68BE40F7
:100510003043D0605E6806F08056B6F1805F7DD1D2
:1005200000BF00260096404E366846F480463E4F97
:100530003E603E46366806F48046009600BF00BF27
:100540003A4E8F0856F827008E07370F0F26BE4009
:10055000B043374EB24202D1002624E05EE0354E71
:10056000B24201D101261EE0334EB24201D1022631
:1005700019E0324EB24201D1032614E0304EB242AD
:1005800001D104260FE02F4EB24201D105260AE028
:100590002D4EB24201D1062605E02C4EB24201D1C9
:1005A000072600E008268F073F0FBE4030431F4E4E
:1005B0008F0846F82700264E3068A0435E6806F490
:1005C0008036B6F5803F00D12043214E3060361D85
:1005D0003068A0435E6806F40036B6F5003F00D1EF
:1005E00020431B4E361D3060361D3068A0435E68C8
:1005F00006F48016B6F5801F00D12043144E08364D
:100600003060361D3068A0435E6806F40016B6F50B
:10061000001F00D120430E4E0C363060491C1029BB
:10062000FFF420AFF8BD0000443802400838014014
:10063000000002400004024000080240000C02409A
:10064000001002400014024000180240001C02404A
:10065000003C0140024613690B400BB1012000E051
:10066000002070470AB1816101E00B04836170478B
:1006700001480068000C7047002004E00148006851
:10068000704700000400002003480068034909780F
:100690000844014908607047040000200C00002055
:1006A00070B504460E4800784FF47A71B1FBF0F053
:1006B0000C490968B1FBF0F5284600F0DBFB08B1F6
:1006C000012070BD102C07D200222146501E00F0E0
:1006D0001DF80548046001E00120F2E70020F0E782
:1006E0000C00002000000020080000200146084601
:1006F000002809DB00F01F0301229A4043099B00F8
:1007000003F1E023C3F8002100BF70472DE9F05F3B
:1007100080460D461646002701F0D6F807463946B2
:100720002A46334601F00700C0F1070ABAF1040F68
:1007300002D94FF0040A01E0C0F1070AD14600F1E6
:10074000040ABAF1070F02D24FF0000A01E0A0F14B
:10075000030AD4464FF0010A0AFA09FAAAF1010A7B
:100760000AEA020A0AFA0CFA4FF0010B0BFA0CFB28
:10077000ABF1010B0BEA030B4AEA0B04214640469E
:1007800001F0AAF8BDE8F09F00BF00F00702064B99
:1007900019684FF6FF031940044B0B4343EA02214B
:1007A000014B196000BF70470CED00E00000FA0536
:1007B00070B504460D460CB9012070BD584800685C
:1007C00000F00F00A84209D255490D700846006894
:1007D00000F00F00A84201D00120EEE7207800F0E1
:1007E000020002281DD1207800F00400042805D161
:1007F0004C48006840F4E0504A490860207800F016
:100800000800082805D14748006840F46040454981
:1008100008604448006820F0F000A168084341499E
:100820000860207800F00100A8B36068012807D1B3
:100830003C4808380068C0F34040B8B90120BCE724
:100840006068022802D06068032807D1354808385C
:100850000068C0F3406048B90120AEE7314808386D
:100860000068C0F3400008B90120A6E72D480068E1
:1008700020F00300616808432A490860FFF7FEFE84
:10088000064609E0FFF7FAFE801B41F288318842F4
:1008900002D9032091E707E02248006800F00C002D
:1008A0006168B0EB810FEDD11D48006800F00F00CA
:1008B000A84209D91A490D700846006800F00F00D7
:1008C000A84201D0012078E7207800F00400042835
:1008D00007D11448006820F4E050E168084311494A
:1008E0000860207800F00800082808D10D4800684A
:1008F00020F46040216940EAC1000A49086000F024
:100900003DF808490968C1F30311074A515CC84022
:10091000064908600F20FFF7C3FE00204DE70000E6
:10092000003C0240083802404C350008000000201E
:1009300001480068704700000000002000B5FFF784
:10094000F7FF04490968C1F38221034A515CC8409A
:1009500000BD0000083802405C35000800B5FFF714
:10096000E7FF04490968C1F34231034A515CC840BA
:1009700000BD0000083802405C3500082DE9F04752
:10098000002400250026A1462548006800F00C0040
:1009900020B1042805D008283AD105E0DFF884907A
:1009A00039E0DFF8849036E01D48001F006800F051
:1009B0003F041B48001F006800F4800078B11A480B
:1009C0001749091F0968C1F38811A0FB017001468E
:1009D000224600233846FFF74FFC05460EE011483B
:1009E0000F49091F0968C1F38811A0FB0170014676
:1009F000224600233846FFF73FFC05460848001F03
:100A00000068C0F30140401C4600B5FBF6F902E067
:100A1000DFF8109000BF00BF4846BDE8F087000037
:100A2000083802400024F40040787D01F8B50446FF
:100A30000CB90120F8BD207800F00100002874D026
:100A4000F948006800F00C0004280DD0F648006852
:100A500000F00C00082813D1F348001F006800F4D0
:100A60008000B0F5800F0BD1EF4808380068C0F364
:100A70004040002859D06068002856D10120D9E7AD
:100A800000BF6068B0F5803F08D1E74808380068CB
:100A900040F48030E449083908601EE06068B0F531
:100AA000A02F0DD1E0480838006840F48020DE49CE
:100AB000083908600846006840F4803008600CE09F
:100AC000D9480838006820F48030D74908390860D0
:100AD0000846006820F48020086000BF606890B17C
:100AE000FFF7CCFD054606E0FFF7C8FD401B642874
:100AF00001D903209EE7CC4808380068C0F3404085
:100B00000028F1D011E0FFF7B9FD054606E0FFF738
:100B1000B5FD401B642801D903208BE7C248083883
:100B20000068C0F340400028F1D1207800F00200B6
:100B300002285FD1BC48006800F00C0058B1BA48E8
:100B4000006800F00C0008281CD1B748001F00689E
:100B500000F48000B0B9B44808380068C0F3400021
:100B600020B1E068012801D0012063E7AE480838D1
:100B7000006820F0F800216940EAC100AA4908395C
:100B8000086037E0E06800B30120A8490860FFF77B
:100B900075FD054606E0FFF771FD401B022801D9EF
:100BA000032047E7A04808380068C0F34000002849
:100BB000F1D09D480838006820F0F800216940EA2B
:100BC000C10099490839086014E00020974908607D
:100BD000FFF754FD054606E0FFF750FD401B0228D5
:100BE00001D9032026E7904808380068C0F3400088
:100BF0000028F1D1207800F0080008282CD1606985
:100C0000A8B101208A490860FFF738FD054606E0D3
:100C1000FFF734FD401B022801D903200AE7824870
:100C20006C300068C0F340000028F1D014E00020D0
:100C30007F490860FFF722FD054606E0FFF71EFD2D
:100C4000401B022801D90320F4E677486C30006885
:100C5000C0F340000028F1D1207800F004000428FF
:100C600070D1002670483830006800F0805090B98C
:100C700000BF002000906C483830006840F0805081
:100C80006949383108600846006800F080500090DB
:100C900000BF00BF01266748006800F48070B0B94B
:100CA0006448006840F4807062490860FFF7E6FC21
:100CB000054606E0FFF7E2FC401B022801D90320AD
:100CC000B8E65C48006800F480700028F2D000BFED
:100CD000A068012808D154486830006840F001003D
:100CE0005149683108601DE0A06805280DD14E48C3
:100CF0006830006840F004004B49683108600846DD
:100D0000006840F0010008600CE047486830006867
:100D100020F001004449683108600846006820F06E
:100D20000400086000BFA068A8B1FFF7A7FC054653
:100D300009E0FFF7A3FC401B41F28831884202D949
:100D4000032077E626E0384868300068C0F34000AA
:100D50000028EED013E0FFF791FC054608E0FFF70E
:100D60008DFC401B41F28831884201D9032061E6A5
:100D70002D4868300068C0F340000028EFD1012EF4
:100D800007D129483830006820F080502649383192
:100D9000086000BFA069B8B32348006800F00C00E9
:100DA00008285ED0A069022846D100201F490866A5
:100DB000FFF764FC054606E0FFF760FC401B0228D5
:100DC00001D9032036E6184808380068C0F34060AF
:100DD0000028F1D1D4E907010843616A40EA811192
:100DE0000122A06AC2EB500041EA00412C20005DC4
:100DF00041EA00600C49091F086001200B490866A0
:100E0000FFF73CFC054607E02DE0FFF737FC401BF1
:100E1000022801D903200DE6034808380068C0F312
:100E200040600028F1D01EE0083802400000474230
:100E3000800E47420070004000200C490866FFF712
:100E40001DFC054606E0FFF719FC401B022801D9EE
:100E50000320EFE506480068C0F340600028F2D1A7
:100E600001E00120E6E50020E4E500000000474243
:100E70000038024070B504462546681EB0F1807FF8
:100E800001D301200FE0681E4FF0E02148610F21DF
:100E90004FF0FF3000F020FD00204FF0E02188618E
:100EA00007200861002070BD10B504460CB9012070
:100EB00010BDA06900B100E000BF94F8390028B966
:100EC000002084F83800204600F028F8242084F818
:100ED00039002068C06820F400502168C8602046AE
:100EE00000F0F6FA2068006920F49040216808615B
:100EF0002068406920F02A00216848612068C068A5
:100F000040F400502168C8600020E063202084F88D
:100F1000390084F83A000020CAE7000010B586B016
:100F2000044600BF002000902648006840F01000F2
:100F3000244908600846006800F01000009000BFD7
:100F400000BF00BF002000901E481438006840F029
:100F500002001C49143908600846006800F00200CD
:100F6000009000BF00BF00BF00200090084600684E
:100F700040F0020008600846006800F0020000909F
:100F800000BF00BF4020019002200290012003908A
:100F9000032004900720059001A90B48FFF75AFA97
:100FA000802001900720059001A90748FFF752FA19
:100FB000012200212520FFF7A9FB2520FFF796FB42
:100FC00006B010BD44380240000402402DE9F84349
:100FD00004460D4616461F464FF0000994F83900A6
:100FE00020285CD105B116B90120BDE8F88300BF07
:100FF00094F83800012801D10220F6E7012084F896
:10100000380000BF0020E063212084F83900FFF79A
:1010100035FB8146A684E6842BE0E08C401EE0840C
:10102000A068B0F5805F16D14B4600228021204693
:10103000009700F001FC08B10320D6E7A846B8F8F5
:101040000000C0F3080021684860206908B9AD1CA1
:101050000FE06D1C0DE04B460022802120460097DA
:1010600000F0EAFB08B10320BFE715F8010B216887
:101070004860E08C0028D0D14B4600224021204619
:10108000009700F0D9FB08B10320AEE7202084F8D8
:10109000390000BF002084F8380000BFA5E7022017
:1010A000A3E700BFFEE7000023E00121114800F0A4
:1010B000C5F8012809D110A000F0F6FB124800681D
:1010C00001F01AFF11A000F0EFFB4FF4005114489B
:1010D00000F0B4F8012809D112A000F0E5FB0A489D
:1010E000006801F05DFE13A000F0DEFB142001F0AB
:1010F00093FDDAE700000240B9D2C6F0546573747C
:10110000C8CECEF1A3A10A0014000020B9D2C6F0C7
:1011100054657374C8CECEF1B3C9B9A6A3A10A00B1
:1011200000080240BBD6B8B454657374C8CECEF183
:10113000A3A10A00BBD6B8B454657374C8CECEF16F
:10114000B3C9B9A6A3A10A0000B587B000BF0020AB
:1011500001903648006840F00100344908600846B4
:10116000006800F00100019000BF00BF00BF002038
:1011700001900846006840F00400086008460068D6
:1011800000F00400019000BF00BF00BF00200190EC
:101190000846006840F0400008600846006800F01B
:1011A0004000019000BF00BF00BF00200190084632
:1011B000006840F0400008600846006800F0400009
:1011C000019000BF00BF00BF0020019008460068EA
:1011D00040F0400008600846006800F040000190C0
:1011E00000BF00BF0120029000200390049002A9DC
:1011F0000F48FFF72FF94FF40050029002A90D4855
:10120000FFF728F90420029002A90B48FFF722F902
:101210000820029002A90848FFF71CF9102002904C
:1012200002A90548FFF716F907B000BD30380240A3
:1012300000000240000802400018024070B5044659
:101240000D4629462046FFF705FA012808D100BFC0
:1012500029462046FFF7FEF90128F9D0012070BD8C
:101260000020FCE700B587B000BF002001903548A2
:10127000006840F00100334908600846006800F04B
:101280000100019000BF00BF00BF00200190084690
:10129000006840F0100008600846006800F0100088
:1012A000019000BF00BF00BF002001900846006809
:1012B00040F0400008600846006800F040000190DF
:1012C00000BF00BF00BF002001900846006840F04A
:1012D000020008600846006800F00200019000BFAC
:1012E00000BF4FF4004002900120039004900320BF
:1012F000059002A91448FFF7ADF80420029002A956
:101300001248FFF7A7F84FF40040029002A91048D6
:10131000FFF7A0F84FF48070029002A90D48FFF784
:1013200099F84FF400400849886104200749886112
:101330004003074918310860C01106491831086098
:1013400007B000BD303802400000024000100240EB
:10135000001802400004024000BFFEE7704710B5CD
:1013600001F0A0FF012801D001F052FFFFF78CF936
:1013700010BD000000B593B000BF002001902A48C6
:10138000006840F08050284908600846006800F076
:101390008050019000BF00BF00BF00200190234893
:1013A000006840F48040214908600846006800F465
:1013B0008040019000BF00BF012002900004039014
:1013C000022008904105099119210A914FF4A87152
:1013D0000B9102210C9107210D9102A8FFF726FB2A
:1013E00008B100BFFEE70F200E9002200F900020F2
:1013F00010904FF4A05011904FF48050129005219E
:101400000EA8FFF7D5F908B100BFFEE7FFF730F9E6
:1014100041F20101884205D10548006840F480701E
:101420000349086013B000BD40380240007000401E
:10143000003C02401448006840F470001249086003
:101440001248006840F001001049086000200F4970
:10145000083108600D4800680D4908400B490860D4
:101460000C48091D0860081F006820F48020091F2F
:101470000860002005490C3108604FF00060024907
:10148000803908607047000088ED00E000380240B5
:10149000FFFFF6FE1030002414E000F0BFFC01282E
:1014A00006D10948406980F004000749486105E019
:1014B0000648406980F40040044948614FF47A705E
:1014C00001F0AAFBE9E70000001002400000024022
:1014D0002DE9F04104462068006920F44050E1689D
:1014E0000843216808612169A068084361690843CD
:1014F000E16940EA01052068C06849F20C6188434F
:1015000028432168C8602068406920F44070A169C0
:10151000084321684861E069B0F5004F7ED1C449B5
:101520002068884203D0C349206888425DD1FFF714
:1015300015FA00EBC00101EB001061684900B0FB37
:10154000F1F06421B0FBF1F00601FFF707FA00EBC0
:10155000C00101EB001061684900B0FBF1F7FFF733
:10156000FDF900EBC00101EB001061684900B0FB20
:10157000F1F06421B0FBF1F000EBC00101EB0010D1
:10158000A7EB8000322101EBC0006421B0FBF1F039
:1015900000F0F80006EB4006FFF7E0F900EBC001B1
:1015A00001EB001061684900B0FBF1F7FFF7D6F9D5
:1015B00000EBC00101EB001061684900B0FBF1F0E5
:1015C0006421B0FBF1F000EBC00101EB0010A7EBD0
:1015D0008000322101EBC0006421B0FBF1F000F08B
:1015E000070030442168886020E1FFF7A7F900EB8D
:1015F000C00101EB001061684900B0FBF1F064210B
:10160000B0FBF1F00601FFF799F900EBC00101EB27
:10161000001061684900B0FBF1F700E045E0FFF71A
:101620008DF900EBC00101EB001061684900B0FBCF
:10163000F1F06421B0FBF1F000EBC00101EB001010
:10164000A7EB8000322101EBC0006421B0FBF1F078
:1016500000F0F80006EB4006FFF770F900EBC00160
:1016600001EB001061684900B0FBF1F7FFF766F984
:1016700000EBC00101EB001061684900B0FBF1F024
:101680006421B0FBF1F000EBC00101EB0010A7EB0F
:101690008000322101EBC0006421B0FBF1F000F0CA
:1016A0000700304421688860C0E0614920688842B2
:1016B00003D06049206888425CD1FFF74FF900EB06
:1016C000C00101EB001061688900B0FBF1F6FFF783
:1016D00045F900EBC00101EB001061688900B0FB27
:1016E000F1F06421B0FBF1F000EBC00101EB001060
:1016F000A6EB8000322101EB00106421B0FBF1F079
:1017000000F0F006FFF72AF900EBC00101EB001032
:1017100061688900B0FBF1F06421B0FBF1F006EBE9
:101720000016FFF71BF900EBC00101EB0010616828
:101730008900B0FBF1F7FFF711F900EBC00101EBF5
:10174000001061688900B0FBF1F06421B0FBF1F09A
:1017500000EBC00101EB0010A7EB8000322101EB90
:1017600000106421B0FBF1F000F00F00304421685C
:1017700088605BE0FFF7E2F800EBC00101EB0010CE
:1017800061688900B0FBF1F6FFF7D8F800EBC00103
:1017900001EB001061688900B0FBF1F06421B0FB3F
:1017A000F1F000EBC00101EB0010A6EB800032214C
:1017B00001EB00106421B0FBF1F000F0F006FFF740
:1017C000BDF800EBC00101EB001061688900B0FBBF
:1017D000F1F06421B0FBF1F006EB0016FFF7AEF874
:1017E00000EBC00101EB001061688900B0FBF1F76C
:1017F000FFF7A4F800EBC00101EB0010616889005D
:10180000B0FBF1F06421B0FBF1F000EBC00101EBA3
:101810000010A7EB8000322101EB00106421B0FB27
:10182000F1F000F00F00304421688860BDE8F081DD
:1018300000100140001401402DE9F04104460D461E
:1018400017469846069E21E0701CF8B12EB1FEF7AF
:1018500015FFA0EB0800B04218D92068C06820F43A
:10186000D0702168C8602068406920F001002168BC
:101870004861202084F8390084F83A0000BF002035
:1018800084F8380000BF0320BDE8F08120680068BC
:101890002840A84201D1012000E00020B842D3D066
:1018A0000020F1E700BFFEE70FB4054B10B503A918
:1018B000044A029800F034F810BC5DF814FB0000F4
:1018C000192000087C00002002480068C0F30220B4
:1018D000704700000CED00E010B5002804DB0A079B
:1018E000130E054A135406E00A07140E034A00F0CB
:1018F0000F031B1FD45410BD00E400E018ED00E0FE
:1019000002E008C8121F08C1002AFAD170477047C8
:10191000002001E001C1121F002AFBD17047000026
:101920002DE9FF4F8DB00F460546002606E025281D
:101930000BD0DDE90F1290476D1C761C287800282B
:10194000F5D111B03046BDE8F08F0024A246A14683
:101950000122EC4900E0044315F8013F203B02FA64
:1019600003F00842F7D128782A2810D06FF02F0210
:101970002878A0F13001092914D80AEB8A0102EB7A
:10198000410144F0020400EB010A6D1CF0E701CFB5
:101990005FEA000A03D544F40054CAF1000A44F097
:1019A00002046D1C28782E2817D115F8010F44F079
:1019B00004042A280ED06FF02F022878A0F13001FD
:1019C00009290AD809EB890102EB410100EB010961
:1019D0006D1CF2E757F8049B6D1C28786C280FD01B
:1019E00006DC4C2817D068280DD06A2814D104E0F2
:1019F000742810D07A280FD10DE044F400140AE0C6
:101A000044F4801401E044F440146978814202D126
:101A100004F580146D1C6D1C2A786E2A1FD00CDC16
:101A2000632A31D004DC002A8BD0582A11D1A3E0DC
:101A3000642A68D0692A0CD165E0732A2ED004DCB0
:101A40006F2A73D0702A04D19BE0752A6FD0782A50
:101A50006ED01046DDE90F129047761C50E1C4F3BA
:101A60000250022806D0032809D0042801CF09D04B
:101A7000066045E101CFF117C0E9006140E101CF07
:101A800006803DE106703BE117F8040B8DF800007D
:101A900000208DF80100EB46012003E057F804BB5D
:101AA0004FF0FF3061074FF0000102D40DE008F164
:101AB0000101884649450FDA8045F8DB1BF808101C
:101AC0000029F4D108E008F1010188468142FADBDF
:101AD0001BF808100029F6D1DDE90F23AAEB080056
:101AE0008146214600F036F9304400EB080604E058
:101AF000DDE90F121BF8010B9047B8F10108F7D28E
:101B000021464846F7E00A21C4F302534FF0000B88
:101B10000891022B04D001CFC117032B09D00AE092
:101B2000FF1D27F00707F7E8020108E032E01FE099
:101B300020E000B2C117042B01D140B2C117031E2F
:101B400071F1000307DA4FF0000CD0EB0C006CEBE6
:101B500001012D2302E0230504D52B238DF8243029
:101B6000012303E0E30701D02023F7E7984658E07C
:101B70000A2110E010210EE010204FF0000B089019
:101B80000CE010214FF0000B44F004044FF0080962
:101B9000089103E008214FF0000B0891C4F30253B1
:101BA000022B04D001CF0021032B06D006E0FF1D3D
:101BB00027F00707F7E8020103E080B2042B00D109
:101BC000C0B24FF0000823072BD5702A07D0DDF8EC
:101BD00020C08CF0100C5CEA0B0C05D00EE040230A
:101BE0008DF82430012308E050EA010306D03023A9
:101BF0008DF824308DF8252002239846DDF820C08A
:101C00008CF0080C5CEA0B0C0BD150EA010301D1FB
:101C1000630706D530238DF824304FF00108A9F171
:101C20000109582A04D038A20B9208AA0A920BE0A4
:101C30003AA2F9E75B46089AFEF71EFB0B9B9B5CFA
:101C40000A9A521E0A92137050EA0102F2D10A98BF
:101C5000ADEB000000F1200B600702D524F48034C6
:101C600001E04FF00109D94502DDA9EB0B0000E0CE
:101C7000002000EB0B0141440890AAEB010AE003AD
:101C800006D4DDE90F232146504600F063F80644F0
:101C90004FF0000908E009A911F80900DDE90F1269
:101CA000904709F10109761CC145F4DBE0030CD52E
:101CB000DDE90F232146504600F04CF8064404E0CD
:101CC000DDE90F1230209047761C0899481E0890D5
:101CD0000029F5DC08E00A980A990078491C0A9165
:101CE000DDE90F129047761CBBF10001ABF1010B4F
:101CF000F1DC21465046DDE90F2300F019F80644D7
:101D00006D1C1BE60928010030313233343536377B
:101D10003839616263646566000000003031323337
:101D200034353637383941424344454600000000D7
:101D30002DE9F041044600251E461746880404D4C8
:101D400005E039462020B0476D1C641EF9D52846B1
:101D5000BDE8F0812DE9F041044600251E4690467D
:101D6000C80301D5302700E02027880404D505E00A
:101D700041463846B0476D1C641EF9D52846BDE87B
:101D8000F08110B5A02000F099F908B9012010BD2C
:101D900000F03AFA0020FAE701B502E00098401E90
:101DA000009000980028F9D108BD2DE9F0410646C1
:101DB0000F46154600F00AFAA02000F0D5F900F011
:101DC00039FA00B125E0F8B200F0CEF900F032FAAD
:101DD00000B11EE000F0FAF9A12000F0C5F900F012
:101DE00029FA00B115E000240CE000F099F9305513
:101DF000681EA04202D000F01DF901E000F076F963
:101E0000601C84B2AC42F0DB00F0FEF90120BDE8BA
:101E1000F08100F0F9F90020F9E7000010B5ADF508
:101E2000007DFFF7AEFF30B92BA0FFF73DFD00208E
:101E30000DF5007D10BD002403E040A90C55601C89
:101E400084B2FF2CF9DD4FF48072002140A800F02D
:101E5000A3F820B926A0FFF727FD0020E8E729A076
:101E6000FFF722FD2C48FFF797FF4FF48072002107
:101E70006846FFF79AFF20B928A0FFF715FD00205C
:101E8000D6E72BA0FFF710FD00241DE01DF804008D
:101E900040A9095D884209D01DF804102BA0FFF766
:101EA00003FD2CA0FFF700FD0020C1E71DF8041082
:101EB00031A0FFF7F9FC04F00F000F2802D122A097
:101EC000FFF7F2FC601C84B2FF2CDFDD2CA0FFF7D3
:101ED000EBFC0120ACE70000C3BBD3D0BCECB2E20A
:101EE000B5BDB4AED0D0454550524F4D210D0A007E
:101EF000D0B4656570726F6DB3F6B4EDA3A10D0A31
:101F000000000000D0B4656570726F6DB3C9B9A6EA
:101F1000A3A10D0A00000000FFFF0F00B6C1656518
:101F200070726F6DB3F6B4EDA3A10D0A000000004E
:101F3000B6C1656570726F6DB3C9B9A6A3ACCAFDB1
:101F4000BEDDC8E7CFC2A3BA0D0A00003078253045
:101F500032582000B4EDCEF33A454550524F4DB6BD
:101F6000C1B3F6D3EBD0B4C8EBB5C4CAFDBEDDB285
:101F7000BBD2BBD6C2000000202530325800000082
:101F8000656570726F6DB6C1D0B4B2E2CAD4B3C920
:101F9000B9A60D0A000000002DE9F0470746884663
:101FA0009146464600242CE014B106F00700E8B93B
:101FB00000F02AF900250AE000F008F9A02000F05E
:101FC000D3F800F037F900B904E0681C85B2B5F524
:101FD0007A7FF1DB00BFB5F57A7F00D118E0F0B26F
:101FE00000F0C2F800F026F900B111E0385D00F011
:101FF000BBF800F01FF900B10AE0701C86B2601C4B
:1020000084B24C45D0DB00F0FFF80120BDE8F0873A
:1020100000F0FAF80020F9E713B50C464FF47A7394
:10202000012269460248FEF7D1FF00981CBD00005E
:102030008000002010B5002220210C48FEF712FB82
:1020400000F04CF8012210210848FEF70BFB00F0CD
:1020500045F8002210210548FEF704FB00F03EF889
:10206000012220210148FEF7FDFA10BD001C0240AC
:1020700000B587B000BF002001900E48006840F016
:1020800080000C4908600846006800F0800001905C
:1020900000BF00BF30200290032005901120039064
:1020A0000020049002A90448FEF7D4F900F0ACF82F
:1020B00007B000BD30380240001C024070B5044635
:1020C000FFF7D6FF00F082F8204600F04DF800F050
:1020D000B1F8054600F098F8284670BD002001E0F0
:1020E000411CC8B22828FBDB7047000010B5012254
:1020F00020210A48FEF7B6FAFFF7F0FF012210216F
:102100000648FEF7AFFAFFF7E9FF00221021034867
:10211000FEF7A8FAFFF7E2FF10BD0000001C024026
:1021200070B50024002518E06006040E012210217D
:102130000C48FEF797FAFFF7D1FF20210948FEF778
:1021400089FA08B1601CC4B2002210210548FEF7CC
:1021500089FAFFF7C3FF681CC5B2082DE4DB2046EF
:1021600070BD0000001C024070B50446002528E048
:1021700004F0800028B1012220211348FEF772FAF2
:1021800004E0002220211048FEF76CFAFFF7A6FFBA
:10219000012210210C48FEF765FAFFF79FFF00228D
:1021A00010210948FEF75EFA072D04D101222021F3
:1021B0000548FEF757FA6006040EFFF78FFF681C0C
:1021C000C5B2082DD4DB70BD001C024010B5012241
:1021D00020210C48FEF746FA012210210948FEF79B
:1021E00041FAFFF77BFF002220210648FEF73AFA6A
:1021F000FFF774FF002210210248FEF733FAFFF7C1
:102200006DFF10BD001C024010B5002220210848BF
:10221000FEF728FA012210210548FEF723FAFFF7FE
:102220005DFF012220210248FEF71CFA10BD0000CC
:10223000001C024010B5012220210E48FEF712FAC0
:10224000FFF74CFF012210210A48FEF70BFAFFF7B7
:1022500045FF20210748FEF7FDF908B1012400E001
:102260000024002210210348FEF7FCF9FFF736FF97
:10227000204610BD001C02401CB50124FEF7BAF830
:102280000AA0FFF711FB17A0FFF70EFB2148012161
:1022900000234A02CDE900101FA1234800F0D2FF1D
:1022A00004460CB100F0D4FD00BFFEE7D5E2CAC77A
:1022B000D2BBB8F65BD2B0BBF05D2D53544D333278
:1022C000C8ABCFB5C1D0BFAAB7A2B0E52D467265E5
:1022D0006552544F53B9CCBCFEBFE2C0FDB3CCA392
:1022E000A10A0A00B0B4CFC24B455931B9D2C6F0E9
:1022F000C8CECEF1A3ACB0B4CFC24B455932BBD699
:10230000B8B4C8CECEF1A3ACB2E2CAD44949430AAC
:1023100000000000100000204170705461736B4396
:1023200072656174650000003D0300082DE9F0410D
:1023300005460E461C4807681C480068001D00F052
:102340003FFB50B91948006890F82C1001208840D4
:1023500017490968814316480160681C38B936B1CD
:1023600012480168091D134800F068FB1AE07C1947
:102370000E4800684460BC4207D20C480168091D41
:102380000D48006800F040FB0CE008480168091D9A
:102390000A48006800F038FB09480068844201D20E
:1023A00007480460BDE8F081300000201C000020D8
:1023B0003400002090030020240000202000002092
:1023C0004C00002010B5044600F044FB2348006890
:1023D000401C224908602248006840B92048046037
:1023E0000846006801280DD100F036F90AE01D48C2
:1023F000006838B91A480068C06AE16A884201D8A2
:102400001748046018480068401C1749086094F891
:102410002C100120884015490968084313490860B9
:10242000E16A01EB8101124A02EB8100211D00F0FB
:1024300005FB00F051FB0B48006868B108480068D4
:10244000C06AE16A884207D24FF0805009490860AB
:10245000BFF34F8FBFF36F8F10BD00002C00002023
:102460001C0000203800002048000020340000201C
:10247000C000002004ED00E070B523E000F0BEFDD8
:102480001348006808B9012000E00020054600F06C
:10249000CBFFBDB900F0DEFA0D48C068C468201D4E
:1024A00000F08EFA0B480068401E0A4908600A488E
:1024B0000068401E0849086000F00EFB204600F04E
:1024C0000DF800BF044800680028D7D170BD000097
:1024D0007C0300202C0000202800002010B50446BA
:1024E000206B00F02FFB204600F02CFB10BD0000FD
:1024F00030B54FF41043174800F007042CB1C01D4D
:1025000020F00700134C041B1B1B0246124C2260D8
:102510000024114D6C60D018083820F007000F4CD3
:10252000206000240D4D2D686C600C4D2D682C60D2
:102530001146441A4C60094C24680C60084D4C68E4
:102540002C60084D4C682C604FF00044064D2C6008
:1025500030BD0000A40300205800002060000020CF
:1025600068000020640000206C00002000BFFFF71E
:1025700083FF064800680128F9D94FF080500449CC
:102580000860BFF34F8FBFF36F8FF0E7C0000020EC
:1025900004ED00E02DE9FF5F81460E469246DDE93D
:1025A0000E7B109CAAF10100216B01EB800828F042
:1025B000070808F0070008B9012000E0002028B94A
:1025C00040F22B321AA120A0FFF76EF9002507E098
:1025D000715D04F134004155705D00B902E06D1C7D
:1025E000102DF5D300BF002143200155202F00D32B
:1025F0001F27E762201D00F004FA04F1180000F024
:1026000000FA2461C7F12000A061646200206064C8
:1026100084F8480049464046039A00F0BBF9206020
:10262000BBF1000F01D0CBF80040BDE8FF9F0000D8
:102630002E2E5C4672656552544F535C7372635C18
:102640007461736B732E63004572726F723A2573F7
:102650002C25640D0A00000010B5002407E004EBEF
:1026600084010F4A02EB810000F0BEF9641C202CAB
:10267000F5D30C4800F0B8F90B4800F0B5F90B4859
:1026800000F0B2F90A4800F0AFF90A4800F0ACF9DE
:1026900004480949086004480849086010BD000062
:1026A000C0000020400300205403002068030020E5
:1026B0007C03002090030020200000202400002044
:1026C00010B50146164800E0006803688B42FBD352
:1026D0000246436813448B4204D143684C68234448
:1026E000436001460A464B6813440468A34211D173
:1026F0000C4C03682468A34208D04B6804686468E3
:1027000023444B6003681B680B6005E0054B1B68A6
:102710000B6001E003680B60884200D0016010BDCF
:1027200058000020600000200A490968096809B9BA
:10273000012100E0002121B14FF0FF31064A116074
:1027400006E004490968C968C868034A416811601D
:1027500070470000200000204C0000200C4800685A
:10276000401C08B9012000E0002028B940F20F12F7
:1027700008A112A0FFF798F800BF502080F311883D
:10278000BFF34F8FBFF36F8F00BF00BFFEE70000A6
:10279000700000202E2E5C4672656552544F535CCB
:1027A000706F72745C525644535C41524D5F434D9E
:1027B00034465C706F72742E630000004572726F55
:1027C000723A25732C25640D0A00000070B5054689
:1027D00000262C462DB940F281620EA113A0FFF70E
:1027E00063F816496069884201D1012000E00020A9
:1027F00070B11349A06A884201D1012000E0002095
:1028000030B9A06A08B9012000E0002000B101261B
:10281000304670BD2E2E5C4672656552544F535C37
:102820007372635C7461736B732E63004572726FB5
:10283000723A25732C25640D0A00000090030020D5
:10284000680300202DE9F04104464FF0000800F035
:10285000D5FB3E48006808B9FFF74AFE3C480068CF
:10286000204000285FD1A4B1083404F0070080B1F3
:1028700004F00700C0F10800044404F0070008B9A0
:10288000012000E0002020B9BF2232A13AA0FFF7CA
:102890000BF8002C47D03C480068844243D83B4E9C
:1028A0003046056801E02E462D686868A04202D2D5
:1028B00028680028F7D125480068854233D0306861
:1028C00000F10808286830606868001B102813D9D8
:1028D0002F1907F0070008B9012000E0002020B9F7
:1028E000EC221CA124A0FEF7DFFF6868001B7860C3
:1028F0006C603846FFF7E4FE234968680968081AE7
:10290000214908600846006821490968884203D2C5
:102910001D4800681E4908600D4968680968084339
:1029200068600020286000F07FFD08F0070008B90B
:10293000012000E0002028B94FF4967205A10EA0F6
:10294000FEF7B2FF4046BDE8F081000060000020C5
:102950006C0000202E2E5C4672656552544F535C0D
:10296000706F72745C4D656D4D616E675C6865611A
:10297000705F342E630000004572726F723A2573E7
:102980002C25640D0A00000064000020580000207F
:1029900068000020001F4FF080730360001F21F0CB
:1029A00001030360001F054B036014380260001F21
:1029B0006FF0020303602038704700005D270008B5
:1029C00001460A69D1E901309860D1E901035860F4
:1029D0005068884201D18868506000200861106802
:1029E000401E10601068704700F1080141604FF010
:1029F000FF31816000F10801C160016100210160C7
:102A0000704700210161704710B502460B685C1CDD
:102A10000CB9106907E002F1080000E04068446862
:102A200024689C42FAD944684C604C68A160886074
:102A300041600A611468641C146010BD42684A60F9
:102A400093688B60936859609160086103685B1CB0
:102A50000360704710B500BF502080F31188BFF3AA
:102A60004F8FBFF36F8F00BF0B480068401C0A49AF
:102A700008600846006801280DD108480068C0B207
:102A800008B9012000E0002028B940F2B91204A1E1
:102A90000DA0FEF709FF10BD7000002004ED00E05E
:102AA0002E2E5C4672656552544F535C706F727483
:102AB0005C525644535C41524D5F434D34465C700A
:102AC0006F72742E630000004572726F723A257344
:102AD0002C25640D0A00000010B50B48006828B9C9
:102AE0004FF4E07209A113A0FEF7DEFE064800686D
:102AF000401E054908600846006820B9002080F3A0
:102B0000118800BF00BF10BD700000202E2E5C4653
:102B100072656552544F535C706F72745C525644C8
:102B2000535C41524D5F434D34465C706F72742E5E
:102B3000630000004572726F723A25732C25640D94
:102B40000A00000070B506463546002E35D0083D17
:102B50002C461A4960680968084008B1012000E065
:102B6000002028B94FF4A07215A11EA0FEF79CFE0C
:102B7000206808B9012000E0002028B940F2411285
:102B80000FA118A0FEF790FE0C4960680968084084
:102B900098B1206888B9094960680968884360600D
:102BA00000F02CFA1349606809680844114908606C
:102BB0002046FFF785FD00F037FC70BD6C0000205B
:102BC0002E2E5C4672656552544F535C706F727462
:102BD0005C4D656D4D616E675C686561705F342E3C
:102BE000630000004572726F723A25732C25640DE4
:102BF0000A00000064000020064800684FF47A7163
:102C0000B0FBF1F0401E4FF0E02148610720086161
:102C1000704700000000002070B504460025ACB1EC
:102C20000F48006808B9012000E0002028B940F2F0
:102C3000CF420CA111A0FEF737FE00F0DFF9002112
:102C40002046FFF773FB00F0EFFB05463DB94FF060
:102C500080500E490860BFF34F8FBFF36F8F70BD78
:102C6000540000202E2E5C4672656552544F535C12
:102C70007372635C7461736B732E63004572726F61
:102C8000723A25732C25640D0A00000004ED00E063
:102C900070B50546FFF7DEFE15B92D48006800E067
:102CA00028460446201DFFF78BFE78B9E06A00EB4A
:102CB0008000284951F8200040B994F82C100120D8
:102CC000884025490968814323480160A06A18B1FA
:102CD00004F11800FFF774FE20480068401C1F49EB
:102CE00008601B480068844209D1211D1C48FFF779
:102CF000A5FE1C480068401C1A49086009E01A48F3
:102D00000068401E184908602046FFF7E7FBFFF700
:102D10000BFDFFF7E1FE15480068C0B10C480068E4
:102D2000844214D11248006808B9012000E0002054
:102D300028B940F265420FA114A0FEF7B5FD4FF08F
:102D4000805016490860BFF34F8FBFF36F8F70BD7F
:102D50001C000020C000002034000020480000209B
:102D60007C030020280000202C00002038000020D8
:102D7000540000202E2E5C4672656552544F535C01
:102D80007372635C7461736B732E63004572726F50
:102D9000723A25732C25640D0A00000004ED00E052
:102DA00070B505462C462DB940F2AB621AA120A0A1
:102DB000FEF77AFD74B32248006884422AD0FFF7F8
:102DC00049FE2046FFF702FD10B3201DFFF7F8FD76
:102DD00094F82C10012088401A49096808431949C1
:102DE0000860E16A01EB8101174A02EB8100211DB5
:102DF000FFF724FE1249E06A0968C96A884207D3CE
:102E00004FF0805011490860BFF34F8FBFF36F8FB1
:102E1000FFF762FE70BD00002E2E5C4672656552A3
:102E2000544F535C7372635C7461736B732E6300F5
:102E30004572726F723A25732C25640D0A000000EA
:102E40001C00002034000020C000002004ED00E041
:102E50001CB5184800210B468022CDE9001016A1B0
:102E6000174800F0EFF90446012C15D100BF50209F
:102E700080F31188BFF34F8FBFF36F8F00BF4FF008
:102E8000FF301049086001200F49086000200F49F9
:102E9000086000F011F90BE0601C08B1012000E0AF
:102EA000002028B940F2847209A10FA0FEF7FCFCB3
:102EB0001CBD00005000002049444C4500000000AB
:102EC0006D2500084C000020380000203000002054
:102ED0002E2E5C4672656552544F535C7372635C70
:102EE0007461736B732E63004572726F723A25734F
:102EF0002C25640D0A00000070B50546FFF7AAFDF9
:102F000015B92C48006800E028460446201DFFF74C
:102F100057FD78B9E06A00EB8000274951F820009E
:102F200040B994F82C100120884024490968814355
:102F300022480160A06A18B104F11800FFF740FDB3
:102F4000211D1F48FFF77AFDFFF7C6FD1D480068E9
:102F500028B1FFF77FFDFFF7E7FBFFF7BDFD154841
:102F60000068844224D117480068A8B11648006858
:102F700008B9012000E0002028B940F2576213A1EF
:102F800018A0FEF791FC4FF080501A490860BFF37B
:102F90004F8FBFF36F8F0BE009480068164909682F
:102FA000884203D100200349086001E000F02EF8B8
:102FB00070BD00001C000020C00000203400002074
:102FC0009003002038000020540000202E2E5C4684
:102FD00072656552544F535C7372635C7461736BBA
:102FE000732E63004572726F723A25732C25640D3F
:102FF0000A00000004ED00E02C00002002480068F8
:10300000401C0149086070475400002010B51B485F
:10301000006818B101201A4908602DE00020184905
:10302000086018480068B0FA80F0C0F11F0404EB93
:103030008400154951F8200008B1012000E000206B
:1030400028B940F6F62211A116A0FEF72DFC04EBDC
:1030500084010D4A02EB810041684968416000F13A
:10306000080142688A4202D141684968416041686A
:10307000C968104A116000BF10BD00005400002054
:103080004000002034000020C00000202E2E5C46AE
:1030900072656552544F535C7372635C7461736BF9
:1030A000732E63004572726F723A25732C25640D7E
:1030B0000A0000001C0000201CB540480068404980
:1030C000884201D0012000E0002028B940F25912C6
:1030D0003CA146A0FEF7E8FB384800683849491E85
:1030E000884201D0012000E0002028B94FF4AD72E1
:1030F00034A13EA0FEF7D8FB404C2046007801905A
:10310000FF20214608700846007800909DF80000D6
:1031100000F0F0009DF80010884201D1012000E08D
:10312000002028B940F2731226A130A0FEF7BCFBA4
:103130009DF8000000F05000314908700720314927
:10314000086009E02F480068401E2E4908609DF87D
:1031500000004006000E00909DF8000000F0800086
:103160008028EFD0274800680002264908600846FA
:10317000008800F4E06008602049019808700F485A
:103180002030006840F470000C4920310860084687
:10319000006840F070400860FFF72EFD00201A49DB
:1031A0000860FDF71BF81948006840F040401749D7
:1031B0000860FDF703F800201CBD000000ED00E0F2
:1031C00071C20F412E2E5C4672656552544F535C9E
:1031D000706F72745C525644535C41524D5F434D64
:1031E00034465C706F72742E630000004572726F1B
:1031F000723A25732C25640D0A00000000E400E0FB
:1032000074000020780000207000002034EF00E0FF
:1032100010B500BF502080F31188BFF34F8FBFF36C
:103220006F8F00BF00F04EF818B14FF08050044986
:10323000086000BF002080F3118800BF10BD0000AF
:1032400004ED00E02DE9FF4F85B080468946174622
:10325000DDE912ABB800FFF7F5FA064656B14C208F
:10326000FFF7F0FA04460CB1266304E03046FFF79E
:1032700069FC00E000247CB10020CDE900ABCDE981
:1032800002403A4649464046089BFFF783F92046EC
:10329000FFF798F8012501E04FF0FF35284609B007
:1032A000BDE8F08F0549096809B9012005E0044926
:1032B000096809B9022000E00020704738000020AA
:1032C000540000202DE9F0414FF00008414800680B
:1032D000002872D140480068451C3F480560EDB9A0
:1032E0003E480068006808B9012000E0002028B9C5
:1032F00040F6D9123AA140A0FEF7D6FA374807683F
:1033000041480068354908603F4807603F48006809
:10331000401C3E490860FFF707FA00BF3C480068C0
:1033200085423CD300BF2D480068006808B90120E1
:1033300000E0002020B14FF0FF30354908602DE05B
:1033400026480068C068C4686668B54202D2304842
:10335000066023E0201DFFF733FBA06A18B104F1DB
:103360001800FFF72DFB94F82C1001208840294904
:103370000968084327490860E16A01EB8101264A90
:1033800002EB8100211DFFF759FB2449E06A09681F
:10339000C96A8842C7D34FF00108C4E700BF1F487D
:1033A0000068C06A00EB80001B4951F8200001282A
:1033B00001D94FF0010805E0FFE719480068401CFB
:1033C000174908601748006808B14FF001084046E7
:1033D000BDE8F081540000203000002020000020D3
:1033E0002E2E5C4672656552544F535C7372635C5B
:1033F0007461736B732E63004572726F723A25733A
:103400002C25640D0A000000240000204400002048
:103410004C00002034000020C00000201C000020D0
:103420003C0000204000002070B5002400263448F5
:10343000006828B94FF4FD6232A138A0FEF734FAD3
:10344000FFF708FB2E480068401E2D49086008461B
:10345000006800284FD13548006800284BD024E090
:103460003348C068C46804F11800FFF7A9FA201DAA
:10347000FFF7A6FA94F82C10012088402D4909681E
:1034800008432C490860E16A01EB81012A4A02EBFA
:103490008100211DFFF7D2FA2849E06A0968C96A4C
:1034A000884202D30120264908602148006808B9F3
:1034B000012000E000200028D2D00CB1FFF734F941
:1034C0002048056865B100BFFFF7FCFE10B1012080
:1034D0001B4908606D1E002DF6D1002019490860B7
:1034E0001748006838B10126300717490860BFF354
:1034F0004F8FBFF36F8FFFF7EFFA304670BD0000BC
:10350000540000202E2E5C4672656552544F535C69
:103510007372635C7461736B732E63004572726FB8
:10352000723A25732C25640D0A0000002C0000203F
:103530006803002034000020C00000201C00002090
:10354000400000203C00002004ED00E000000000EE
:103550000000000001020304060708090000000043
:1035600001020304843500080000002080000000F0
:103570000019000804360008800000202897000089
:10358000101900080024F4000000000010000000E2
:10359000010000000000000000000000000000002A
:1035A000000000000000000000000000000000001B
:1035B000000000000000000000000000000000000B
:1035C00000000000000000000000000000000000FB
:1035D00000000000000000000000000000000000EB
:1035E00000000000000000000000000000000000DB
:1035F00000000000AAAAAAAA000000000000000023
:0436000000000000C6
:040000050800018965
:00000001FF
