:020000040800F2
:10000000A09C002055020008E917000869160008A6
:10001000E517000863040008A91E0008000000009E
:100020000000000000000000000000009D0100082A
:100030007305000800000000F1010008EB1700083C
:100040006F0200086F0200086F0200086F020008CC
:100050006F0200086F0200084D0600086F020008DA
:100060001D07000829070008350700086F0200086F
:100070006F0200086F0200086F0200086F0200089C
:100080006F0200086F0200086F0200086F0200088C
:100090006F0200086F0200086F0200086F0200087C
:1000A0006F0200086F0200086F0200086F0200086C
:1000B0006F0200086F0200086F0200086F0200085C
:1000C0006F0200086F0200086F0200086F0200084C
:1000D0006F0200086F0200086F0200086F0200083C
:1000E000B50600086F0200086F0200086F020008E2
:1000F0006F0200086F0200086F0200086F0200081C
:100100006F0200086F0200086F0200086F0200080B
:100110006F0200086F0200086F0200086F020008FB
:100120006F0200086F0200086F0200086F020008EB
:100130006F0200086F0200086F0200086F020008DB
:100140006F0200086F0200086F0200086F020008CB
:100150006F0200086F0200086F0200086F020008BB
:100160006F0200086F0200086F0200086F020008AB
:100170006F0200086F0200086F0200080000000014
:100180006F0200086F020008DFF80CD000F0ECF8F6
:1001900000480047F9200008A09C00202A4B19685D
:1001A0000868B0E8F04F80F30988BFF36F8F4FF015
:1001B000000080F3118870470000000006480068C6
:1001C000006880F3088862B661B6BFF34F8FBFF353
:1001D0006F8F00DF00BF00BF08ED00E0DFF80C000C
:1001E000016841F470010160704700BF88ED00E0D4
:1001F000EFF30980BFF36F8F134B1A681EF0100FD7
:1002000008BF20ED108A20E9F04F106008B44FF0CD
:10021000500080F31188BFF34F8FBFF36F8F03F04F
:1002200015F94FF0000080F3118808BC19680868C0
:10023000B0E8F04F1EF0100F08BFB0EC108A80F34A
:100240000988BFF36F8F704728000020EFF3058007
:10025000704700000648804706480047FEE7FEE773
:10026000FEE7FEE7FEE7FEE7FEE7FEE7FEE7FEE766
:10027000C1180008890100082DE9F05F054600203B
:1002800092469B4688460646814640241BE0284607
:1002900041464746224600F057F853465A46C01A90
:1002A000914110D311461846224600F03EF82D1A0F
:1002B00067EB01084F4622460120002100F035F887
:1002C00017EB00094E41201EA4F10104DFDC484673
:1002D00031462A464346BDE8F09F40EA01039B07AA
:1002E00003D009E008C9121F08C0042AFAD203E0AB
:1002F00011F8013B00F8013B521EF9D2704730B5AE
:100300000B46014600202022012409E021FA02F5D3
:100310009D4205D303FA02F5491B04FA02F528446D
:10032000151EA2F10102F1DC30BD202A04DB203AC7
:1003300000FA02F1002070479140C2F1200320FA38
:1003400003F3194390407047202A04DB203A21FA36
:1003500002F00021704721FA02F3D040C2F12002DE
:100360009140084319467047064C074D06E0E06887
:1003700040F0010394E8070098471034AC42F6D3EC
:10038000FFF706FFB0420008D04200081CB5012468
:1003900002F026FD00220421084603F073F91349F8
:1003A00008600846006810B111A001F07FFD03222B
:1003B0000021012003F066F9154908601548022163
:1003C00000230A02CDE9001013A1164803F07EFCB9
:1003D0000446012C02D114A001F068FD1948006800
:1003E00002F06AFE02F03EFD1CBD00001800002075
:1003F000546573745F5175657565CFFBCFA2B6D335
:10040000C1D0B4B4BDA8B3C9B9A6210A0000000088
:100410001C000020140000204B65795F5461736B51
:100420000000000089160008B4B4BDA8204B65790F
:100430005F5461736B20C8CECEF1B3C9B9A6210D4C
:100440000A0000001000002010B501F0D9F90320C7
:1004500000F06EFC01F04CF900F072F901F00AFDB9
:1004600010BD00BFFEE700000146087810381823D1
:10047000B0FBF3F20848805CC865032A05D9086818
:100480006FF30900001D886503E008686FF3090039
:100490008865886D70470000A8420008014600206A
:1004A0008A6A8B69CBB932B1012A0DD0022A03D0F6
:1004B000032A10D10EE000BFCB6A03F08073B3F1C2
:1004C000807F00D1012007E0CB6AB3F1C07F00D16B
:1004D000012001E000E000BF34E08B69B3F5005F6C
:1004E0001AD132B1012A07D0022A03D0032A11D12E
:1004F0000AE000BF01200EE0CB6A03F08073B3F185
:10050000807F00D1012006E0CB6AB3F1C07F00D12B
:10051000012000E000BF15E032B1012A05D0022A17
:1005200004D0032A0CD103E000BF00BF012008E083
:10053000CB6A03F08073B3F1807F00D1012000E02B
:1005400000BF00BF704730B50468246824F48024DD
:1005500005682C60046863608468402C04D10468DA
:10056000A2600468E16003E00468A1600468E260DE
:1005700030BD704700B587B000BF002001902F4804
:10058000006840F002002D4908600846006800F04D
:100590000200019000BF00BF00BF0020019008468C
:1005A000006840F0020008600846006800F00200A1
:1005B000019000BF00BF00BF002001901F48143011
:1005C000006840F010001D491431086008460068BA
:1005D00000F01000019000BF00BF402002900220F8
:1005E000039001200490032005900720069002A9A3
:1005F000134800F011FA802002900720069002A90B
:100600000F4800F009FA0F480F4908604FF4E13035
:10061000486000210C488160C160016181610C214A
:10062000416100F016FF08480068C06840F0100003
:1006300005490968C86007B000BD000030380240B5
:1006400000040240001001400001002038B500BF46
:100650005021EFF3118081F31188BFF34F8FBFF367
:100660006F8F00BF04460F48006800F0010098B18A
:1006700000236A460C490D48006803F053FA0098BD
:1006800038B14FF080500A490860BFF34F8FBFF375
:100690006F8F01200349086000BF84F3118800BFF9
:1006A00038BD0000143C014020000020180000204C
:1006B00004ED00E038B500BF5021EFF3118081F365
:1006C0001188BFF34F8FBFF36F8F00BF04460F48F1
:1006D000006800F40050A0B100236A460C490D48A0
:1006E000006803F01FFA009838B14FF080500A49B3
:1006F0000860BFF34F8FBFF36F8F4FF40050034973
:10070000086000BF84F3118800BF38BD143C01406D
:10071000240000201800002004ED00E0042001491E
:1007200008607047143C0140082001490860704788
:10073000143C01401020014908607047143C0140FE
:1007400000B587B000BF002001904B48006840F022
:100750000100494908600846006800F00100019066
:1007600000BF00BF00BF002001900846006840F0B5
:10077000010008600846006800F00100019000BF19
:1007800000BF00BF002001900846006840F0400014
:1007900008600846006800F04000019000BF00BFFC
:1007A00000BF002001900846006840F0400008604B
:1007B0000846006800F04000019000BF00BF00BF85
:1007C000002001900846006840F04000086008469C
:1007D000006800F04000019000BF00BF01200290BF
:1007E000264803900020049002A9254800F014F93F
:1007F00000220621084600F05DFA062000F04AFAC1
:100800004FF40050029002A91E4800F005F90022A2
:100810000621282000F04EFA282000F03BFA0420A0
:10082000029002A9184800F0F7F8002206210820DB
:1008300000F040FA082000F02DFA0820029002A9EA
:10084000114800F0E9F800220621092000F032FAF0
:10085000092000F01FFA1020029002A90A4800F0B7
:10086000DBF8002206210A2000F024FA0A2000F01A
:1008700011FA07B000BD000030380240000011102E
:100880000000024000080240001802402DE9F0413B
:100890000446002500F0C6F9074614B90120BDE85A
:1008A000F081606A00B100BF00BF002084F834000E
:1008B00000BF022084F835002068006820F00100A5
:1008C000216808600AE000F0ADF9C01B052805D9D1
:1008D00020206065032084F83500E0E72068006888
:1008E00000F001000028EED120680568214805408D
:1008F000D4E901010843E1680843216908436169BB
:100900000843A1690843E1690843216A0843054394
:10091000606A042803D1D4E90B0108430543206829
:1009200005602068456925F00705606A0543606A2F
:1009300004280DD1A06A0543E06A48B12046FFF7BC
:10094000ADFD28B140206065012084F83500A6E7A0
:10095000206845612046FFF787FD064694F85C1045
:100960003F208840B06000206065012084F8350099
:10097000002094E73F8010F02DE9F04704460D4633
:1009800016461F464FF00008D4F8589000BF94F860
:100990003400012802D10220BDE8F087012084F84C
:1009A000340000BF94F8350001282BD1022084F8D0
:1009B0003500002060653B46324629462046FFF759
:1009C000C2FD94F85C103F208840C9F808002068F8
:1009D000006840F01600216808602068406940F017
:1009E000800021684861206C28B12068006840F0D0
:1009F0000800216808602068006840F00100216854
:100A0000086006E000BF002084F8340000BF4FF00B
:100A100002084046C0E70000F8B502460B46002534
:100A2000002400200021DCE0012606FA01F51E6802
:100A300006EA0504AC4273D15E68022E02D05E68FD
:100A4000122E13D1CF0802F1200656F827004E07C8
:100A5000F70E0F26BE40B0434F07FF0E1E69BE4083
:100A60003043CF0802F1200646F8270010684F00F7
:100A70000326BE40B0431E7906F003064F00BE4079
:100A8000304310605E68012E08D05E68022E05D0EB
:100A90005E68112E02D05E68122E13D190684F004E
:100AA0000326BE40B0434F00DE68BE403043906036
:100AB000506801268E40B0431E79C6F300168E4062
:100AC00030435060D0684F000326BE40B0434F0013
:100AD0009E68BE403043D0605E6806F08056B6F136
:100AE000805F7DD100BF00260096404E366846F4F8
:100AF00080463E4F3E603E46366806F4804600968D
:100B000000BF00BF3A4E8F0856F827008E07370FF8
:100B10000F26BE40B043374EB24202D1002624E039
:100B20005EE0354EB24201D101261EE0334EB242A4
:100B300001D1022619E0324EB24201D1032614E05F
:100B4000304EB24201D104260FE02F4EB24201D105
:100B500005260AE02D4EB24201D1062605E02C4EB4
:100B6000B24201D1072600E008268F073F0FBE40A2
:100B700030431F4E8F0846F82700264E3068A043AA
:100B80005E6806F48036B6F5803F00D12043214EE2
:100B90003060361D3068A0435E6806F40036B6F556
:100BA000003F00D120431B4E361D3060361D30689B
:100BB000A0435E6806F48016B6F5801F00D120437E
:100BC000144E08363060361D3068A0435E6806F467
:100BD0000016B6F5001F00D120430E4E0C363060D3
:100BE000491C1029FFF420AFF8BD00004438024032
:100BF00008380140000002400004024000080240A2
:100C0000000C024000100240001402400018024094
:100C1000001C0240003C014001480068000C704785
:100C2000002004E001480068704700000400002034
:100C3000034800680349097808440149086070477F
:100C4000040000200C00002070B504460E48007817
:100C50004FF47A71B1FBF0F00C490968B1FBF0F583
:100C6000284600F0DBFB08B1012070BD102C07D234
:100C700000222146501E00F01DF80548046001E0E6
:100C80000120F2E70020F0E70C0000200000002027
:100C90000800002001460846002809DB00F01F0379
:100CA00001229A4043099B0003F1E023C3F800218D
:100CB00000BF70472DE9F05F80460D4616460027BD
:100CC00001F004F9074639462A46334601F0070089
:100CD000C0F1070ABAF1040F02D94FF0040A01E08B
:100CE000C0F1070AD14600F1040ABAF1070F02D297
:100CF0004FF0000A01E0A0F1030AD4464FF0010AC8
:100D00000AFA09FAAAF1010A0AEA020A0AFA0CFA2C
:100D10004FF0010B0BFA0CFBABF1010B0BEA030BD1
:100D20004AEA0B042146404601F0D8F8BDE8F09F9E
:100D300000BF00F00702064B19684FF6FF03194089
:100D4000044B0B4343EA0221014B196000BF70477B
:100D50000CED00E00000FA0570B504460D460CB934
:100D6000012070BD5848006800F00F00A84209D269
:100D700055490D700846006800F00F00A84201D0E8
:100D80000120EEE7207800F0020002281DD1207833
:100D900000F00400042805D14C48006840F4E050FD
:100DA0004A490860207800F00800082805D1474823
:100DB000006840F46040454908604448006820F0FD
:100DC000F000A168084341490860207800F0010064
:100DD000A8B36068012807D13C4808380068C0F310
:100DE0004040B8B90120BCE76068022802D06068C2
:100DF000032807D1354808380068C0F3406048B977
:100E00000120AEE7314808380068C0F3400008B957
:100E10000120A6E72D48006820F003006168084320
:100E20002A490860FFF7FEFE064609E0FFF7FAFED2
:100E3000801B41F28831884202D9032091E707E004
:100E40002248006800F00C006168B0EB810FEDD122
:100E50001D48006800F00F00A84209D91A490D701A
:100E60000846006800F00F00A84201D0012078E792
:100E7000207800F00400042807D11448006820F40A
:100E8000E050E168084311490860207800F008004C
:100E9000082808D10D48006820F46040216940EA24
:100EA000C1000A49086000F03DF808490968C1F32B
:100EB0000311074A515CC840064908600F20FFF73C
:100EC000C3FE00204DE70000003C0240083802400D
:100ED00090420008000000200148006870470000B0
:100EE0000000002000B5FFF7F7FF04490968C1F3CF
:100EF0008221034A515CC84000BD0000083802400E
:100F0000A042000800B5FFF7E7FF04490968C1F3F4
:100F10004231034A515CC84000BD0000083802401D
:100F2000A04200082DE9F047002400250026A14634
:100F30002548006800F00C0020B1042805D00828DE
:100F40003AD105E0DFF8849039E0DFF8849036E0AC
:100F50001D48001F006800F03F041B48001F006888
:100F600000F4800078B11A481749091F0968C1F3D5
:100F70008811A0FB01700146224600233846FFF786
:100F80007BF905460EE011480F49091F0968C1F3B6
:100F90008811A0FB01700146224600233846FFF766
:100FA0006BF905460848001F0068C0F30140401C6B
:100FB0004600B5FBF6F902E0DFF8109000BF00BF75
:100FC0004846BDE8F0870000083802400024F400DD
:100FD00040787D01F8B504460CB90120F8BD2078B1
:100FE00000F00100002874D0F948006800F00C00FF
:100FF00004280DD0F648006800F00C00082813D132
:10100000F348001F006800F48000B0F5800F0BD19A
:10101000EF4808380068C0F34040002859D06068A5
:10102000002856D10120D9E700BF6068B0F5803FA5
:1010300008D1E7480838006840F48030E4490839AE
:1010400008601EE06068B0F5A02F0DD1E0480838B8
:10105000006840F48020DE490839086008460068CE
:1010600040F4803008600CE0D9480838006820F46B
:101070008030D749083908600846006820F480208D
:10108000086000BF606890B1FFF7CCFD054606E040
:10109000FFF7C8FD401B642801D903209EE7CC4818
:1010A00008380068C0F340400028F1D011E0FFF795
:1010B000B9FD054606E0FFF7B5FD401B642801D9E0
:1010C00003208BE7C24808380068C0F3404000287E
:1010D000F1D1207800F0020002285FD1BC480068FE
:1010E00000F00C0058B1BA48006800F00C00082865
:1010F0001CD1B748001F006800F48000B0B9B448A4
:1011000008380068C0F3400020B1E068012801D031
:10111000012063E7AE480838006820F0F800216934
:1011200040EAC100AA490839086037E0E06800B326
:101130000120A8490860FFF775FD054606E0FFF7A6
:1011400071FD401B022801D9032047E7A048083859
:101150000068C0F340000028F1D09D4808380068BE
:1011600020F0F800216940EAC10099490839086077
:1011700014E0002097490860FFF754FD054606E09B
:10118000FFF750FD401B022801D9032026E79048B5
:1011900008380068C0F340000028F1D1207800F042
:1011A000080008282CD16069A8B101208A4908608C
:1011B000FFF738FD054606E0FFF734FD401B022827
:1011C00001D903200AE782486C300068C0F3400070
:1011D0000028F1D014E000207F490860FFF722FDCD
:1011E000054606E0FFF71EFD401B022801D903203B
:1011F000F4E677486C300068C0F340000028F1D175
:10120000207800F00400042870D10026704838309F
:10121000006800F0805090B900BF002000906C483A
:101220003830006840F0805069493831086008461D
:10123000006800F08050009000BF00BF01266748A2
:10124000006800F48070B0B96448006840F48070B1
:1012500062490860FFF7E6FC054606E0FFF7E2FC9E
:10126000401B022801D90320B8E65C48006800F45E
:1012700080700028F2D000BFA068012808D154482F
:101280006830006840F001005149683108601DE095
:10129000A06805280DD14E486830006840F0040071
:1012A0004B49683108600846006840F0010008605A
:1012B0000CE047486830006820F00100444968317C
:1012C00008600846006820F00400086000BFA068BD
:1012D000A8B1FFF7A7FC054609E0FFF7A3FC401BF8
:1012E00041F28831884202D9032077E626E0384867
:1012F00068300068C0F340000028EED013E0FFF72C
:1013000091FC054608E0FFF78DFC401B41F2883157
:10131000884201D9032061E62D4868300068C0F397
:1013200040000028EFD1012E07D12948383000684D
:1013300020F0805026493831086000BFA069B8B35A
:101340002348006800F00C0008285ED0A06902283D
:1013500046D100201F490866FFF764FC054606E0F9
:10136000FFF760FC401B022801D9032036E618482D
:1013700008380068C0F340600028F1D1D4E90701C3
:101380000843616A40EA81110122A06AC2EB500061
:1013900041EA00412C20005D41EA00600C49091F30
:1013A000086001200B490866FFF73CFC054607E092
:1013B0002DE0FFF737FC401B022801D903200DE682
:1013C000034808380068C0F340600028F1D01EE0F0
:1013D0000838024000004742800E4742007000403B
:1013E00000200C490866FFF71DFC054606E0FFF7E4
:1013F00019FC401B022801D90320EFE506480068CC
:10140000C0F340600028F2D101E00120E6E50020B1
:10141000E4E50000000047420038024070B5044691
:101420002546681EB0F1807F01D301200FE0681EC1
:101430004FF0E02148610F214FF0FF3000F04EFDEA
:1014400000204FF0E021886107200861002070BD76
:10145000704710B504460CB9012010BDA06900B159
:1014600000E000BF94F8390028B9002084F8380063
:10147000204600F027F8242084F839002068C0684E
:1014800020F400502168C860204600F0B7FA2068B8
:10149000006920F49040216808612068406920F0CC
:1014A0002A00216848612068C06840F40050216823
:1014B000C8600020E063202084F8390084F83A00F6
:1014C0000020CAE77047000077B581B00446154692
:1014D00094F83A00202850D1029800B115B90120A3
:1014E00004B070BD00BF94F83800012801D102207B
:1014F000F6E7012084F8380000BF0298A062A585B5
:101500000020E063222084F83A001D48616BC86324
:101510001C48616B08641C48616BC8640020616BE7
:10152000086502AE32682368191D2B46606BFFF711
:1015300023FA00BF00200090206800680090206817
:101540004068009000BF00BF00BF002084F8380052
:1015500000BF2068C06840F480702168C8602068BF
:10156000406940F00100216848612068406940F00E
:101570004000216848610020B2E70220B0E7000087
:1015800075190008BB190008251900087047704735
:101590002DE9F84304460D4616461F464FF0000954
:1015A00094F8390020285CD105B116B90120BDE8B6
:1015B000F88300BF94F83800012801D10220F6E733
:1015C000012084F8380000BF0020E063212084F867
:1015D0003900FFF727FB8146A684E6842BE0E08CE8
:1015E000401EE084A068B0F5805F16D14B46002213
:1015F00080212046009700F0B5FB08B10320D6E714
:10160000A846B8F80000C0F30800216848602069C7
:1016100008B9AD1C0FE06D1C0DE04B460022802187
:101620002046009700F09EFB08B10320BFE715F8A5
:10163000010B21684860E08C0028D0D14B46002285
:1016400040212046009700F08DFB08B10320AEE753
:10165000202084F8390000BF002084F8380000BF43
:10166000A5E70220A3E7000002A000F01FFC00BFD6
:10167000FEE70000486172644661756C745F486102
:101680006E646C65720A000008B5012417E000233F
:101690005A1E69460A48006802F030F80446012CD8
:1016A00004D108A0009900F001FC02E00BA000F0BA
:1016B000FDFB0E48406980F400400C494861E6E7B4
:1016C00018000020B4A5B7A2D6D0B6CFB5C4CAC7FB
:1016D000204B4559256420210A000000CAFDBEDDCB
:1016E000BDD3CAD5B3F6B4ED0A0000000000024035
:1016F00000B587B000BF002001903548006840F079
:101700000100334908600846006800F001000190BC
:1017100000BF00BF00BF002001900846006840F0F5
:10172000100008600846006800F01000019000BF3B
:1017300000BF00BF002001900846006840F0400054
:1017400008600846006800F04000019000BF00BF3C
:1017500000BF002001900846006840F002000860C9
:101760000846006800F00200019000BF00BF4FF47F
:10177000004002900120039004900320059002A9EC
:101780001448FFF749F90420029002A91248FFF714
:1017900043F94FF40040029002A91048FFF73CF9CA
:1017A0004FF48070029002A90D48FFF735F94FF40D
:1017B00000400849886104200749886140030749BF
:1017C00018310860C01106491831086007B000BD23
:1017D0003038024000000240001002400018024071
:1017E0000004024000BFFEE7704710B502F09EFA09
:1017F000012801D001F02CFFFFF71AFA10BD0000FC
:1018000000B593B000BF002001902A48006840F066
:101810008050284908600846006800F08050019018
:1018200000BF00BF00BF002001902348006840F4C3
:101830008040214908600846006800F4804001901B
:1018400000BF00BF01200290000403900220089016
:101850004105099119210A914FF4A8710B910221B8
:101860000C9107210D9102A8FFF7B4FB08B100BF4E
:10187000FEE70F200E9002200F90002010904FF4F2
:10188000A05011904FF48050129005210EA8FFF740
:1018900063FA08B100BFFEE7FFF7BEF941F20101AC
:1018A000884205D10548006840F48070034908600B
:1018B00013B000BD4038024000700040003C0240C0
:1018C0001448006840F4700012490860124800682B
:1018D00040F001001049086000200F4908310860FD
:1018E0000D4800680D4908400B4908600C48091D67
:1018F0000860081F006820F48020091F086000208D
:1019000005490C3108604FF00060024980390860D9
:101910007047000088ED00E000380240FFFFF6FE4F
:101920001030002470B506460025B46B206840696D
:10193000C0F3C01594F83900212805D125B1002045
:10194000E084204600F050F820684069C0F380151C
:1019500094F83A00222805D125B10020E0852046E0
:1019600000F032F8E06B40F01000E0632046FFF733
:101970006FFD70BD70B50546AC6B2868006800F45B
:101980008070B0B90020E0852068C06820F48070C5
:101990002168C8602068406920F001002168486122
:1019A0002068406920F0400021684861202084F8C8
:1019B0003A002046FFF7EAFD70BD70B50446A56BFE
:1019C0002846FFF7E4FD70BD0168C96821F49071F5
:1019D0000268D1600168496921F001010268516122
:1019E000202180F83A1070470168C96821F0C001D1
:1019F0000268D160202180F8391070472DE9F0414C
:101A000004462068006920F44050E16808432168DA
:101A100008612169A068084361690843E16940EAF7
:101A200001052068C06849F20C6188432843216899
:101A3000C8602068406920F44070A16908432168AB
:101A40004861E069B0F5004F7ED1C4492068884202
:101A500003D0C349206888425DD1FFF753FA00EBF9
:101A6000C00101EB001061684900B0FBF1F0642196
:101A7000B0FBF1F00601FFF745FA00EBC00101EB06
:101A8000001061684900B0FBF1F7FFF73BFA00EB8B
:101A9000C00101EB001061684900B0FBF1F0642166
:101AA000B0FBF1F000EBC00101EB0010A7EB8000F0
:101AB000322101EBC0006421B0FBF1F000F0F8002E
:101AC00006EB4006FFF71EFA00EBC00101EB001029
:101AD00061684900B0FBF1F7FFF714FA00EBC001B1
:101AE00001EB001061684900B0FBF1F06421B0FB2C
:101AF000F1F000EBC00101EB0010A7EB80003221F8
:101B000001EBC0006421B0FBF1F000F007003044AD
:101B10002168886020E1FFF7E5F900EBC00101EBE7
:101B2000001061684900B0FBF1F06421B0FBF1F0F6
:101B30000601FFF7D7F900EBC00101EB0010616867
:101B40004900B0FBF1F700E045E0FFF7CBF900EB0F
:101B5000C00101EB001061684900B0FBF1F06421A5
:101B6000B0FBF1F000EBC00101EB0010A7EB80002F
:101B7000322101EBC0006421B0FBF1F000F0F8006D
:101B800006EB4006FFF7AEF900EBC00101EB0010D9
:101B900061684900B0FBF1F7FFF7A4F900EBC00161
:101BA00001EB001061684900B0FBF1F06421B0FB6B
:101BB000F1F000EBC00101EB0010A7EB8000322137
:101BC00001EBC0006421B0FBF1F000F007003044ED
:101BD00021688860C0E061492068884203D060497C
:101BE000206888425CD1FFF78DF900EBC00101EB62
:101BF000001061688900B0FBF1F6FFF783F900EB94
:101C0000C00101EB001061688900B0FBF1F06421B4
:101C1000B0FBF1F000EBC00101EB0010A6EB80007F
:101C2000322101EB00106421B0FBF1F000F0F0066E
:101C3000FFF768F900EBC00101EB00106168890053
:101C4000B0FBF1F06421B0FBF1F006EB0016FFF7FA
:101C500059F900EBC00101EB001061688900B0FB8D
:101C6000F1F7FFF74FF900EBC00101EB00106168DD
:101C70008900B0FBF1F06421B0FBF1F000EBC00192
:101C800001EB0010A7EB8000322101EB0010642172
:101C9000B0FBF1F000F00F003044216888605BE099
:101CA000FFF720F900EBC00101EB0010616889002B
:101CB000B0FBF1F6FFF716F900EBC00101EB0010E5
:101CC00061688900B0FBF1F06421B0FBF1F000EB3A
:101CD000C00101EB0010A6EB8000322101EB0010E7
:101CE0006421B0FBF1F000F0F006FFF7FBF800EB29
:101CF000C00101EB001061688900B0FBF1F06421C4
:101D0000B0FBF1F006EB0016FFF7ECF800EBC001BA
:101D100001EB001061688900B0FBF1F7FFF7E2F812
:101D200000EBC00101EB001061688900B0FBF1F02D
:101D30006421B0FBF1F000EBC00101EB0010A7EB58
:101D40008000322101EB00106421B0FBF1F000F0C3
:101D50000F00304421688860BDE8F0810010014028
:101D6000001401402DE9F04104460D4617469846FF
:101D7000069E21E0701CF8B12EB1FEF753FFA0EBD8
:101D80000800B04218D92068C06820F4D0702168DB
:101D9000C8602068406920F0010021684861202067
:101DA00084F8390084F83A0000BF002084F8380035
:101DB00000BF0320BDE8F081206800682840A842E9
:101DC00001D1012000E00020B842D3D00020F1E78B
:101DD00008B500BF002000902148006840F4800052
:101DE0001F4908600846006800F48000009000BFAA
:101DF00000BF1C481C4908604FF00060486000218B
:101E000019488160C1604FF4806101610021416126
:101E100081614FF48071C161090201620021416258
:101E2000032181620021C1620163FEF72FFD00BF23
:101E30000D480E49486308460B49886300BF406B54
:101E40000068006840F01C000849496B0968086098
:101E50004FF4806206490548FFF736FB08BD0000D5
:101E60003038024088640240A000002000010020B9
:101E70004001002010B5FEF77DFBFFF7A9FF00F041
:101E800001F810BD10B5002207214420FEF712FF13
:101E90004420FEF7FFFE002208212520FEF70AFF5E
:101EA0002520FEF7F7FE10BD00BFFEE70FB4054B7F
:101EB00010B503A9044A029800F034F810BC5DF88C
:101EC00014FB0000DD2000089C0000200248006890
:101ED000C0F30220704700000CED00E010B50028B0
:101EE00004DB0A07130E054A135406E00A07140E12
:101EF000034A00F00F031B1FD45410BD00E400E0A0
:101F000018ED00E002E008C8121F08C1002AFAD14B
:101F100070477047002001E001C1121F002AFBD169
:101F2000704700002DE9FF4F8BB09A460F460546DB
:101F3000002606E025280BD052460D9990476D1CCF
:101F4000761C28780028F5D10FB03046BDE8F08F18
:101F50000024A0460122604900E0044315F8013F37
:101F6000203B02FA03F00842F7D128782E2817D137
:101F700015F8010F44F004042A280ED06FF02F0248
:101F80002878A0F1300109290AD808EB880102EB72
:101F9000410100EB01086D1CF2E757F8048B6D1C42
:101FA000287869283ED006DC0028CDD063280BD0E5
:101FB000642804D136E0732810D075284BD05246DF
:101FC0000D999047761C85E017F8040B8DF80000FA
:101FD00000208DF80100E946012003E057F8049B3A
:101FE0004FF0FF3061074FF0000401D40AE0641C99
:101FF00044450DDA8442FADB19F804100029F6D1C1
:1020000006E0641C8442FCDB19F804100029F8D1B6
:10201000264404E019F8010B52460D999047641EBE
:10202000F8D257E001CF4FF00A0B002802DA404205
:102030002D2102E0210504D52B218DF8241001214A
:1020400003E0E10705D02021F7E70DF12009089111
:102050000CE00021F9E701CF4FF00A0BF9E75946F0
:10206000FEF74DF901F1300209F8012D0028F6D1F3
:10207000ADEB090000F1200B600701D44FF001081F
:10208000D84502DDA8EB0B0000E0002080460024CC
:1020900006E009A85246005D0D999047641C761C25
:1020A00008988442F5DB04E0302052460D999047B1
:1020B000761CB8F10001A8F10108F5DC05E019F87B
:1020C000010B52460D999047761CBBF10001ABF114
:1020D000010BF4DC6D1C34E70928010013B50C4634
:1020E0004FF47A73012269460248FFF751FA0098CB
:1020F0001CBD0000000100201CB50124FEF7A4F95E
:102100000AA0FFF7D3FE17A0FFF7D0FE1C4801215D
:1021100000234A02CDE900101AA11E4801F0D6FDA5
:1021200004460CB101F032F900BFFEE7D5E2CAC7A0
:10213000D2BBB8F65BD2B0BBF05D2D53544D3332F9
:10214000C8ABCFB5C1D0BFAAB7A2B0E52D46726566
:102150006552544F53B9CCBCFEBFE2C0FDB3CCA313
:10216000A10A0000B0B4CFC24B455931207C204BAE
:10217000455932B4A5B7A2D6D0B6CFA3A10A000064
:10218000100000204170705461736B43726561747C
:10219000650000008D0300082DE9F04105460E465C
:1021A0001C4807681C480068001D00F0CFFD50B9AE
:1021B0001948006890F82C100120884017490968D8
:1021C000814316480160681C38B936B1124801686D
:1021D000091D134800F0F8FD1AE07C190E4800684C
:1021E0004460BC4207D20C480168091D0D480068D4
:1021F00000F0D0FD0CE008480168091D0A4800689D
:1022000000F0C8FD09480068844201D20748046014
:10221000BDE8F0813C0000202800002040000020A4
:1022200060080020300000202C0000205800002012
:1022300010B5044600F0D4FD23480068401C224934
:1022400008602248006840B92048046008460068D9
:1022500001280DD100F0E4F90AE01D48006838B902
:102260001A480068C06AE16A884201D817480460C9
:1022700018480068401C1749086094F82C10012089
:10228000884015490968084313490860E16A01EB71
:102290008101124A02EB8100211D00F095FD00F042
:1022A000E1FD0B48006868B108480068C06AE16A4F
:1022B000884207D24FF0805009490860BFF34F8F22
:1022C000BFF36F8F10BD00003800002028000020F1
:1022D0004400002054000020400000209005002011
:1022E00004ED00E010B500F07BFD10480068D0B9A7
:1022F0000F4800F03FFD0F4800F03CFD0C480E4930
:1023000008600C480D49086000220C210A2001F0E9
:10231000B9F9064908600846006820B108A10348D9
:10232000006800F08DFE00F09DFD10BD6C000020E7
:102330007408002088080020640000206800002045
:10234000546D72510000000070B523E001F076F882
:102350001348006808B9012000E00020054601F09C
:1023600077FEBDB900F03CFD0D48C068C468201D73
:1023700000F0ECFC0B480068401E0A4908600A485F
:102380000068401E0849086000F06CFD204600F01F
:1023900060F800BF044800680028D7D170BD000075
:1023A0004C080020380000203400002070B504469E
:1023B0000D46206C70B1216CE0680844E0606168F3
:1023C000E068884201D32068E0602846226CE1681A
:1023D000FDF783FF70BD2DE9F04104460F46154619
:1023E0004FF00008A66B206C40B9206860BB6068A5
:1023F00001F064FD80460020606025E07DB939462B
:10240000226CA068FDF769FF216CA0680844A060F9
:10241000D4E90110884217D32068A06014E039463F
:10242000226CE068FDF759FF216CE068401AE0601B
:102430002168E068884203D2216C6068401AE0603D
:10244000022D01D106B1761E701CA0634046BDE886
:10245000F08110B50446206B00F03AFD204600F0F4
:1024600037FD10BD0146084A126812680AB90122F8
:1024700000E000220A600A6822B9034A1268D268A2
:10248000106800E0002070476400002030B54FF471
:102490001043174800F007042CB1C01D20F00700BE
:1024A000134C041B1B1B0246124C22600024114DCE
:1024B0006C60D018083820F007000F4C2060002412
:1024C0000D4D2D686C600C4D2D682C601146441A22
:1024D0004C60094C24680C60084D4C682C60084D19
:1024E0004C682C604FF00044064D2C6030BD00005D
:1024F0009C08002078000020800000208800002038
:10250000840000208C00002000BFFFF71DFF06485C
:1025100000680128F9D94FF0805004490860BFF3E2
:102520004F8FBFF36F8FF0E79005002004ED00E0C0
:102530002DE9F04106460D4617469846069C0DB912
:10254000246000E02760E66325640121204601F055
:10255000BBF9BDE8F08100002DE9FF5F81460F4621
:102560009246DDE90E6B109CAAF10100216B01EB94
:10257000800828F0070808F0070008B9012000E0EB
:10258000002028B940F22B321BA121A0FFF78EFCBE
:10259000002507E0795D04F134004155785D00B90C
:1025A00002E06D1C102DF5D300BF00214320015522
:1025B000202E00D31F26E66266640020A064201D42
:1025C00000F0E5FB04F1180000F0E1FB2461C6F126
:1025D0002000A06164620020E06484F85000494655
:1025E0004046039A00F09CFB2060BBF1000F01D035
:1025F000CBF80040BDE8FF9F2E2E5C467265655209
:10260000544F535C7372635C7461736B732E63001D
:102610004572726F723A25732C25640D0A00000012
:1026200010B5002407E004EB84010F4A02EB81009F
:1026300000F0A0FB641C202CF5D30C4800F09AFBA2
:102640000B4800F097FB0B4800F094FB0A4800F0A1
:1026500091FB0A4800F08EFB0448094908600448D1
:102660000849086010BD00009005002010080020F7
:1026700024080020380800204C08002060080020B2
:102680002C0000203000002010B50146164800E064
:10269000006803688B42FBD30246436813448B42B5
:1026A00004D143684C682344436001460A464B68A2
:1026B00013440468A34211D10C4C03682468A3425C
:1026C00008D04B680468646823444B6003681B6847
:1026D0000B6005E0054B1B680B6001E003680B60B5
:1026E000884200D0016010BD7800002080000020EA
:1026F0002DE9F04104460D4616461F464FF00008EE
:1027000065602461B5420CD8F01BA169884202D3F0
:102710004FF0010811E0211D0948006800F03AFB64
:102720000BE0BE4204D2BD4202D34FF0010804E0E8
:10273000211D0448006800F02DFB4046BDE8F081F3
:10274000680000206400002070B5054600F048FBDA
:10275000A86B08B9012400E0002400F083FB2046A8
:1027600070BD70B5054600F03BFBA86BE96B884275
:1027700001D1012400E0002400F074FB204670BD6C
:10278000F8B505460F4613480068C068C468201DA8
:1027900000F0DCFAE069012818D1A06941192B4644
:1027A0003A462046FFF7A4FF80B1002003462A46A0
:1027B00001460090204601F019FD06462EB94FF45F
:1027C000027205A10BA0FFF771FB00BF2046616AF2
:1027D0008847F8BD640000202E2E5C467265655265
:1027E000544F535C7372635C74696D6572732E63CE
:1027F000000000004572726F723A25732C25640D3B
:102800000A00000070B586B060E0039800285DDB28
:10281000059C606908B9012000E0002010B9201D66
:1028200000F094FA02A800F0C9F8054603980A28B7
:102830004AD2DFE800F00905072C2E4506082D2FA7
:1028400000BF00BF00BF00BF0498A2698118034603
:102850002A462046FFF74CFFC0B12046616A8847F0
:10286000E069012812D1002000900498A169421863
:1028700000231946204601F0B9FC06462EB940F265
:10288000213218A11EA0FFF711FB00BF1DE000BF01
:102890001BE000BF0498A061A06908B1012000E01E
:1028A000002028B94FF44E720EA115A0FFF7FEFAD2
:1028B000A06941192B462A462046FFF719FF04E07C
:1028C000204600F005FB00E000BF00BF00231A46D1
:1028D00003A90F48006800F011FF002895D106B049
:1028E00070BD00002E2E5C4672656552544F535CDD
:1028F0007372635C74696D6572732E63000000000F
:102900004572726F723A25732C25640D0A0000001F
:102910006C000020F8B505460C4600F08FFD6846B7
:1029200000F04CF80646009820BB44B9B54206D8E2
:1029300001F08EFB31462846FFF722FF1CE03CB138
:102940000E480068006808B9012000E00020044635
:10295000A91B22460A48006800F088FB01F078FBBA
:1029600050B94FF0805007490860BFF34F8FBFF355
:102970006F8F01E001F06CFBF8BD000068000020E3
:102980006C00002004ED00E00A490968096809B9F3
:10299000012100E0002121B14FF0FF31064A116012
:1029A00006E004490968C968C868034A41681160BB
:1029B000704700002C0000205800002070B504462D
:1029C00001F0C4F9054607480068854204D200F0CA
:1029D0000BF80120206001E0002020600148056024
:1029E000284670BD740000202DE9F8432DE02148F1
:1029F0000068C06805681F480068C068C468201D7A
:102A000000F0A4F92046616A8847E06901281CD1DA
:102A1000A0694619AE4207D966602461211D154898
:102A2000006800F0B7F910E0002003462A4601468E
:102A30000090204601F0DAFB07462FB940F29232AF
:102A40000DA114A0FFF732FA00BF0A480068006821
:102A500008B9012000E000200028C8D00548D0F8BF
:102A6000008010480068034908600E48C0F80080E4
:102A7000BDE8F883640000202E2E5C467265655226
:102A8000544F535C7372635C74696D6572732E632B
:102A9000000000004572726F723A25732C25640D98
:102AA0000A000000680000200C480068401C08B9BB
:102AB000012000E0002028B940F20F1208A112A066
:102AC000FFF7F4F900BF502080F31188BFF34F8F58
:102AD000BFF36F8F00BF00BFFEE700009000002033
:102AE0002E2E5C4672656552544F535C706F727443
:102AF0005C525644535C41524D5F434D34465C70CA
:102B00006F72742E630000004572726F723A257303
:102B10002C25640D0A00000008B500BF6846FFF7C9
:102B2000A1FC044620460099FFF7F4FEFFF76AFE79
:102B3000F4E770B5044600F053F994F9455010E0FD
:102B4000606A08B9012000E0002038B904F12400CF
:102B500001F022FA18B100F037FB00E003E0681E34
:102B600045B2002DECDC00BFFF2084F8450000F0EA
:102B700079F900F035F994F9445010E0206908B96A
:102B8000012000E0002048B904F1100001F004FA2F
:102B900008B100F019FB681E45B200E001E0002D0D
:102BA000ECDC00BFFF2084F8440000F05BF970BD4E
:102BB0002DE9F04104464FF0000800F03FFC3E488C
:102BC000006808B9FFF762FC3C4800682040002814
:102BD0005FD1A4B1083404F0070080B104F007000D
:102BE000C0F10800044404F0070008B9012000E027
:102BF000002020B9BF2232A13AA0FFF757F9002CDC
:102C000047D03C480068844243D83B4E3046056874
:102C100001E02E462D686868A04202D2286800288C
:102C2000F7D125480068854233D0306800F10808A4
:102C3000286830606868001B102813D92F1907F026
:102C4000070008B9012000E0002020B9EC221CA1F7
:102C500024A0FFF72BF96868001B78606C60384689
:102C6000FFF712FD234968680968081A21490860BE
:102C70000846006821490968884203D21D48006857
:102C80001E4908600D4968680968084368600020AB
:102C9000286001F0DDF908F0070008B9012000E024
:102CA000002028B94FF4967205A10EA0FFF7FEF898
:102CB0004046BDE8F0810000800000208C0000202C
:102CC0002E2E5C4672656552544F535C706F727461
:102CD0005C4D656D4D616E675C686561705F342E3B
:102CE000630000004572726F723A25732C25640DE3
:102CF0000A000000840000207800002088000020E6
:102D00000648006830B10549096801F14800896C3E
:102D1000491C01600148006870470000280000203D
:102D2000001F4FF080730360001F21F00103036058
:102D3000001F054B036014380260001F6FF0020390
:102D40000360203870470000A92A000801460A697C
:102D5000D1E901309860D1E9010358605068884298
:102D600001D188685060002008611068401E106022
:102D70001068704700F1080141604FF0FF31816039
:102D800000F10801C160016100210160704700216C
:102D90000161704710B502460B685C1C0CB91069E4
:102DA00007E002F1080000E04068446824689C42A3
:102DB000FAD944684C604C68A160886041600A613F
:102DC0001468641C146010BD42684A6093688B608C
:102DD000936859609160086103685B1C03607047E9
:102DE00010B500BF502080F31188BFF34F8FBFF3A1
:102DF0006F8F00BF0B480068401C0A4908600846F6
:102E0000006801280DD108480068C0B208B9012047
:102E100000E0002028B940F2B91204A10DA0FFF78C
:102E200045F810BD9000002004ED00E02E2E5C4619
:102E300072656552544F535C706F72745C525644A5
:102E4000535C41524D5F434D34465C706F72742E3B
:102E5000630000004572726F723A25732C25640D71
:102E60000A00000010B50B48006828B94FF4E07262
:102E700009A113A0FFF71AF806480068401E05498B
:102E800008600846006820B9002080F3118800BF60
:102E900000BF10BD900000202E2E5C46726565526A
:102EA000544F535C706F72745C525644535C415281
:102EB0004D5F434D34465C706F72742E63000000AA
:102EC0004572726F723A25732C25640D0A0000005A
:102ED00070B506463546002E35D0083D2C461A49B9
:102EE00060680968084008B1012000E0002028B9A6
:102EF0004FF4A07215A11EA0FEF7D8FF206808B9F4
:102F0000012000E0002028B940F241120FA118A0D2
:102F1000FEF7CCFF0C4960680968084098B120684A
:102F200088B90949606809688843606000F086FADA
:102F30001349606809680844114908602046FFF792
:102F4000A3FB01F085F870BD8C0000202E2E5C469E
:102F500072656552544F535C706F72745C4D656D51
:102F60004D616E675C686561705F342E63000000C0
:102F70004572726F723A25732C25640D0A000000A9
:102F800084000020064800684FF47A71B0FBF1F02D
:102F9000401E4FF0E02148610720086170470000A3
:102FA0000000002070B5FDF751F90546102D11D332
:102FB00005F1E02090F8F04310480078844201DBEE
:102FC000012000E0002028B94FF440720CA116A0A7
:102FD000FEF76CFF1848006800F4E06017490968C4
:102FE000884201D8012000E0002028B94FF4447243
:102FF00003A10DA0FEF75AFF70BD00009400002051
:103000002E2E5C4672656552544F535C706F72741D
:103010005C525644535C41524D5F434D34465C70A4
:103020006F72742E630000004572726F723A2573DE
:103030002C25640D0A0000000CED00E09800002033
:10304000024600200BE0084B53F8303033B9064BF2
:1030500043F8301003EBC0035A6002E0401C0A281A
:10306000F1D300BF70470000400500202DE9F0417A
:1030700005460E4617462C46FFF7B2FE94F944006B
:10308000401C10B9002084F8440094F94500401C0D
:1030900010B9002084F84500FFF7E4FEA06B28B9C2
:1030A0003A46314604F1240000F0C0F82046FFF70C
:1030B00040FDBDE8F081000070B50546FFF790FEC9
:1030C00015B92D48006800E028460446201DFFF78A
:1030D0003DFE78B9E06A00EB8000284951F82000F5
:1030E00040B994F82C100120884025490968814393
:1030F00023480160A06A18B104F11800FFF726FE0A
:1031000020480068401C1F4908601B480068844232
:1031100009D1211D1C48FFF757FE1C480068401CC0
:103120001A49086009E01A480068401E18490860FA
:103130002046FFF78EF9FFF727FCFFF793FE1548AF
:103140000068C0B10C480068844214D1124800687D
:1031500008B9012000E0002028B940F265420FA123
:1031600014A0FEF7A3FE4FF0805016490860BFF38D
:103170004F8FBFF36F8F70BD280000209005002097
:1031800040000020540000204C08002034000020A3
:103190003800002044000020600000202E2E5C46F5
:1031A00072656552544F535C7372635C7461736BE8
:1031B000732E63004572726F723A25732C25640D6D
:1031C0000A00000004ED00E001200149086070479A
:1031D0004C00002070B504460D462CB940F606326E
:1031E00007A10DA0FEF762FE0F48016818312046C6
:1031F000FFF7D0FD01212846FEF7CEFF70BD00008D
:103200002E2E5C4672656552544F535C7372635C3C
:103210007461736B732E63004572726F723A25731B
:103220002C25640D0A0000002800002070B505461A
:103230000E4614462DB940F6313209A10EA0FEF714
:1032400035FE1148016818312846FFF7BDFD0CB165
:103250004FF0FF3621463046FEF79EFF70BD00005E
:103260002E2E5C4672656552544F535C7372635CDC
:103270007461736B732E63004572726F723A2573BB
:103280002C25640D0A0000002800002070B50546BA
:103290002C46002D4BD02649E06A0968C96A88424D
:1032A00045D2A06900F0004028B921480068C06AF2
:1032B000C0F12000A061E16A01EB81011D4A02EB2F
:1032C00081016069884201D1012000E0002050B3F3
:1032D000201DFFF73BFD78B9E06A00EB800015493F
:1032E00051F8200040B994F82C1001208840124970
:1032F00009688143104801600D480068C06AE062B7
:1033000094F82C10012088400B49096808430A49A9
:103310000860E16A01EB8101064A02EB8100211D90
:10332000FFF752FD03E002480068C06AE06270BD2A
:1033300028000020900500204000002010B5044621
:103340002CB940F6C13205A10AA0FEF7AFFD0D4829
:10335000006820600C480068606010BD2E2E5C463E
:1033600072656552544F535C7372635C7461736B26
:10337000732E63004572726F723A25732C25640DAB
:103380000A000000500000203C0000201CB51A4834
:1033900000210B468022CDE9001018A1194800F049
:1033A00095FC0446012C02D100F0E4FE0446012CF9
:1033B00015D100BF502080F31188BFF34F8FBFF3AA
:1033C0006F8F00BF4FF0FF300F49086001200F4999
:1033D000086000200E49086000F08EF80BE0601CC9
:1033E00008B1012000E0002028B940F2847209A150
:1033F0000EA0FEF75BFD1CBD5C00002049444C455F
:1034000000000000092500085800002044000020AA
:103410003C0000202E2E5C4672656552544F535C72
:103420007372635C7461736B732E63004572726FA9
:10343000723A25732C25640D0A00000002480068CA
:10344000401C0149086070476000002010B51B480F
:10345000006818B101201A4908602DE000201849C1
:10346000086018480068B0FA80F0C0F11F0404EB4F
:103470008400154951F8200008B1012000E0002027
:1034800028B940F6F62211A116A0FEF70FFD04EBB5
:1034900084010D4A02EB810041684968416000F1F6
:1034A000080142688A4202D1416849684160416826
:1034B000C968104A116000BF10BD00006000002004
:1034C0004C00002040000020900500202E2E5C467D
:1034D00072656552544F535C7372635C7461736BB5
:1034E000732E63004572726F723A25732C25640D3A
:1034F0000A000000280000201CB540480068404930
:10350000884201D0012000E0002028B940F2591281
:103510003CA146A0FEF7CAFC384800683849491E5D
:10352000884201D0012000E0002028B94FF4AD729C
:1035300034A13EA0FEF7BAFC404C20460078019032
:10354000FF20214608700846007800909DF8000092
:1035500000F0F0009DF80010884201D1012000E049
:10356000002028B940F2731226A130A0FEF79EFC7D
:103570009DF8000000F050003149087007203149E3
:10358000086009E02F480068401E2E4908609DF839
:1035900000004006000E00909DF8000000F0800042
:1035A0008028EFD0274800680002264908600846B6
:1035B000008800F4E06008602049019808700F4816
:1035C0002030006840F470000C4920310860084643
:1035D000006840F070400860FFF7D4FC00201A49F2
:1035E0000860FCF7FBFD1948006840F040401749AF
:1035F0000860FCF7E3FD00201CBD000000ED00E0CA
:1036000071C20F412E2E5C4672656552544F535C59
:10361000706F72745C525644535C41524D5F434D1F
:1036200034465C706F72742E630000004572726FD6
:10363000723A25732C25640D0A00000000E400E0B6
:1036400094000020980000209000002034EF00E05B
:1036500010B500BF502080F31188BFF34F8FBFF328
:103660006F8F00BF00F078FB18B14FF08050044915
:10367000086000BF002080F3118800BF10BD00006B
:1036800004ED00E02DE9F84305460E4690460DB1E5
:10369000012000E0002028B94FF4C4720DA113A04E
:1036A000FEF704FC0EB9002701E005FB06F707F161
:1036B0004800FFF77DFA044644B104F14809434647
:1036C0004A46314628460094FEF732FF2046BDE8C0
:1036D000F88300002E2E5C4672656552544F535C91
:1036E0007372635C71756575652E63004572726FE8
:1036F000723A25732C25640D0A0000002DE9FF475E
:1037000082B005460E461F464FF0000A2C462CB9E3
:1037100040F2DC4261A167A0FEF7C8FB0EB9206C45
:1037200008B9012000E0002028B940F2DD425BA189
:1037300060A0FEF7BBFB00F0F9FA08B9049808B9DD
:10374000012000E0002028B94FF49C6253A159A049
:10375000FEF7ACFB00BFFFF743FBD4F83890B9F19C
:10376000000F3DD0D4F80C8031462046FEF71EFEF7
:10377000DFB9A9F10100A063206810B9FFF7C0FA12
:103780006060206908B9012000E0002010BB04F14E
:10379000100000F001FCE8B14FF08050494908608A
:1037A000BFF34F8FBFF36F8F14E0C4F80C80606AD3
:1037B00008B9012000E0002060B904F1240000F005
:1037C000EBFB38B14FF080503E490860BFF34F8F9C
:1037D000BFF36F8FFFF746FB012006B0BDE8F0870F
:1037E000049818B9FFF73EFB0020F6E7BAF1000F86
:1037F00004D16846FFF7A2FD4FF0010AFFF732FB44
:10380000FFF71CFEFFF7ECFA94F94400401C10B9D6
:10381000002084F8440094F94500401C10B90020B1
:1038200084F84500FFF71EFB04A9684600F0FCF988
:1038300040BB2046FEF788FFF0B1206830B9FFF7A3
:10384000CFFA6068FFF722FDFFF70CFB04F12400BC
:103850000499FFF7BFFC2046FFF76BF900F0F8FB77
:1038600000287FF478AF4FF0805016490860BFF30E
:103870004F8FBFF36F8F6EE72046FFF75AF900F0C6
:10388000E7FB68E72046FFF754F900F0E1FB20462C
:10389000FEF75AFF0028EED000209EE72E2E5C4651
:1038A00072656552544F535C7372635C71756575D4
:1038B000652E63004572726F723A25732C25640D74
:1038C0000A00000004ED00E070B505460E462C46E7
:1038D0002CB940F21B121EA123A0FEF7E7FAFFF756
:1038E0007FFAD4E90F12206801FB0200606000201B
:1038F000A0632068A060E06B401E226C216800FB82
:103900000210E060FF2084F8440084F845009EB96E
:10391000206908B9012000E00020A8B904F11000D6
:1039200000F03AFB80B14FF0805013490860BFF3BC
:103930004F8FBFF36F8F07E004F11000FFF71AFA03
:1039400004F12400FFF716FAFFF78CFA012070BD8E
:103950002E2E5C4672656552544F535C7372635CE5
:1039600071756575652E63004572726F723A2573C5
:103970002C25640D0A00000004ED00E02DE9FF4352
:1039800083B0064688461D464FF0000934462CB9E0
:1039900040F2D92258A15EA0FEF788FAB8F1000FD4
:1039A00001D1206C08B9012000E0002028B940F2C4
:1039B000DA2251A156A0FEF779FA022D02D1E06B6E
:1039C000012801D1012000E0002028B940F2DB22CB
:1039D00049A14FA0FEF76AFA00F0A8F908B90598C6
:1039E00008B9012000E0002028B940F2DE2242A1FF
:1039F00047A0FEF75BFA00BFFFF7F2F9A06BE16B9F
:103A0000884201D3022D28D12A4641462046FEF79E
:103A1000E2FC0746606A08B9012000E0002068B9AE
:103A200004F1240000F0B8FA88B14FF080503C490E
:103A30000860BFF34F8FBFF36F8F08E03FB14FF0C7
:103A4000805037490860BFF34F8FBFF36F8FFFF788
:103A500009FA012007B0BDE8F083059818B9FFF70F
:103A600001FA0020F6E7B9F1000F04D101A8FFF731
:103A700065FC4FF00109FFF7F5F9FFF7DFFCFFF7F1
:103A8000AFF994F94400401C10B9002084F84400B8
:103A900094F94500401C10B9002084F84500FFF758
:103AA000E1F905A901A800F0BFF8F0B92046FEF73A
:103AB00058FEA0B104F110000599FFF78BFB2046DA
:103AC000FFF737F800F0C4FA002895D14FF0805086
:103AD00013490860BFF34F8FBFF36F8F8CE7204609
:103AE000FFF727F800F0B4FA86E72046FFF721F841
:103AF00000F0AEFA0020ADE72E2E5C4672656552EE
:103B0000544F535C7372635C71756575652E630009
:103B10004572726F723A25732C25640D0A000000FD
:103B200004ED00E02DE9F05F07468A4690461E4608
:103B30003C462CB940F29F3231A137A0FEF7B6F9CE
:103B4000BAF1000F01D1206C08B9012000E000207B
:103B500028B94FF468722AA12FA0FEF7A7F9022E08
:103B600002D1E06B012801D1012000E0002028B93A
:103B700040F2A13222A128A0FEF798F9FFF712FA2D
:103B800000BF5021EFF3118081F31188BFF34F8FF5
:103B9000BFF36F8F00BF0546A06BE16B884201D376
:103BA000022E23D194F945B0324651462046FEF705
:103BB00012FC0BF1010088B9606A08B9012000E02D
:103BC000002080B904F1240000F0E6F958B1B8F102
:103BD000000F08D00120C8F8000004E00BF101003C
:103BE00040B284F845004FF0010901E04FF00009B0
:103BF00000BF85F3118800BF4846BDE8F09F000074
:103C00002E2E5C4672656552544F535C7372635C32
:103C100071756575652E63004572726F723A257312
:103C20002C25640D0A0000002DE9F04104460D46E4
:103C30002CB940F6CB3219A11EA0FEF737F92DB9E9
:103C400040F6CC3215A11BA0FEF730F9FFF7C8F8FB
:103C50001C4807682868401C08B9002619E01A4962
:103C600020680968884204D06068B84201D80126FB
:103C70000FE06068381A2968884209D228686168AC
:103C8000791A401A28602046FFF758FB002600E00A
:103C90000126FFF7E7F83046BDE8F0812E2E5C469E
:103CA00072656552544F535C7372635C7461736BDD
:103CB000732E63004572726F723A25732C25640D62
:103CC0000A0000003C000020500000202DE9FF4FBA
:103CD00085B0804689461746DDE912ABB800FEF78D
:103CE00067FF064656B15420FEF762FF04460CB14A
:103CF000266304E03046FFF7EBF800E000247CB1D7
:103D00000020CDE900ABCDE902403A4649464046A5
:103D1000089BFEF721FC2046FEF78AFA012501E008
:103D20004FF0FF35284609B0BDE8F08F0549096816
:103D300009B9012005E00449096809B9022000E039
:103D400000207047440000206000002001490868FE
:103D5000704700003C0000202DE9F0414FF00008C2
:103D600041480068002872D140480068451C3F481F
:103D70000560EDB93E480068006808B9012000E020
:103D8000002028B940F6D9123AA140A0FEF78EF8DB
:103D90003748076841480068354908603F48076070
:103DA0003F480068401C3E490860FEF7EDFD00BF3B
:103DB0003C48006885423CD300BF2D48006800683D
:103DC00008B9012000E0002020B14FF0FF30354954
:103DD00008602DE026480068C068C4686668B5427F
:103DE00002D23048066023E0201DFEF7AFFFA06A34
:103DF00018B104F11800FEF7A9FF94F82C10012067
:103E0000884029490968084327490860E16A01EBAD
:103E10008101264A02EB8100211DFEF7D5FF2449CE
:103E2000E06A0968C96A8842C7D34FF00108C4E74D
:103E300000BF1F480068C06A00EB80001B4951F8B2
:103E40002000012801D94FF0010805E0FFE71948DB
:103E50000068401C174908601748006808B14FF017
:103E600001084046BDE8F081600000203C000020D1
:103E70002C0000202E2E5C4672656552544F535C18
:103E80007372635C7461736B732E63004572726F3F
:103E9000723A25732C25640D0A00000030000020C2
:103EA0005000002058000020400000209005002015
:103EB00028000020480000204C00002070B5054676
:103EC0002C460026002D4BD026480068844201D1A4
:103ED000012000E0002028B940F6C76222A128A0F6
:103EE000FDF7E4FFA06C28B940F6C9621EA124A02A
:103EF000FDF7DCFFA06C401EA064616CE06A8842A4
:103F00002ED0A06C60BB201DFEF720FF78B9E06AC0
:103F100000EB80001E4951F8200040B994F82C10A5
:103F2000012088401B49096881431A480160606C80
:103F3000E062E06AC0F12000A06194F82C1001203A
:103F4000884014490968084312490860E16A01EB96
:103F500081010F4A02EB8100211DFEF735FF01268A
:103F6000304670BD280000202E2E5C4672656552DA
:103F7000544F535C7372635C7461736B732E630094
:103F80004572726F723A25732C25640D0A00000089
:103F9000900500204000002070B50646F068C46817
:103FA0002CB940F661321AA11FA0FDF77FFF04F182
:103FB0001800FEF7CBFE20480068A8B9201DFEF7C8
:103FC000C5FE94F82C10012088401C49096808435C
:103FD0001A490860E16A01EB8101194A02EB81008C
:103FE000211DFEF7F1FE04E004F118011548FEF76B
:103FF000EBFE1549E06A0968C96A884204D90125BF
:1040000001201249086000E00025284670BD00002C
:104010002E2E5C4672656552544F535C7372635C1E
:104020007461736B732E63004572726F723A2573FD
:104030002C25640D0A0000006000002040000020D4
:104040009005002038080020280000204C000020A7
:1040500070B5002400263448006828B94FF4FD628A
:1040600032A138A0FDF722FFFEF7BAFE2E48006805
:10407000401E2D4908600846006800284FD1354889
:10408000006800284BD024E03348C068C46804F1BD
:104090001800FEF75BFE201DFEF758FE94F82C106A
:1040A000012088402D49096808432C490860E16ACD
:1040B00001EB81012A4A02EB8100211DFEF784FEFB
:1040C0002849E06A0968C96A884202D30120264962
:1040D00008602148006808B9012000E0002000289D
:1040E000D2D00CB1FEF750FC2048056865B100BF86
:1040F000FFF732FE10B101201B4908606D1E002D34
:10410000F6D10020194908601748006838B1012627
:10411000300717490860BFF34F8FBFF36F8FFEF76B
:10412000A1FE304670BD0000600000202E2E5C46CF
:1041300072656552544F535C7372635C7461736B48
:10414000732E63004572726F723A25732C25640DCD
:104150000A0000003800002038080020400000203D
:1041600090050020280000204C000020480000207E
:1041700004ED00E01CB50024FEF7B4F80B4800681D
:1041800058B10B481F2100234FF48072CDE9001075
:1041900008A10A48FFF79AFD04462CB940F23312F1
:1041A00007A10EA0FDF782FE20461CBD6C0000207A
:1041B00070000020546D722053766300192B0008A4
:1041C0002E2E5C4672656552544F535C7372635C6D
:1041D00074696D6572732E63000000004572726F22
:1041E000723A25732C25640D0A0000002DE9FE4368
:1041F00004460D4616461F46DDF828804FF000099C
:104200002CB94FF4D37216A11CA0FDF74FFE1F4826
:10421000006810B3009501960294062D15DAFFF799
:1042200085FD022808D100234246694617480068E8
:10423000FFF7A4FB814610E000231A4669461348A5
:104240000068FFF79BFB814607E000233A4669467A
:104250000E480068FFF766FC81464846BDE8FE83CD
:104260002E2E5C4672656552544F535C7372635CCC
:1042700074696D6572732E63000000004572726F81
:10428000723A25732C25640D0A0000006C00002092
:1042900000000000000000000102030406070809F6
:1042A00000000000010203040006101600061016AC
:1042B000D042000800000020A0000000041F0008F9
:1042C00070430008A0000020009C0000141F00089C
:1042D0000024F400000000001000000001000000B5
:1042E00000000000000000000000000000000000CE
:1042F00001000000020000000000000000000000BB
:1043000000000000000000000000000000000000AD
:10431000000000000000000000000000000000009D
:10432000000000000000000000000000000000008D
:10433000000000000000000000000000000000007D
:10434000000000000000000000000000000000006D
:10435000000000000000000000000000000000005D
:10436000AAAAAAAA000000000000000000000000A5
:040000050800018965
:00000001FF
