:020000040800F2
:10000000189800205502000821200008431C000811
:100010001D200008B304000831250008000000007E
:100020000000000000000000000000009D0100082A
:10003000D906000800000000F10100082320000894
:100040006F0200086F0200086F0200086F020008CC
:100050006F0200086F020008DB0600086F0200084C
:100060006F0200086F0200086F0200086F020008AC
:100070006F0200086F0200086F0200086F0200089C
:100080006F0200086F0200086F020008C904000830
:10009000B90400086F0200086F0200086F02000830
:1000A0006F0200086F0200086F0200086F0200086C
:1000B0006F0200086F0200086F0200086F0200085C
:1000C0006F0200086F0200086F0200086F0200084C
:1000D0006F0200086F0200086F0200086F0200083C
:1000E0006F0200086F0200086F0200086F0200082C
:1000F0006F0200086F0200086F0200086F0200081C
:100100006F0200086F0200086F0200086F0200080B
:100110006F0200086F0200086F0200086F020008FB
:100120006F0200086F0200086F0200086F020008EB
:100130006F0200086F0200086F0200086F020008DB
:100140006F0200086F0200086F0200086F020008CB
:100150006F0200086F0200086F0200086F020008BB
:100160006F0200086F0200086F0200086F020008AB
:100170006F0200086F0200086F0200080000000014
:100180006F0200086F020008DFF80CD000F0D6F80C
:10019000004800472D2A0008189800202A4B1968AB
:1001A0000868B0E8F04F80F30988BFF36F8F4FF015
:1001B000000080F3118870470000000006480068C6
:1001C000006880F3088862B661B6BFF34F8FBFF353
:1001D0006F8F00DF00BF00BF08ED00E0DFF80C000C
:1001E000016841F470010160704700BF88ED00E0D4
:1001F000EFF30980BFF36F8F134B1A681EF0100FD7
:1002000008BF20ED108A20E9F04F106008B44FF0CD
:10021000500080F31188BFF34F8FBFF36F8F03F04F
:10022000D3FA4FF0000080F3118808BC1968086801
:10023000B0E8F04F1EF0100F08BFB0EC108A80F34A
:100240000988BFF36F8F704734000020EFF30580FB
:10025000704700000648804706480047FEE7FEE773
:10026000FEE7FEE7FEE7FEE7FEE7FEE7FEE7FEE766
:10027000F9200008890100082DE9F05F05460020FB
:1002800092469B4688460646814640241BE0284607
:1002900041464746224600F041F853465A46C01AA6
:1002A000914110D311461846224600F028F82D1A25
:1002B00067EB01084F4622460120002100F01FF89D
:1002C00017EB00094E41201EA4F10104DFDC484673
:1002D00031462A464346BDE8F09F40EA01039B07AA
:1002E00003D009E008C9121F08C0042AFAD203E0AB
:1002F00011F8013B00F8013B521EF9D27047202A49
:1003000004DB203A00FA02F1002070479140C2F16C
:10031000200320FA03F3194390407047202A04DB9E
:10032000203A21FA02F00021704721FA02F3D0406E
:10033000C2F120029140084319467047064C074D10
:1003400006E0E06840F0010394E8070098471034A5
:10035000AC42F6D3FFF71CFFE04200080043000860
:100360001CB5012403220021012003F049FB1C4994
:1003700008600846006810B11AA002F0DBF802F02D
:1003800079FF2248022100230A02CDE9001020A1B2
:10039000224803F06BFD04461CB121A002F0CAF80C
:1003A00002E025A002F0C6F82948032100234FF4FB
:1003B0000072CDE9001027A1294803F057FD04463B
:1003C0001CB128A002F0B6F802E02CA002F0B2F8AE
:1003D0003048006803F0BAF802F08EFF1CBD000040
:1003E0001C00002042696E61727953656D5F48613F
:1003F0006E646C65B6FED6B5D0C5BAC5C1BFB4B41F
:10040000BDA8B3C9B9A6210A00000000140000204D
:100410004C45445F5461736B00000000C51E00082A
:100420004C45445F5461736BC8CECEF1B4B4BDA8E3
:10043000B3C9B9A6210A00004C45445F5461736BEF
:10044000C8CECEF1B4B4BDA8CAA7B0DC210A000062
:10045000180000204B45595F5461736B0000000089
:100460005D1C0008B4B4BDA84B45595F5461736B63
:10047000C8CECEF1B3C9B9A6210A0000B4B4BDA854
:100480004B45595F5461736BC8CECEF1CAA7B0DC3F
:10049000210A00001000002010B501F0CDFD03205E
:1004A00000F042FF01F094FC01F004FC00F0F6F8CB
:1004B00010BD00BFFEE7000010B5024800F02AFBA7
:1004C00010BD0000D800002010B5024800F022FB4B
:1004D00010BD0000D800002010B500F031F800F089
:1004E000A3F800F06BF800F00DF801F0ADFB02216D
:1004F000034800F0F3F8024800F037FD10BD00009B
:10050000D800002000B58BB00E2006900020079088
:10051000012008900020019049F6A40002904FF6B7
:10052000FF7003900490002005900120099001A91C
:10053000024800F093F90BB000BD0000D800002085
:1005400000B587B000BF002001901948006840F056
:100550000200174908600846006800F00200019098
:1005600000BF00BF00BF002001900846006840F4B3
:10057000807008600846006800F48070019000BF39
:1005800000BF4815029002200390059001200490BE
:100590000920069002A9074800F032FD4FF40070D0
:1005A000029002A9044800F02BFD07B000BD000036
:1005B00030380240000402400020024008B500BF6D
:1005C000002000901548006840F000701349086052
:1005D0000846006800F00070009000BF00BF10489F
:1005E0001049086000210F4801760121417681768B
:1005F0000021C176017741774FF080418160002171
:10060000C1604FF480210161C900416106200549A4
:100610004860084600F0A5FB08BD000040380240D5
:1006200000640040D800002010B5002208211420EA
:1006300000F03CFE142000F029FE002208211320C7
:1006400000F034FE132000F021FE10BD10B5002094
:1006500010490968086041F214300E490968486081
:1006600004200C490968886000200A490968C860AC
:100670000820084909680861002004E00549091DAF
:100680000854411CC8B20828F8DB0121024800F0D8
:1006900025F810BD20000020D800002010B50C481F
:1006A0000C4908604FF4E13048600021094881603E
:1006B000C160016181610C21416101F0C5F905480A
:1006C0000068C06840F0200002490968C86010BD99
:1006D00000100140980000207047704710B5024696
:1006E00092F82030012B01D0022B06D1106840690E
:1006F000084314686061002010BD506A40F48020F7
:1007000050620120F8E7F0B504460D461E4694F805
:10071000207020688368A86800B900E000BF012F3E
:1007200001D0022F7CD103F0806030B903F000606B
:1007300018B903F08050002873D0C3F30161022977
:1007400005D9606A40F4000060620120F0BD01201C
:1007500088403060A86860B9B5F800C0E86840EA31
:100760004C5C206800F5C07000EB0110C0F800C0C0
:100770000FE0D5E901C040EACC00D5F80CC040EA52
:100780000C00D4F800C00CF5C07C0CEB011CCCF8BC
:100790000000D5F810C0206800F5C07000EB011013
:1007A000C0F804C0287D01280ED1206800F5C07073
:1007B00000EB0110406840F4807C206800F5C070B8
:1007C00000EB0110C0F804C0D079000692F806C012
:1007D00040EA0C4092F805C040EA0C2C10794CEA33
:1007E000000C206800F5C07000EB0110C0F80CC0D0
:1007F000D078000692F802C040EA0C4092F801C09E
:1008000040EA0C2092F800C040EA0C00D4F800C086
:100810000CF5C07C0CEB011CCCF80800206801E052
:1008200016E00FE000F5C07000EB0110006840F02A
:10083000010C206800F5C07000EB0110C0F800C08A
:10084000002083E7606A40F40010606201207DE7C9
:10085000606A40F480206062012077E7F0B50446CA
:100860000A46216894F82050012D01D0022D7ED136
:10087000424901F50071086840F00100086008680D
:1008800020F47C5008600868566A40EA0620086038
:10089000107D00F01F06012000FA06F3C869984396
:1008A000C861A1F50071D069C8B9D1F80C029843AC
:1008B000C1F80C02908880B2968940EA064601F59C
:1008C0001070576940F83760108880B2168940EA86
:1008D000064601F51070576900EBC7004660D06905
:1008E000012819D1D1F80C021843C1F80C029088E4
:1008F00080B2168840EA064601F51070576940F844
:100900003760908980B2168940EA064601F510707A
:10091000576900EBC7004660906928B9D1F8040216
:100920009843C1F8040204E0D1F804021843C1F866
:100930000402106928B9D1F814029843C1F81402CE
:1009400004E0D1F814021843C1F81402106A012817
:1009500004D1D1F81C021843C1F81C02D1F80002DE
:1009600020F00100C1F800020020F0BDFFE7606A3E
:1009700040F4802060620120F7E70000006400403E
:1009800010B5044601A001F0D5FD10BD0D0A43418C
:100990004EB3F6B4ED0D0A0070B5044694F820503D
:1009A000012D01D0022D7CD151B92068C06800F022
:1009B000030080B9606A40F400106062012070BDDD
:1009C0002068006900F0030028B9606A40F4001054
:1009D00060620120F3E7206800F5D87000EB011099
:1009E000006800F004009060906840B9206800F54D
:1009F000D87000EB01100068400D106007E020681F
:100A000000F5D87000EB01100068C0085060206845
:100A100000F5D87000EB0110006800F002004008FB
:100A2000D060206800F5D87000EB0110406800F03D
:100A30000F001061206800F5D87000EB01104068CD
:100A400000F47F40000A9061206800F5D87000EB48
:100A500001104068000C5061206800F5D87000EB70
:100A6000011080681870206800F5D87000EB011044
:100A7000806800F47F40000A5870206800F5D87044
:100A800000EB0110806800F47F00000C9870206873
:100A900000F5D87000EB01108068000ED870206857
:100AA00000E031E000F5D87000EB0110C06818716B
:100AB000206800F5D87000EB0110C06800F47F409A
:100AC000000A5871206800F5D87000EB0110C0686A
:100AD00000F47F00000C9871206800F5D87000EBDE
:100AE0000110C068000ED87131B92068C06840F0AC
:100AF00020002668F06005E02068006940F02000D2
:100B00002668306100205AE7606A40F48020606205
:100B1000012054E72DE9F05F04460025206846696E
:100B20002068D0F80490206887682068D0F80CA06E
:100B30002068D0F810B02068D0F8188006F00100C6
:100B4000002855D007F00100C0B10120216888605D
:100B500007F0020018B1204600F037FA0EE007F067
:100B6000040010B145F4006508E007F0080010B17A
:100B700045F4805502E0204600F026FA07F4807024
:100B8000C8B14FF480702168886007F4007018B114
:100B9000204600F01CFA0EE007F4806010B145F426
:100BA000005508E007F4006010B145F4804502E00C
:100BB000204600F00BFA07F48030C8B14FF48030C3
:100BC0002168886007F4003018B1204600F001FA6F
:100BD0000EE007F4802010B145F4004508E007F46A
:100BE000002010B145F4803502E0204600F0F0F915
:100BF00006F0080038B10AF0100020B145F4007585
:100C000010202168C86006F0040040B10AF0080016
:100C100028B108202168C860204600F05DF906F080
:100C2000020038B12068C06800F0030010B120460F
:100C300000F054F906F0400038B10BF0100020B17C
:100C400045F4806510202168086106F0200040B15D
:100C50000BF0080028B1082021680861204600F048
:100C600081F906F0100038B12068006900F0030037
:100C700010B1204600F077F906F4003040B109F0D9
:100C8000100028B1102021684860204600F06CF95F
:100C900006F4803040B109F0080028B1082021682E
:100CA0004860204600F096F906F4004088B309F049
:100CB000040078B306F4807020B108F0010008B198
:100CC00045F0010506F4007020B108F0020008B1FB
:100CD00045F0020506F4806020B108F0040008B178
:100CE00045F0040506F40060A0B108F0700088B17A
:100CF00008F07000402817D006DC10280BD0202800
:100D00000CD0302819D10CE0502810D0602814D114
:100D100010E01DE019E045F008050FE045F0100572
:100D20000CE045F0200509E045F0400506E045F0FF
:100D3000800503E045F4807500E000BF00BF206837
:100D4000806920F070002168886104202168486073
:100D50002DB1606A284360622046FFF711FEBDE8AE
:100D6000F09F70B504460CB9012070BD94F82000C6
:100D700010B9204600F0AFF82068006820F00200AB
:100D80002168086000F04AFA05460DE000F046FAD6
:100D9000401B0A2808D9606A40F4003060620520D0
:100DA00084F820000120E0E72068406800F002009D
:100DB0000028EBD12068006840F00100216808603D
:100DC00000F02CFA05460DE000F028FA401B0A2836
:100DD00008D9606A40F400306062052084F8200081
:100DE0000120C2E72068406800F001000028EBD035
:100DF000207E012806D12068006840F0800021682C
:100E0000086005E02068006820F080002168086024
:100E1000607E012806D12068006840F0400021680B
:100E2000086005E02068006820F040002168086044
:100E3000A07E012806D12068006840F020002168CB
:100E4000086005E02068006820F020002168086044
:100E5000E07E012806D12068006820F0100021689B
:100E6000086005E02068006840F010002168086014
:100E7000207F012806D12068006840F00800216822
:100E8000086005E02068006820F00800216808601C
:100E9000607F012806D12068006840F004002168C6
:100EA000086005E02068006820F004002168086000
:100EB000D4E9020108432169084361690843616874
:100EC000491E08432168C86100206062012084F83F
:100ED0002000002049E770477047000038B50546FC
:100EE00000BF5021EFF3118081F31188BFF34F8FC2
:100EF000BFF36F8F00BF0446154B164A00212846EA
:100F0000FFF74AFD1348406841F21431884216D178
:100F100010488068042812D10E48006908280ED1B4
:100F200069460D48006802F0D9FE009838B14FF0CC
:100F300080500A490860BFF34F8FBFF36F8F0221C3
:100F40000748FFF7CBFB00BF84F3118800BF38BD13
:100F50002C000020180100201C00002004ED00E0FF
:100F6000D800002070477047704770B5044694F869
:100F70002000012822D1022084F820002068006887
:100F800020F001002168086000F048F905460DE0F6
:100F900000F044F9401B0A2808D9606A40F4003088
:100FA0006062052084F82000012070BD2068406840
:100FB00000F001000028EBD16062F6E7606A40F4BF
:100FC000002060620120F0E770477047704770476B
:100FD000704770477047000070B5044600F01EF976
:100FE00006462546681C10B104480078054400BF39
:100FF00000F014F9801BA842FAD370BD0C00002049
:10100000F8B502460B460025002400200021DCE054
:10101000012606FA01F51E6806EA0504AC4273D102
:101020005E68022E02D05E68122E13D1CF0802F144
:10103000200656F827004E07F70E0F26BE40B04395
:101040004F07FF0E1E69BE403043CF0802F1200655
:1010500046F8270010684F000326BE40B0431E79B3
:1010600006F003064F00BE40304310605E68012E5C
:1010700008D05E68022E05D05E68112E02D05E6830
:10108000122E13D190684F000326BE40B0434F008C
:10109000DE68BE4030439060506801268E40B04309
:1010A0001E79C6F300168E4030435060D0684F0062
:1010B0000326BE40B0434F009E68BE403043D06020
:1010C0005E6806F08056B6F1805F7DD100BF0026D5
:1010D0000096404E366846F480463E4F3E603E469F
:1010E000366806F48046009600BF00BF3A4E8F086F
:1010F00056F827008E07370F0F26BE40B043374EF5
:10110000B24202D1002624E05EE0354EB24201D167
:1011100001261EE0334EB24201D1022619E0324EC2
:10112000B24201D1032614E0304EB24201D104266E
:101130000FE02F4EB24201D105260AE02D4EB242F9
:1011400001D1062605E02C4EB24201D1072600E06F
:1011500008268F073F0FBE4030431F4E8F0846F8CA
:101160002700264E3068A0435E6806F48036B6F548
:10117000803F00D12043214E3060361D3068A043AF
:101180005E6806F40036B6F5003F00D120431B4EE2
:10119000361D3060361D3068A0435E6806F4801648
:1011A000B6F5801F00D12043144E08363060361D3E
:1011B0003068A0435E6806F40016B6F5001F00D143
:1011C00020430E4E0C363060491C1029FFF420AF2E
:1011D000F8BD0000443802400838014000000240D9
:1011E0000004024000080240000C024000100240CF
:1011F0000014024000180240001C0240003C014064
:10120000024613690B400BB1012000E0002070473B
:1012100001480068000C7047002004E001480068A5
:101220007047000004000020034800680349097863
:101230000844014908607047040000200C000020A9
:1012400070B504460E4800784FF47A71B1FBF0F0A7
:101250000C490968B1FBF0F5284600F0DBFB08B14A
:10126000012070BD102C07D200222146501E00F034
:101270001DF80548046001E00120F2E70020F0E7D6
:101280000C00002000000020080000200146084655
:10129000002809DB00F01F0301229A4043099B004C
:1012A00003F1E023C3F8002100BF70472DE9F05F90
:1012B00080460D461646002701F04CF90746394690
:1012C0002A46334601F00700C0F1070ABAF1040FBD
:1012D00002D94FF0040A01E0C0F1070AD14600F13B
:1012E000040ABAF1070F02D24FF0000A01E0A0F1A0
:1012F000030AD4464FF0010A0AFA09FAAAF1010AD0
:101300000AEA020A0AFA0CFA4FF0010B0BFA0CFB7C
:10131000ABF1010B0BEA030B4AEA0B0421464046F2
:1013200001F020F9BDE8F09F00BF00F00702064B76
:1013300019684FF6FF031940044B0B4343EA02219F
:10134000014B196000BF70470CED00E00000FA058A
:1013500070B504460D460CB9012070BD58480068B0
:1013600000F00F00A84209D255490D7008460068E8
:1013700000F00F00A84201D00120EEE7207800F035
:10138000020002281DD1207800F00400042805D1B5
:101390004C48006840F4E0504A490860207800F06A
:1013A0000800082805D14748006840F460404549D6
:1013B00008604448006820F0F000A16808434149F3
:1013C0000860207800F00100A8B36068012807D108
:1013D0003C4808380068C0F34040B8B90120BCE779
:1013E0006068022802D06068032807D135480838B1
:1013F0000068C0F3406048B90120AEE731480838C2
:101400000068C0F3400008B90120A6E72D48006835
:1014100020F00300616808432A490860FFF7FEFED8
:10142000064609E0FFF7FAFE801B41F28831884248
:1014300002D9032091E707E02248006800F00C0081
:101440006168B0EB810FEDD11D48006800F00F001E
:10145000A84209D91A490D700846006800F00F002B
:10146000A84201D0012078E7207800F00400042889
:1014700007D11448006820F4E050E168084311499E
:101480000860207800F00800082808D10D4800689E
:1014900020F46040216940EAC1000A49086000F078
:1014A0003DF808490968C1F30311074A515CC84077
:1014B000064908600F20FFF7C3FE00204DE700003B
:1014C000003C0240083802402C4200080000002086
:1014D00001480068704700000000002000B5FFF7D9
:1014E000F7FF04490968C1F38221034A515CC840EF
:1014F00000BD0000083802403C42000800B5FFF77C
:10150000E7FF04490968C1F34231034A515CC8400E
:1015100000BD0000083802403C4200082DE9F047B9
:10152000002400250026A1462548006800F00C0094
:1015300020B1042805D008283AD105E0DFF88490CE
:1015400039E0DFF8849036E01D48001F006800F0A5
:101550003F041B48001F006800F4800078B11A485F
:101560001749091F0968C1F38811A0FB01700146E2
:10157000224600233846FEF77FFE05460EE011485E
:101580000F49091F0968C1F38811A0FB01700146CA
:10159000224600233846FEF76FFE05460848001F26
:1015A0000068C0F30140401C4600B5FBF6F902E0BC
:1015B000DFF8109000BF00BF4846BDE8F08700008C
:1015C000083802400024F40040787D01F8B5044654
:1015D0000CB90120F8BD207800F00100002874D07B
:1015E000F948006800F00C0004280DD0F6480068A7
:1015F00000F00C00082813D1F348001F006800F425
:101600008000B0F5800F0BD1EF4808380068C0F3B8
:101610004040002859D06068002856D10120D9E701
:1016200000BF6068B0F5803F08D1E748083800681F
:1016300040F48030E449083908601EE06068B0F585
:10164000A02F0DD1E0480838006840F48020DE4922
:10165000083908600846006840F4803008600CE0F3
:10166000D9480838006820F48030D7490839086024
:101670000846006820F48020086000BF606890B1D0
:10168000FFF7CCFD054606E0FFF7C8FD401B6428C8
:1016900001D903209EE7CC4808380068C0F34040D9
:1016A0000028F1D011E0FFF7B9FD054606E0FFF78D
:1016B000B5FD401B642801D903208BE7C2480838D8
:1016C0000068C0F340400028F1D1207800F002000B
:1016D00002285FD1BC48006800F00C0058B1BA483D
:1016E000006800F00C0008281CD1B748001F0068F3
:1016F00000F48000B0B9B44808380068C0F3400076
:1017000020B1E068012801D0012063E7AE48083825
:10171000006820F0F800216940EAC100AA490839B0
:10172000086037E0E06800B30120A8490860FFF7CF
:1017300075FD054606E0FFF771FD401B022801D943
:10174000032047E7A04808380068C0F3400000289D
:10175000F1D09D480838006820F0F800216940EA7F
:10176000C10099490839086014E0002097490860D1
:10177000FFF754FD054606E0FFF750FD401B022829
:1017800001D9032026E7904808380068C0F34000DC
:101790000028F1D1207800F0080008282CD16069D9
:1017A000A8B101208A490860FFF738FD054606E028
:1017B000FFF734FD401B022801D903200AE78248C5
:1017C0006C300068C0F340000028F1D014E0002025
:1017D0007F490860FFF722FD054606E0FFF71EFD82
:1017E000401B022801D90320F4E677486C300068DA
:1017F000C0F340000028F1D1207800F00400042854
:1018000070D1002670483830006800F0805090B9E0
:1018100000BF002000906C483830006840F08050D5
:101820006949383108600846006800F0805000902F
:1018300000BF00BF01266748006800F48070B0B99F
:101840006448006840F4807062490860FFF7E6FC75
:10185000054606E0FFF7E2FC401B022801D9032001
:10186000B8E65C48006800F480700028F2D000BF41
:10187000A068012808D154486830006840F0010091
:101880005149683108601DE0A06805280DD14E4817
:101890006830006840F004004B4968310860084631
:1018A000006840F0010008600CE0474868300068BC
:1018B00020F001004449683108600846006820F0C3
:1018C0000400086000BFA068A8B1FFF7A7FC0546A8
:1018D00009E0FFF7A3FC401B41F28831884202D99E
:1018E000032077E626E0384868300068C0F34000FF
:1018F0000028EED013E0FFF791FC054608E0FFF763
:101900008DFC401B41F28831884201D9032061E6F9
:101910002D4868300068C0F340000028EFD1012E48
:1019200007D129483830006820F0805026493831E6
:10193000086000BFA069B8B32348006800F00C003D
:1019400008285ED0A069022846D100201F490866F9
:10195000FFF764FC054606E0FFF760FC401B022829
:1019600001D9032036E6184808380068C0F3406003
:101970000028F1D1D4E907010843616A40EA8111E6
:101980000122A06AC2EB500041EA00412C20005D18
:1019900041EA00600C49091F086001200B490866F4
:1019A000FFF73CFC054607E02DE0FFF737FC401B46
:1019B000022801D903200DE6034808380068C0F367
:1019C00040600028F1D01EE0083802400000474285
:1019D000800E47420070004000200C490866FFF767
:1019E0001DFC054606E0FFF719FC401B022801D943
:1019F0000320EFE506480068C0F340600028F2D1FC
:101A000001E00120E6E50020E4E500000000474297
:101A10000038024070B504462546681EB0F1807F4C
:101A200001D301200FE0681E4FF0E02148610F2133
:101A30004FF0FF3000F096FD00204FF0E02188616C
:101A400007200861002070BD10B504460CB90120C4
:101A500010BDA06900B100E000BF94F8390028B9BA
:101A6000002084F83800204600F028F8242084F86C
:101A700039002068C06820F400502168C860204602
:101A800000F06CFB2068006920F490402168086138
:101A90002068406920F02A00216848612068C068F9
:101AA00040F400502168C8600020E063202084F8E2
:101AB000390084F83A000020CAE7000010B586B06B
:101AC000044600BF002000902648006840F0100047
:101AD000244908600846006800F01000009000BF2C
:101AE00000BF00BF002000901E481438006840F07E
:101AF00002001C49143908600846006800F0020022
:101B0000009000BF00BF00BF0020009008460068A2
:101B100040F0020008600846006800F002000090F3
:101B200000BF00BF402001900220029001200390DE
:101B3000032004900720059001A90B48FFF760FAE5
:101B4000802001900720059001A90748FFF758FA67
:101B5000012200212520FFF7A9FB2520FFF796FB96
:101B600006B010BD44380240000402402DE9F8439D
:101B700004460D4616461F464FF0000994F83900FA
:101B800020285CD105B116B90120BDE8F88300BF5B
:101B900094F83800012801D10220F6E7012084F8EA
:101BA000380000BF0020E063212084F83900FFF7EF
:101BB00035FB8146A684E6842BE0E08C401EE08461
:101BC000A068B0F5805F16D14B46002280212046E8
:101BD000009700F077FC08B10320D6E7A846B8F8D4
:101BE0000000C0F3080021684860206908B9AD1CF6
:101BF0000FE06D1C0DE04B4600228021204600972F
:101C000000F060FC08B10320BFE715F8010B216864
:101C10004860E08C0028D0D14B460022402120466D
:101C2000009700F04FFC08B10320AEE7202084F8B5
:101C3000390000BF002084F8380000BFA5E702206B
:101C4000A3E700BFFEE700000020034908604860EA
:101C500088600861886170471801002008B51FE09E
:101C60000121104800F0A0F8012816D100200090B2
:101C70004FF000400B498861FEF7E8FC0A486B46CC
:101C8000021D01680948FEF73EFD6420FFF7A4F934
:101C90004FF000400649086000BF142001F01AFC14
:101CA000DEE700000000024020000020D8000020F5
:101CB0001818024000B587B000BF002001903648D8
:101CC000006840F00100344908600846006800F0F0
:101CD0000100019000BF00BF00BF00200190084636
:101CE000006840F0040008600846006800F0040046
:101CF000019000BF00BF00BF0020019008460068AF
:101D000040F0400008600846006800F04000019084
:101D100000BF00BF00BF002001900846006840F0EF
:101D2000400008600846006800F04000019000BFD5
:101D300000BF00BF002001900846006840F040004E
:101D400008600846006800F04000019000BF00BF36
:101D50000120029000200390049002A90F48FFF791
:101D60004FF94FF40050029002A90D48FFF748F9CF
:101D70000420029002A90B48FFF742F908200290C4
:101D800002A90848FFF73CF91020029002A9054873
:101D9000FFF736F907B000BD3038024000000240BE
:101DA000000802400018024070B504460D4629465E
:101DB0002046FFF725FA012808D100BF2946204612
:101DC000FFF71EFA0128F9D0012070BD0020FCE7C2
:101DD00000B587B000BF002001903548006840F092
:101DE0000100334908600846006800F001000190D6
:101DF00000BF00BF00BF002001900846006840F00F
:101E0000100008600846006800F01000019000BF54
:101E100000BF00BF002001900846006840F040006D
:101E200008600846006800F04000019000BF00BF55
:101E300000BF002001900846006840F002000860E2
:101E40000846006800F00200019000BF00BF4FF498
:101E5000004002900120039004900320059002A905
:101E60001448FFF7CDF80420029002A91248FFF7AA
:101E7000C7F84FF40040029002A91048FFF7C0F8DD
:101E80004FF48070029002A90D48FFF7B9F84FF4A3
:101E900000400849886104200749886140030749D8
:101EA00018310860C01106491831086007B000BD3C
:101EB000303802400000024000100240001802408A
:101EC000000402400125FEF707FB1EA000F032FBD4
:101ED00026A000F02FFB2DA000F02CFB2F4800F0D7
:101EE00029FB2F4800F026FB2EA000F023FB28E062
:101EF00000235A1E19463A48006801F0BDFD054608
:101F0000012D1ED137A000F015FB00BF3A4E3BA0BB
:101F100000F010FB00240EE0315D3EA000F00AFB53
:101F2000601C0A2190FBF1F201FB120010B916A00F
:101F300000F000FB641C082CEEDB13A000F0FAFAA2
:101F400000BFD5E70D0A20BBB6D3ADCAB9D3C3D203
:101F5000B0BBF0202053544D33322046343037206C
:101F6000BFAAB7A2B0E5A1A30D0A00000D0A20D2B6
:101F7000B0BBF0463430372043414ECDA8D1B6CA6D
:101F8000B5D1E9C0FDB3CC0D0A0000000D0A20CA8E
:101F9000B5D1E9B2BDD6E8A3BA0D0A0044420008A3
:101FA000944200080D0A20332EB1BEC0FDD6D0B534
:101FB000C463616EB2A8CCD8C2CACEAA314D4270F9
:101FC00073A3ACCEAA73746D3332B5C463616ED79C
:101FD000EEB8DFCBD9C2CAA1A3200D0A00000000D1
:101FE0001C0000200D0A43414EBDD3CAD5B5BDCA61
:101FF000FDBEDDA3BA0D0A002C0000203C3C2D43A1
:10200000414E2D44454255472D41525241592D3E96
:102010003E0A0000253032782020200000BFFEE775
:10202000704710B501F052FF012801D001F0CEFC3D
:10203000FFF7FAF810BD000000B593B000BF002014
:1020400001902A48006840F08050284908600846FE
:10205000006800F08050019000BF00BF00BF00206A
:1020600001902348006840F48040214908600846F8
:10207000006800F48040019000BF00BF0120029082
:1020800000040390022008904105099119210A914A
:102090004FF4A8710B9102210C9107210D9102A818
:1020A000FFF794FA08B100BFFEE70F200E90022060
:1020B0000F90002010904FF4A05011904FF48050DA
:1020C000129005210EA8FFF743F908B100BFFEE703
:1020D000FFF79EF841F20101884205D105480068EA
:1020E00040F480700349086013B000BD40380240DE
:1020F00000700040003C02401448006840F470004A
:10210000124908601248006840F001001049086058
:1021100000200F49083108600D4800680D4908404B
:102120000B4908600C48091D0860081F006820F46E
:102130008020091F0860002005490C3108604FF01D
:1021400000600249803908607047000088ED00E0B7
:1021500000380240FFFFF6FE103000242DE9F04168
:1021600004462068006920F44050E1680843216873
:1021700008612169A068084361690843E16940EA90
:1021800001052068C06849F20C6188432843216832
:10219000C8602068406920F44070A1690843216844
:1021A0004861E069B0F5004F7ED1C449206888429B
:1021B00003D0C349206888425DD1FFF79FF900EB47
:1021C000C00101EB001061684900B0FBF1F064212F
:1021D000B0FBF1F00601FFF791F900EBC00101EB54
:1021E000001061684900B0FBF1F7FFF787F900EBD9
:1021F000C00101EB001061684900B0FBF1F06421FF
:10220000B0FBF1F000EBC00101EB0010A7EB800088
:10221000322101EBC0006421B0FBF1F000F0F800C6
:1022200006EB4006FFF76AF900EBC00101EB001076
:1022300061684900B0FBF1F7FFF760F900EBC001FE
:1022400001EB001061684900B0FBF1F06421B0FBC4
:10225000F1F000EBC00101EB0010A7EB8000322190
:1022600001EBC0006421B0FBF1F000F00700304446
:102270002168886020E1FFF731F900EBC00101EB34
:10228000001061684900B0FBF1F06421B0FBF1F08F
:102290000601FFF723F900EBC00101EB00106168B4
:1022A0004900B0FBF1F700E045E0FFF717F900EB5C
:1022B000C00101EB001061684900B0FBF1F064213E
:1022C000B0FBF1F000EBC00101EB0010A7EB8000C8
:1022D000322101EBC0006421B0FBF1F000F0F80006
:1022E00006EB4006FFF7FAF800EBC00101EB001027
:1022F00061684900B0FBF1F7FFF7F0F800EBC001AF
:1023000001EB001061684900B0FBF1F06421B0FB03
:10231000F1F000EBC00101EB0010A7EB80003221CF
:1023200001EBC0006421B0FBF1F000F00700304485
:1023300021688860C0E061492068884203D0604914
:10234000206888425CD1FFF7D9F800EBC00101EBAF
:10235000001061688900B0FBF1F6FFF7CFF800EBE1
:10236000C00101EB001061688900B0FBF1F064214D
:10237000B0FBF1F000EBC00101EB0010A6EB800018
:10238000322101EB00106421B0FBF1F000F0F00607
:10239000FFF7B4F800EBC00101EB001061688900A1
:1023A000B0FBF1F06421B0FBF1F006EB0016FFF793
:1023B000A5F800EBC00101EB001061688900B0FBDB
:1023C000F1F7FFF79BF800EBC00101EB001061682B
:1023D0008900B0FBF1F06421B0FBF1F000EBC0012B
:1023E00001EB0010A7EB8000322101EB001064210B
:1023F000B0FBF1F000F00F003044216888605BE032
:10240000FFF76CF800EBC00101EB00106168890078
:10241000B0FBF1F6FFF762F800EBC00101EB001032
:1024200061688900B0FBF1F06421B0FBF1F000EBD2
:10243000C00101EB0010A6EB8000322101EB00107F
:102440006421B0FBF1F000F0F006FFF747F800EB75
:10245000C00101EB001061688900B0FBF1F064215C
:10246000B0FBF1F006EB0016FFF738F800EBC00107
:1024700001EB001061688900B0FBF1F7FFF72EF85F
:1024800000EBC00101EB001061688900B0FBF1F0C6
:102490006421B0FBF1F000EBC00101EB0010A7EBF1
:1024A0008000322101EB00106421B0FBF1F000F05C
:1024B0000F00304421688860BDE8F08100100140C1
:1024C000001401402DE9F04104460D461746984698
:1024D000069E21E0701CF8B12EB1FEF79FFEA0EB26
:1024E0000800B04218D92068C06820F4D070216874
:1024F000C8602068406920F0010021684861202000
:1025000084F8390084F83A0000BF002084F83800CD
:1025100000BF0320BDE8F081206800682840A84281
:1025200001D1012000E00020B842D3D00020F1E723
:1025300000BFFEE70FB4054B10B503A9044A02988B
:1025400000F034F810BC5DF814FB0000112A0008FC
:102550009400002002480068C0F302207047000089
:102560000CED00E010B5002804DB0A07130E054A45
:10257000135406E00A07140E034A00F00F031B1F52
:10258000D45410BD00E400E018ED00E002E008C8FB
:10259000121F08C1002AFAD170477047002001E0DD
:1025A00001C1121F002AFBD1704700002DE9FF4F27
:1025B0008DB00F460546002606E025280BD0DDE944
:1025C0000F1290476D1C761C28780028F5D111B0A9
:1025D0003046BDE8F08F0024A246A1460122EC4916
:1025E00000E0044315F8013F203B02FA03F00842E3
:1025F000F7D128782A2810D06FF02F022878A0F180
:102600003001092914D80AEB8A0102EB410144F098
:10261000020400EB010A6D1CF0E701CF5FEA000A3B
:1026200003D544F40054CAF1000A44F002046D1CBE
:1026300028782E2817D115F8010F44F004042A2811
:102640000ED06FF02F022878A0F1300109290AD8A6
:1026500009EB890102EB410100EB01096D1CF2E776
:1026600057F8049B6D1C28786C280FD006DC4C288A
:1026700017D068280DD06A2814D104E0742810D02F
:102680007A280FD10DE044F400140AE044F48014D9
:1026900001E044F440146978814202D104F58014C9
:1026A0006D1C6D1C2A786E2A1FD00CDC632A31D079
:1026B00004DC002A8BD0582A11D1A3E0642A68D008
:1026C000692A0CD165E0732A2ED004DC6F2A73D0FE
:1026D000702A04D19BE0752A6FD0782A6ED01046FC
:1026E000DDE90F129047761C50E1C4F30250022836
:1026F00006D0032809D0042801CF09D0066045E19F
:1027000001CFF117C0E9006140E101CF06803DE152
:1027100006703BE117F8040B8DF8000000208DF8DF
:102720000100EB46012003E057F804BB4FF0FF30F7
:1027300061074FF0000102D40DE008F10101884665
:1027400049450FDA8045F8DB1BF808100029F4D161
:1027500008E008F1010188468142FADB1BF8081005
:102760000029F6D1DDE90F23AAEB080081462146B6
:1027700000F036F9304400EB080604E0DDE90F1202
:102780001BF8010B9047B8F10108F7D221464846E3
:10279000F7E00A21C4F302534FF0000B0891022B1B
:1027A00004D001CFC117032B09D00AE0FF1D27F089
:1027B0000707F7E8020108E032E01FE020E000B27E
:1027C000C117042B01D140B2C117031E71F10003E0
:1027D00007DA4FF0000CD0EB0C006CEB01012D235D
:1027E00002E0230504D52B238DF82430012303E0D8
:1027F000E30701D02023F7E7984658E00A2110E0CC
:1028000010210EE010204FF0000B08900CE010217A
:102810004FF0000B44F004044FF00809089103E066
:1028200008214FF0000B0891C4F30253022B04D08F
:1028300001CF0021032B06D006E0FF1D27F007077C
:10284000F7E8020103E080B2042B00D1C0B24FF0E0
:10285000000823072BD5702A07D0DDF820C08CF0A4
:10286000100C5CEA0B0C05D00EE040238DF82430F0
:10287000012308E050EA010306D030238DF824300C
:102880008DF8252002239846DDF820C08CF0080C36
:102890005CEA0B0C0BD150EA010301D1630706D5AA
:1028A00030238DF824304FF00108A9F10109582A8E
:1028B00004D038A20B9208AA0A920BE03AA2F9E7D8
:1028C0005B46089AFDF7D8FC0B9B9B5C0A9A521E4C
:1028D0000A92137050EA0102F2D10A98ADEB00009F
:1028E00000F1200B600702D524F4803401E04FF0A2
:1028F0000109D94502DDA9EB0B0000E0002000EB47
:102900000B0141440890AAEB010AE00306D4DDE97B
:102910000F232146504600F063F806444FF00009AB
:1029200008E009A911F80900DDE90F12904709F143
:102930000109761CC145F4DBE0030CD5DDE90F236A
:102940002146504600F04CF8064404E0DDE90F1241
:1029500030209047761C0899481E08900029F5DC25
:1029600008E00A980A990078491C0A91DDE90F12DB
:102970009047761CBBF10001ABF1010BF1DC214665
:102980005046DDE90F2300F019F806446D1C1BE6E4
:102990000928010030313233343536373839616235
:1029A00063646566000000003031323334353637F9
:1029B0003839414243444546000000002DE9F041CA
:1029C000044600251E461746880404D405E039460F
:1029D0002020B0476D1C641EF9D52846BDE8F08163
:1029E0002DE9F041044600251E469046C80301D556
:1029F000302700E02027880404D505E0414638460A
:102A0000B0476D1C641EF9D52846BDE8F081000072
:102A100013B50C464FF47A73012269460248FFF75A
:102A2000A5F800981CBD0000980000201CB50124EA
:102A3000FDF732FD0AA0FFF77DFD18A0FFF77AFD34
:102A40001F48012100234A02CDE900101DA12148A1
:102A500001F00CFA04460CB100F05AFE00BFFEE78C
:102A6000D5E2CAC7D2BBB8F65BD2B0BBF05D2D537E
:102A7000544D3332C8ABCFB5C1D0BFAAB7A2B0E571
:102A80002D4672656552544F53C8CECEF1B9DCC0A5
:102A9000EDCAB5D1E9A3A10A0A000000B0B4CFC2C3
:102AA0004B455931B9D2C6F0C8CECEF1A3ACB0B4C3
:102AB000CFC24B455932BBD6B8B4C8CECEF10A000E
:102AC000100000204170705461736B437265617433
:102AD00065000000610300082DE9F04105460E463F
:102AE0001C4807681C480068001D00F079FB50B9BD
:102AF0001948006890F82C1001208840174909688F
:102B0000814316480160681C38B936B11248016823
:102B1000091D134800F0A2FB1AE07C190E4800685A
:102B20004460BC4207D20C480168091D0D4800688A
:102B300000F07AFB0CE008480168091D0A480068AB
:102B400000F072FB09480068844201D20748046023
:102B5000BDE8F08148000020340000204C00002037
:102B6000040400203C000020380000206400002005
:102B700010B5044600F07EFB23480068401C224943
:102B800008602248006840B9204804600846006890
:102B900001280DD100F05EF90AE01D48006838B93F
:102BA0001A480068C06AE16A884201D81748046080
:102BB00018480068401C1749086094F82C10012040
:102BC000884015490968084313490860E16A01EB28
:102BD0008101124A02EB8100211D00F03FFB00F051
:102BE0008BFB0B48006868B108480068C06AE16A5E
:102BF000884207D24FF0805009490860BFF34F8FD9
:102C0000BFF36F8F10BD000044000020340000208F
:102C100050000020600000204C0000203401002003
:102C200004ED00E070B523E000F0C6FD1348006835
:102C300008B9012000E00020054601F065FABDB9A1
:102C400000F018FB0D48C068C468201D00F0C8FAE9
:102C50000B480068401E0A4908600A480068401E88
:102C60000849086000F048FB204600F022F800BF49
:102C7000044800680028D7D170BD0000F003002090
:102C8000440000204000002070B504460D46206C32
:102C900070B1216CE0680844E0606168E0688842D7
:102CA00001D32068E0602846226CE168FDF715FB3F
:102CB00070BD10B50446206B00F054FB204600F0B8
:102CC00051FB10BD30B54FF41043174800F0070416
:102CD0002CB1C01D20F00700134C041B1B1B024627
:102CE000124C22600024114D6C60D018083820F07E
:102CF00007000F4C206000240D4D2D686C600C4DBA
:102D00002D682C601146441A4C60094C24680C60F4
:102D1000084D4C682C60084D4C682C604FF0004406
:102D2000064D2C6030BD000018040020700000200B
:102D300078000020800000207C000020840000201B
:102D400000BFFFF76FFF064800680128F9D94FF070
:102D5000805004490860BFF34F8FBFF36F8FF0E7D7
:102D60003401002004ED00E02DE9F04106460D4657
:102D700017469846069C0DB9246000E02760E6637C
:102D800025640121204600F04FFFBDE8F0810000DE
:102D90002DE9FF5F81460E469246DDE90E7B109CD1
:102DA000AAF10100216B01EB800828F0070808F068
:102DB000070008B9012000E0002028B940F22B32BA
:102DC0001AA120A0FFF7B6FB002507E0715D04F112
:102DD00034004155705D00B902E06D1C102DF5D333
:102DE00000BF002143200155202F00D31F27E76299
:102DF000201D00F016FA04F1180000F012FA246108
:102E0000C7F12000A06164620020606484F848007B
:102E100049464046039A00F0CDF92060BBF1000F0F
:102E200001D0CBF80040BDE8FF9F00002E2E5C468D
:102E300072656552544F535C7372635C7461736B5B
:102E4000732E63004572726F723A25732C25640DE0
:102E50000A00000010B5002407E004EB84010F4ACB
:102E600002EB810000F0D0F9641C202CF5D30C4853
:102E700000F0CAF90B4800F0C7F90B4800F0C4F99C
:102E80000A4800F0C1F90A4800F0BEF904480949AF
:102E9000086004480849086010BD000034010020A3
:102EA000B4030020C8030020DC030020F00300204E
:102EB00004040020380000203C00002010B501462A
:102EC000164800E0006803688B42FBD30246436863
:102ED00013448B4204D143684C6823444360014649
:102EE0000A464B6813440468A34211D10C4C036892
:102EF0002468A34208D04B680468646823444B608C
:102F000003681B680B6005E0054B1B680B6001E064
:102F100003680B60884200D0016010BD7000002083
:102F20007800002070B5054600F0A4F9A86B08B938
:102F3000012400E0002400F0DFF9204670BD00000D
:102F40000A490968096809B9012100E0002121B195
:102F50004FF0FF31064A116006E004490968C9686C
:102F6000C868034A416811607047000038000020BB
:102F7000640000200C480068401C08B9012000E0F3
:102F8000002028B940F20F1208A112A0FFF7D2FAD0
:102F900000BF502080F31188BFF34F8FBFF36F8FB6
:102FA00000BF00BFFEE70000880000202E2E5C4618
:102FB00072656552544F535C706F72745C52564424
:102FC000535C41524D5F434D34465C706F72742EBA
:102FD000630000004572726F723A25732C25640DF0
:102FE0000A00000070B5044600F044F994F9455019
:102FF00010E0606A08B9012000E0002038B904F14F
:10300000240001F025F818B100F028FB00E003E0EF
:10301000681E45B2002DECDC00BFFF2084F845009F
:1030200000F06AF900F026F994F9445010E02069A4
:1030300008B9012000E0002048B904F1100001F0B7
:1030400007F808B100F00AFB681E45B200E001E095
:10305000002DECDC00BFFF2084F8440000F04CF9A8
:1030600070BD00002DE9F04104464FF0000800F06B
:10307000A3FB3E48006808B9FFF724FE3C480068FF
:10308000204000285FD1A4B1083404F0070080B1CB
:1030900004F00700C0F10800044404F0070008B978
:1030A000012000E0002020B9BF2232A13AA0FFF7A2
:1030B00041FA002C47D03C480068844243D83B4E3C
:1030C0003046056801E02E462D686868A04202D2AD
:1030D00028680028F7D125480068854233D0306839
:1030E00000F10808286830606868001B102813D9B0
:1030F0002F1907F0070008B9012000E0002020B9CF
:10310000EC221CA124A0FFF715FA6868001B786068
:103110006C603846FFF7D2FE234968680968081AD0
:10312000214908600846006821490968884203D29D
:103130001D4800681E4908600D4968680968084311
:1031400068600020286000F0DFFF08F0070008B981
:10315000012000E0002028B94FF4967205A10EA0CE
:10316000FFF7E8F94046BDE8F08100007800002054
:10317000840000202E2E5C4672656552544F535CCD
:10318000706F72745C4D656D4D616E675C686561F2
:10319000705F342E630000004572726F723A2573BF
:1031A0002C25640D0A0000007C0000207000002027
:1031B00080000020001F4FF080730360001F21F08B
:1031C00001030360001F054B036014380260001FF9
:1031D0006FF002030360203870470000752F00086D
:1031E00001460A69D1E901309860D1E901035860CC
:1031F0005068884201D188685060002008611068DA
:10320000401E10601068704700F1080141604FF0E7
:10321000FF31816000F10801C1600161002101609E
:10322000704700210161704710B502460B685C1CB5
:103230000CB9106907E002F1080000E0406844683A
:1032400024689C42FAD944684C604C68A16088604C
:1032500041600A611468641C146010BD42684A60D1
:1032600093688B60936859609160086103685B1C88
:103270000360704710B500BF502080F31188BFF382
:103280004F8FBFF36F8F00BF0B480068401C0A4987
:1032900008600846006801280DD108480068C0B2DF
:1032A00008B9012000E0002028B940F2B91204A1B9
:1032B0000DA0FFF73FF910BD8800002004ED00E0ED
:1032C0002E2E5C4672656552544F535C706F72745B
:1032D0005C525644535C41524D5F434D34465C70E2
:1032E0006F72742E630000004572726F723A25731C
:1032F0002C25640D0A00000010B50B48006828B9A1
:103300004FF4E07209A113A0FFF714F90648006812
:10331000401E054908600846006820B9002080F377
:10332000118800BF00BF10BD880000202E2E5C4613
:1033300072656552544F535C706F72745C525644A0
:10334000535C41524D5F434D34465C706F72742E36
:10335000630000004572726F723A25732C25640D6C
:103360000A00000070B506463546002E35D0083DEF
:103370002C461A4960680968084008B1012000E03D
:10338000002028B94FF4A07215A11EA0FFF7D2F8B3
:10339000206808B9012000E0002028B940F241125D
:1033A0000FA118A0FFF7C6F80C496068096808402B
:1033B00098B1206888B909496068096888436060E5
:1033C00000F0FAF913496068096808441149086077
:1033D0002046FFF773FD00F097FE70BD84000020CB
:1033E0002E2E5C4672656552544F535C706F72743A
:1033F0005C4D656D4D616E675C686561705F342E14
:10340000630000004572726F723A25732C25640DBB
:103410000A0000007C000020064800684FF47A7122
:10342000B0FBF1F0401E4FF0E02148610720086139
:10343000704700000000002070B5FCF707FF05464C
:10344000102D11D305F1E02090F8F04310480078DA
:10345000844201DB012000E0002028B94FF44072D3
:103460000CA116A0FFF766F81848006800F4E060A9
:1034700017490968884201D8012000E0002028B9D6
:103480004FF4447203A10DA0FFF754F870BD000083
:103490008C0000202E2E5C4672656552544F535CA2
:1034A000706F72745C525644535C41524D5F434D91
:1034B00034465C706F72742E630000004572726F48
:1034C000723A25732C25640D0A0000000CED00E013
:1034D0009000002070B504460025ACB10F4800688C
:1034E00008B9012000E0002028B940F2CF420CA129
:1034F00011A0FFF71FF800F05FF900212046FFF749
:10350000EBFA00F001FE05463DB94FF080500E4940
:103510000860BFF34F8FBFF36F8F70BD6C0000204A
:103520002E2E5C4672656552544F535C7372635C19
:103530007461736B732E63004572726F723A2573F8
:103540002C25640D0A00000004ED00E070B505466E
:10355000FFF790FE15B92D48006800E028460446A4
:10356000201DFFF73DFE78B9E06A00EB8000284996
:1035700051F8200040B994F82C10012088402549CA
:103580000968814323480160A06A18B104F118005A
:10359000FFF726FE20480068401C1F4908601B48B2
:1035A0000068844209D1211D1C48FFF757FE1C48C2
:1035B0000068401C1A49086009E01A480068401E6B
:1035C000184908602046FFF774FBFFF7B9FCFFF7C6
:1035D00093FE15480068C0B10C480068844214D1BD
:1035E0001248006808B9012000E0002028B940F224
:1035F00065420FA114A0FEF79DFF4FF080501649C1
:103600000860BFF34F8FBFF36F8F70BD3400002091
:10361000340100204C00002060000020F003002056
:103620004000002044000020500000206C000020DA
:103630002E2E5C4672656552544F535C7372635C08
:103640007461736B732E63004572726F723A2573E7
:103650002C25640D0A00000004ED00E00120014962
:10366000086070475800002070B504460D462CB91C
:1036700040F6063207A10DA0FEF75CFF0F48016877
:1036800018312046FFF7D0FD01212846FFF724FA24
:1036900070BD00002E2E5C4672656552544F535C1F
:1036A0007372635C7461736B732E63004572726F27
:1036B000723A25732C25640D0A00000034000020A6
:1036C00010B504462CB940F6C13205A10AA0FEF798
:1036D00031FF0D48006820600C480068606010BD34
:1036E0002E2E5C4672656552544F535C7372635C58
:1036F0007461736B732E63004572726F723A257337
:103700002C25640D0A0000005C0000204800002009
:103710001CB5184800210B468022CDE9001016A1E7
:10372000174800F0A3FB0446012C15D100BF502020
:1037300080F31188BFF34F8FBFF36F8F00BF4FF03F
:10374000FF301049086001200F49086000200F4930
:10375000086000F08FF80BE0601C08B1012000E069
:10376000002028B940F2847209A10FA0FEF7E2FE02
:103770001CBD00006800002049444C4500000000CA
:10378000412D000864000020500000204800002067
:103790002E2E5C4672656552544F535C7372635CA7
:1037A0007461736B732E63004572726F723A257386
:1037B0002C25640D0A00000002480068401C0149E5
:1037C000086070476C00002010B51B48006818B1F5
:1037D00001201A4908602DE00020184908601848A7
:1037E0000068B0FA80F0C0F11F0404EB84001549B2
:1037F00051F8200008B1012000E0002028B940F66F
:10380000F62211A116A0FEF795FE04EB84010D4AE5
:1038100002EB810041684968416000F1080142689B
:103820008A4202D14168496841604168C968104ACA
:10383000116000BF10BD00006C0000205800002087
:103840004C000020340100202E2E5C46726565522B
:10385000544F535C7372635C7461736B732E6300BB
:103860004572726F723A25732C25640D0A000000B0
:10387000340000201CB5404800684049884201D00F
:10388000012000E0002028B940F259123CA146A0D6
:10389000FEF750FE384800683849491E884201D07A
:1038A000012000E0002028B94FF4AD7234A13EA001
:1038B000FEF740FE404C204600780190FF20214654
:1038C00008700846007800909DF8000000F0F000B5
:1038D0009DF80010884201D1012000E0002028B9A5
:1038E00040F2731226A130A0FEF724FE9DF80000DE
:1038F00000F050003149087007203149086009E0A4
:103900002F480068401E2E4908609DF800004006C0
:10391000000E00909DF8000000F080008028EFD09D
:10392000274800680002264908600846008800F41D
:10393000E06008602049019808700F482030006856
:1039400040F470000C49203108600846006840F0DF
:1039500070400860FFF760FD00201A490860FCF71E
:103960003DFC1948006840F0404017490860FCF7EA
:1039700025FC00201CBD000000ED00E071C20F41DD
:103980002E2E5C4672656552544F535C706F727494
:103990005C525644535C41524D5F434D34465C701B
:1039A0006F72742E630000004572726F723A257355
:1039B0002C25640D0A00000000E400E08C000020CB
:1039C000900000208800002034EF00E010B500BF18
:1039D000502080F31188BFF34F8FBFF36F8F00BF6C
:1039E00000F084FA18B14FF080500449086000BF1D
:1039F000002080F3118800BF10BD000004ED00E03E
:103A00002DE9F84305460E4690460DB1012000E031
:103A1000002028B94FF4C4720DA113A0FEF78AFD4F
:103A20000EB9002701E005FB06F707F14800FFF794
:103A300019FB044644B104F1480943464A4631465D
:103A400028460094FFF790F92046BDE8F88300006F
:103A50002E2E5C4672656552544F535C7372635CE4
:103A600071756575652E63004572726F723A2573C4
:103A70002C25640D0A0000002DE9FF4782B00546A1
:103A80000E461F464FF0000A2C462CB940F2DC428D
:103A90005AA160A0FEF74EFD0EB9206C08B90120B6
:103AA00000E0002028B940F2DD4254A159A0FEF701
:103AB00041FD00F00BFA08B9049808B9012000E0B4
:103AC000002028B94FF49C624CA152A0FEF732FDB1
:103AD00000BFFFF7CFFBD4F83890B9F1000F38D012
:103AE000D4F80C8031462046FFF7CEF8B7B9A9F1DB
:103AF0000100A063206908B9012000E0002010BB8C
:103B000004F1100000F0A4FAE8B14FF080504549EC
:103B10000860BFF34F8FBFF36F8F14E0C4F80C80C1
:103B2000606A08B9012000E0002060B904F12400B7
:103B300000F08EFA38B14FF080503A490860BFF378
:103B40004F8FBFF36F8FFFF7D7FB012006B0BDE8A3
:103B5000F087049818B9FFF7CFFB0020F6E7BAF119
:103B6000000F04D16846FFF7ABFD4FF0010AFFF7E5
:103B7000C3FBFFF721FEFFF77DFB94F94400401CD7
:103B800010B9002084F8440094F94500401C10B995
:103B9000002084F84500FFF7AFFB04A9684600F059
:103BA00013F9F0B92046FFF7BDF9A0B104F12400E4
:103BB0000499FFF759FD2046FFF714FA00F0A4FA24
:103BC000002886D14FF0805016490860BFF34F8F10
:103BD000BFF36F8F7DE72046FFF704FA00F094FAF9
:103BE00077E72046FFF7FEF900F08EFA2046FFF750
:103BF00099F90028EED00020A8E700002E2E5C46A0
:103C000072656552544F535C7372635C7175657570
:103C1000652E63004572726F723A25732C25640D10
:103C20000A00000004ED00E070B505460E462C4683
:103C30002CB940F21B121EA123A0FEF77BFCFFF75C
:103C400019FBD4E90F12206801FB0200606000201C
:103C5000A0632068A060E06B401E226C216800FB1E
:103C60000210E060FF2084F8440084F845009EB90B
:103C7000206908B9012000E00020A8B904F1100073
:103C800000F0E6F980B14FF0805013490860BFF3AF
:103C90004F8FBFF36F8F07E004F11000FFF7B4FA06
:103CA00004F12400FFF7B0FAFFF726FB012070BDF6
:103CB0002E2E5C4672656552544F535C7372635C82
:103CC00071756575652E63004572726F723A257362
:103CD0002C25640D0A00000004ED00E02DE9F047FA
:103CE00006460F4634462CB940F23C422CA132A085
:103CF000FEF720FC206C08B9012000E0002028B964
:103D00004FF4886226A12CA0FEF714FC206808B9A5
:103D1000606808B9012000E0002028B940F245425F
:103D20001FA125A0FEF706FCFFF786FB00BF502170
:103D3000EFF3118081F31188BFF34F8FBFF36F8FC3
:103D400000BF0546D4F83890E06B48451ED994F979
:103D500045A009F10100A0630AF1010070B9606A91
:103D600008B9012000E0002068B904F1240000F047
:103D70006FF940B13FB10120386004E00AF1010061
:103D800040B284F845004FF0010801E04FF0000810
:103D900000BF85F3118800BF4046BDE8F0870000F2
:103DA0002E2E5C4672656552544F535C7372635C91
:103DB00071756575652E63004572726F723A257371
:103DC0002C25640D0A0000002DE9F04104460D4643
:103DD0002CB940F6CB3219A11EA0FEF7ABFB2DB9D2
:103DE00040F6CC3215A11BA0FEF7A4FBFFF742FA68
:103DF0001C4807682868401C08B9002619E01A49C1
:103E000020680968884204D06068B84201D8012659
:103E10000FE06068381A2968884209D2286861680A
:103E2000791A401A28602046FFF74AFC002600E075
:103E30000126FFF761FA3046BDE8F0812E2E5C4680
:103E400072656552544F535C7372635C7461736B3B
:103E5000732E63004572726F723A25732C25640DC0
:103E60000A000000480000205C0000202DE9FF4F00
:103E700085B0804689461746DDE912ABB800FFF7EA
:103E8000F1F8064656B14C20FFF7ECF804460CB1A9
:103E9000266304E03046FFF765FA00E000247CB1B9
:103EA0000020CDE900ABCDE902403A464946404604
:103EB000089BFEF76DFF2046FEF75AFE012501E044
:103EC0004FF0FF35284609B0BDE8F08F0549096875
:103ED00009B9012005E00449096809B9022000E098
:103EE00000207047500000206C0000202DE9F041B8
:103EF0004FF0000841480068002872D1404800682F
:103F0000451C3F480560EDB93E480068006808B9A7
:103F1000012000E0002028B940F6D9123AA140A0C3
:103F2000FEF708FB374807684148006835490860D4
:103F30003F4807603F480068401C3E490860FEF764
:103F4000FFFF00BF3C48006885423CD300BF2D48BE
:103F50000068006808B9012000E0002020B14FF09F
:103F6000FF30354908602DE026480068C068C46805
:103F70006668B54202D23048066023E0201DFFF794
:103F80002FF9A06A18B104F11800FFF729F994F885
:103F90002C100120884029490968084327490860F6
:103FA000E16A01EB8101264A02EB8100211DFFF746
:103FB00055F92449E06A0968C96A8842C7D34FF0B5
:103FC0000108C4E700BF1F480068C06A00EB80001A
:103FD0001B4951F82000012801D94FF0010805E0E4
:103FE000FFE719480068401C174908601748006837
:103FF00008B14FF001084046BDE8F0816C00002098
:1040000048000020380000202E2E5C467265655264
:10401000544F535C7372635C7461736B732E6300F3
:104020004572726F723A25732C25640D0A000000E8
:104030003C0000205C000020640000204C000020B8
:1040400034010020340000205400002058000020DB
:1040500070B50646F068C4682CB940F661321AA102
:104060001FA0FEF767FA04F11800FFF7B9F820481F
:104070000068A8B9201DFFF7B3F894F82C100120B0
:1040800088401C49096808431A490860E16A01EB45
:104090008101194A02EB8100211DFFF7DFF804E0DE
:1040A00004F118011548FFF7D9F81549E06A0968C5
:1040B000C96A884204D9012501201249086000E03C
:1040C0000025284670BD00002E2E5C4672656552A4
:1040D000544F535C7372635C7461736B732E630033
:1040E0004572726F723A25732C25640D0A00000028
:1040F0006C0000204C00002034010020DC03002074
:10410000340000205800002070B5002400263448F8
:10411000006828B94FF4FD6232A138A0FEF70AFA10
:10412000FFF7A8F82E480068401E2D490860084691
:10413000006800284FD13548006800284BD024E0A3
:104140003348C068C46804F11800FFF749F8201D1F
:10415000FFF746F894F82C10012088402D49096893
:1041600008432C490860E16A01EB81012A4A02EB0D
:104170008100211DFFF772F82849E06A0968C96AC1
:10418000884202D30120264908602148006808B906
:10419000012000E000200028D2D00CB1FEF7D0FEB4
:1041A0002048056865B100BFFFF7A0FE10B10120EF
:1041B0001B4908606D1E002DF6D1002019490860CA
:1041C0001748006838B10126300717490860BFF367
:1041D0004F8FBFF36F8FFFF78FF8304670BD000031
:1041E0006C0000202E2E5C4672656552544F535C65
:1041F0007372635C7461736B732E63004572726FCC
:10420000723A25732C25640D0A000000440000203A
:10421000DC0300204C00002034010020340000208A
:10422000580000205400002004ED00E000000000D1
:104230000000000001020304060708090000000056
:10424000010203040D0A20312EB0B4CFC2BFAAB7B9
:10425000A2B0E5B5C44B455931BCFCA3ACBBE1CA27
:10426000B9D3C343414ECFF2CDE2B7A2CBCD302D6F
:1042700037B5C4CAFDBEDDB0FCA3ACB0FCB5C4C04C
:10428000A9D5B94944CEAA307831333134200D0A4A
:10429000000000000D0A20322EC8F4BFAAB7A2B059
:1042A000E5B5C443414EBDD3CAD5B5BDC0A9D5B946
:1042B0004944CEAA307831333134B5C4CAFDBEDDAD
:1042C000B0FCA3ACBBE1B0D1CAFDBEDDD2D4B4F228
:1042D000D3A1B5BDB4AEBFDAA1A3200D0A00000082
:1042E0000043000800000020980000008C25000812
:1042F0009843000898000020809700009C25000843
:104300000024F40000000000100000000100000084
:10431000000000000000000000000000000000009D
:10432000000100200000000000000000000000006C
:10433000000000000000000000000000000000007D
:10434000000000000000000000000000000000006D
:10435000000000000000000000000000000000005D
:10436000000000000000000000000000000000004D
:10437000000000000000000000000000000000003D
:104380000000000000000000AAAAAAAA0000000085
:08439000000000000000000025
:040000050800018965
:00000001FF
