:020000040800F2
:10000000C8DD002055020008ED260008F31F000897
:10001000E926000817050008455C000800000000FC
:100020000000000000000000000000009D0100082A
:100030005905000800000000F101000875360008AD
:100040006F0200086F0200086F0200086F020008CC
:100050006F0200086F0200086F0200086F020008BC
:100060006F0200086F0200086F0200086F020008AC
:100070006F0200086F0200086F0200086F0200089C
:100080006F0200086F0200086F0200086F0200088C
:100090006F0200086F0200086F0200086F0200087C
:1000A0006F0200086F0200086F0200086F0200086C
:1000B0006F0200086F0200086F0200086F0200085C
:1000C0006F0200086F0200086F0200086F0200084C
:1000D0006F0200086F0200086F0200086F0200083C
:1000E0006F0200086F0200086F0200086F0200082C
:1000F0006F0200086F0200086F0200086F0200081C
:100100006F0200086F0200086F0200086F0200080B
:100110006F0200086F0200086F0200086F020008FB
:100120006F0200086F0200086F0200086F020008EB
:100130006F0200086F0200086F0200086F020008DB
:100140006F0200086F0200086F020008F126000825
:100150006F0200086F0200086F0200086F020008BB
:100160006F0200086F0200086F0200086F020008AB
:100170006F0200086F0200086F0200080000000014
:100180006F0200086F020008DFF80CD000F0FEF8E4
:1001900000480047E55E0008C8DD00202A4B1968CA
:1001A0000868B0E8F04F80F30988BFF36F8F4FF015
:1001B000000080F3118870470000000006480068C6
:1001C000006880F3088862B661B6BFF34F8FBFF353
:1001D0006F8F00DF00BF00BF08ED00E0DFF80C000C
:1001E000016841F470010160704700BF88ED00E0D4
:1001F000EFF30980BFF36F8F134B1A681EF0100FD7
:1002000008BF20ED108A20E9F04F106008B44FF0CD
:10021000500080F31188BFF34F8FBFF36F8F06F04C
:100220002DFD4FF0000080F3118808BC19680868A4
:10023000B0E8F04F1EF0100F08BFB0EC108A80F34A
:100240000988BFF36F8F704720000020EFF305800F
:10025000704700000648804706480047FEE7FEE773
:10026000FEE7FEE7FEE7FEE7FEE7FEE7FEE7FEE766
:1002700049370008890100082DE9F05F0546002094
:1002800092469B4688460646814640241BE0284607
:1002900041464746224600F069F853465A46C01A7E
:1002A000914110D311461846224600F050F82D1AFD
:1002B00067EB01084F4622460120002100F047F875
:1002C00017EB00094E41201EA4F10104DFDC484673
:1002D00031462A464346BDE8F09F40EA01039B07AA
:1002E00003D009E008C9121F08C0042AFAD203E0AB
:1002F00011F8013B00F8013B521EF9D27047D2B20F
:1003000001E000F8012B491EFBD270470022F6E7FE
:1003100010B513460A4604461946FFF7F0FF20467B
:1003200010BD30B50B46014600202022012409E013
:1003300021FA02F59D4205D303FA02F5491B04FA9E
:1003400002F52844151EA2F10102F1DC30BD202A7D
:1003500004DB203A00FA02F1002070479140C2F11C
:10036000200320FA03F3194390407047202A04DB4E
:10037000203A21FA02F00021704721FA02F3D0401E
:10038000C2F120029140084319467047064C074DC0
:1003900006E0E06840F0010394E807009847103455
:1003A000AC42F6D3FFF7F4FE6872000888720008CA
:1003B00070B58C1810F8015B15F0070301D110F827
:1003C000013B2A1106D110F8012B03E010F8016B54
:1003D00001F8016B5B1EF9D12B0705D40023521ED7
:1003E0000DD401F8013BFAE710F8013BCB1A921C3F
:1003F00003E013F8015B01F8015B521EF9D5A1423D
:10040000D8D3002070BD00001CB5012406F05AF9B5
:100410001648022100234A02CDE9001014A1174812
:1004200006F048FD04461CB115A005F00DFC02E0E5
:1004300019A005F009FC1E48032100234FF40072A7
:10044000CDE900101BA11E4806F034FD04461CB186
:100450001CA005F0F9FB02E020A005F0F5FB254803
:10046000006806F04DFA06F06FF91CBD140000207C
:100470004C45445F5461736B00000000E5220008A6
:100480004C45445F5461736BC8CECEF1B4B4BDA883
:10049000B3C9B9A6210A00004C45445F5461736B8F
:1004A000C8CECEF1B4B4BDA8CAA7B0DC210A000002
:1004B000180000204B45595F5461736B0000000029
:1004C00035200008B4B4BDA84B45595F5461736B27
:1004D000C8CECEF1B3C9B9A6210A0000B4B4BDA8F4
:1004E0004B45595F5461736BC8CECEF1CAA7B0DCDF
:1004F000210A00001000002010B503F0C5F8032009
:1005000000F0F8F901F074FE01F0E4FD00F006F8E7
:1005100002F046FF10BD00BFFEE7000010B50C481A
:100520000C4908604FF4E1304860002109488160BF
:10053000C160016181610C21416101F05DFC0548F0
:100540000068C06840F0200002490968C86010BD1A
:1005500000100140A401002070470000024903A0E0
:1005600005F072FB00BFFEE7D471000825730A0096
:1005700070B50A480468001D0568001D066834440B
:1005800054B108220649204601F035FD04220449F1
:100590001031284601F02FFD70BD0000107AFF1FBA
:1005A0005E01002070B5044600F01EF9064625469F
:1005B000681C10B104480078054400BF00F014F92D
:1005C000801BA842FAD370BD0C000020F8B502468B
:1005D0000B460025002400200021DCE0012606FA5D
:1005E00001F51E6806EA0504AC4273D15E68022E6E
:1005F00002D05E68122E13D1CF0802F1200656F801
:1006000027004E07F70E0F26BE40B0434F07FF0EE0
:100610001E69BE403043CF0802F1200646F827008D
:1006200010684F000326BE40B0431E7906F0030653
:100630004F00BE40304310605E68012E08D05E68F7
:10064000022E05D05E68112E02D05E68122E13D1E4
:1006500090684F000326BE40B0434F00DE68BE40A6
:1006600030439060506801268E40B0431E79C6F337
:1006700000168E4030435060D0684F000326BE40C5
:10068000B0434F009E68BE403043D0605E6806F0C5
:100690008056B6F1805F7DD100BF00260096404EA7
:1006A000366846F480463E4F3E603E46366806F465
:1006B0008046009600BF00BF3A4E8F0856F82700CC
:1006C0008E07370F0F26BE40B043374EB24202D1DD
:1006D000002624E05EE0354EB24201D101261EE044
:1006E000334EB24201D1022619E0324EB24201D15C
:1006F000032614E0304EB24201D104260FE02F4E03
:10070000B24201D105260AE02D4EB24201D10626A1
:1007100005E02C4EB24201D1072600E008268F07E3
:100720003F0FBE4030431F4E8F0846F82700264E2D
:100730003068A0435E6806F48036B6F5803F00D18D
:100740002043214E3060361D3068A0435E6806F4B9
:100750000036B6F5003F00D120431B4E361D3060F9
:10076000361D3068A0435E6806F48016B6F5801F1B
:1007700000D12043144E08363060361D3068A04347
:100780005E6806F40016B6F5001F00D120430E4E39
:100790000C363060491C1029FFF420AFF8BD000072
:1007A0004438024008380140000002400004024082
:1007B00000080240000C02400010024000140240F9
:1007C00000180240001C0240003C01400246136930
:1007D0000B400BB1012000E0002070470148006889
:1007E000000C7047002004E00148006870470000DA
:1007F00004000020034800680349097808440149BF
:1008000008607047040000200C00002070B504460A
:100810000E4800784FF47A71B1FBF0F00C4909688A
:10082000B1FBF0F5284601F0CDFA08B1012070BD0A
:10083000102C07D200222146501E00F01DF805485A
:10084000046001E00120F2E70020F0E70C00002046
:10085000000000200800002001460846002809DBAF
:1008600000F01F0301229A4043099B0003F1E0239B
:10087000C3F8002100BF70472DE9F05F80460D46A8
:100880001646002705F0F0F9074639462A46334652
:1008900001F00700C0F1070ABAF1040F02D94FF0C6
:1008A000040A01E0C0F1070AD14600F1040ABAF1D6
:1008B000070F02D24FF0000A01E0A0F1030AD4466C
:1008C0004FF0010A0AFA09FAAAF1010A0AEA020A31
:1008D0000AFA0CFA4FF0010B0BFA0CFBABF1010B0F
:1008E0000BEA030B4AEA0B042146404605F0C4F923
:1008F000BDE8F09F00BF00F00702064B19684FF6F5
:10090000FF031940044B0B4343EA0221014B1960DA
:1009100000BF70470CED00E00000FA05704702468A
:100920001068416200207047F0B50346154618680C
:10093000446A21B944EA05401E68B06219E01868AB
:10094000806A04EB1044002208E0186800F5827009
:1009500050F8220004EB1044501CC2B2481E9042D2
:10096000F3D844EA0547186800F582704E1E40F837
:1009700026700020F0BD10B50446D4F8040403F03E
:1009800076FC10BD70B504460D46C5EBC50304F1F9
:100990003C0101EB8301CA682946D4F8040403F042
:1009A00093FB70BD70B504460D46C5EBC50304F559
:1009B000FE7101EB8301CA682946D4F8040403F0F0
:1009C00003FC70BD10B50446D4F8040403F052FCD7
:1009D00010BD70B504460E4606F0800080280AD18E
:1009E00006F00F00C0EBC00104F13C0000EB8105F4
:1009F0000120687009E006F00F00C0EBC00104F5AB
:100A0000FE7000EB81050020687006F00F00287072
:100A100000BF94F8BC03012801D1022070BD012061
:100A200084F8BC0300BF2946206804F0C3FA00BF65
:100A3000002084F8BC0300BF00BFEFE770B5044698
:100A40000E4606F00F006168884201D9012070BD92
:100A500006F0800080280AD106F00F00C0EBC0012C
:100A600004F13C0000EB81050120687009E006F00C
:100A70000F00C0EBC00104F5FE7000EB8105002003
:100A800068700020A87006F00F00287000BF94F86E
:100A9000BC03012801D10220D9E7012084F8BC035E
:100AA00000BF2946206804F02DFD00BF002084F817
:100AB000BC0300BF00BFCAE770B504460D4600BFC7
:100AC00094F8BC03012801D1022070BD012084F8F4
:100AD000BC0300BF05F08000802805D105F00F01A0
:100AE000206804F063FF02E0206804F049FF00BFC3
:100AF000002084F8BC0300BF00BFE6E7024601F017
:100B00000F00C0EBC00302F5FE7000EB83008069AC
:100B100070472DE9F04705460E4690461F464FF0B8
:100B2000000906F0800080280AD106F00F00C0EB13
:100B3000C00105F13C0000EB81040120607009E078
:100B400006F00F00C0EBC00105F5FE7000EB81045C
:100B50000020607006F00F002070C4F80880E77075
:100B6000607808B12078E080022F01D10020207148
:100B700000BF95F8BC03012802D10220BDE8F08730
:100B8000012085F8BC0300BF2146286804F01EF947
:100B900000BF002085F8BC0300BF4846EEE72DE902
:100BA000F04104460E461746984606F00F00C0EB8B
:100BB000C00104F5FE7000EB8105EF60C5F81480FC
:100BC0000020A861687006F00F00287020690128D5
:100BD00000D12F6106F00F0028B9227C2946206839
:100BE00004F06CFB04E0227C2946206804F01EFD22
:100BF0000020BDE8F08170B504460D4605F00F00F9
:100C00006168884201D9012070BD05F0800080280C
:100C10000AD105F00F00C0EBC00104F13C0000EB6D
:100C200081060120707007E0C5EBC50104F5FE7078
:100C300000EB8106002070700120B07005F00F00FD
:100C4000307000BF94F8BC03012801D10220DBE71B
:100C5000012084F8BC0300BF3146206804F099FCF1
:100C600005F00F0028B9217C04F57172206804F0AA
:100C700011FC00BF002084F8BC0300BF00BFC3E725
:100C80002DE9F04104460E461746984606F00F003F
:100C9000C0EBC00104F13C0000EB8105EF60C5F83A
:100CA00014800020A8610120687006F00F002870F1
:100CB0002069012800D12F6106F00F0028B9227C9D
:100CC0002946206804F0FAFA04E0227C29462068CC
:100CD00004F0ACFC0020BDE8F0812DE9FE4F044695
:100CE00020680290029E206804F08BFE00287DD1CF
:100CF000206804F0C5FE08B9BDE8FE8F206804F046
:100D0000BFFE00F00200022805D12068406900F013
:100D1000020021684861206804F0B2FE00F400205F
:100D2000B0F5002F58D10025206804F079FE8246E6
:100D30004FE00AF00100002848D0E9B2206804F032
:100D400092FE804608F0010048B1012106F53060AE
:100D500000EB451081602946204601F017FD08F0A0
:100D60000800082809D12946204601F0C9FC0821BD
:100D700006F5306000EB4510816008F01000102887
:100D800005D1102106F5306000EB4510816008F0B8
:100D9000200020280ED12069012805D104F57172A8
:100DA0000121206804F076FB202106F5306000EB7D
:100DB0004510816008F40050B0F5005F06D14FF493
:100DC000005106F5306000EB451081606D1C4FEA64
:100DD0005A0ABAF1000FACD1206804F051FE00F4B9
:100DE0008020B0F5802F7ED1206800E012E204F070
:100DF0000DFE8246002586E00AF0010000287FD023
:100E0000E9B2206804F016FE804608F00100E8B35D
:100E100005F00F0101208840019040F6340081590F
:100E2000019821EA000040F634018851012106F5BD
:100E3000106000EB451081602069012815D1C5EBD9
:100E4000C50104F13C0000EB8100C5EBC502C1689F
:100E500004F13C0000EB820080680144C5EBC50250
:100E600004F13C0000EB8200C160E9B22046FFF7CC
:100E700089FD2069012810D145B9C5EBC50104F1F0
:100E80003C0000EB8100406900B900E005E004F59A
:100E900071720121206804F0FDFA08F008000828AA
:100EA00005D1082106F5106000EB4510816008F0BF
:100EB0001000102805D1102106F5106000EB451038
:100EC000816008F04000402805D1402106F51060FF
:100ED00000EB4510816008F00200022808D10221D1
:100EE00006F5106001E012E00AE000EB45108160B9
:100EF00008F08000802803D12946204601F006FD35
:100F00006D1C4FEA5A0ABAF1000F7FF475AF2068E2
:100F100004F0B6FD00F00040B0F1004F1CD140F6E7
:100F20000400805920F0010140F60400815194F83A
:100F3000F403012807D1002084F8F403002120469F
:100F4000FFF7ECFC02E0204600F098FA20684069C8
:100F500000F0004021684861206804F091FD00F431
:100F60000060B0F5006F0ED140F60800805900F027
:100F7000010010B1204600F0D9FA2068406900F461
:100F8000006021684861206804F07AFD00F4805018
:100F9000B0F5805F72D140F60400805920F0010165
:100FA00040F6040081511021206804F0FFFC002766
:100FB00026E04FF67F3106F5106000EB47108160A8
:100FC00006F5106000EB4710006820F4001106F5EC
:100FD000106000EB471001604FF67F3106F530607E
:100FE00000EB4710816006F5306000EB47100068A9
:100FF00020F4001106F5306000EB471001607F1C03
:101000006068B842D5D840F61C00805940F0011104
:1010100040F61C008151206B70B1D6F8840840F076
:101020000B01C6F8841840F64400805940F00B01CB
:1010300040F6440081510FE040F61400805942F21E
:101040002B01084340F614018851081F805940F0D5
:101050000B014FF401608151D6F8000820F4FE60C6
:10106000C6F80008217C04F57172206804F012FAB9
:101070002068406900F4805021684861206804F0CD
:10108000FFFC00F40050B0F5005F17D1206803F0BA
:1010900005FF206804F0A2FCE06000F021FB009056
:1010A000227B2068009904F03BFD204600F0CEF939
:1010B0002068406900F4005021684861206804F00D
:1010C000DFFC00F01000102846D12068806920F075
:1010D0001000216888610298D0F8209009F00F0074
:1010E000C0EBC00104F5FE7000EB810BC9F3434077
:1010F00002281AD147F6F07009EA000030B3C9F3AC
:101100000A12DBF80C10029804F0BFFCC9F30A11B4
:10111000DBF80C000844CBF80C00C9F30A11DBF82B
:1011200018000844CBF8180010E0C9F34340062823
:101130000CD1082204F57171029804F0A6FCC9F3E1
:101140000A11DBF818000844CBF818002068806901
:1011500040F0100021688861206804F091FC00F0E4
:101160000800082808D1204600F08FF9206840695F
:1011700000F0080021684861206804F081FC00F458
:101180008010B0F5801F0AD100252946204600F0C6
:1011900043F82068406900F48010216848612068A5
:1011A00004F06EFC00F40010B0F5001F0AD1002519
:1011B0002946204600F039F82068406900F4001004
:1011C00021684861206804F05BFC00F08040B0F1C9
:1011D000804F08D12046FFF7CEFB2068406900F021
:1011E000804021684861206804F04AFC00F0040057
:1011F00004280FD12068D0F8049009F004000428D6
:1012000002D12046FFF7DEFB2068406840EA090073
:101210002168486000BF6FE570B504460D46294659
:10122000D4F8040403F0A0F870BD70B504460D4670
:101230002946D4F8040403F09AF870BD70B58AB05A
:10124000044614B901200AB070BD266894F8BD03A5
:1012500028B9002084F8BC03204600F0A3F803203E
:1012600084F8BD03F06B00F4807008B9002121619F
:10127000206804F01BF8282204F110016846FFF7EB
:101280002CF894E80F0003F02DFE20B1022084F822
:10129000BD030120D7E70021206804F007FC0025EA
:1012A00031E00121C5EBC50204F13C0000EB8200F6
:1012B0004170C5EBC50104F13C0000F82150C5EBBD
:1012C000C50100EB8100C5800021C5EBC50204F11A
:1012D0003C0000EB8200C170C5EBC50204F13C008C
:1012E00000EB82008160C5EBC50204F13C0000EB1D
:1012F0008200C160C5EBC50204F13C0000EB820036
:101300004161681CC5B26068A842CAD800252AE0BD
:101310000021C5EBC50204F5FE7000EB82004170B0
:10132000C5EBC50104F5FE7000F821500021C5EBA6
:10133000C50200EB8200C170C5EBC50204F5FE706A
:1013400000EB82008160C5EBC50204F5FE7000EB86
:101350008200C160C5EBC50204F5FE7000EB82009F
:101360004161681CC5B26068A842D1D8282204F146
:1013700010016846FEF7B1FF94E80F0003F09CFEF1
:1013800020B1022084F8BD0301205CE7002084F82E
:101390003800012084F8BD03206803F07DFE0020A2
:1013A00051E7000010B586B00446142101A8FEF7ED
:1013B000ADFF2068B0F1A04F42D100BF00200090E7
:1013C0002048006840F001001E4908600846006897
:1013D00000F00100009000BF00BF4FF4C05001902A
:1013E0000220029000200390032004900A20059020
:1013F00001A91548FFF7EAF800BF1248001D006870
:1014000040F080000F49091D086000BF00200090D7
:101410000C481430006840F480400A4914310860D8
:101420000846006800F48040009000BF00BF00BF85
:10143000002206214320FFF71FFA4320FFF70CFA92
:1014400006B010BD303802400000024070B50446BE
:101450000125E06808B9002506E0E068022801D10E
:10146000012501E0FFF77AF82946D4F8040402F0D8
:10147000F7FFD4F8040402F0ADFF70BD10B50446C8
:10148000D4F8040402F0D4FF10BD10B50446D4F81B
:10149000040402F0D4FF10BD70B504460D4600BF31
:1014A00094F8BC03012801D1022070BD012084F80A
:1014B000BC0300BF84F838502946206804F011FBB3
:1014C00000BF002084F8BC0300BF00BFEDE710B5EB
:1014D000044604F57171D4F8040402F0D8FF10BD7D
:1014E00070B50446256800BF94F8BC03012801D1FB
:1014F000022070BD012084F8BC0300BFA06A01284F
:1015000006D1A069012803D0A86B40F48030A863FD
:10151000206803F0B1FD206804F02AFA00BF002023
:1015200084F8BC0300BF00BFE3E7000010B5044629
:10153000D4F8040403F004F82068D0F8000E40F05A
:1015400001002168C1F8000E206A28B10348006834
:1015500040F006000149086010BD000010ED00E0F9
:1015600070B504460D460CB9012070BD584800689E
:1015700000F00F00A84209D255490D7008460068D6
:1015800000F00F00A84201D00120EEE7207800F023
:10159000020002281DD1207800F00400042805D1A3
:1015A0004C48006840F4E0504A490860207800F058
:1015B0000800082805D14748006840F460404549C4
:1015C00008604448006820F0F000A16808434149E1
:1015D0000860207800F00100A8B36068012807D1F6
:1015E0003C4808380068C0F34040B8B90120BCE767
:1015F0006068022802D06068032807D1354808389F
:101600000068C0F3406048B90120AEE731480838AF
:101610000068C0F3400008B90120A6E72D48006823
:1016200020F00300616808432A490860FFF7DCF8EE
:10163000064609E0FFF7D8F8801B41F2883188425E
:1016400002D9032091E707E02248006800F00C006F
:101650006168B0EB810FEDD11D48006800F00F000C
:10166000A84209D91A490D700846006800F00F0019
:10167000A84201D0012078E7207800F00400042877
:1016800007D11448006820F4E050E168084311498C
:101690000860207800F00800082808D10D4800688C
:1016A00020F46040216940EAC1000A49086000F066
:1016B0003DF808490968C1F30311074A515CC84065
:1016C000064908600F20FFF7A1F800204DE7000051
:1016D000003C024008380240BC71000800000020B5
:1016E00001480068704700000000002000B5FFF7C7
:1016F000F7FF04490968C1F38221034A515CC840DD
:1017000000BD000008380240CC71000800B5FFF7AA
:10171000E7FF04490968C1F34231034A515CC840FC
:1017200000BD000008380240CC7100082DE9F047E8
:10173000002400250026A1462548006800F00C0082
:1017400020B1042805D008283AD105E0DFF88490BC
:1017500039E0DFF8849036E01D48001F006800F093
:101760003F041B48001F006800F4800078B11A484D
:101770001749091F0968C1F38811A0FB01700146D0
:10178000224600233846FEF777FD05460EE0114855
:101790000F49091F0968C1F38811A0FB01700146B8
:1017A000224600233846FEF767FD05460848001F1D
:1017B0000068C0F30140401C4600B5FBF6F902E0AA
:1017C000DFF8109000BF00BF4846BDE8F08700007A
:1017D000083802400024F40040787D01F8B5044642
:1017E0000CB90120F8BD207800F00100002874D069
:1017F000F948006800F00C0004280DD0F648006895
:1018000000F00C00082813D1F348001F006800F412
:101810008000B0F5800F0BD1EF4808380068C0F3A6
:101820004040002859D06068002856D10120D9E7EF
:1018300000BF6068B0F5803F08D1E748083800680D
:1018400040F48030E449083908601EE06068B0F573
:10185000A02F0DD1E0480838006840F48020DE4910
:10186000083908600846006840F4803008600CE0E1
:10187000D9480838006820F48030D7490839086012
:101880000846006820F48020086000BF606890B1BE
:10189000FEF7AAFF054606E0FEF7A6FF401B6428F8
:1018A00001D903209EE7CC4808380068C0F34040C7
:1018B0000028F1D011E0FEF797FF054606E0FEF79D
:1018C00093FF401B642801D903208BE7C2480838E6
:1018D0000068C0F340400028F1D1207800F00200F9
:1018E00002285FD1BC48006800F00C0058B1BA482B
:1018F000006800F00C0008281CD1B748001F0068E1
:1019000000F48000B0B9B44808380068C0F3400063
:1019100020B1E068012801D0012063E7AE48083813
:10192000006820F0F800216940EAC100AA4908399E
:10193000086037E0E06800B30120A8490860FEF7BE
:1019400053FF054606E0FEF74FFF401B022801D972
:10195000032047E7A04808380068C0F3400000288B
:10196000F1D09D480838006820F0F800216940EA6D
:10197000C10099490839086014E0002097490860BF
:10198000FEF732FF054606E0FEF72EFF401B022859
:1019900001D9032026E7904808380068C0F34000CA
:1019A0000028F1D1207800F0080008282CD16069C7
:1019B000A8B101208A490860FEF716FF054606E037
:1019C000FEF712FF401B022801D903200AE78248D4
:1019D0006C300068C0F340000028F1D014E0002013
:1019E0007F490860FEF700FF054606E0FEF7FCFEB3
:1019F000401B022801D90320F4E677486C300068C8
:101A0000C0F340000028F1D1207800F00400042841
:101A100070D1002670483830006800F0805090B9CE
:101A200000BF002000906C483830006840F08050C3
:101A30006949383108600846006800F0805000901D
:101A400000BF00BF01266748006800F48070B0B98D
:101A50006448006840F4807062490860FEF7C4FE84
:101A6000054606E0FEF7C0FE401B022801D9032010
:101A7000B8E65C48006800F480700028F2D000BF2F
:101A8000A068012808D154486830006840F001007F
:101A90005149683108601DE0A06805280DD14E4805
:101AA0006830006840F004004B496831086008461F
:101AB000006840F0010008600CE0474868300068AA
:101AC00020F001004449683108600846006820F0B1
:101AD0000400086000BFA068A8B1FEF785FE0546B7
:101AE00009E0FEF781FE401B41F28831884202D9AD
:101AF000032077E626E0384868300068C0F34000ED
:101B00000028EED013E0FEF76FFE054608E0FEF772
:101B10006BFE401B41F28831884201D9032061E607
:101B20002D4868300068C0F340000028EFD1012E36
:101B300007D129483830006820F0805026493831D4
:101B4000086000BFA069B8B32348006800F00C002B
:101B500008285ED0A069022846D100201F490866E7
:101B6000FEF742FE054606E0FEF73EFE401B022859
:101B700001D9032036E6184808380068C0F34060F1
:101B80000028F1D1D4E907010843616A40EA8111D4
:101B90000122A06AC2EB500041EA00412C20005D06
:101BA00041EA00600C49091F086001200B490866E2
:101BB000FEF71AFE054607E02DE0FEF715FE401B76
:101BC000022801D903200DE6034808380068C0F355
:101BD00040600028F1D01EE0083802400000474273
:101BE000800E47420070004000200C490866FEF756
:101BF000FBFD054606E0FEF7F7FD401B022801D974
:101C00000320EFE506480068C0F340600028F2D1E9
:101C100001E00120E6E50020E4E500000000474285
:101C20000038024010B504460CB9012010BD606AAE
:101C300000B900BFA06AB0F5005F00D100BF94F802
:101C4000510028B9002084F85000204600F03AF8EE
:101C5000022084F851002068006820F040002168CC
:101C60000860D4E901010843E16808432169084399
:101C700061690843218B01F400710843E16908435D
:101C8000216A0843A16A0843216808600421A06909
:101C900001EA1040616A084321684860A06AB0F513
:101CA000005F02D12168E06A08612068C06920F401
:101CB00000602168C86100206065012084F851003F
:101CC0000020B3E710B586B0044600BF00200090A6
:101CD0003948006840F0020037490860084600684B
:101CE00000F00200009000BF00BF00BF0020009085
:101CF0000846006840F0020008600846006800F0EE
:101D00000200009000BF00BF00BF00200090084606
:101D1000006840F0020008600846006800F0020019
:101D2000009000BF00BF00BF002000900846006880
:101D300040F0400008600846006800F04000009055
:101D400000BF00BF00BF002000901B481430006897
:101D500040F480501849143108600846006800F4C7
:101D60008050009000BF00BF082001900220029028
:101D700001200390022004900520059001A90F483E
:101D8000FEF724FC102001900520059001A90B48C6
:101D9000FEF71CFC202001900520059001A90748B2
:101DA000FEF714FC402001900120029001A9044894
:101DB000FEF70CFC06B010BD3038024000040240B3
:101DC0000018024070B504462546681EB0F1807FB9
:101DD00001D301200FE0681E4FF0E02148610F2180
:101DE0004FF0FF3003F048FF00204FF0E021886102
:101DF00007200861002070BD10B504460CB9012011
:101E000010BDA06900B100E000BF94F8390028B906
:101E1000002084F83800204600F028F8242084F8B8
:101E200039002068C06820F400502168C86020464E
:101E300001F0BCFC2068006920F490402168086132
:101E40002068406920F02A00216848612068C06845
:101E500040F400502168C8600020E063202084F82E
:101E6000390084F83A000020CAE7000010B586B0B7
:101E7000044600BF002000902648006840F0100093
:101E8000244908600846006800F01000009000BF78
:101E900000BF00BF002000901E481438006840F0CA
:101EA00002001C49143908600846006800F002006E
:101EB000009000BF00BF00BF0020009008460068EF
:101EC00040F0020008600846006800F00200009040
:101ED00000BF00BF4020019002200290012003902B
:101EE000032004900720059001A90B48FEF76EFB24
:101EF000802001900720059001A90748FEF766FBA6
:101F0000012200212520FEF7B7FC2520FEF7A4FCC6
:101F100006B010BD44380240000402402DE9F843E9
:101F200004460D4616461F464FF0000994F8390046
:101F300020285CD105B116B90120BDE8F88300BFA7
:101F400094F83800012801D10220F6E7012084F836
:101F5000380000BF0020E063212084F83900FEF73C
:101F600043FC8146A684E6842BE0E08C401EE0849E
:101F7000A068B0F5805F16D14B4600228021204634
:101F8000009701F0C7FD08B10320D6E7A846B8F8CE
:101F90000000C0F3080021684860206908B9AD1C42
:101FA0000FE06D1C0DE04B4600228021204600977B
:101FB00001F0B0FD08B10320BFE715F8010B21685F
:101FC0004860E08C0028D0D14B46002240212046BA
:101FD000009701F09FFD08B10320AEE7202084F8B0
:101FE000390000BF002084F8380000BFA5E70220B8
:101FF000A3E700BFFEE730B50B46002100BF16E0A7
:102000000A24B4EB107F05D9302404EB107403F8D4
:10201000114005E0412404EB10740A3C03F8114020
:10202000000100254C00641C1D554C1CE1B291427E
:10203000E6DB30BD23E00121114800F0C5F801289E
:1020400009D110A003F000FE1248006804F08CFDD6
:1020500011A003F0F9FD4FF40051144800F0B4F85A
:10206000012809D112A003F0EFFD0A48006804F02E
:10207000CFFC13A003F0E8FD142004F005FCDAE720
:1020800000000240B9D2C6F04C4544C8CECEF1A300
:10209000A10A000014000020B9D2C6F04C4544C883
:1020A000CECEF1B3C9B9A6A3A10A00000008024030
:1020B000BBD6B8B44C4544C8CECEF1A3A10A0000AB
:1020C000BBD6B8B44C4544C8CECEF1B3C9B9A6A36B
:1020D000A10A000000B587B000BF0020019036487B
:1020E000006840F00100344908600846006800F0CC
:1020F0000100019000BF00BF00BF00200190084612
:10210000006840F0040008600846006800F0040021
:10211000019000BF00BF00BF00200190084600688A
:1021200040F0400008600846006800F04000019060
:1021300000BF00BF00BF002001900846006840F0CB
:10214000400008600846006800F04000019000BFB1
:1021500000BF00BF002001900846006840F040002A
:1021600008600846006800F04000019000BF00BF12
:102170000120029000200390049002A90F48FEF76E
:1021800025FA4FF40050029002A90D48FEF71EFAFE
:102190000420029002A90B48FEF718FA08200290CA
:1021A00002A90848FEF712FA1020029002A9054879
:1021B000FEF70CFA07B000BD3038024000000240C4
:1021C000000802400018024070B504460D4629463A
:1021D0002046FEF7FBFA012808D100BF2946204619
:1021E000FEF7F4FA0128F9D0012070BD0020FCE7C9
:1021F00000B587B000BF002001903548006840F06E
:102200000100334908600846006800F001000190B1
:1022100000BF00BF00BF002001900846006840F0EA
:10222000100008600846006800F01000019000BF30
:1022300000BF00BF002001900846006840F0400049
:1022400008600846006800F04000019000BF00BF31
:1022500000BF002001900846006840F002000860BE
:102260000846006800F00200019000BF00BF4FF474
:10227000004002900120039004900320059002A9E1
:102280001448FEF7A3F90420029002A91248FEF7B1
:102290009DF94FF40040029002A91048FEF796F90C
:1022A0004FF48070029002A90D48FEF78FF94FF4A9
:1022B00000400849886104200749886140030749B4
:1022C00018310860C01106491831086007B000BD18
:1022D0003038024000000240001002400018024066
:1022E0000004024008B500BF0020009013480068B9
:1022F00040F00100114908600846006800F0010044
:10230000009000BF00BF00F0C9F915E04FF0004099
:102310000B4988614FF4FA7004F0B6FA09A003F093
:1023200093FC4FF40040064988614FF4FA7004F0C2
:10233000ABFA0BA003F088FCE8E70000303802405D
:10234000000002404C45445F5461736B2052756E2F
:102350006E696E672C4C4544315F4F4E0D0A00008C
:102360004C45445F5461736B2052756E6E696E67A5
:102370002C4C4544315F4F46460D0A0070B505466A
:10238000D5F8904241F20C002044007B50B941F254
:102390000C002044806828B1607A18B901212846D1
:1023A00002F0ACF88121284602F0A8F8607A0228F1
:1023B00007D11F2341F20C0022180121284601F009
:1023C000F1FF70BD70B50546D5F8904241F20C00A2
:1023D0002044406841F22C012144486041F20C0045
:1023E0002044806841F22C01214488600121284664
:1023F00001F060FF1F2816D141F20C0000592E4950
:10240000884210D141F20C002044407B01280AD8B8
:1024100041F20C002044807B28B141F20C002044A2
:10242000807B10280ED941F20C002044417B2023F0
:102430000522284600F0E4FD022060722846FFF7DE
:102440009DFF36E041F20C002044417B41F20C003C
:1024500022180F32284600F02DFB00280BDA207AD4
:10246000052804D10121284600F0CAF821E02846B9
:10247000FFF784FF1DE0207A022819D0207A012876
:1024800016D0207A032813D0608930B1628904F114
:102490000C01284600F0D4F80BE0608920B9002137
:1024A000284600F0ADF804E02846FFF767FF00E09B
:1024B00070BD00BFFCE700005553424370B50646AF
:1024C0000D46D6F89042607A022806D18121304626
:1024D00002F014F8002060720CE005F08000802803
:1024E00007D1607A012804D00121304600F088F835
:1024F00000E070BD00BFFCE770B505460E46D5F89C
:102500009042207A022804D0032815D0042818D13C
:1025100011E041F20C002044417B41F20C002218F2
:102520000F32284600F0C6FA002803DA01212846B7
:1025300000F066F806E000BF0021284600F060F8D1
:1025400000E000BF00BF70BD70B505460E46D5F86F
:102550009042207A10B1012816D103E02846FFF7F7
:1025600031FF12E041F20C002044417B41F20C00AB
:1025700022180F32284600F09DFA002803DA0121C4
:10258000284600F03DF800E000BF00BF70BDD0F865
:10259000901200220A72704770B50546D5F8904235
:1025A000002020726072002141F25D000155401E42
:1025B0000155D5F89402016800208847012128467A
:1025C00001F065FE8121284601F061FE1F2341F2E2
:1025D0000C0022180121284601F0E4FE70BD70B500
:1025E0000546D5F8904200202072012060721F231A
:1025F00041F20C0022180121284601F0D3FE70BDE3
:1026000070B505460E46D5F890420C4941F22C00B3
:10261000015120440673002020720D2341F22C004A
:1026200022188121284601F095FF1F2341F20C005A
:1026300022180121284601F0B5FE70BD55534253C2
:102640002DE9F04106460F461546D6F8904241F274
:102650000C0020448068A84204D241F20C002044BF
:10266000806800E028461FFA80F841F22C002044E0
:102670008068401B41F22C0121448860002041F217
:102680002C01214408730420207243463A468121DC
:10269000304601F05FFFBDE8F081000010B5002278
:1026A0000D490E4801F0B6FC08B1FDF757FF0C4983
:1026B0000A4802F0EFF808B1FDF750FF0949074852
:1026C00001F0EBFF08B1FDF749FF044802F0CAF939
:1026D00008B1FDF743FF10BD280100202095002020
:1026E000840000207801002000BFFEE77047000052
:1026F00010B50248FEF7F1FA10BD0000BC970020AB
:102700002DE9F04705460C462F683E46D7F8408035
:1027100006F5306000EB4410D0F8089028690128D5
:102720000FD1184880451BD909F40040B0F5004F7F
:1027300016D14FF4004106F5306000EB4410816083
:102740000EE0114880450BD109F40040B0F5004F70
:1027500006D14FF4004106F5306000EB4410816073
:102760002846FEF7B4FE0748804508D928690128A5
:1027700005D105F571720121286802F08BFE002059
:10278000BDE8F0870A30544F0A31544F2DE9F04725
:1027900005460C46D5F800804646D8F8409006F528
:1027A000306000EB44108768286901287ED107F06B
:1027B000080008281ED1534881450BD907F4004072
:1027C000B0F5004F06D14FF4004106F5306000EB44
:1027D000441081602846FEF77AFE05F571720121EA
:1027E000286802F057FE082106F5306000EB44101F
:1027F000816083E007F02000202806D1202106F523
:10280000306000EB4410816078E007F02800002879
:1028100074D13C4881450CD907F40040B0F5004F15
:1028200007D14FF4004106F5306000EB44108160A1
:1028300064E0C4EBC40105F5FE7000EB8100816823
:1028400006F5306000EB44100069C0F31200091A6D
:10285000C4EBC40205F5FE7000EB82008161C4EB9D
:10286000C40105F5FE7000EB8100C4EBC402C16831
:1028700005F5FE7000EB820080680144C4EBC402E1
:1028800005F5FE7000EB8200C160E1B22846FEF75C
:1028900089F8FCB9C4EBC40105F5FE7000EB8100BA
:1028A0004069B8B905F57172012100E003E02868BC
:1028B00002F0F0FD22E0144881451BD107F40040EE
:1028C000B0F5004F07D14FF4004106F5306000EB42
:1028D0004410816012E007F02000202805D120215B
:1028E00006F5306000EB44108160E1B22846FEF747
:1028F00059F803E0E1B22846FEF754F80020BDE89D
:10290000F08700000A30544F0A31544F2DE9F84F38
:1029100007460E46D7F80090C846C6EBC60107F139
:102920003C0000EB8104D4E90510884202D9012063
:10293000BDE8F88FD4E90501451AA068A84200D285
:10294000A568E81C4FEA900A17E0D4E90501451A8A
:10295000A068A84200D2A568E81C4FEA900A387C1B
:10296000ABB2F2B200904846E16803F04DF9E0687E
:102970002844E060A0692844A06108F5106000EBDD
:102980004610806980B2504506D3D4E905108842CC
:1029900002D260690028D8D1D4E9050188420ED856
:1029A00006F00F01012000FA01FB40F6340050F858
:1029B000080020EA0B0040F6340141F8080000202E
:1029C000B6E72DE9F04104460F4615461E46D4F8F9
:1029D0009082A9194FF4835050F80800814209D918
:1029E000212305223946204600F00AFB4FF0FF3034
:1029F000BDE8F0810020FBE7F0B504460E46D4F8B0
:102A00009032507800F0010060B10721598106E052
:102A1000481E81B21048475C03F10C00475400295E
:102A2000F6D116E0D4F89402C06906EBC60700EBB5
:102A300087052879411D1079884200DC1179598178
:102A400005E0481E81B26F5C03F10C004754002979
:102A5000F7D10020F0BD0000E271000870B5034618
:102A60000C4615460821D3F89022518106E0481EF5
:102A700081B20448465C02F10C0046540029F6D1AC
:102A8000002070BDF171000870B503460C46154674
:102A9000D3F890220821518106E0481E81B20448F3
:102AA000465C02F10C0046540029F6D1002070BDAE
:102AB000E971000870B505460E46144620782328B3
:102AC00045D00DDC1A2836D005DCB0B103281AD069
:102AD00012285AD11DE01B2821D01E2855D124E0F0
:102AE0002A2846D004DC252837D028284DD13AE0C2
:102AF0002F2844D05A2848D123E022463146284680
:102B000000F0ADFA4AE022463146284600F029FAA4
:102B100044E0224631462846FFF76EFF3EE022465B
:102B20003146284600F093FA38E0224631462846DE
:102B300000F08DFA32E0224631462846FFF7A4FF26
:102B40002CE0224631462846FFF788FF26E0224641
:102B50003146284600F0C0F920E02246314628469A
:102B600000F070F91AE022463146284600F0F9F8E4
:102B700014E022463146284600F0C6FA0EE022460E
:102B80003146284600F098FA08E020230522314615
:102B9000284600F035FA4FF0FF3070BD00BF00202E
:102BA000FBE72DE9F04106460F46D6F8904241F288
:102BB0006800005941F25E01095B00FB01F5B5F5C3
:102BC000805F01D2284601E04FF48050054641F273
:102BD0005E00005BB5FBF0F01FFA80F841F2640084
:102BE0000259D6F89402434604F10C01D0F810C003
:102BF0003846E047002809DA1123042239463046D6
:102C000000F0FEF94FF0FF30BDE8F081ABB204F107
:102C10000C028121304601F09DFC41F25E00005B18
:102C2000B5FBF0F141F264000059014441F2640047
:102C30000151801F005BB5FBF0F141F268000059C3
:102C4000411A41F26800015141F22C002044806891
:102C5000401B41F22C012144886041F26800005978
:102C600008B9032020720020CEE72DE9F041064686
:102C70000F46D6F8904241F26800005941F25E01D9
:102C8000095B00FB01F5B5F5805F01D2284601E044
:102C90004FF48050054641F25E00005BB5FBF0F05A
:102CA0001FFA80F841F264000259D6F894024346B4
:102CB00004F10C01D0F814C03846E047002809DAC6
:102CC000032304223946304600F09AF94FF0FF30D2
:102CD000BDE8F08141F25E00005BB5FBF0F141F22E
:102CE00064000059014441F264000151801F005BFF
:102CF000B5FBF0F141F268000059411A41F2680059
:102D0000015141F22C0020448068401B41F22C010B
:102D10002144886041F26800005920B90021304602
:102D2000FFF76EFC1BE041F26800005941F25E01C2
:102D3000095B4843B0F5805F07D241F26800005953
:102D400041F25E01095B484301E04FF480500546C3
:102D5000ABB204F10C020121304601F023FB00204C
:102D6000B6E72DE9F04106460F461546D6F89042E3
:102D7000207A00285ED141F20C002044007B00F054
:102D8000800080280CD041F20C002044417B20239D
:102D90000522304600F034F94FF0FF30BDE8F081F5
:102DA000D6F8940281683846884740B13A23022217
:102DB0003946304600F024F94FF0FF30EEE7A878AE
:102DC0000006E97840EA0140297940EA0120697962
:102DD000084341F264010851287AE97940EA012167
:102DE00041F2680001510359001F0259394630462B
:102DF000FFF7E7FD002802DA4FF0FF30CEE70220B0
:102E0000207241F26800005941F25E01095B4843BB
:102E100041F20C012144896888420BD041F20C0038
:102E20002044417B20230522304600F0E9F84FF092
:102E3000FF30B3E74FF48050608139463046FFF7EA
:102E4000B0FEABE72DE9F04105460E461746D5F832
:102E50009042D5F89402436841F25E00221804F5CE
:102E600083513046984748B13A23022231462846DA
:102E700000F0C6F84FF0FF30BDE8F0814FF483500A
:102E80000059401E000E20734FF483500059401E1D
:102E9000010C61734FF48350005B401E010AA17363
:102EA0004FF48350005D401EE07341F25E00005B12
:102EB0000116217441F25E00005B0114617441F25D
:102EC0005E00005B0112A17441F25E00015DE174DD
:102ED000082060810020CFE72DE9FC4105460F4620
:102EE0009046D5F89042002605E0002104F10C0040
:102EF0008155701C86B20C2EF7D3D5F8940201AA26
:102F0000694643683846984748B13A230222394611
:102F1000284600F075F84FF0FF30BDE8FC8108212D
:102F2000E1730098401E010E21740098401E010CB0
:102F300061740098401E010AA1740098401EE0745C
:102F400002212175BDF8040001146175BDF804006B
:102F50000112A175BDF80400E0750C20608100200D
:102F6000DBE770B504460D46D4F89012002305E067
:102F7000002601F10C00C654581CC3B2122BF7D323
:102F8000702008730C26CE7441F25C00465C401C35
:102F9000405C86422BD041F25C00405C41F23C0632
:102FA0000E4416F830608E7341F25C00405C41F2D2
:102FB0003C060E4406EBC00046790E7641F25C00FA
:102FC000405C41F23C060E4406EBC00006794E76AA
:102FD00041F25C00405C401CC6B241F25C004654C9
:102FE000405C042803D1002641F25C0046541220C4
:102FF00048811079122801D810794881002070BDCD
:10300000F0B50446D4F8900241F25D052D5C41F222
:103010003C06064406F835201D02EEB241F25D057D
:103020002D5C41F23C07074407EBC5052E7141F2C8
:103030005D052D5C6D1CEEB241F25D052E542D5CDC
:10304000042D03D1002641F25D052E54F0BD10B5CC
:1030500003460C46D3F890120020488110BD2DE99C
:10306000F04105460E461746D5F8904241F20C0055
:103070002044806860B141F20C002044417B202351
:1030800005222846FFF7BCFF4FF0FF30BDE8F08176
:10309000D5F8940281683046884748B13A23022225
:1030A00031462846FFF7ACFF05202072801FEDE770
:1030B0000020608100BFE9E72DE9F04105460F4699
:1030C0001646D5F89042707800F00200022809D127
:1030D0002423052239462846FFF792FF4FF0FF30A0
:1030E000BDE8F08141F268000359001F02593946DA
:1030F0002846FFF766FC002802DA4FF0FF30EFE7C2
:103100000020608100BFEBE72DE9F04106468846CC
:103110001546D6F89042207A00287FD141F20C0063
:103120002044007B00F0800080280CD141F20C008C
:103130002044417B202305223046FFF761FF4FF0FA
:10314000FF30BDE8F081D6F8940281684046884798
:1031500040B13A23022241463046FFF751FF4FF07B
:10316000FF30EEE7D6F89402C1684046884740B188
:103170002723022241463046FFF742FF4FF0FF303F
:10318000DFE7A8780006E97840EA0140297940EABB
:1031900001206979084341F264010851287AE979EC
:1031A00040EA012141F2680001510359001F025910
:1031B00041463046FFF705FC002802DA4FF0FF30A9
:1031C000BFE741F26800005941F25E01095B00FB74
:1031D00001F741F20C0020448068B8420BD041F264
:1031E0000C002044417B202305223046FFF708FFD6
:1031F0004FF0FF30A5E7B7F5805F02D2384602E016
:103200000CE04FF48050074601202072BBB204F15D
:103210000C020121304601F0C5F804E04146304679
:10322000FFF723FD8DE700208BE7000070B5054612
:103230000C4616464FF480000F490860032000F04A
:1032400047F9C4F3074000F043F9C4F3072000F046
:103250003FF9E0B200F03CF904E0FF2000F038F95B
:1032600028706D1C301EA6F101018EB2F5D14020F0
:103270000149086070BD0000181802402DE9F05F98
:1032800007460E4614464FF00008C146C2460025C8
:10329000AB4606F0FF0ACAF10000C5B22046E117AE
:1032A00004EB1161C1F30728E11704EB1161091266
:1032B000A4EB012101F0FF09BAF1000F20D1B8F110
:1032C000000F05D122463146384600F095F864E0FB
:1032D00009E04FF480723146384600F08DF806F56B
:1032E000807607F58077B8F10000A8F1010101F0C0
:1032F000FF08EED14A463146384600F07DF84CE0F2
:10330000B8F1000F18D1A94510DDA9EB050000F0B8
:10331000FF0B2A463146384600F06EF82E442F4403
:103320005A463146384600F067F836E022463146C4
:10333000384600F061F830E0601B84B22046E117A7
:1033400004EB1161C1F30728E11704EB11610912C5
:10335000A4EB012101F0FF092A463146384600F06E
:103360004BF82E442F4409E04FF480723146384622
:1033700000F042F806F5807607F58077B8F1000096
:10338000A8F1010101F0FF08EED1B9F1000F04D05E
:103390004A463146384600F02FF8BDE8F09F00005D
:1033A00010B513481349086000211248C1618160BB
:1033B0000121416102210161002181620721C16275
:1033C0000021C16001624FF40071816100214162FE
:1033D0004FF48270074948600846FEF723FC054811
:1033E0000068006840F0400002490968086010BDAC
:1033F00000300140E401002070B505460C46164639
:1034000000F0CCF84FF4800013490860022000F06F
:103410005FF8C4F3074000F05BF8C4F3072000F046
:1034200057F8E0B200F054F8B6F5807F04DD4FF4B1
:1034300080760AA002F008FC03E0287800F048F843
:103440006D1C301EA6F101018EB2F6D1402002495A
:10345000086000F079F870BD181802403C3C2D4619
:103460004C4153482D4552524F522D3E3E20535011
:10347000495F464C4153485F5061676557726974B4
:103480006520746F6F206C61726765210A0000000F
:1034900010B5044600F082F800F056F84FF48000B2
:1034A0000A490860202000F013F8C4F3074000F038
:1034B0000FF8C4F3072000F00BF8E0B200F008F8B2
:1034C00040200249086000F03FF810BD1818024083
:1034D00010B504464FF48050194908600AE01849B5
:1034E0000868411E164A116020B9002000F064F8F7
:1034F000C0B210BD134800688068C0F340000028C7
:10350000EDD010480068C4604FF480500C4908604A
:103510000AE00B490868411E094A116020B90120E0
:1035200000F04AF8C0B2E4E706480068806800F09E
:1035300001000028EDD003480068C068C0B2D8E799
:103540001C000020E401002010B500244FF480008E
:10355000104908600520FFF7BBFF4FF480500E496B
:10356000086000BFFF20FFF7B3FF04460A49086860
:10357000411E094A116018B9042000F01DF810BD61
:1035800004F001000028EDD140200249086000BF8E
:10359000F5E70000181802401C00002010B54FF499
:1035A0008000044908600620FFF792FF402001498F
:1035B000086010BD1818024010B50446214602A04C
:1035C00002F042FB002010BD3C3C2D464C415348CC
:1035D0002D4552524F522D3E3E2053504920B5C8E2
:1035E000B4FDB3ACCAB1216572726F72436F64658A
:1035F000203D2025640A000003464FF42060086047
:103600004FF4805010800020704700207047014622
:103610000020704701460020704701460020704797
:103620002DE9F04107460E4614461D4604F5C064D8
:103630004FF6FF7000EA053221033046FFF7F6FD32
:103640000020BDE8F0812DE9F04180460E46144689
:103650001D4604F5C06427463803FFF719FF4FF6EF
:10366000FF7000EA053239033046FFF707FE0020FD
:10367000BDE8F08110B503F04DFC012801D003F046
:10368000FFFBFDF7B7F810BD00B593B000BF0020F9
:1036900001902A48006840F0805028490860084698
:1036A000006800F08050019000BF00BF00BF002004
:1036B00001902348006840F4804021490860084692
:1036C000006800F48040019000BF00BF012002901C
:1036D00000040390022008904105099119210A91E4
:1036E0004FF4A8710B9102210C9107210D9102A8B2
:1036F000FEF774F808B100BFFEE70F200E9002201D
:103700000F90002010904FF4A05011904FF4805073
:10371000129005210EA8FDF723FF08B100BFFEE7B8
:10372000FDF75CF841F20101884205D105480068C7
:1037300040F480700349086013B000BD4038024077
:1037400000700040003C02401448006840F47000E3
:10375000124908601248006840F0010010490860F2
:1037600000200F49083108600D4800680D490840E5
:103770000B4908600C48091D0860081F006820F408
:103780008020091F0860002005490C3108604FF0B7
:1037900000600249803908607047000088ED00E051
:1037A00000380240FFFFF6FE103000242DE9F04102
:1037B00004462068006920F44050E168084321680D
:1037C00008612169A068084361690843E16940EA2A
:1037D00001052068C06849F20C61884328432168CC
:1037E000C8602068406920F44070A16908432168DE
:1037F0004861E069B0F5004F7ED1C4492068884235
:1038000003D0C349206888425DD1FDF77FFF00EBFC
:10381000C00101EB001061684900B0FBF1F06421C8
:10382000B0FBF1F00601FDF771FF00EBC00101EB09
:10383000001061684900B0FBF1F7FDF767FF00EB8E
:10384000C00101EB001061684900B0FBF1F0642198
:10385000B0FBF1F000EBC00101EB0010A7EB800022
:10386000322101EBC0006421B0FBF1F000F0F80060
:1038700006EB4006FDF74AFF00EBC00101EB00102C
:1038800061684900B0FBF1F7FDF740FF00EBC001B4
:1038900001EB001061684900B0FBF1F06421B0FB5E
:1038A000F1F000EBC00101EB0010A7EB800032212A
:1038B00001EBC0006421B0FBF1F000F007003044E0
:1038C0002168886020E1FDF711FF00EBC00101EBEA
:1038D000001061684900B0FBF1F06421B0FBF1F029
:1038E0000601FDF703FF00EBC00101EB001061686A
:1038F0004900B0FBF1F700E045E0FDF7F7FE00EB13
:10390000C00101EB001061684900B0FBF1F06421D7
:10391000B0FBF1F000EBC00101EB0010A7EB800061
:10392000322101EBC0006421B0FBF1F000F0F8009F
:1039300006EB4006FDF7DAFE00EBC00101EB0010DC
:1039400061684900B0FBF1F7FDF7D0FE00EBC00164
:1039500001EB001061684900B0FBF1F06421B0FB9D
:10396000F1F000EBC00101EB0010A7EB8000322169
:1039700001EBC0006421B0FBF1F000F0070030441F
:1039800021688860C0E061492068884203D06049AE
:10399000206888425CD1FDF7B9FE00EBC00101EB65
:1039A000001061688900B0FBF1F6FDF7AFFE00EB97
:1039B000C00101EB001061688900B0FBF1F06421E7
:1039C000B0FBF1F000EBC00101EB0010A6EB8000B2
:1039D000322101EB00106421B0FBF1F000F0F006A1
:1039E000FDF794FE00EBC00101EB00106168890057
:1039F000B0FBF1F06421B0FBF1F006EB0016FDF72F
:103A000085FE00EBC00101EB001061688900B0FB8E
:103A1000F1F7FDF77BFE00EBC00101EB00106168E0
:103A20008900B0FBF1F06421B0FBF1F000EBC001C4
:103A300001EB0010A7EB8000322101EB00106421A4
:103A4000B0FBF1F000F00F003044216888605BE0CB
:103A5000FDF74CFE00EBC00101EB0010616889002E
:103A6000B0FBF1F6FDF742FE00EBC00101EB0010E8
:103A700061688900B0FBF1F06421B0FBF1F000EB6C
:103A8000C00101EB0010A6EB8000322101EB001019
:103A90006421B0FBF1F000F0F006FDF727FE00EB2B
:103AA000C00101EB001061688900B0FBF1F06421F6
:103AB000B0FBF1F006EB0016FDF718FE00EBC001BD
:103AC00001EB001061688900B0FBF1F7FDF70EFE15
:103AD00000EBC00101EB001061688900B0FBF1F060
:103AE0006421B0FBF1F000EBC00101EB0010A7EB8B
:103AF0008000322101EB00106421B0FBF1F000F0F6
:103B00000F00304421688860BDE8F081001001405A
:103B1000001401402DE9F04104460D461746984631
:103B2000069E21E0701CF8B12EB1FCF75DFEA0EB03
:103B30000800B04218D92068C06820F4D07021680D
:103B4000C8602068406920F0010021684861202099
:103B500084F8390084F83A0000BF002084F8380067
:103B600000BF0320BDE8F081206800682840A8421B
:103B700001D1012000E00020B842D3D00020F1E7BD
:103B800070B504460D46D4F88C022946426820469A
:103B90009047002070BD70B504460D4694F874023D
:103BA000012804D0022803D003280CD101E000BF73
:103BB00000BF6888012805D10020C4F87C02204697
:103BC00000F04AF804E02946204600F01BF800BF48
:103BD00000BF70BD70B506460C4615462B46224602
:103BE0000021304600F0DEFB002070BD70B50646B7
:103BF0000C4615462B4622460021304600F0AAFC12
:103C0000002070BD70B504460D468021204600F0AE
:103C100075FC0021204600F071FC70BD10B5044613
:103C20000520C4F86C0200231A461946204600F00D
:103C3000B9FB002010BD70B504460E4615460220A3
:103C4000C4F86C02E56125622B463246002120460D
:103C500000F080FC002070BD10B504460420C4F8BC
:103C60006C0200231A461946204600F073FC00201F
:103C700010BD000070B505460C462DB92246064918
:103C800006A000F088F904E02246034903A000F0F2
:103C900082F9014870BD0000C49B00204D534320B1
:103CA000436F6E6669670000024612200880014873
:103CB000704700004401002070B505460C462DB940
:103CC0002246064906A000F066F904E022460349B0
:103CD00003A000F060F9014870BD0000C49B002003
:103CE0004D534320496E7465726661636500000040
:103CF0000246042008800148704700005801002057
:103D000070B505460C462246024903A000F043F96F
:103D1000004870BDC49B002053544D6963726F65A9
:103D20006C656374726F6E696373000070B50546ED
:103D30000C462DB92246064906A000F02CF904E0F5
:103D40002246034903A000F026F9014870BD000097
:103D5000C49B002053544D3332204D617373205364
:103D6000746F72616765000070B505460C461A20D5
:103D70002080FCF7FDFB014870BD00005C010020C5
:103D800070B504460D46E888012804D0294620462F
:103D9000FFF738FF1EE094F87402012804D00228CF
:103DA00003D0032810D109E000BF0020A060012249
:103DB00004F108012046FFF73EFF0AE00122211D21
:103DC0002046FFF738FF04E029462046FFF71AFF98
:103DD00000BF00BF70BDF8B504460E4670880012E3
:103DE00008287FD2DFE800F07E040C207E7E5F6D25
:103DF000207CD4F888120A6869469047054676E028
:103E0000207C40B9D4F88C02816A68468847054610
:103E10000221697007E0D4F88C02C16A68468847BD
:103E200005460221697062E0B078062834D2DFE8E6
:103E300000F0030B131B232B207CD4F888124A6854
:103E40006946904705462CE0207CD4F888128A68A1
:103E500069469047054624E0207CD4F88812CA6859
:103E60006946904705461CE0207CD4F888120A6910
:103E700069469047054614E0207CD4F888124A69C8
:103E80006946904705460CE0207CD4F888128A6980
:103E900069469047054604E031462046FFF7B2FEEA
:103EA000F8BD00BF23E0207C30B9D4F88C02416B10
:103EB0006846884705461AE031462046FFF7A2FECD
:103EC000EEE7207C48B9D4F88C02016B684688473D
:103ED0000546072169700AE004E031462046FFF7F5
:103EE00091FEDDE731462046FFF78CFED8E700BFA4
:103EF000BDF8000088B1F08878B1F088BDF80010F6
:103F0000884202DDBDF8000000E0F0880090BDF8B6
:103F1000002029462046FFF78EFEF08810B9204683
:103F2000FFF79AFE00BFBBE70146002002E0421CFB
:103F3000D0B2491C0A78002AF9D1704770B50446FE
:103F40000D4694F87402012804D0022803D00328F7
:103F50001AD101E000BF00BFE888022804D029463A
:103F60002046FFF74FFE14E00120E060D4F87C0209
:103F700018B1E06840F00200E060022204F10C0198
:103F80002046FFF758FE04E029462046FFF73AFE98
:103F900000BF00BF70BD2DE9F04104460D46174635
:103FA0000026FCB12046FFF7BFFF022101EB4000D5
:103FB00038803A783046711CCEB22A5403223046FB
:103FC000711CCEB22A540AE014F8012B3046711C41
:103FD000CEB22A5400223046711CCEB22A54207828
:103FE0000028F1D1BDE8F0810146002031B101295E
:103FF00006D0022906D0032908D105E0002007E0F9
:10400000022005E0012003E0022001E0022000BFC1
:1040100000BF704770B504460D46164654B90EA051
:1040200001F012FE0EA001F00FFE13A001F00CFE35
:10403000022070BDD4F88C0210B10020C4F88C02AC
:104040000DB1C4F88852012084F87402267020460D
:1040500000F03AF90020ECE74552524F523A200066
:10406000496E76616C696420446576696365206891
:10407000616E646C650000000A0000002DE9F041EB
:1040800004460D46002600272946D4F89802FCF77E
:10409000D5FC06463046FFF7A7FF07463846BDE881
:1040A000F0812DE9F04104460D46002600272946FF
:1040B000D4F89802FCF78DFC06463046FFF794FFD3
:1040C00007463846BDE8F0812DE9F04104460E462A
:1040D0001746002E64D104F11405D4F86C020228AE
:1040E00048D1D5E90301884210D9D5E90301401A26
:1040F000E860A88982B239462046FFF777FD0023A1
:104100001A461946204600F04DF93EE02969A86894
:10411000B0FBF1F201FB1200B8B92969A868884226
:1041200013D3A868D4F8701288420ED20022114628
:104130002046FFF75BFD0020C4F8700200231A46FA
:104140001946204600F02EF91FE0D4F88C02C06812
:1041500040B194F87402032804D1D4F88C02C168E9
:10416000204688478021204600F0C8F92046FFF706
:1041700055FD0AE0D4F86C02042802D0D4F86C0291
:1041800018B98021204600F0B9F994F87802012886
:1041900018D1204600F0A4FB002084F8780211E03A
:1041A000D4F88C02406950B194F87402032806D107
:1041B000D4F88C02314642692046904702E0022042
:1041C000BDE8F0810020FBE72DE9F04104460E46F2
:1041D0001746BEBB04F5A075D4F86C02032825D1A0
:1041E000D5E90301884210D9D5E90301401AE860F6
:1041F000D5E90301884201D2E86800E0286982B26B
:1042000039462046FFF7E6FC2FE0D4F88C0200691F
:1042100040B194F87402032804D1D4F88C020169E7
:10422000204688472046FFF717FD1EE0D4F86C02B1
:1042300005281AD10020C4F86C020021204600F0A5
:104240005DF912E0FFE7D4F88C02806950B194F870
:104250007402032806D1D4F88C02314682692046C4
:10426000904702E00220BDE8F0810020FBE7014614
:104270000020704710B50446012084F874022179AB
:10428000D4F88C02426820469047002010BD2DE9EA
:10429000F04104460D46002600272946D4F898022E
:1042A000FCF70AFC06463046FFF79EFE07463846F6
:1042B000BDE8F08170B504460D462946D4F8980251
:1042C000FCF71CFC70BD000010B5044620780028E7
:1042D0002AD11648C0F80444C4F898024FF0A04010
:1042E000124908600420486002211048C160002182
:1042F0000161022181610021C16101624162C162EB
:104300000163FCF79BFF08B1FCF728F980210748FF
:10431000FCF705FB402200210448FCF705FB802246
:1043200001210248FCF700FB002010BDBC970020D3
:1043300010B50246D2F8983201F08000802809D1E9
:1043400001F07F00C0EBC00403F13C0000EB8400EF
:10435000807810BD01F07F00C0EBC00403F5FE7053
:1043600000EB84008078F4E70246002070470246A4
:10437000002070472DE9F04704460F4615461E46BB
:104380004FF00008C1462B4632463946D4F8980211
:10439000FCF7BFFB80464046FFF726FE81464846B5
:1043A000BDE8F0872DE9F04704460D4616461F4646
:1043B0004FF00008C1463B4632462946D4F89802E1
:1043C000FCF7EDFB80464046FFF70EFE814648466F
:1043D000BDE8F08710B50446402300221146204670
:1043E000FFF7C8FF01214FF4A270015140214FF4A3
:1043F000A87001514023002280212046FFF7BAFF18
:104400000121A16140216162012084F87402002031
:10441000C4F86C026060C4F87C02D4F8900228B141
:104420002179D4F88C02426820469047002010BDC4
:10443000014691F8750281F874020020704710B5AA
:10444000044694F87402032808D1D4F88C02C06999
:1044500020B1D4F88C02C16920468847002010BDE5
:1044600002461174002070472DE9F04104460D46C4
:10447000002600272946D4F89802FDF70DF80646D5
:104480003046FFF7B1FD07463846BDE8F08170B50C
:1044900004460D46294604F5207000F0E6F9012097
:1044A000C4F86C0240F28620005BC4F8700294F8F5
:1044B000800200F01F0020B1012808D0022812D18C
:1044C0000BE004F52071204600F0D3FA13E004F568
:1044D0002071204600F03AFC0DE004F520712046E2
:1044E00000F018FB07E094F8800200F080012046FD
:1044F00000F004F800BF00BF002070BD2DE9F041BE
:1045000004460D46002600272946D4F89802FCF7F9
:1045100072FB06463046FFF767FD07463846BDE8A2
:10452000F08170B5044600250026D4F89802FCF707
:10453000D7FF05462846FFF757FD0646304670BDB3
:10454000014691F8740281F87502042081F8740222
:10455000002070472DE9F04704460D4616461F46D9
:104560004FF00008C1463B4632462946D4F898022F
:10457000FCF786FB80464046FFF736FD81464846FD
:10458000BDE8F08770B504460D4629462046FDF784
:10459000B3FF002070BD70B504460D462946204685
:1045A000FDF7D2FF002070BD70B504460D46012115
:1045B0002046FFF776FD0021C4F8581181212046DE
:1045C000FFF76FFD0021E1622046FDF7E0FFD4F820
:1045D000900230B1D4F8900201F05CFC0020C4F8E5
:1045E0009002002070BD000001460A2008800148AA
:1045F000704700001C01002001462020088001486F
:1046000070470000DC00002001462020088001489F
:1046100070470000BC0000200146202008800148AF
:1046200070470000FC00002070B504460D46207C59
:1046300090B94FF40073022201212046FFF79AFE41
:104640000121C4F858114B02022281212046FFF7B4
:1046500091FE0121E16210E0402302220121204667
:10466000FFF788FE0121C4F858114023022281215E
:104670002046FFF77FFE0121E16241F26C0001F06C
:1046800057FCC4F89002D4F8900208B9022070BD1B
:104690002046FDF781FF0020F9E7024609B1C2F884
:1046A000941200207047F8B505460C46D5F8906284
:1046B000002700200090207800F0600000283DD006
:1046C000202871D16078FE2802D0FF282ED11AE070
:1046D000608890B9E08801280FD1207800F0800030
:1046E00080280AD1D5F89412886980473060012269
:1046F00031462846FFF79FFA04E021462846FFF797
:1047000081FA022718E0608850B9E08840B9207823
:1047100000F08000802803D02846FDF760FF04E009
:1047200021462846FFF76EFA022705E02146284673
:10473000FFF768FA022700BF00BF93E0607830B14E
:10474000012832D00A2812D00B287DD11FE095F81D
:104750007402032805D1022269462846FFF76BFA46
:1047600004E021462846FFF74DFA022772E095F84B
:104770007402032805D10122311D2846FFF75BFA98
:1047800004E021462846FFF73DFA022762E095F84B
:104790007402032802D1A078706004E02146284604
:1047A000FFF730FA022755E056E021792846FFF757
:1047B0006EFD21792846FFF774FC207900F0800017
:1047C00080281DD10021207900F00F0000EB80022D
:1047D00005F1140000EB82004160287C38B94FF4E9
:1047E0000073022281212846FFF7C4FD05E0402323
:1047F000022281212846FFF7BDFD0121E9621DE06B
:104800000021207900F00F0000EB800205F5A07078
:1048100000EB82004160287C38B94FF4007302221B
:1048200001212846FFF7A6FD05E0402302220121D1
:104830002846FFF79FFD0121C5F858112179284628
:10484000FDF73CFE06E0FFE721462846FFF7DAF9D0
:10485000022700BF00BF05E021462846FFF7D2F936
:10486000022700BF00BF3846F8BD0A7802704A78B8
:1048700042708B78CA7803EB022242800B794A7926
:1048800003EB022282808B79CA7903EB0222C28079
:104890007047000070B505460C46002614B1C5F8F7
:1048A0008C4209E005A001F0CFF906A001F0CCF997
:1048B0000AA001F0C9F90226304670BD4552524F98
:1048C000523A2000496E76616C696420436C6173D2
:1048D000732068616E646C65000000000A000000CF
:1048E00001460020704770B504460D46A88810BBED
:1048F000E88800BB688880281DD2A87800F07F0671
:1049000094F87402032804D129462046FFF77AF967
:1049100015E084F8766231462046FFF7A5FD204673
:10492000FFF79AF91EB1022084F8740207E0012013
:1049300084F8740203E029462046FFF763F970BD4E
:1049400070B504460D460226D4F88C0238B1D4F86E
:104950008C02294602682046904700B9002630465E
:1049600070BD000070B504460D46A8783649087041
:1049700008460078012804D929462046FFF742F965
:1049800060E094F87402022802D003284FD11CE0A2
:104990002D480078A8B12C4800786060032084F886
:1049A0007402294801782046FFF7CAFF022804D183
:1049B00029462046FFF726F970BD2046FFF74CF93F
:1049C00002E02046FFF748F93BE01F48007870B945
:1049D000022084F874021C48007860601A4801784C
:1049E0002046FFF7CDF82046FFF736F91EE01649BE
:1049F00009786068884216D021792046FFF7C0F810
:104A0000114800786060104801782046FFF798FF51
:104A1000022804D129462046FFF7F4F8CCE72046C7
:104A2000FFF71AF902E02046FFF716F909E02946D8
:104A30002046FFF7E7F8044801782046FFF7A0F882
:104A400000BF00BF00BFB7E78000002070B505467B
:104A50000C466088012804D1C5F87C022846FFF77F
:104A6000FBF870BD10B504462046FFF75AFD002044
:104A700010BD70B505460C460026207800F0600099
:104A800060B1202802D040283CD100E000BFD5F81A
:104A90008C02214682682846904738E060780A28D0
:104AA00029D2DFE800F01923281E280A0528140F50
:104AB00021462846FFF78FF922E021462846FFF7D6
:104AC00012FF1DE021462846FFF74CFF18E0214663
:104AD0002846FFF755F913E021462846FFF72EFA3E
:104AE0000EE021462846FFF7B1FF09E0214628469F
:104AF000FFF751F804E021462846FFF783F800BF8E
:104B000000BF04E021462846FFF77CF800BF00BF45
:104B1000304670BD2DE9F04105460E464FF00008C5
:104B20003479307800F0600060B1202802D040284D
:104B300071D100E000BFD5F88C023146826828466A
:104B4000904700E1307800F06000202809D1D5F8C6
:104B50008C02314682682846904780464046BDE830
:104B6000F081707800285ED001282FD0032876D1FC
:104B700095F87402022802D0032820D110E054B125
:104B8000802C08D021462846FFF7B8FC8021284613
:104B9000FFF7B4FC03E031462846FFF733F813E093
:104BA000708840B93CB1802C05D0F08818B92146F6
:104BB0002846FFF7A3FC2846FFF74EF804E03146ED
:104BC0002846FFF71FF800BF00BFB5E095F8740254
:104BD000022802D003281FD110E054B1802C08D045
:104BE00021462846FFF78AFC80212846FFF786FCED
:104BF00003E031462846FFF705F812E0708848B90F
:104C000004F07F0018B121462846FFF737FA2846FE
:104C1000FFF722F805E091E031462846FEF7F2FF63
:104C200000BF00BF88E095F87402022802D0032874
:104C300076D126E034B1802C04D031462846FEF7E8
:104C4000E1FF72E004F08000802809D104F07F00C9
:104C500000EB800105F1140000EB810008E066E044
:104C600004F07F0000EB800105F5A07000EB8100EF
:104C7000074600203860022239462846FEF7DBFF4F
:104C800053E004F0800080280ED104F00F0000EB08
:104C9000800105F1140000EB8100406898B93146AD
:104CA0002846FEF7AFFF40E004F00F0000EB800164
:104CB00005F5A07000EB8100406820B93146284618
:104CC000FEF7A0FF31E004F08000802808D104F056
:104CD0007F0000EB800105F1140000EB810007E08C
:104CE00004F07F0000EB800105F5A07000EB81006F
:104CF00007460CB1802C02D10020386009E0214623
:104D00002846FFF715FB10B10120386001E00020B4
:104D10003860022239462846FEF78DFF05E0FFE79E
:104D200031462846FEF76EFF00BF00BF04E0314663
:104D30002846FEF767FF00BF00BF04E03146284663
:104D4000FEF760FF00BF00BF404608E770B50546AC
:104D50000C460026207800F0600030B1202802D0F8
:104D600040282AD100E000BF00BF95F87402012856
:104D700004D0022803D0032818D101E000BF00BFEF
:104D8000207901280DD8D5F88C0221468268284662
:104D900090470646E08840B93EB92846FEF75CFFDA
:104DA00003E021462846FEF72DFF04E02146284671
:104DB000FEF728FF00BF00BF04E021462846FEF7AB
:104DC00021FF00BF00BF002070BD000070B5044689
:104DD0000B4622461978587801282CD140F61C0041
:104DE00080581D7805F00F060125B540ADB2284367
:104DF00040F61C05A85002F5106000EB4110006859
:104E000000F40040F0BB1889C0F30A00DD7840EAE6
:104E1000854040EA815040F0805040F4004002F567
:104E2000106505EB41152D68284302F5106505EB6B
:104E3000411528602DE040F61C0080581D7805F0D3
:104E40000F060125B540144E06EA0545284340F6F5
:104E50001C05A85002F5306000EB4110006800F41A
:104E6000004078B91889C0F30A00DD7840EA85402F
:104E700040F0805040F4004002F5306505EB4115EC
:104E80002D6800E005E0284302F5306505EB41158B
:104E90002860002070BD00000000FFFF02461146A0
:104EA0004FF410604058C30ADB024FF410604350C7
:104EB00040F60800405800F00600042807D14FF4DF
:104EC0001060405840F003034FF41060435040F628
:104ED0000400405840F4807340F604004350002022
:104EE000704700000FB470B504460A98012817D126
:104EF000A06B20F48030A063E0681A490840E060AD
:104F0000E06820F44010E0601198012803D1E068C7
:104F100040F48010E060204600F026F8054612E0DC
:104F2000E06840F04000E060204600F01DF80546D3
:104F30000E9820B9A06B40F48030A06303E0A06B12
:104F400020F48030A0630898012807D1A06840F0C1
:104F50000600A060A06840F02000A060284670BC59
:104F60005DF814FBBFFFBDFF0146002200BF501CCF
:104F700002460F4B984201D903207047086900F0A0
:104F800000400028F3D00022086940F001000861C9
:104F900000BF501C0246064B984201D90320ECE7A3
:104FA000086900F001000028F3D100BFE5E7000028
:104FB000400D030070B504460B4621461A78587818
:104FC000012826D140F63C0040581D7805F00F0618
:104FD0000125B540ADB2A84340F63C05685040F607
:104FE0001C0040581D7805F00F060125B540ADB2F4
:104FF000A84340F61C05685001F5106000EB421014
:1050000000681A4D284001F5106505EB421528602F
:1050100029E040F63C0040581D7805F00F060125B8
:10502000B540134E06EA0545A84340F63C056850D6
:1050300040F61C0040581D7805F00F060125B540CC
:105040000B4E06EA0545A84340F61C05685001F5DD
:10505000306000EB42100068064D284001F53065D5
:1050600005EB42152860002070BD0000007833EC8D
:105070000000FFFF0078F3EF70B50446254640F6C8
:105080000400405920F0020140F604004151032081
:10509000FBF788FA002070BD70B50446254640F63F
:1050A0000400405940F0020140F604004151032041
:1050B000FBF778FA002070BD0FB4F0B50546002765
:1050C0002E46002405E0002105F5827040F82410EA
:1050D000641C0F2CF7D3109860B9A86B40F4001033
:1050E000A863A86B20F40020A863A86B20F480209C
:1050F000A86307E0286820F400102860A86B40F43B
:105100000020A8630020C6F8000ED6F80008C6F8F4
:1051100000080B9801280BD1089820B900212846D7
:1051200000F0F4FC08E00121284600F0EFFC03E069
:105130000321284600F0EAFC1021284600F036FC46
:1051400000B10127284600F01BFC00B10127002117
:105150004FF401608151001D815140F61C008151C6
:1051600000242EE006F5106000EB4410006800F00B
:105170000040B0F1004F10D13CB94FF0006106F58E
:10518000106000EB441001600DE04FF0904106F517
:10519000106000EB4410016005E0002106F510608E
:1051A00000EB44100160002106F5106000EB441094
:1051B00001614FF67F3106F5106000EB441081600D
:1051C000641C0698A042CDD800242EE006F530607D
:1051D00000EB4410006800F00040B0F1004F10D127
:1051E0003CB94FF0006106F5306000EB44100160FF
:1051F0000DE04FF0904106F5306000EB4410016087
:1052000005E0002106F5306000EB4410016000214C
:1052100006F5306000EB441001614FF67F3106F572
:10522000306000EB44108160641C0698A042CDD829
:105230004FF40160805920F480714FF40160815176
:105240000998012809D115494FF40360815180590B
:10525000134908434FF4036188510020A8616FF09F
:1052600080406861099818B9A86940F01000A861E9
:10527000A8690C490843A8610C9818B1A86940F0C6
:105280000800A8611098012803D1A86906490843BD
:10529000A8613846F0BC5DF814FB000000018000F6
:1052A0000300010000383C8004000040014688688B
:1052B00020F001008860002070470000F0B505462E
:1052C0000B4614462A4619785878012875D1586932
:1052D00020BB02F5106000EB411000696C4E3040BD
:1052E00002F5106606EB4116306102F5106000EB26
:1052F0004110006940F4002602F5106000EB4110F7
:10530000066102F5106000EB41100069C60CF6045E
:1053100002F5106000EB4110066137E002F5106005
:1053200000EB41100069C60CF60402F5106000EBBA
:105330004110066102F5106000EB41100069544E07
:10534000304002F5106606EB411630619E685869E0
:10535000B04201D99868586102F5106000EB411025
:10536000006940F4002602F5106000EB4110066170
:1053700002F5106000EB411000695E69C6F3120689
:10538000304302F5106606EB41163061012C15D151
:10539000186928B102F5106000EB41101E694661E2
:1053A00002F5106000EB4110006840F0044602F581
:1053B000106000EB4110066068E01BE002F5106031
:1053C00000EB4110006840F0044602F5106000EB6D
:1053D000411006605869002858D040F634008058C3
:1053E0001E7806F00F070126BE40304340F6340613
:1053F000B0504BE002F5306000EB41100069C60C84
:10540000F60402F5306000EB4110066102F53060F1
:1054100000EB411000691E4E304002F5306606EB8D
:1054200041163061586908B19868586102F53060DA
:1054300000EB4110006940F4002602F5306000EBFB
:105440004110066102F5306000EB411000699E6872
:10545000C6F31206304302F5306606EB41163061A2
:10546000012C07D1D86828B102F5306000EB41105B
:10547000DE68466102F5306000EB4110006840F0E4
:10548000044602F5306000EB411006600020F0BDDC
:10549000FFFF07E070B503460C4619461D6C18481F
:1054A000854209D94FF43060405800F00040B0F117
:1054B000004F01D1002070BD0026C1F8106BD1F85B
:1054C000100B40F40026C1F8106BD1F8100B40F01F
:1054D0001806C1F8106BD1F8100B40F0C046C1F8A7
:1054E000106B012C09D1C1F8142B4FF430604058D7
:1054F00040F080264FF4306046500020DBE700008B
:105500000A30544F30B504460B4622461978587875
:1055100001281ED102F5106000EB4110006820F454
:10552000001502F5106000EB41100560D8780328E3
:1055300002D0D87802282AD102F5106000EB411081
:10554000006840F0805502F5106000EB41100560E6
:105550001DE002F5306000EB4110006820F40015FA
:1055600002F5306000EB41100560D878032802D0C6
:10557000D87802280BD102F5306000EB41100068AA
:1055800040F0805502F5306000EB411005600020CE
:1055900030BD30B504460B462246197858780128AC
:1055A00021D102F5106000EB4110006800F00040CE
:1055B00060B959B102F5106000EB4110006820F0AD
:1055C000804502F5106000EB4110056002F51060A7
:1055D00000EB4110006840F4001502F5106000EB8C
:1055E0004110056020E002F5306000EB41100068DA
:1055F00000F0004060B959B102F5306000EB411095
:10560000006820F0804502F5306000EB4110056035
:1056100002F5306000EB4110006840F4001502F51F
:10562000306000EB41100560002030BD2DE9F843EB
:1056300081460E4617464D463478707801287DD154
:10564000706920BB05F5106000EB44100069C74984
:10565000084005F5106101EB4411086105F5106083
:1056600000EB4410006940F4002105F5106000EBE8
:105670004410016105F5106000EB44100069C10C95
:10568000C90405F5106000EB4410016155E005F513
:10569000106000EB44100069C10CC90405F51060EE
:1056A00000EB4410016105F5106000EB4410006947
:1056B000AE49084005F5106101EB44110861B1687D
:1056C00070690844401EB0FBF1F0A849C94301EAE3
:1056D000C04005F5106101EB44110969084305F567
:1056E000106101EB4411086105F5106000EB4410F6
:1056F00000697169C1F31201084305F5106101EBFE
:1057000044110861F078012817D105F5106000EB0D
:105710004410006920F0C04105F5106000EB441012
:10572000016105F5106000EB4410006940F0005184
:1057300005F5106000EB4410016100E07FE0012FEF
:1057400036D1306928B105F5106000EB441031699D
:105750004161F07801281ED140F60800405900F45C
:10576000807060B905F5106000EB4410006840F0EF
:10577000005105F5106000EB441001600BE005F5E9
:10578000106000EB4410006840F0805105F5106097
:1057900000EB4410016005F5106000EB4410006858
:1057A00040F0044105F5106000EB44100160DAE0C0
:1057B00005F5106000EB4410006840F0044105F569
:1057C000106000EB44100160F07801280FD0706980
:1057D0000028ECD040F634004059317801F00F0237
:1057E00001219140084340F634014851BBE040F6A6
:1057F0000800405900F4807060B905F5106000EBB6
:105800004410006840F0005105F5106000EB4410B2
:1058100001600BE005F5106000EB4410006840F0FB
:10582000805105F5106000EB441001600097B08ACC
:1058300083B232784846F16800F0E6F993E005F566
:10584000306000EB44100069C10CC90405F53060FC
:1058500000EB4410016105F5306000EB4410006975
:105860004249084005F5306101EB44110861706957
:10587000D0B905F5306000EB44100069B168C1F3A0
:105880001201084305F5306101EB4411086105F58B
:10589000306000EB4410006940F4002105F53060F1
:1058A00000EB4410016126E0B16870690844401EB5
:1058B000B0FBF1F01FFA80F805F5306000EB441002
:1058C00000692A49C94301EAC841084305F5306126
:1058D00001EB4411086105F5306000EB44100069EC
:1058E000B16801FB08F1C1F31201084305F530610D
:1058F00001EB44110861012F07D1F06828B105F5CB
:10590000306000EB4410F1684161F07801281ED14D
:1059100040F60800405900F4807060B905F5306029
:1059200000EB4410006840F0005105F5306000EBDA
:10593000441001600BE005F5306000EB4410006896
:1059400040F0805105F5306000EB4410016005F532
:10595000306000EB4410006840F0044105F5306011
:1059600000EB441001600020BDE8F883FFFF07E072
:105970000146886840F00100886000207047000000
:10598000014600221020086100BF501C0246064B51
:10599000984201D903207047086900F010001028D0
:1059A000F3D00020F7E70000400D030010B50246D9
:1059B0000023202040EA8110106100BF581C0346DC
:1059C000054CA04201D9032010BD106900F0200051
:1059D0002028F3D00020F7E7400D030010B5014662
:1059E0000B4640F60804E45804F006020AB9002009
:1059F00006E0022A01D0062A01D1022000E00F2091
:105A000010BD0146486900F00100704701460B4691
:105A100040F61800C258001DC058024090B27047AE
:105A200001460B4640F61800C258001DC0580240FF
:105A3000100C704770B5024613464FF40166F458D7
:105A400040F63406F55801F00F0625FA06F606F082
:105A5000010644EAC61403F5106606EB4116B66863
:105A600006EA040070BD10B50246134603F5306423
:105A700004EB4114A06840F61404E458204010BD23
:105A8000014648698A6910407047F0B503461E46D2
:105A90000846D71CBD08002405E04FF48057BF59C5
:105AA0000760001D641CAC42F7D3F0BD70B504461E
:105AB0000D46E06820F0C040E060012D04D1E068B0
:105AC00040F00050E06007E025B9E06840F0804019
:105AD000E06001E0012070BD3220FAF763FD002094
