:020000040800F2
:1000000070DD0020550200088127000897140008C1
:100010007D2700088F0400085D2E00080000000006
:100020000000000000000000000000009D0100082A
:10003000D104000800000000F10100084129000877
:100040006F0200086F0200086F0200086F020008CC
:100050006F0200086F020008E50400086F02000844
:100060006F0200086F0200086F0200086F020008AC
:100070006F0200086F0200086F0200086F0200089C
:100080006F0200086F0200086F0200086F0200088C
:100090006F0200086F0200086F0200086F0200087C
:1000A0006F0200086F0200086F0200086F0200086C
:1000B0006F0200086F0200086F0200086F0200085C
:1000C0006F0200086F0200086F0200086F0200084C
:1000D0006F0200086F0200086F0200086F0200083C
:1000E0006F0200086F0200086F0200086F0200082C
:1000F0006F0200086F0200086F0200086F0200081C
:100100006F0200086F0200086F0200086F0200080B
:100110006F0200086F0200086F0200086F020008FB
:100120006F0200086F0200086F0200086F020008EB
:100130006F0200086F0200086F0200086F020008DB
:100140006F0200086F0200086F0200086F020008CB
:100150006F0200086F0200086F0200086F020008BB
:100160006F0200086F0200086F0200086F020008AB
:100170006F0200086F0200086F0200080000000014
:100180006F0200086F020008DFF80CD000F000F9E1
:1001900000480047E130000870DD00202A4B196854
:1001A0000868B0E8F04F80F30988BFF36F8F4FF015
:1001B000000080F3118870470000000006480068C6
:1001C000006880F3088862B661B6BFF34F8FBFF353
:1001D0006F8F00DF00BF00BF08ED00E0DFF80C000C
:1001E000016841F470010160704700BF88ED00E0D4
:1001F000EFF30980BFF36F8F134B1A681EF0100FD7
:1002000008BF20ED108A20E9F04F106008B44FF0CD
:10021000500080F31188BFF34F8FBFF36F8F03F04F
:100220002FFE4FF0000080F3118808BC19680868A1
:10023000B0E8F04F1EF0100F08BFB0EC108A80F34A
:100240000988BFF36F8F7047A0000020EFF305808F
:10025000704700000648804706480047FEE7FEE773
:10026000FEE7FEE7FEE7FEE7FEE7FEE7FEE7FEE766
:10027000152A0008890100082DE9F05F05460020D5
:1002800092469B4688460646814640241BE0284607
:1002900041464746224600F065F853465A46C01A82
:1002A000914110D311461846224600F04CF82D1A01
:1002B00067EB01084F4622460120002100F043F879
:1002C00017EB00094E41201EA4F10104DFDC484673
:1002D00031462A464346BDE8F09F421C10F8011BF8
:1002E0000029FBD1801A70472DE9F0410546002016
:1002F00090460E46044600E0641C44450BD2285D3F
:1003000000F040F80746305D00F03CF8381A02D1A2
:10031000295D0029F0D1BDE8F08130B50B460146DA
:1003200000202022012409E021FA02F59D4205D394
:1003300003FA02F5491B04FA02F52844151EA2F13E
:100340000102F1DC30BD202A04DB203A00FA02F180
:10035000002070479140C2F1200320FA03F31943B3
:1003600090407047202A04DB203A21FA02F0002155
:10037000704721FA02F3D040C2F1200291400843B5
:1003800019467047A0F14101192900D82030704763
:10039000064C074D06E0E06840F0010394E80700D2
:1003A00098471034AC42F6D3FFF7F2FEE09700080E
:1003B000009800081CB5012403F086FA13480221B6
:1003C00000230A02CDE9001011A1144803F074FEC5
:1003D0000446012C02D112A002F042FD174803216D
:1003E00000234FF40072CDE9001015A1174803F067
:1003F00063FE0446012C02D115A002F031FD1A481B
:10040000006803F07FFB03F0A1FA1CBD140000207C
:10041000546573745F5461736B000000792A00089F
:10042000B4B4BDA8546573745F5461736BC8CECE09
:10043000F1B3C9B9A6210D0A000000001800002080
:100440004B45595F5461736B00000000592100084F
:10045000B4B4BDA84B45595F5461736BC8CECEF19F
:10046000B3C9B9A6210D0A001000002010B502F092
:1004700071FA032000F086FA02F006F901F0BCFEE2
:1004800000F008F802F0D4F901F0E0FB10BD00BF65
:10049000FEE7000010B50C480C4908604FF4E1304D
:1004A0004860002109488160C160016181610C21BF
:1004B000416100F0F4FE05480068C06840F020008B
:1004C00002490968C86010BD001001400401002005
:1004D000704701B502E00098401E00900098002887
:1004E000F9D108BD7047000070B504461D460023D1
:1004F000B5F5804F13D154F822300C480340D1E9B0
:10050000000640EA06108E6840EA06208E8940EA1E
:1005100006408E693043034344F8223003E06FF015
:10052000704044F82200002070BD00000000F0CFB1
:1005300010B503460022086853F8202012480240F4
:10054000D1E901042043CC6820430C6920434C6965
:1005500020438C692043CC6920430C6A20434C6AB9
:1005600020438C6A2043CC6A2043CC6B20430C6B25
:10057000204302438868082801D142F040020868FD
:1005800043F82020002010BD8000F0FF30B5034666
:100590000024501C53F8204004F04044D1E90005E9
:1005A00040EA05108D6840EA05208D8940EA05453E
:1005B000088A401E45EA0055087D801E45EA006015
:1005C0008D6928430443501C43F82040002030BD6F
:1005D0002DE9F0418CB080460C461848007888B967
:1005E00002F026F9012015490870694614A002F0AE
:1005F000D3F81849086008460068401C10B916482E
:1006000002F02EFC2512E6B2A5F1A101C1EB011208
:1006100002EB411106EB4101A1398802C11700EB41
:100620005171CF100B480068C1198022404602F07A
:10063000D7F800200CB0BDE8F08100009800002041
:100640004742323331325F48333233322E464F4ED7
:10065000000000009C00002094970008F8B50246B6
:100660000B460025002400200021DCE0012606FACC
:1006700001F51E6806EA0504AC4273D15E68022EDD
:1006800002D05E68122E13D1CF0802F1200656F870
:1006900027004E07F70E0F26BE40B0434F07FF0E50
:1006A0001E69BE403043CF0802F1200646F82700FD
:1006B00010684F000326BE40B0431E7906F00306C3
:1006C0004F00BE40304310605E68012E08D05E6867
:1006D000022E05D05E68112E02D05E68122E13D154
:1006E00090684F000326BE40B0434F00DE68BE4016
:1006F00030439060506801268E40B0431E79C6F3A7
:1007000000168E4030435060D0684F000326BE4034
:10071000B0434F009E68BE403043D0605E6806F034
:100720008056B6F1805F7DD100BF00260096404E16
:10073000366846F480463E4F3E603E46366806F4D4
:100740008046009600BF00BF3A4E8F0856F827003B
:100750008E07370F0F26BE40B043374EB24202D14C
:10076000002624E05EE0354EB24201D101261EE0B3
:10077000334EB24201D1022619E0324EB24201D1CB
:10078000032614E0304EB24201D104260FE02F4E72
:10079000B24201D105260AE02D4EB24201D1062611
:1007A00005E02C4EB24201D1072600E008268F0753
:1007B0003F0FBE4030431F4E8F0846F82700264E9D
:1007C0003068A0435E6806F48036B6F5803F00D1FD
:1007D0002043214E3060361D3068A0435E6806F429
:1007E0000036B6F5003F00D120431B4E361D306069
:1007F000361D3068A0435E6806F48016B6F5801F8B
:1008000000D12043144E08363060361D3068A043B6
:100810005E6806F40016B6F5001F00D120430E4EA8
:100820000C363060491C1029FFF420AFF8BD0000E1
:1008300044380240083801400000024000040240F1
:1008400000080240000C0240001002400014024068
:1008500000180240001C0240003C0140024613699F
:100860000B400BB1012000E00020704701480068F8
:10087000000C7047002004E0014800687047000049
:10088000040000200348006803490978084401492E
:1008900008607047040000200C00002070B504467A
:1008A0000E4800784FF47A71B1FBF0F00C490968FA
:1008B000B1FBF0F5284600F0D8FC08B1012070BD6E
:1008C000102C07D200222146501E00F01DF80548CA
:1008D000046001E00120F2E70020F0E70C000020B6
:1008E000000000200800002001460846002809DB1F
:1008F00000F01F0301229A4043099B0003F1E0230B
:10090000C3F8002100BF70472DE9F05F80460D4617
:100910001646002702F0C8FA074639462A463346EB
:1009200001F00700C0F1070ABAF1040F02D94FF035
:10093000040A01E0C0F1070AD14600F1040ABAF145
:10094000070F02D24FF0000A01E0A0F1030AD446DB
:100950004FF0010A0AFA09FAAAF1010A0AEA020AA0
:100960000AFA0CFA4FF0010B0BFA0CFBABF1010B7E
:100970000BEA030B4AEA0B042146404602F09CFABC
:10098000BDE8F09F00BF00F00702064B19684FF664
:10099000FF031940044B0B4343EA0221014B19604A
:1009A00000BF70470CED00E00000FA0570B504468A
:1009B0000D460CB9012070BD5848006800F00F00CA
:1009C000A84209D255490D700846006800F00F0092
:1009D000A84201D00120EEE7207800F002000228B2
:1009E0001DD1207800F00400042805D14C4800688F
:1009F00040F4E0504A490860207800F008000828D8
:100A000005D14748006840F46040454908604448C3
:100A1000006820F0F000A168084341490860207890
:100A200000F00100A8B36068012807D13C480838ED
:100A30000068C0F34040B8B90120BCE760680228F4
:100A400002D06068032807D1354808380068C0F331
:100A5000406048B90120AEE7314808380068C0F36B
:100A6000400008B90120A6E72D48006820F00300E7
:100A7000616808432A490860FFF7FEFE064609E060
:100A8000FFF7FAFE801B41F28831884202D9032029
:100A900091E707E02248006800F00C006168B0EBC5
:100AA000810FEDD11D48006800F00F00A84209D960
:100AB0001A490D700846006800F00F00A84201D0E6
:100AC000012078E7207800F00400042807D11448BA
:100AD000006820F4E050E16808431149086020787C
:100AE00000F00800082808D10D48006820F4604094
:100AF000216940EAC1000A49086000F03DF8084950
:100B00000968C1F30311074A515CC84006490860EF
:100B10000F20FFF7C3FE00204DE70000003C02401D
:100B200008380240C0430008000000200148006867
:100B3000704700000000002000B5FFF7F7FF0449F0
:100B40000968C1F38221034A515CC84000BD00001E
:100B500008380240D043000800B5FFF7E7FF04491A
:100B60000968C1F34231034A515CC84000BD00002E
:100B700008380240D04300082DE9F0470024002542
:100B80000026A1462548006800F00C0020B104288A
:100B900005D008283AD105E0DFF8849039E0DFF885
:100BA000849036E01D48001F006800F03F041B4899
:100BB000001F006800F4800078B11A481749091F27
:100BC0000968C1F38811A0FB017001462246002389
:100BD0003846FFF751FB05460EE011480F49091F43
:100BE0000968C1F38811A0FB017001462246002369
:100BF0003846FFF741FB05460848001F0068C0F370
:100C00000140401C4600B5FBF6F902E0DFF8109009
:100C100000BF00BF4846BDE8F0870000083802402A
:100C20000024F40040787D01F8B504460CB9012099
:100C3000F8BD207800F00100002874D0F948006861
:100C400000F00C0004280DD0F648006800F00C00FD
:100C5000082813D1F348001F006800F48000B0F5A5
:100C6000800F0BD1EF4808380068C0F340400028DF
:100C700059D06068002856D10120D9E700BF6068CC
:100C8000B0F5803F08D1E7480838006840F480306C
:100C9000E449083908601EE06068B0F5A02F0DD166
:100CA000E0480838006840F48020DE4908390860D0
:100CB0000846006840F4803008600CE0D9480838E5
:100CC000006820F48030D749083908600846006879
:100CD00020F48020086000BF606890B1FFF7CCFD71
:100CE000054606E0FFF7C8FD401B642801D9032034
:100CF0009EE7CC4808380068C0F340400028F1D097
:100D000011E0FFF7B9FD054606E0FFF7B5FD401B12
:100D1000642801D903208BE7C24808380068C0F373
:100D200040400028F1D1207800F0020002285FD175
:100D3000BC48006800F00C0058B1BA48006800F0E8
:100D40000C0008281CD1B748001F006800F4800080
:100D5000B0B9B44808380068C0F3400020B1E0687A
:100D6000012801D0012063E7AE480838006820F070
:100D7000F800216940EAC100AA490839086037E053
:100D8000E06800B30120A8490860FFF775FD05463B
:100D900006E0FFF771FD401B022801D9032047E759
:100DA000A04808380068C0F340000028F1D09D48F2
:100DB0000838006820F0F800216940EAC10099492C
:100DC0000839086014E0002097490860FFF754FDD7
:100DD000054606E0FFF750FD401B022801D903201D
:100DE00026E7904808380068C0F340000028F1D199
:100DF000207800F0080008282CD16069A8B10120F3
:100E00008A490860FFF738FD054606E0FFF734FD24
:100E1000401B022801D903200AE782486C30006891
:100E2000C0F340000028F1D014E000207F490860A2
:100E3000FFF722FD054606E0FFF71EFD401B0228D6
:100E400001D90320F4E677486C300068C0F3400015
:100E50000028F1D1207800F00400042870D1002689
:100E600070483830006800F0805090B900BF002012
:100E700000906C483830006840F080506949383143
:100E800008600846006800F08050009000BF00BF76
:100E900001266748006800F48070B0B964480068B3
:100EA00040F4807062490860FFF7E6FC054606E002
:100EB000FFF7E2FC401B022801D90320B8E65C489A
:100EC000006800F480700028F2D000BFA0680128FC
:100ED00008D154486830006840F001005149683139
:100EE00008601DE0A06805280DD14E4868300068F4
:100EF00040F004004B49683108600846006840F043
:100F0000010008600CE047486830006820F00100EC
:100F10004449683108600846006820F00400086011
:100F200000BFA068A8B1FFF7A7FC054609E0FFF7DE
:100F3000A3FC401B41F28831884202D9032077E6A6
:100F400026E0384868300068C0F340000028EED042
:100F500013E0FFF791FC054608E0FFF78DFC401B0E
:100F600041F28831884201D9032061E62D4868307A
:100F70000068C0F340000028EFD1012E07D12948B6
:100F80003830006820F0805026493831086000BFB2
:100F9000A069B8B32348006800F00C0008285ED0B0
:100FA000A069022846D100201F490866FFF764FCAB
:100FB000054606E0FFF760FC401B022801D903202C
:100FC00036E6184808380068C0F340600028F1D1C0
:100FD000D4E907010843616A40EA81110122A06A4D
:100FE000C2EB500041EA00412C20005D41EA006064
:100FF0000C49091F086001200B490866FFF73CFCFB
:10100000054607E02DE0FFF737FC401B022801D919
:1010100003200DE6034808380068C0F3406000284C
:10102000F1D01EE00838024000004742800E4742DF
:101030000070004000200C490866FFF71DFC0546C3
:1010400006E0FFF719FC401B022801D90320EFE559
:1010500006480068C0F340600028F2D101E001209A
:10106000E6E50020E4E500000000474200380240C9
:1010700010B504460CB9012010BD606A00B900BF6C
:10108000A06AB0F5005F00D100BF94F8510028B904
:10109000002084F85000204600F03AF8022084F83E
:1010A00051002068006820F0400021680860D4E901
:1010B00001010843E1680843216908436169084365
:1010C000218B01F400710843E1690843216A084358
:1010D000A16A0843216808600421A06901EA104060
:1010E000616A084321684860A06AB0F5005F02D1D8
:1010F0002168E06A08612068C06920F40060216806
:10110000C86100206065012084F851000020B3E729
:1011100010B586B0044600BF002000903948006832
:1011200040F00200374908600846006800F00200FD
:10113000009000BF00BF00BF00200090084600687C
:1011400040F0020008600846006800F002000090CD
:1011500000BF00BF00BF002000900846006840F0BC
:10116000020008600846006800F00200009000BF1E
:1011700000BF00BF002000900846006840F040001B
:1011800008600846006800F04000009000BF00BF03
:1011900000BF002000901B481430006840F48050CD
:1011A0001849143108600846006800F48050009027
:1011B00000BF00BF08200190022002900120039090
:1011C000022004900520059001A90F48FFF746FA78
:1011D000102001900520059001A90B48FFF73EFA69
:1011E000202001900520059001A90748FFF736FA55
:1011F000402001900120029001A90448FFF72EFA37
:1012000006B010BD30380240000402400018024011
:1012100070B504460E4615460CB9012070BD94F811
:10122000490028B9002084F84800204600F01CF846
:1012300004F108012068FFF77BF93146A2682068B5
:10124000FFF7A4F92946236BD4E90102FFF74CF913
:10125000A168206850F8210040F00100A2682168D0
:1012600041F822000020D9E7704770B504462546B2
:10127000681EB0F1807F01D301200FE0681E4FF09F
:10128000E02148610F214FF0FF3001F015FE0020F2
:101290004FF0E021886107200861002070BD10B583
:1012A00004460CB9012010BDA06900B100E000BFE8
:1012B00094F8390028B9002084F83800204600F05E
:1012C00027F8242084F839002068C06820F40050F2
:1012D0002168C860204601F0D7FB2068006920F42F
:1012E0009040216808612068406920F02A00216848
:1012F00048612068C06840F400502168C860002040
:10130000E063202084F8390084F83A000020CAE71E
:1013100010B586B0044600BF002000902648006843
:1013200040F01000244908600846006800F01000F2
:10133000009000BF00BF00BF002000901E4814387E
:10134000006840F002001C49143908600846006833
:1013500000F00200009000BF00BF00BF002000901E
:101360000846006840F0020008600846006800F087
:101370000200009000BF00BF4020019002200290B8
:1013800001200390032004900720059001A90B4839
:10139000FFF764F9802001900720059001A9074814
:1013A000FFF75CF9012200212520FFF7ADFA252087
:1013B000FFF79AFA06B010BD44380240000402401C
:1013C0002DE9F84304460D4616461F464FF0000926
:1013D00094F8390020285CD105B116B90120BDE888
:1013E000F88300BF94F83800012801D10220F6E705
:1013F000012084F8380000BF0020E063212084F839
:101400003900FFF739FA8146A684E6842BE0E08CA8
:10141000401EE084A068B0F5805F16D14B460022E4
:1014200080212046009701F0E3FC08B10320D6E7B5
:10143000A846B8F80000C0F3080021684860206999
:1014400008B9AD1C0FE06D1C0DE04B460022802159
:101450002046009701F0CCFC08B10320BFE715F847
:10146000010B21684860E08C0028D0D14B46002257
:1014700040212046009701F0BBFC08B10320AEE7F5
:10148000202084F8390000BF002084F8380000BF15
:10149000A5E70220A3E700BFFEE7000018B1202166
:1014A000034A916103E04FF40011014A91617047D2
:1014B000001002402DE9F04106460F4614461D4635
:1014C0002B4622463946304600F0E0FB04FB05F08F
:1014D0000249098800F0BEFABDE8F0817E000020D4
:1014E00070B5044600F016FFC5882B4603480288F5
:1014F00021460020FFF7DEFF70BD000070000020D5
:1015000001B502E00098401E009000980028F9D133
:1015100008BD00002DE9F047804689461746202384
:101520001A464946404600F0B1FB2C2000F00CFE64
:1015300039461A48FFF74CF800242BE0174810F8FA
:1015400024502D02012000EB84001449085C05435F
:101550002D02022000EB8400085C05432D020320CD
:1015600000EB8400085C054300260FE04FF00040CC
:10157000F040284020B10A48008800F0E9FD03E06F
:101580000848008800F0E4FD701CC6B2202EEDDB98
:10159000601CC4B2202CD1DBBDE8F087080200201B
:1015A0007C0000207E0000202DE9F05F8046894607
:1015B0001646A6F120001FFA80FA1E49096889889C
:1015C0001C4A1268D28801FB02F0C11700EB51716E
:1015D000C1F3C7071748006800680AFB070B1548E6
:1015E0000068C3881348006882884946404600F076
:1015F0004DFB2C2000F0A8FD002416E0002510E093
:101600001BF8040080212941084020B10A480088C5
:1016100000F09EFD03E00948008800F099FD681C79
:10162000C5B2082DECDB601CC4B2BC42E6DBBDE8F1
:10163000F09F0000780000207C0000207E00002049
:1016400070B504460D46002624E03046134909686B
:101650008988084412490988884205DD00260F4818
:101660000068C088204484B220460C490968C988B3
:1016700008440C490988884201DD002600242A78A4
:1016800021463046FFF790FF6D1C044800688088B3
:10169000304486B228780028D7D170BD7800002069
:1016A00070000020720000202DE9F04105460C4634
:1016B000002648E020787E2825DC30462449096849
:1016C0008988084423490988884205DD0026204886
:1016D0000068C088284485B228461D490968C98821
:1016E00008441D490988884201DD0026002522782A
:1016F00029463046FFF758FF154800688088304477
:1017000086B2641C1FE030462030124909888842A6
:1017100003DD002605F1200085B2284620300E4961
:101720000988884201DD002600252788380200EB61
:10173000272087B23A4629463046FFF7EBFE06F1EE
:10174000200086B2A41C20780028B3D1BDE8F08127
:101750007800002070000020720000202DE9F05F6A
:1017600005460E4691469B4600240FFA89F7032052
:10177000A0EB49000FFA80FA87E0BBF1000F40D0E0
:10178000A0463BE006EB080291B22A1990B200F0A5
:10179000BFFC06EB080291B22A1B90B200F0B8FC25
:1017A000321991B2A5EB080290B200F0B1FC321BE5
:1017B00091B2A5EB080290B200F0AAFCA6EB0802D9
:1017C00091B22A1B90B200F0A3FCA6EB080291B2E2
:1017D0002A1990B200F09CFC321B91B205EB080272
:1017E00090B200F095FC321991B205EB080290B26C
:1017F00000F08EFC08F101000FFA80F8B845C1DD59
:101800002FE0F21991B22A1990B200F081FCF2197E
:1018100091B22A1B90B200F07BFC321991B2EA1B04
:1018200090B200F075FC321B91B2EA1B90B200F04E
:101830006FFCF21B91B22A1B90B200F069FCF21B04
:1018400091B22A1990B200F063FC321B91B2EA19EE
:1018500090B200F05DFC321991B2EA1990B200F03A
:1018600057FC601C04B2BAF1000F05DAA000801D1D
:1018700050440FFA80FA07E0E01B80000A30504421
:101880000FFA80FA781E07B200BFBC427FF775AF2F
:10189000BDE8F09F2DE9FF4F83B081464FF0000A6D
:1018A000D3460598A0EB090504990698461ACDF889
:1018B000049004980090002D01DD012705E00DB98A
:1018C000002702E04FF0FF376D42002E02DD4FF09F
:1018D000010806E016B94FF0000802E04FF0FF38AB
:1018E0007642B54201DD2C4600E0344600200290ED
:1018F00019E0DDE9001000F00BFCAA44B344A24556
:1019000005DDAAEB040A0198384480B20190A34592
:1019100005DDABEB040B0098404480B200900298C8
:10192000401C80B20290611C02988842E1DD07B041
:10193000BDE8F08F2DE9F04104460D4616461F46DE
:10194000DDF81880B8F1000F0CD03B46324629462E
:10195000204600F09BF906FB07F01749098800F0C4
:1019600079F827E0A019401E82B22B46294620466E
:10197000FFF790FFE819401E83B2A019401E82B203
:10198000E819401E81B22046FFF784FFE819401E87
:1019900083B2224629462046FFF77CFFE919491EFB
:1019A0008BB2A119491E8AB2A119491E88B22946D3
:1019B000FFF770FFBDE8F0817C00002008B54FF014
:1019C0002040204908602048486000BF0020009067
:1019D0001E48006840F001001C4908600846006885
:1019E00000F00100009000BF00BF0420184908600B
:1019F00000204860042088600020C86008614861B9
:101A00004FF08050886104200E49886000210D4805
:101A1000C160082101611021416100218161C16122
:101A200041624FF4805181620021C16201634163D0
:101A300081634FF48011C163054A1146FFF7E8FB4B
:101A400008BD00009C010020040100A038380240BD
:101A5000EC01002070B504460D4600262C2000F055
:101A600073FB00BF03E0284600F072FB761CA64221
:101A7000F9D370BD00B587B000BF002001903F488A
:101A8000006840F008003D4908600846006800F022
:101A90000800019000BF00BF00BF00200190084671
:101AA000006840F0100008600846006800F0100070
:101AB000019000BF00BF00BF0020019008460068F1
:101AC00040F0200008600846006800F02000019007
:101AD00000BF00BF00BF002001900846006840F032
:101AE000400008600846006800F04000019000BF18
:101AF00000BF00BF0020019020480830006840F07F
:101B000001001E49083108600846006800F0010025
:101B1000019000BF00BF01200390049003200590B6
:101B20002020029002A91648FEF798FD4FF480602D
:101B3000029002A91348FEF791FD4FF40060029055
:101B400002A91148FEF78AFD022003900C2006909E
:101B50004CF23370029002A90C48FEF77FFD4FF65D
:101B60008070029002A90648FEF778FD01200290DD
:101B700002A90548FEF772FD07B000BD30380240EB
:101B8000001002400018024000140240000C024005
:101B900010B50446072C00DD10BD2948047020460E
:101BA00004EBD0714910A4EB410141B94FF4F0703E
:101BB0002449088040F256302349088007E040F26B
:101BC0005630204908804FF4F0701F4908803620B5
:101BD00000F0BAFA002141EA441000F0B9FA2A20D4
:101BE00000F0B2FA002000F0B3FA002000F0B0FAE2
:101BF00014490988491EC1F3072000F0A9FA1149C8
:101C00000978491EC8B200F0A3FA2B2000F09CFA14
:101C1000002000F09DFA002000F09AFA0A49098895
:101C2000491EC1F3072000F093FA07490978491EBD
:101C3000C8B200F08DFA2C2000F086FA00BFABE7A6
:101C400074000020700000207200002010B5FFF723
:101C500011FFFFF7B3FE00F03DFA00F047F8084827
:101C60000078FFF795FF074803880748028800219E
:101C70000846FFF71FFC0120FFF710FC10BD000015
:101C80007400002072000020700000202DE9F04157
:101C900004460D4616461F462A2000F055FA20122B
:101CA00000F056FAE0B200F053FAA119491EC1F350
:101CB0000F2000F04DFAA119491EC8B200F048FAF1
:101CC0002B2000F041FA281200F042FAE8B200F0AE
:101CD0003FFAE919491EC1F30F2000F039FAE9195A
:101CE000491EC8B200F034FABDE8F08110B54FF4D7
:101CF000A040FEF7EEFBFF2000F026FAFF2000F0E8
:101D000027FA982000F024FA062000F021FA4FF478
:101D1000A040FEF7DEFBBA2000F016FA602000F0CB
:101D200017FA4FF4A040FEF7D4FBBC2000F00CFAE9
:101D3000032000F00DFA0E2000F00AFA612000F0F6
:101D400007FAFF2000F004FA052000F001FA052050
:101D500000F0FEF91B2000F0FBF9102000F0F8F96C
:101D6000732000F0F5F9632000F0F2F9FF2000F095
:101D7000EFF9FF2000F0ECF9052000F0E9F905206B
:101D800000F0E6F9002000F0E3F9002000F0E0F9AF
:101D9000D52000F0DDF9D02000F0DAF9012000F0C4
:101DA000D7F9002000F0D4F9402000F0D1F94FF429
:101DB000A040FEF78EFBBD2000F0C6F9012000F028
:101DC000C7F9232000F0C4F9452000F0C1F96720CD
:101DD00000F0BEF9012000F0BBF9232000F0B8F9B3
:101DE000452000F0B5F9672000F0B2F94FF4A040AB
:101DF000FEF76FFBBE2000F0A7F9012000F0A8F964
:101E00002D2000F0A5F9CB2000F0A2F9A22000F0CF
:101E10009FF9622000F09CF9F22000F099F9E2208D
:101E200000F096F9222000F093F9222000F090F9BA
:101E30004FF4A040FEF74DFBC72000F085F963206A
:101E400000F086F94FF4A040FEF743FBED2000F0D0
:101E50007BF97F2000F07CF90F2000F079F9002059
:101E600000F076F94FF4A040FEF733FBC02000F0FD
:101E70006BF9032000F06CF90B2000F069F90020E9
:101E800000F066F94FF4A040FEF723FBFC2000F0C1
:101E90005BF9082000F05CF94FF4A040FEF719FB55
:101EA000DF2000F051F9002000F052F9002000F08E
:101EB0004FF9002000F04CF9002000F049F9002013
:101EC00000F046F9202000F043F94FF4A040FEF75F
:101ED00000FBF32000F038F9742000F039F94FF4DA
:101EE000A040FEF7F6FAF92000F02EF9002000F0ED
:101EF0002FF9FD2000F02CF9802000F029F9802036
:101F000000F026F9C02000F023F94FF4A040FEF7BE
:101F1000E0FAB42000F018F9022000F019F90220CC
:101F200000F016F9022000F013F94FF4A040FEF77C
:101F3000D0FAF72000F008F9812000F009F94FF4F9
:101F4000A040FEF7C6FAB12000F0FEF8002000F035
:101F5000FFF8132000F0FCF8132000F0F9F84FF41C
:101F6000A040FEF7B6FAF22000F0EEF8C02000F034
:101F7000EFF8022000F0ECF8402000F0E9F828200B
:101F800000F0E6F84FF4A040FEF7A3FAC12000F0FD
:101F9000DBF8172000F0DCF8752000F0D9F8752088
:101FA00000F0D6F8202000F0D3F84FF4A040FEF760
:101FB00090FAE02000F0C8F8002000F0C9F80520F1
:101FC00000F0C6F8082000F0C3F80C2000F0C0F8BC
:101FD0000F2000F0BDF8152000F0BAF8092000F03D
:101FE000B7F8072000F0B4F8012000F0B1F806209F
:101FF00000F0AEF8092000F0ABF8162000F0A8F8C9
:10200000142000F0A5F83E2000F0A2F83E2000F0D9
:102010009FF8002000F09CF84FF4A040FEF759FA1A
:10202000E12000F091F8002000F092F8092000F083
:102030008FF8122000F08CF8122000F089F813209D
:1020400000F086F81C2000F083F8072000F080F8EC
:10205000082000F07DF8052000F07AF8082000F054
:1020600077F8032000F074F8022000F071F80420E3
:1020700000F06EF81E2000F06BF81B2000F068F8EE
:10208000002000F065F84FF4A040FEF722FA3A2055
:1020900000F05AF8552000F05BF84FF4A040FEF72E
:1020A00018FA352000F050F8002000F051F84FF4F5
:1020B000A040FEF70EFA112000F046F84FF4A040C1
:1020C000FEF707FA292000F03FF84FF4A040FEF792
:1020D00000FA10BD10B54FF000600749086040F6E7
:1020E000FF20FFF70DFA4FF400600349086040F647
:1020F000FF20FFF705FA10BD1814024070B5044622
:102100000D4601231A4629462046FFF7BFFD70BD44
:1021100070B505460C460948008885420CDA084827
:102120000088844208DA21462846FFF7E7FF054881
:1021300001880120FFF78EFC70BD000070000020B8
:10214000720000207C0000204FF0D04108807047D2
:102150004FF0D0414880704723E00121114800F042
:10216000C5F8012809D110A000F07AFE12480068D5
:1021700001F0FCFD11A000F073FE4FF40051144873
:1021800000F0B4F8012809D112A000F069FE0A4855
:10219000006801F03FFD13A000F062FE142001F082
:1021A00075FCDAE700000240B9D2C6F054657374DA
:1021B000C8CECEF1A3A10A0014000020B9D2C6F007
:1021C00054657374C8CECEF1B3C9B9A6A3A10A00F1
:1021D00000080240BBD6B8B454657374C8CECEF1C3
:1021E000A3A10A00BBD6B8B454657374C8CECEF1AF
:1021F000B3C9B9A6A3A10A0000B587B000BF0020EB
:1022000001903648006840F00100344908600846F3
:10221000006800F00100019000BF00BF00BF002077
:1022200001900846006840F0040008600846006815
:1022300000F00400019000BF00BF00BF002001902B
:102240000846006840F0400008600846006800F05A
:102250004000019000BF00BF00BF00200190084671
:10226000006840F0400008600846006800F0400048
:10227000019000BF00BF00BF002001900846006829
:1022800040F0400008600846006800F040000190FF
:1022900000BF00BF0120029000200390049002A91B
:1022A0000F48FEF7DBF94FF40050029002A90D48E9
:1022B000FEF7D4F90420029002A90B48FEF7CEF9EC
:1022C0000820029002A90848FEF7C8F910200290E1
:1022D00002A90548FEF7C2F907B000BD3038024038
:1022E00000000240000802400018024070B5044699
:1022F0000D4629462046FEF7B1FA012808D100BF55
:1023000029462046FEF7AAFA0128F9D0012070BD1F
:102310000020FCE7014800687047000078000020BA
:10232000024A1080024A1180704700007C000020A1
:102330007E000020014908607047000078000020FE
:1023400001490880704700007C00002010B59AB059
:10235000A84800F085FDA84800F082FD0620FFF7A0
:1023600017FCA6480078401CA4490870A448FFF751
:10237000E1FF00214FF47840FFF7D2FFA148038826
:10238000A148028800210846FFF794F8FFF7C2FF32
:1023900000249EA12046FFF787F9FFF7BBFFC08806
:1023A0004004040C9EA12046FFF77EF9FFF7B2FF20
:1023B000C08800EB400084B29EA12046FFF774F96C
:1023C000FFF7A8FFC0888004040C9FA12046FFF7F8
:1023D0006BF94FF4FC60FFF7B3FF884802789FA1C8
:1023E00001A800F04DFDFFF795FFC088C0EBC000CD
:1023F00084B22046FFF774F8FFF78CFFC088C0EB6B
:10240000C00084B201A92046FFF71AF9FFF782FF46
:10241000C088C0EBC00084B22046FFF761F81F20DF
:10242000FFF78EFFFFF776FFC088C0EBC00084B2D5
:102430008FA12046FFF738F94FF47840FFF780FF6F
:1024400040F213134FF4D272591F3220FFF722FAD1
:1024500040F277134FF4D2724FF496713220FFF7A7
:1024600019FA4FF4FC60FFF76BFF40F2DB134FF4F7
:10247000D2724FF4B9713220FFF70CFA40F2DB133D
:102480004FF4D2724FF4C8713220FFF703FA1F20C5
:10249000FFF756FF40F245134FF4D2721146322037
:1024A000FFF7F8F940F28B134FF4D2724FF4E17159
:1024B0003220FFF7EFF94FF47A7001F0E7FA514854
:1024C0000088E03883B250480288E0210020FEF7FF
:1024D000F1FFFFF71FFFC088C0EBC00084B22046A9
:1024E000FEF7FEFF1F20FFF72BFFFFF713FFC0884B
:1024F000C0EBC00084B260A12046FFF7D5F84FF4CE
:102500007840FFF71DFF01206423C8224FF4967125
:1025100000903220FFF70EFA4FF4FC60FFF710FF37
:1025200000207823C8224FF4967100906420FFF7B2
:1025300001FA1F20FFF704FF01209623C82259004B
:102540000090FA20FFF7F6F94FF47A7001F09EFA46
:102550002C480088E03883B22B480288E021002014
:10256000FEF7A8FFFFF7D6FEC088C0EBC00084B21C
:102570002046FEF7B5FF1F20FFF7E2FEFFF7CAFE79
:10258000C088C0EBC00084B23DA12046FFF78CF8A4
:102590004FF47840FFF7D4FE01233C224FF4C8717A
:1025A0009620FFF7DBF84FF4FC60FFF7C9FE00232D
:1025B0003C224FF4C871FA20FFF7D0F81F20FFF734
:1025C000BFFE01233C224FF4C8714FF4AF70FFF7F8
:1025D000C5F84FF47A7001F059FA0A480088E038DB
:1025E00083B209480288E0210020FEF763FF1AB099
:1025F00010BD0000F89600083C9700086800002015
:10260000880000207200002070000020D2B0BBF0D3
:10261000342E35B4E74C4344B2CECAFDA3BA000011
:10262000B7D6B1E6C2CAA3BA3438307838353420C8
:1026300070780000494C493938303647D2BABEA7C5
:10264000C7FDB6AF00000000475435363838B4A592
:10265000C3FEC6C1C7FDB6AF00000000CFD4CABEDE
:10266000B1E4C1BFBCC6CAFD203A202564200000E9
:10267000BBADD6B1CFDF3A00BBADBED8D0CE3A00AD
:10268000BBADD4B23A00000000B587B000BF002057
:1026900001903548006840F0010033490860084661
:1026A000006800F00100019000BF00BF00BF0020E3
:1026B00001900846006840F0100008600846006875
:1026C00000F01000019000BF00BF00BF002001908B
:1026D0000846006840F0400008600846006800F0C6
:1026E0004000019000BF00BF00BF002001900846DD
:1026F000006840F0020008600846006800F0020030
:10270000019000BF00BF4FF40040029001200390F1
:1027100004900320059002A91448FDF79FFF0420B0
:10272000029002A91248FDF799FF4FF40040029071
:1027300002A91048FDF792FF4FF48070029002A9A1
:102740000D48FDF78BFF4FF40040084988610420D5
:10275000074988614003074918310860C0110649DC
:102760001831086007B000BD303802400000024058
:1027700000100240001802400004024000BFFEE7C3
:10278000704770B505460E461446A2B2314628463B
:1027900000F026F8012070BD2DE9F04106460C46F8
:1027A0003046FDF79AFD0746002513E005F58051F8
:1027B00030222046FFF7E5FF3A4631462046FDF736
:1027C00093FD30B9E06A00F58050E062E06ABDE850
:1027D000F0813035B5F5005FE8DB4FF0FF30F6E70C
:1027E00070B505460C4616464FF480000F49086048
:1027F000032000F049F8C4F3074000F045F8C4F3A3
:10280000072000F041F8E0B200F03EF804E0FF20BD
:1028100000F03AF828706D1C301EA6F101018EB24E
:10282000F5D140200149086070BD00001818024031
:1028300010B513481349086000211248C161816036
:102840000121416102210161002181620721C162F0
:102850000021C16001624FF4007181610021416279
:102860004FF48270074948600846FEF701FC0548AE
:102870000068006840F0400002490968086010BD27
:10288000003001404401002010B504464FF4805050
:10289000194908600AE018490868411E164A116083
:1028A00020B9002000F02CF8C0B210BD1348006819
:1028B0008068C0F340000028EDD010480068C46074
:1028C0004FF480500C4908600AE00B490868411E2B
:1028D000094A116020B9012000F012F8C0B2E4E703
:1028E00006480068806800F001000028EDD0034829
:1028F0000068C068C0B2D8E76C0000204401002026
:1029000010B50446214602A000F0AAFA002010BD2E
:102910003C3C2D464C4153482D4552524F522D3E82
:102920003E2053504920B5C8B4FDB3ACCAB12165AF
:1029300072726F72436F6465203D2025640A000047
:1029400010B501F0E9FB012801D001F09BFBFDF778
:1029500099FF10BD00B593B000BF002001902A4838
:10296000006840F08050284908600846006800F080
:102970008050019000BF00BF00BF0020019023489D
:10298000006840F48040214908600846006800F46F
:102990008040019000BF00BF01200290000403901E
:1029A000022008904105099119210A914FF4A8715C
:1029B0000B9102210C9107210D9102A8FEF734F929
:1029C00008B100BFFEE70F200E9002200F900020FC
:1029D00010904FF4A05011904FF4805012900521A8
:1029E0000EA8FDF7E3FF08B100BFFEE7FDF73EFFCD
:1029F00041F20101884205D10548006840F4807029
:102A00000349086013B000BD403802400070004028
:102A1000003C02401448006840F47000124908600D
:102A20001248006840F001001049086000200F497A
:102A3000083108600D4800680D4908400B490860DE
:102A40000C48091D0860081F006820F48020091F39
:102A50000860002005490C3108604FF00060024911
:102A6000803908607047000088ED00E000380240BF
:102A7000FFFFF6FE1030002405E0FFF767FC4FF47F
:102A80007A7001F003F8F8E72DE9F0410446206878
:102A9000006920F44050E168084321680861216919
:102AA000A068084361690843E16940EA01052068BC
:102AB000C06849F20C61884328432168C8602068D7
:102AC000406920F44070A169084321684861E069C9
:102AD000B0F5004F7ED1C4492068884203D0C34975
:102AE000206888425DD1FEF737F800EBC00101EBAA
:102AF000001061684900B0FBF1F06421B0FBF1F017
:102B00000601FEF729F800EBC00101EB0010616837
:102B10004900B0FBF1F7FEF71FF800EBC00101EB35
:102B2000001061684900B0FBF1F06421B0FBF1F0E6
:102B300000EBC00101EB0010A7EB8000322101EB9C
:102B4000C0006421B0FBF1F000F0F80006EB400695
:102B5000FEF702F800EBC00101EB001061684900CC
:102B6000B0FBF1F7FDF7F8FF00EBC00101EB00103F
:102B700061684900B0FBF1F06421B0FBF1F000EBBB
:102B8000C00101EB0010A7EB8000322101EBC00077
:102B90006421B0FBF1F000F0070030442168886048
:102BA00020E1FDF7C9FF00EBC00101EB00106168F7
:102BB0004900B0FBF1F06421B0FBF1F00601FDF734
:102BC000BBFF00EBC00101EB001061684900B0FBE6
:102BD000F1F700E045E0FDF7AFFF00EBC00101EBCE
:102BE000001061684900B0FBF1F06421B0FBF1F026
:102BF00000EBC00101EB0010A7EB8000322101EBDC
:102C0000C0006421B0FBF1F000F0F80006EB4006D4
:102C1000FDF792FF00EBC00101EB00106168490075
:102C2000B0FBF1F7FDF788FF00EBC00101EB0010EE
:102C300061684900B0FBF1F06421B0FBF1F000EBFA
:102C4000C00101EB0010A7EB8000322101EBC000B6
:102C50006421B0FBF1F000F0070030442168886087
:102C6000C0E061492068884203D0604920688842FA
:102C70005CD1FDF771FF00EBC00101EB0010616852
:102C80008900B0FBF1F6FDF767FF00EBC00101EB37
:102C9000001061688900B0FBF1F06421B0FBF1F035
:102CA00000EBC00101EB0010A6EB8000322101EB2C
:102CB00000106421B0FBF1F000F0F006FDF74CFFCE
:102CC00000EBC00101EB001061688900B0FBF1F07E
:102CD0006421B0FBF1F006EB0016FDF73DFF00EBC1
:102CE000C00101EB001061688900B0FBF1F7FDF74E
:102CF00033FF00EBC00101EB001061688900B0FBFD
:102D0000F1F06421B0FBF1F000EBC00101EB001029
:102D1000A7EB8000322101EB00106421B0FBF1F041
:102D200000F00F003044216888605BE0FDF704FF8D
:102D300000EBC00101EB001061688900B0FBF1F607
:102D4000FDF7FAFE00EBC00101EB0010616889009D
:102D5000B0FBF1F06421B0FBF1F000EBC00101EB3E
:102D60000010A6EB8000322101EB00106421B0FBC3
:102D7000F1F000F0F006FDF7DFFE00EBC00101EB23
:102D8000001061688900B0FBF1F06421B0FBF1F044
:102D900006EB0016FDF7D0FE00EBC00101EB0010C2
:102DA00061688900B0FBF1F7FDF7C6FE00EBC001DA
:102DB00001EB001061688900B0FBF1F06421B0FB09
:102DC000F1F000EBC00101EB0010A7EB8000322115
:102DD00001EB00106421B0FBF1F000F00F00304473
:102DE00021688860BDE8F0810010014000140140B6
:102DF0002DE9F04104460D4617469846069E21E00F
:102E0000701CF8B12EB1FDF737FDA0EB0800B04201
:102E100018D92068C06820F4D0702168C860206884
:102E2000406920F0010021684861202084F83900C1
:102E300084F83A0000BF002084F8380000BF032067
:102E4000BDE8F081206800682840A84201D1012037
:102E500000E00020B842D3D00020F1E700BFFEE739
:102E60000FB4054B10B503A9044A029800F048F8C6
:102E700010BC5DF814FB0000C53000080001002004
:102E80000FB4084B10B504A902AA039800F038F853
:102E9000044602A9002000F00FF9204610BC5DF89E
:102EA00014FB0000B930000802480068C0F302209B
:102EB000704700000CED00E010B5002804DB0A07A5
:102EC000130E054A135406E00A07140E034A00F0D5
:102ED0000F031B1FD45410BD00E400E018ED00E008
:102EE00002E008C8121F08C1002AFAD170477047D3
:102EF000002001E001C1121F002AFBD17047000031
:102F00002DE9FF4F8BB09A460F460546002606E096
:102F100025280BD052460D9990476D1C761C2878B9
:102F20000028F5D10FB03046BDE8F08F0024A04650
:102F30000122604900E0044315F8013F203B02FAFA
:102F400003F00842F7D128782E2817D115F8010F81
:102F500044F004042A280ED06FF02F022878A0F144
:102F6000300109290AD808EB880102EB410100EB86
:102F700001086D1CF2E757F8048B6D1C287869284E
:102F80003ED006DC0028CDD063280BD0642804D1C5
:102F900036E0732810D075284BD052460D999047D3
:102FA000761C85E017F8040B8DF8000000208DF8E2
:102FB0000100E946012003E057F8049B4FF0FF3081
:102FC00061074FF0000401D40AE0641C44450DDAA7
:102FD0008442FADB19F804100029F6D106E0641CDB
:102FE0008442FCDB19F804100029F8D1264404E0DF
:102FF00019F8010B52460D999047641EF8D257E01C
:1030000001CF4FF00A0B002802DA40422D2102E0E6
:10301000210504D52B218DF82410012103E0E107BF
:1030200005D02021F7E70DF1200908910CE00021DF
:10303000F9E701CF4FF00A0BF9E75946FDF76DF9B3
:1030400001F1300209F8012D0028F6D1ADEB09009D
:1030500000F1200B600701D44FF00108D84502DDD4
:10306000A8EB0B0000E000208046002406E009A841
:103070005246005D0D999047641C761C0898844266
:10308000F5DB04E0302052460D999047761CB8F1EC
:103090000001A8F10108F5DC05E019F8010B524622
:1030A0000D999047761CBBF10001ABF1010BF4DCEC
:1030B0006D1C34E7092801000A68531C0B6010706E
:1030C0007047000013B50C464FF47A73012269462D
:1030D0000248FEF775F900981CBD000004010020AD
:1030E0001CB50124FDF7C2F90AA0FFF7B9FE17A02D
:1030F000FFF7B6FE2448012100234A02CDE9001063
:1031000022A1264800F0D8FF04460CB100F0DAFDF9
:1031100000BFFEE7D5E2CAC7D2BBB8F65BD2B0BBF0
:10312000F05D2D53544D3332C8ABCFB5C1D0BFAADB
:10313000B7A2B0E52D4672656552544F53B9CCBC69
:10314000FEBFE2C0FDB3CCA3A10A0A00B0B4CFC257
:103150004B455931B9D2C6F0C8CECEF1A3ACB0B40C
:10316000CFC24B455932BBD6B8B4C8CECEF1A3AC12
:10317000B2E2CAD45350492D464C4153482D4661C2
:103180007446730A00000000100000204170705463
:1031900061736B437265617465000000B5030008DC
:1031A0002DE9F04105460E461C4807681C4800689A
:1031B000001D00F03FFB50B91948006890F82C1032
:1031C0000120884017490968814316480160681C3E
:1031D00038B936B112480168091D134800F068FB80
:1031E0001AE07C190E4800684460BC4207D20C48C3
:1031F0000168091D0D48006800F040FB0CE008481C
:103200000168091D0A48006800F038FB0948006899
:10321000844201D207480460BDE8F081B400002078
:10322000A0000020B800002058490020A80000207D
:10323000A4000020D000002010B5044600F044FB9C
:1032400023480068401C224908602248006840B9B1
:10325000204804600846006801280DD100F036F9C6
:103260000AE01D48006838B91A480068C06AE16A77
:10327000884201D81748046018480068401C174964
:10328000086094F82C10012088401549096808430B
:1032900013490860E16A01EB8101124A02EB8100E7
:1032A000211D00F005FB00F051FB0B48006868B1E0
:1032B00008480068C06AE16A884207D24FF080502F
:1032C00009490860BFF34F8FBFF36F8F10BD000037
:1032D000B0000020A0000020BC000020CC00002096
:1032E000B80000208846002004ED00E070B523E01F
:1032F00000F0BEFD1348006808B9012000E000207E
:10330000054600F0CBFFBDB900F0DEFA0D48C068FD
:10331000C468201D00F08EFA0B480068401E0A4960
:1033200008600A480068401E0849086000F00EFB6B
:10333000204600F00DF800BF044800680028D7D1EF
:1033400070BD000044490020B0000020AC00002007
:1033500010B50446206B00F02FFB204600F02CFB3C
:1033600010BD000030B54FF41043174800F00704BB
:103370002CB1C01D20F00700134C041B1B1B024680
:10338000124C22600024114D6C60D018083820F0D7
:1033900007000F4C206000240D4D2D686C600C4D13
:1033A0002D682C601146441A4C60094C24680C604E
:1033B000084D4C682C60084D4C682C604FF0004460
:1033C000064D2C6030BD00006C490020DC00002060
:1033D000E4000020EC000020E8000020F0000020C5
:1033E00000BFFFF783FF064800680128F9D94FF0B6
:1033F000805004490860BFF34F8FBFF36F8FF0E731
:103400008846002004ED00E02DE9FF5F81460E466E
:103410009246DDE90E7B109CAAF10100216B01EBC5
:10342000800828F0070808F0070008B9012000E02C
:10343000002028B940F22B321AA120A0FFF710FD7E
:10344000002507E0715D04F134004155705D00B95D
:1034500002E06D1C102DF5D300BF00214320015563
:10346000202F00D31F27E762201D00F004FA04F18B
:10347000180000F000FA2461C7F12000A061646226
:103480000020606484F8480049464046039A00F0F2
:10349000BBF92060BBF1000F01D0CBF80040BDE8C4
:1034A000FF9F00002E2E5C4672656552544F535CA0
:1034B0007372635C7461736B732E63004572726F19
:1034C000723A25732C25640D0A00000010B5002403
:1034D00007E004EB84010F4A02EB810000F0BEF923
:1034E000641C202CF5D30C4800F0B8F90B4800F010
:1034F000B5F90B4800F0B2F90A4800F0AFF90A48F4
:1035000000F0ACF90448094908600448084908601B
:1035100010BD000088460020084900201C490020FA
:10352000304900204449002058490020A4000020D0
:10353000A800002010B50146164800E000680368A6
:103540008B42FBD30246436813448B4204D1436849
:103550004C682344436001460A464B6813440468A0
:10356000A34211D10C4C03682468A34208D04B68D5
:103570000468646823444B6003681B680B6005E0C3
:10358000054B1B680B6001E003680B60884200D0AC
:10359000016010BDDC000020E40000200A49096839
:1035A000096809B9012100E0002121B14FF0FF3184
:1035B000064A116006E004490968C968C868034AF8
:1035C0004168116070470000A4000020D000002076
:1035D0000C480068401C08B9012000E0002028B910
:1035E00040F20F1208A112A0FFF73AFC00BF5020D2
:1035F00080F31188BFF34F8FBFF36F8F00BF00BF01
:10360000FEE70000F40000202E2E5C467265655235
:10361000544F535C706F72745C525644535C415209
:103620004D5F434D34465C706F72742E6300000032
:103630004572726F723A25732C25640D0A000000E2
:1036400070B5054600262C462DB940F281620EA1C8
:1036500013A0FFF705FC16496069884201D10120DB
:1036600000E0002070B11349A06A884201D1012016
:1036700000E0002030B9A06A08B9012000E0002075
:1036800000B10126304670BD2E2E5C467265655233
:10369000544F535C7372635C7461736B732E63007D
:1036A0004572726F723A25732C25640D0A00000072
:1036B00058490020304900202DE9F04104464FF0E0
:1036C000000800F0D5FB3E48006808B9FFF74AFE45
:1036D0003C480068204000285FD1A4B1083404F0C1
:1036E000070080B104F00700C0F10800044404F0B2
:1036F000070008B9012000E0002020B9BF2232A154
:103700003AA0FFF7ADFB002C47D03C48006884424C
:1037100043D83B4E3046056801E02E462D68686868
:10372000A04202D228680028F7D1254800688542C7
:1037300033D0306800F10808286830606868001BE2
:10374000102813D92F1907F0070008B9012000E04D
:10375000002020B9EC221CA124A0FFF781FB68689F
:10376000001B78606C603846FFF7E4FE2349686808
:103770000968081A21490860084600682149096853
:10378000884203D21D4800681E4908600D496868D8
:103790000968084368600020286000F07FFD08F099
:1037A000070008B9012000E0002028B94FF4967204
:1037B00005A10EA0FFF754FB4046BDE8F0810000D4
:1037C000E4000020F00000202E2E5C467265655259
:1037D000544F535C706F72745C4D656D4D616E67D4
:1037E0005C686561705F342E630000004572726F23
:1037F000723A25732C25640D0A000000E8000020B1
:10380000DC000020EC000020001F4FF080730360FC
:10381000001F21F001030360001F054B03601438F3
:103820000260001F6FF00203036020387047000041
:10383000D135000801460A69D1E901309860D1E923
:10384000010358605068884201D1886850600020A8
:1038500008611068401E10601068704700F1080190
:1038600041604FF0FF31816000F10801C1600161EA
:1038700000210160704700210161704710B50246C8
:103880000B685C1C0CB9106907E002F1080000E04D
:103890004068446824689C42FAD944684C604C688B
:1038A000A160886041600A611468641C146010BDE6
:1038B00042684A6093688B609368596091600861C0
:1038C00003685B1C0360704710B500BF502080F395
:1038D0001188BFF34F8FBFF36F8F00BF0B48006895
:1038E000401C0A4908600846006801280DD10848B4
:1038F0000068C0B208B9012000E0002028B940F2F9
:10390000B91204A10DA0FFF7ABFA10BDF40000201E
:1039100004ED00E02E2E5C4672656552544F535CF8
:10392000706F72745C525644535C41524D5F434D0C
:1039300034465C706F72742E630000004572726FC3
:10394000723A25732C25640D0A00000010B50B484F
:10395000006828B94FF4E07209A113A0FFF780FABC
:1039600006480068401E054908600846006820B9FE
:10397000002080F3118800BF00BF10BDF4000020BC
:103980002E2E5C4672656552544F535C706F727494
:103990005C525644535C41524D5F434D34465C701B
:1039A0006F72742E630000004572726F723A257355
:1039B0002C25640D0A00000070B506463546002E21
:1039C00035D0083D2C461A4960680968084008B19E
:1039D000012000E0002028B94FF4A07215A11EA01C
:1039E000FFF73EFA206808B9012000E0002028B95E
:1039F00040F241120FA118A0FFF732FA0C4960689B
:103A00000968084098B1206888B909496068096860
:103A10008843606000F02CFA134960680968084424
:103A2000114908602046FFF785FD00F037FC70BDA6
:103A3000F00000202E2E5C4672656552544F535C98
:103A4000706F72745C4D656D4D616E675C68656129
:103A5000705F342E630000004572726F723A2573F6
:103A60002C25640D0A000000E800002006480068CC
:103A70004FF47A71B0FBF1F0401E4FF0E021486145
:103A800007200861704700000000002070B5044660
:103A90000025ACB10F48006808B9012000E0002003
:103AA00028B940F2CF420CA111A0FFF7D9F900F0DC
:103AB000DFF900212046FFF773FB00F0EFFB05461E
:103AC0003DB94FF080500E490860BFF34F8FBFF3F0
:103AD0006F8F70BDD80000202E2E5C467265655237
:103AE000544F535C7372635C7461736B732E630029
:103AF0004572726F723A25732C25640D0A0000001E
:103B000004ED00E070B50546FFF7DEFE15B92D485F
:103B1000006800E028460446201DFFF78BFE78B9B8
:103B2000E06A00EB8000284951F8200040B994F881
:103B30002C100120884025490968814323480160F1
:103B4000A06A18B104F11800FFF774FE204800685D
:103B5000401C1F4908601B480068844209D1211D90
:103B60001C48FFF7A5FE1C480068401C1A49086065
:103B700009E01A480068401E184908602046FFF70F
:103B8000E7FBFFF70BFDFFF7E1FE15480068C0B14A
:103B90000C480068844214D11248006808B901201A
:103BA00000E0002028B940F265420FA114A0FFF701
:103BB00057F94FF0805016490860BFF34F8FBFF39D
:103BC0006F8F70BDA000002088460020B800002044
:103BD000CC00002044490020AC000020B0000020B0
:103BE000BC000020D80000202E2E5C467265655275
:103BF000544F535C7372635C7461736B732E630018
:103C00004572726F723A25732C25640D0A0000000C
:103C100004ED00E070B505462C462DB940F2AB62CC
:103C20001AA120A0FFF71CF974B32248006884424F
:103C30002AD0FFF749FE2046FFF702FD10B3201DF2
:103C4000FFF7F8FD94F82C10012088401A49096804
:103C5000084319490860E16A01EB8101174A02EB48
:103C60008100211DFFF724FE1249E06A0968C96A34
:103C7000884207D34FF0805011490860BFF34F8F3F
:103C8000BFF36F8FFFF762FE70BD00002E2E5C4603
:103C900072656552544F535C7372635C7461736BED
:103CA000732E63004572726F723A25732C25640D72
:103CB0000A000000A0000020B80000208846002074
:103CC00004ED00E01CB5184800210B468022CDE928
:103CD000001016A1174800F0EFF90446012C15D189
:103CE00000BF502080F31188BFF34F8FBFF36F8F59
:103CF00000BF4FF0FF301049086001200F490860F5
:103D000000200F49086000F011F90BE0601C08B1B9
:103D1000012000E0002028B940F2847209A10FA020
:103D2000FFF79EF81CBD0000D400002049444C451C
:103D300000000000E1330008D0000020BC0000209B
:103D4000B40000202E2E5C4672656552544F535CC1
:103D50007372635C7461736B732E63004572726F70
:103D6000723A25732C25640D0A00000070B50546D3
:103D7000FFF7AAFD15B92C48006800E02846044664
:103D8000201DFFF757FD78B9E06A00EB8000274956
:103D900051F8200040B994F82C10012088402449A3
:103DA0000968814322480160A06A18B104F1180033
:103DB000FFF740FD211D1F48FFF77AFDFFF7C6FD05
:103DC0001D48006828B1FFF77FFDFFF7E7FBFFF70D
:103DD000BDFD15480068844224D117480068A8B189
:103DE0001648006808B9012000E0002028B940F218
:103DF000576213A118A0FFF733F84FF080501A490B
:103E00000860BFF34F8FBFF36F8F0BE00948006866
:103E100016490968884203D100200349086001E07F
:103E200000F02EF870BD0000A000002088460020A1
:103E3000B800002058490020BC000020D800002015
:103E40002E2E5C4672656552544F535C7372635CF0
:103E50007461736B732E63004572726F723A2573CF
:103E60002C25640D0A00000004ED00E0B0000020E5
:103E700002480068401C014908607047D8000020D3
:103E800010B51B48006818B101201A4908602DE0E0
:103E900000201849086018480068B0FA80F0C0F1A6
:103EA0001F0404EB8400154951F8200008B10120DB
:103EB00000E0002028B940F6F62211A116A0FEF776
:103EC000CFFF04EB84010D4A02EB81004168496891
:103ED000416000F1080142688A4202D141684968A4
:103EE00041604168C968104A116000BF10BD000000
:103EF000D8000020C4000020B80000208846002020
:103F00002E2E5C4672656552544F535C7372635C2F
:103F10007461736B732E63004572726F723A25730E
:103F20002C25640D0A000000A00000201CB54048AC
:103F300000684049884201D0012000E0002028B9F3
:103F400040F259123CA146A0FEF78AFF38480068AB
:103F50003849491E884201D0012000E0002028B9DC
:103F60004FF4AD7234A13EA0FEF77AFF404C2046DC
:103F700000780190FF2021460870084600780090E4
:103F80009DF8000000F0F0009DF80010884201D17B
:103F9000012000E0002028B940F2731226A130A0D1
:103FA000FEF75EFF9DF8000000F0500031490870F8
:103FB00007203149086009E02F480068401E2E495B
:103FC00008609DF800004006000E00909DF800007B
:103FD00000F080008028EFD02748006800022649C2
:103FE00008600846008800F4E060086020490198F5
:103FF00008700F482030006840F470000C492031F0
:1040000008600846006840F070400860FFF72EFD29
:1040100000201A490860FCF7E1F81948006840F0F0
:10402000404017490860FCF7C9F800201CBD00009B
:1040300000ED00E071C20F412E2E5C4672656552A4
:10404000544F535C706F72745C525644535C4152CF
:104050004D5F434D34465C706F72742E63000000F8
:104060004572726F723A25732C25640D0A000000A8
:1040700000E400E0F8000020FC000020F400002034
:1040800034EF00E010B500BF502080F31188BFF37B
:104090004F8FBFF36F8F00BF00F04EF818B14FF095
:1040A00080500449086000BF002080F3118800BFE1
:1040B00010BD000004ED00E02DE9FF4F85B0804603
:1040C00089461746DDE912ABB800FFF7F5FA064658
:1040D00056B14C20FFF7F0FA04460CB1266304E019
:1040E0003046FFF769FC00E000247CB10020CDE9F8
:1040F00000ABCDE902403A4649464046089BFFF7EF
:1041000083F92046FFF798F8012501E04FF0FF35CD
:10411000284609B0BDE8F08F0549096809B90120B2
:1041200005E00449096809B9022000E00020704751
:10413000BC000020D80000202DE9F0414FF000081D
:1041400041480068002872D140480068451C3F483B
:104150000560EDB93E480068006808B9012000E03C
:10416000002028B940F6D9123AA140A0FEF778FE07
:104170003748076841480068354908603F4807608C
:104180003F480068401C3E490860FFF707FA00BF3F
:104190003C48006885423CD300BF2D480068006859
:1041A00008B9012000E0002020B14FF0FF30354970
:1041B00008602DE026480068C068C4686668B5429B
:1041C00002D23048066023E0201DFFF733FBA06ACF
:1041D00018B104F11800FFF72DFB94F82C10012002
:1041E000884029490968084327490860E16A01EBCA
:1041F0008101264A02EB8100211DFFF759FB24496A
:10420000E06A0968C96A8842C7D34FF00108C4E769
:1042100000BF1F480068C06A00EB80001B4951F8CE
:104220002000012801D94FF0010805E0FFE71948F7
:104230000068401C174908601748006808B14FF033
:1042400001084046BDE8F081D8000020B4000020FD
:10425000A40000202E2E5C4672656552544F535CBC
:104260007372635C7461736B732E63004572726F5B
:10427000723A25732C25640D0A000000A800002066
:10428000C8000020D0000020B80000208846002090
:10429000A0000020C0000020C400002070B5002451
:1042A00000263448006828B94FF4FD6232A138A0D6
:1042B000FEF7D6FDFFF708FB2E480068401E2D498B
:1042C00008600846006800284FD13548006800287B
:1042D0004BD024E03348C068C46804F11800FFF7ED
:1042E000A9FA201DFFF7A6FA94F82C1001208840A7
:1042F0002D49096808432C490860E16A01EB8101F6
:104300002A4A02EB8100211DFFF7D2FA2849E06A10
:104310000968C96A884202D30120264908602148F9
:10432000006808B9012000E000200028D2D00CB1BC
:10433000FFF734F92048056865B100BFFFF7FCFEC0
:1043400010B101201B4908606D1E002DF6D1002020
:10435000194908601748006838B101263007174925
:104360000860BFF34F8FBFF36F8FFFF7EFFA304650
:1043700070BD0000D80000202E2E5C46726565528C
:10438000544F535C7372635C7461736B732E630080
:104390004572726F723A25732C25640D0A00000075
:1043A000B000002030490020B800002088460020DE
:1043B000A0000020C4000020C000002004ED00E0A8
:1043C00000000000000000000102030406070809C5
:1043D00000000000010203040000000000000000D3
:1043E0000000000000000000000000181818181855
:1043F00018080008180000000000003424242400DD
:1044000000000000000000000000000016247F24CF
:1044100024247E2424000000000000083E68486830
:104420001C1612127C10100000000061D296740855
:1044300010162949C6000000000000003C646438E2
:10444000724ACE467F0000000000001818181800BD
:1044500000000000000000000000000408181030F8
:104460003030301010180C04000000201008080C28
:104470000404040C08181020000000080A341C6A08
:1044800008000000000000000000000000001818F4
:10449000187F18181800000000000000000000003D
:1044A00000000018180830000000000000000000A4
:1044B000003C0000000000000000000000000000C0
:1044C00000000018180000000000000206040C089C
:1044D0000810102020400000000000003C66424709
:1044E0005B7342663C00000000000000187848083A
:1044F000080808087E000000000000003C46060690
:10450000040810207E000000000000007C06060465
:104510003C0202067C000000000000000C1C142479
:104520006444FF0404000000000000007E6060603E
:104530007E0202067C000000000000001E30604881
:10454000764242623C000000000000007E02060449
:104550000C08181030000000000000003C624236D9
:104560001C6642423C000000000000003C664242E3
:10457000661A02047800000000000000000018180D
:1045800000000018180000000000000000001818CB
:104590000000001818083000000000000000041897
:1045A0003060100C06000000000000000000000059
:1045B0007E007E00000000000000000000003018B7
:1045C00004060C1020000000000000301C06060647
:1045D00018100010100000000000001C224141DDF6
:1045E000B5A5A5AF94C0403C00000000181C3424C1
:1045F00026627E43C1000000000000007C46424667
:104600007C4242427C000000000000001E2040402E
:10461000404040603E000000000000007C464243F5
:104620004343424678000000000000007E60606066
:104630007E6060607E000000000000007E606060C0
:104640007E60606060000000000000001E6040406E
:10465000CE4242623E000000000000004242424260
:104660007E42424242000000000000007E181818FE
:10467000181818187E000000000000007C040404D4
:104680000404044478000000000000004244485044
:1046900070584C4442000000000000002020202000
:1046A000202020203E000000000000006266675FBE
:1046B0005B5BC1C1C1000000000000006262725279
:1046C0005A4A4E4646000000000000003C6243C3C8
:1046D000C3C343623C000000000000007C4642422D
:1046E0004678404040000000000000003C6243C3A8
:1046F000C3C343623C180F00000000007C66626682
:104700007C6C646662000000000000003E60406057
:104710001C0602027C000000000000007F18181830
:104720001818181818000000000000004242424209
:10473000424242623C00000000000000C14342626D
:104740002624341C1800000000000000C1C14149AB
:104750005B5B76666600000000000000436634186C
:10476000181C2466C300000000000000C14266342B
:104770001C18181818000000000000007E02040C2D
:10478000181020607E0000000000001C10101010A7
:10479000101010101010101C0000004020201010ED
:1047A00008080C04060200000000003C0C0C0C0C75
:1047B0000C0C0C0C0C0C0C3C00000000181C2462AF
:1047C00000000000000000000000000000000000E9
:1047D00000000000000000FF0000002010000000AA
:1047E00000000000000000000000000000003C0687
:1047F000023E42467A0000000000004040405C62F9
:10480000424242427C0000000000000000001E20E6
:10481000604060203E0000000000000202023E6294
:10482000424242663A0000000000000000003C6284
:10483000427E40603E0000000000000F1810107E15
:1048400010101010100000000000000000003F6673
:10485000426658403E43423C0000004040405C629B
:10486000424242424200000000000018180078084E
:10487000080808087E000000000000040C007C040A
:104880000404040404040C78000000606060626C9E
:10489000787068646200000000000078080808086A
:1048A000080808087E000000000000000000764BA9
:1048B0004B4B4B4B4B0000000000000000005C62C3
:1048C00042424242420000000000000000003C6200
:1048D000424342623C0000000000000000005C62B5
:1048E000424242427C4040400000000000003E62E4
:1048F000424242663A0202020000000000006E726C
:1049000063606060600000000000000000003E2066
:10491000203C06027C000000000000001010FE1089
:10492000101010101E0000000000000000004242A5
:10493000424242663A00000000000000000043428C
:104940006624341818000000000000000000C1C1F7
:104950005B5A5E66660000000000000000006226F0
:104960001C181C26620000000000000000004342EA
:104970006624341C181830E00000000000007E0699
:104980000C1810207E0000000000000E18101010FF
:10499000307010101010180E0000080808080808E1
:1049A0000808080808080808000000301808080867
:1049B0000C0E080808081830000000000000000075
:1049C000714B060000000000000000000000000025
:1049D00000000000000000000000000000000000D7
:1049E00000000000000000000000000000000000C7
:1049F00000000000000000000000000000000000B7
:104A000000000000000000000000000000000000A6
:104A1000000000000380038001800180018001808C
:104A2000018001800180018001800180018001807E
:104A300000000000038003C00380000000000000AD
:104A40000000000000000000000000000000000066
:104A5000000000000E700E700E700E700E700C30A4
:104A60000C3000000000000000000000000000000A
:104A70000000000000000000000000000000000036
:104A80000000000000000000000000000000000026
:104A9000000000000000000006180638063006304E
:104AA0007FFE7FFE0C300C300C300C307FFE7FFE22
:104AB0000C601C60186018601860000000000000A6
:104AC00000000000000000000000000000000000E6
:104AD000000000C000C000C007F81FF838C031C097
:104AE000318039803D801F8007F001F803BC031C32
:104AF000030C031C233C3FF83FE0070006000600C0
:104B000000000000000000000000000000000000A5
:104B1000000000001C077E06630C631863386330D6
:104B20007E603CE000C0018003800338067E0CC636
:104B30001CC618C630C670EE607C00000000000085
:104B40000000000000000000000000000000000065
:104B50000000000000000FC01FE0187038703870AF
:104B600018701CE00FC00F003F8C3B8C71CC60ECC8
:104B7000607C7038707C3FFE1FCF0000000000009A
:104B80000000000000000000000000000000000025
:104B90000000000003C003C0038001800180018089
:104BA0000180000000000000000000000000000084
:104BB00000000000000000000000000000000000F5
:104BC00000000000000000000000000000000000E5
:104BD000000000000030006000E001C0038003001E
:104BE0000700070006000E000E000E000E000E006B
:104BF0000E000600070007000380038001C000E0EC
:104C00000070003000000000000000000000000004
:104C1000000000000C000E000700038001C001C06E
:104C200000E000E000600070007000700070007034
:104C30000060006000E000E001C001C003800700E8
:104C40000E000C000000000000000000000000004A
:104C50000000000001800180018819980FF803C04E
:104C600003C01FF819980180018001800000000036
:104C70000000000000000000000000000000000034
:104C80000000000000000000000000000000000024
:104C90000000000000000000000000000000018093
:104CA000018001800180018001807FFE7FFE018004
:104CB00001800180018001800000000000000000F0
:104CC00000000000000000000000000000000000E4
:104CD00000000000000000000000000000000000D4
:104CE00000000000000000000000000000000000C4
:104CF0000000038003C003C001C001C001C00780E1
:104D00001F00100000000000000000000000000074
:104D10000000000000000000000000000000000093
:104D2000000000000000000000000FF00FF0000085
:104D30000000000000000000000000000000000073
:104D40000000000000000000000000000000000063
:104D50000000000000000000000000000000000053
:104D60000000000000000000000000000000000043
:104D7000000003C003C003C003C000000000000027
:104D80000000000000000000000000000000000023
:104D900000000000001C00180038003000700060A7
:104DA000006000C000C001C0018003800300070054
:104DB00006000E000C000C0018001800380030002F
:104DC00000000000000000000000000000000000E3
:104DD000000000000000000007F01FF81838381C21
:104DE000300C303C707E71EE73CE7F0E7E0E380C30
:104DF000300C381C1C381FF007E0000000000000D9
:104E000000000000000000000000000000000000A2
:104E1000000000000000000003C00FC03FC039C008
:104E200001C001C001C001C001C001C001C001C07A
:104E300001C001C001C03FFC3FFC000000000000B9
:104E40000000000000000000000000000000000062
:104E500000000000000000000FE03FF018380038AC
:104E60000018001800380030007000E001C0038016
:104E700007000E001C003FFC3FFC0000000000008B
:104E80000000000000000000000000000000000022
:104E900000000000000000001FE01FF00038003894
:104EA00000380038007007E007F00078001C001C94
:104EB000001C001C00383FF03FC000000000000054
:104EC00000000000000000000000000000000000E2
:104ED000000000000000000000F001F001B003300D
:104EE000073006300C301C303830303070307FFEE8
:104EF0007FFE003000300030003000000000000075
:104F000000000000000000000000000000000000A1
:104F100000000000000000001FF81FF81800180033
:104F20001800180018001FE01FF80038001C001CB3
:104F3000001C001800381FF01FC000000000000017
:104F40000000000000000000000000000000000061
:104F5000000000000000000001F807F80E001C002F
:104F60001800380031C03FF83E3C301C300C300C8B
:104F7000380C380C1C1C1FF807E000000000000073
:104F80000000000000000000000000000000000021
:104F900000000000000000003FFC3FFC001C001867
:104FA000003800300070006000E000C001C00180E7
:104FB0000380070007000E000E0000000000000044
:104FC00000000000000000000000000000000000E1
:104FD00000000000000000000FF01E78381C381C94
:104FE000381C3C181E780FE007E01E783C3C381C4B
:104FF000300C300C381C1FF80FF0000000000000CF
:1050000000000000000000000000000000000000A0
:1050100000000000000000000FE01E783838301C4F
:10502000701C700C300C381C3EFC0FEC001C001C7B
:105030000018003800F01FE01F0000000000000012
:105040000000000000000000000000000000000060
:105050000000000000000000000000000000000050
:1050600003C003C003C00180000000000000000076
:105070000000018003C003C003C000000000000066
:105080000000000000000000000000000000000020
:105090000000000000000000000000000000000010
:1050A00003C003C003C00180000000000000000036
:1050B000000003C003C003C001C001C001C00780DD
:1050C0000F000000000000000000000000000000D1
:1050D0000000000000000000000000000010003888
:1050E000007001E003C007000E003C001C000E0031
:1050F000078001C000E00078001000000000000000
:10510000000000000000000000000000000000009F
:10511000000000000000000000000000000000008F
:105120000000000000003FFC0000000000003FFC09
:105130003FFC000000000000000000000000000034
:10514000000000000000000000000000000000005F
:1051500000000000000000000000000008001C002B
:105160000E00070003C000E00070003C0038007033
:1051700001E0038007001E0008000000000000009E
:10518000000000000000000000000000000000001F
:10519000000000000E000FC003E00070003800386F
:1051A00000380038007803F003C003000300030058
:1051B000000000000700078007000000000000005A
:1051C00000000000000000000000000000000000DF
:1051D0000000000001E007F80E1C1C0E1806300647
:1051E000300361F363F36633E673CE63CC63CC665E
:1051F000CC66CCE6CFFCC73C6000600060003000AD
:105200003C301FF000000000000000000000000023
:10521000000000000000000003C003C007E006E03B
:1052200006600E700C700C301C381838381C3FFCAF
:105230003FFC700E700E6006E007000000000000EA
:10524000000000000000000000000000000000005E
:1052500000000000000000003FF03FF83838381C24
:10526000381C381838383FF03FF0383C381C380CC0
:10527000380C381C383C3FF83FE0000000000000CC
:10528000000000000000000000000000000000001E
:10529000000000000000000007FC0FFC1E003800AA
:1052A0003800300070007000700070007000300036
:1052B00038003C001E040FFC03FC0000000000004E
:1052C00000000000000000000000000000000000DE
:1052D00000000000000000003FE03FF03038301CCC
:1052E000300C300E300E300E300E300E300E300CD2
:1052F000301C301C30783FF03F8000000000000080
:10530000000000000000000000000000000000009D
:1053100000000000000000001FF81FF8180018002F
:105320001800180018001FF81FF8180018001800BF
:105330001800180018001FF81FF8000000000000F7
:10534000000000000000000000000000000000005D
:1053500000000000000000001FF81FF818001800EF
:105360001800180018001FF81FF81800180018007F
:1053700018001800180018001800000000000000B5
:10538000000000000000000000000000000000001D
:10539000000000000000000007FC0FFC1C003800AB
:1053A00030007000700070FC70FC700C700C700CA1
:1053B000300C380C1C0C0FFC07FC00000000000037
:1053C00000000000000000000000000000000000DD
:1053D0000000000000000000300C300C300C300CDD
:1053E000300C300C300C3FFC3FFC300C300C300CDF
:1053F000300C300C300C300C300C00000000000081
:10540000000000000000000000000000000000009C
:1054100000000000000000003FFC3FFC0180018014
:105420000180018001800180018001800180018074
:105430000180018001803FFC3FFC00000000000073
:10544000000000000000000000000000000000005C
:1054500000000000000000001FF01FF000300030CE
:1054600000300030003000300030003000300030BC
:105470000030003010701FE01FC00000000000006E
:10548000000000000000000000000000000000001C
:105490000000000000000000381C3838387038E088
:1054A00038C039803B003F003F003B003B8039C0A3
:1054B00038E038703838383C381C000000000000F4
:1054C00000000000000000000000000000000000DC
:1054D00000000000000000001C001C001C001C005C
:1054E0001C001C001C001C001C001C001C001C00DC
:1054F0001C001C001C001FFC1FFC00000000000022
:10550000000000000000000000000000000000009B
:105510000000000000000000381C381C6C3E6C3E8F
:105520006C6E666E666E67CE63CE6386618660065D
:10553000600660066006600660060000000000006D
:10554000000000000000000000000000000000005B
:105550000000000000000000380C3C0C3C0C3E0C2D
:10556000360C370C330C338C318C31CC30CC30ECE6
:10557000306C307C303C303C301C000000000000BF
:10558000000000000000000000000000000000001B
:1055900000000000000000000FF01FF8381C381C4D
:1055A000700E700E700E600660066006700E700E53
:1055B000700C381C3C381FF80FE0000000000000A1
:1055C00000000000000000000000000000000000DB
:1055D00000000000000000003FE03FF8383C381CAD
:1055E000380C380C380C381C38783FF03FC0380085
:1055F0003800380038003800380000000000000093
:10560000000000000000000000000000000000009A
:1056100000000000000000000FF01FF8381C381CCC
:10562000700E700E700E600660066006700E700ED2
:10563000700C381C3C381FF80FE00180018001E23B
:1056400000FF003C0000000000000000000000001F
:1056500000000000000000003FE03FF83838381834
:105660003818381838383FF03FC039E038603870A3
:1056700038383838381C381C380E0000000000005C
:10568000000000000000000000000000000000001A
:1056900000000000000000000FF81FF8380038007C
:1056A000300038001E000F8007F000F8003C001C9E
:1056B000001C001C003C3FF83FE000000000000020
:1056C00000000000000000000000000000000000DA
:1056D00000000000000000007FFE7FFE01800180CE
:1056E00001800180018001800180018001800180B2
:1056F0000180018001800180018000000000000025
:105700000000000000000000000000000000000099
:105710000000000000000000300C300C300C300C99
:10572000300C300C300C300C300C300C300C300C99
:10573000300C301C381C1FF80FE000000000000087
:105740000000000000000000000000000000000059
:105750000000000000000000E0077006700E700EF0
:10576000380C381C38181C181C380C300E700E7091
:10577000066007E007E003C003C00000000000006F
:105780000000000000000000000000000000000019
:105790000000000000000000600660066006600671
:1057A00060066006618663C673C673CE76EE366C9D
:1057B000366C3C7C3C3C3C3C381C0000000000004B
:1057C00000000000000000000000000000000000D9
:1057D0000000000000000000700E381C1C381C384F
:1057E0000E7006E007E003C003C003C007E00E70C0
:1057F0001C301C38381C701E700E000000000000A9
:105800000000000000000000000000000000000098
:105810000000000000000000E006700E380C381C8C
:105820001C381C300E70066007E003C00180018048
:1058300001800180018001800180000000000000E3
:105840000000000000000000000000000000000058
:1058500000000000000000003FFC3FFC001C00387E
:105860000070006000E001C00380038007000E00AC
:105870000C001C0038003FFC3FFC00000000000052
:105880000000000000000000000000000000000018
:105890000000000007F007F0060006000600060002
:1058A00006000600060006000600060006000600C8
:1058B00006000600060006000600060006000600B8
:1058C000060007F0000000000000000000000000DB
:1058D00000000000380018001C000C000C0006003E
:1058E0000600070003000380018001C000C000E043
:1058F000006000600030003000380018001C000C10
:105900000000000000000000000000000000000097
:10591000000000000FE00FE0006000600060006029
:105920000060006000600060006000600060006077
:105930000060006000600060006000600060006067
:1059400000600FE000000000000000000000000008
:105950000000000000000000038003C006E00660B5
:105960000C301C381818301C00000000000000002B
:105970000000000000000000000000000000000027
:105980000000000000000000000000000000000017
:105990000000000000000000000000000000000007
:1059A00000000000000000000000000000000000F7
:1059B00000000000000000000000000000000000E7
:1059C000FFFFFFFF000000000000000000000000DB
:1059D000000000001C000E00070001800000000015
:1059E00000000000000000000000000000000000B7
:1059F00000000000000000000000000000000000A7
:105A00000000000000000000000000000000000096
:105A10000000000000000000000000000000000086
:105A20001FF01EF80018001C001C07FC1FFC3C1C8B
:105A3000381C301C387C3FFC1FDC000000000000DC
:105A40000000000000000000000000000000000056
:105A500000000000380038003800380038003800F6
:105A60003BF03FF83E1C380C380C380C380C380C26
:105A7000380C381C38383FF01FE0000000000000F0
:105A80000000000000000000000000000000000016
:105A90000000000000000000000000000000000006
:105AA00003F80FF81E001C003800380038003800DA
:105AB00038001C001E000FF803F800000000000072
:105AC00000000000000000000000000000000000D6
:105AD00000000000001C001C001C001C001C001C1E
