:020000040800F2
:100000003098002055020008011F00087F1B0008DF
:10001000FD1E0008EF080008F12A0008000000009B
:100020000000000000000000000000009D0100082A
:100030003109000800000000F1010008031F00085A
:100040006F0200086F0200086F0200086F020008CC
:100050006F0200086F020008330900086F020008F1
:100060006F0200086F0200086F0200086F020008AC
:100070006F0200086F0200086F0200086F0200089C
:100080006F0200086F0200086F0200086F0200088C
:100090006F0200086F0200086F0200086F0200087C
:1000A0006F0200086F0200086F0200086F0200086C
:1000B0006F0200086F0200086F0200086F0200085C
:1000C0006F0200086F0200086F0200086F0200084C
:1000D0006F0200086F0200086F0200086F0200083C
:1000E0006F0200086F0200086F0200086F0200082C
:1000F0006F0200086F0200083D2000086F02000830
:100100006F0200086F0200086F0200086F0200080B
:100110006F0200086F0200086F0200086F020008FB
:100120006F0200086F0200086F0200086F020008EB
:100130006F0200086F0200086F0200086F020008DB
:100140006F0200086F0200086F0200086F020008CB
:100150006F0200086F0200086F0200086F020008BB
:100160006F0200086F0200086F0200086F020008AB
:100170006F0200086F0200086F0200080000000014
:100180006F0200086F020008DFF80CD000F0A6FA3A
:10019000004800473D340008309800202A4B196879
:1001A0000868B0E8F04F80F30988BFF36F8F4FF015
:1001B000000080F3118870470000000006480068C6
:1001C000006880F3088862B661B6BFF34F8FBFF353
:1001D0006F8F00DF00BF00BF08ED00E0DFF80C000C
:1001E000016841F470010160704700BF88ED00E0D4
:1001F000EFF30980BFF36F8F134B1A681EF0100FD7
:1002000008BF20ED108A20E9F04F106008B44FF0CD
:10021000500080F31188BFF34F8FBFF36F8F03F04F
:10022000D3FF4FF0000080F3118808BC19680868FC
:10023000B0E8F04F1EF0100F08BFB0EC108A80F34A
:100240000988BFF36F8F704728000020EFF3058007
:10025000704700000648804706480047FEE7FEE773
:10026000FEE7FEE7FEE7FEE7FEE7FEE7FEE7FEE766
:10027000D91F0008890100082DE9F05F054600201C
:1002800092469B4688460646814640241BE0284607
:1002900041464746224600F058F853465A46C01A8F
:1002A000914110D311461846224600F03FF82D1A0E
:1002B00067EB01084F4622460120002100F036F886
:1002C00017EB00094E41201EA4F10104DFDC484673
:1002D00031462A464346BDE8F09F00F0004230F028
:1002E00000400AD0C10D01F56071C0F3160042EA6A
:1002F0000151C20840071143704700200146704772
:1003000030B50B46014600202022012409E021FAE5
:1003100002F59D4205D303FA02F5491B04FA02F5E2
:100320002844151EA2F10102F1DC30BD202A04DBB5
:10033000203A00FA02F1002070479140C2F12003F8
:1003400020FA03F3194390407047202A04DB203A37
:1003500021FA02F00021704721FA02F3D040C2F1E5
:10036000200291400843194670472DE9FE4F804610
:1003700081EA0300C00F0C46009021F0004123F0F9
:100380000045B8EB0200A94105D2404621469046FF
:100390001C460B46024623F00040104347D0270D71
:1003A000C7F30A00C3F30A510290401A0190402893
:1003B0006BDAC3F3130040F4801B0098924620B11F
:1003C0000023D2EB030A63EB0B0B01985946C0F1F3
:1003D00040025046FFF7AAFF06460D4650465946D2
:1003E000019A00F08DF910EB08006141002487EAC2
:1003F000115284EAE7731A4340D0009A62B3019A1B
:10040000012A4FEA075215DC001B61EB02014FF095
:10041000004202EA0752CDE90042001C41F580117A
:1004200032462B4600F08DF903B0BDE8F08F404610
:100430002146F9E7001B61EB0201001C41F5801326
:1004400000185B412018A2F5001747EB030140EAB2
:10045000D570B6196D4111E06D084FEA360645EAD0
:10046000C0754FEA0752001B61EB0201001C41F509
:10047000801149084FEA30000019514132462B469D
:1004800003B0BDE8F04F00F04DB9009801224000E4
:100490000023D0EB020263EBE073009821464FEAA1
:1004A000E074B8EB000061EB0401E9E783F000437E
:1004B0005BE781F0004158E72DE9FE4F81EA030434
:1004C00004F0004421F0004100944FF0000B23F0B1
:1004D000004350EA01045ED052EA03045BD0C3F348
:1004E0000A54C1F30A552C44A4F2F3340194A0FB3E
:1004F0000254C1F3130141F48011C3F3130343F415
:10050000801301FB024400FB034E840A970A44EA6D
:10051000815447EA8357A4FB076802958D0A05FBBF
:1005200007854FEA932C04FB0C542705029D4FEAE4
:10053000065847EA1637B5EB08056EEB070C870E31
:10054000920E47EA811742EA8312A7FB0201B6EB3B
:100550000B0164EB00042B0D43EA0C335E1844EBF3
:100560001C50DA465146E7FB0201C5F313044FEA7B
:100570000B3343EA14534FEA0432019C43EA060367
:10058000A4F10C040294009CCDE900B400F0D9F869
:1005900003B0BDE8F08F00200146F9E72DE9F04DEA
:1005A00081EA030404F0004B21F0004514464FF0AB
:1005B000000A23F0004150EA050220D054EA01026B
:1005C0001DD0C5F30A570246C5F31303C1F3130048
:1005D000C1F30A5640F4801543F48013A7EB0608D4
:1005E000101BD64608F2FD3873EB050002D308F164
:1005F000010801E092185B41B8F1000F03DA002016
:100600000146BDE8F08D00204FF480110646844677
:100610000EE0171B73EB050705D3121B63EB0503F5
:1006200006434CEA010C49084FEA300092185B413E
:1006300050EA0107EDD152EA030012D082EA040029
:1006400083EA0501084305D0101BAB4106D2012205
:10065000002306E000224FF0004302E06FF00102A9
:1006600053101AEB06004CEB085110EB0A0041EB5B
:100670000B01BDE8F04D00F055B8C1F30A52C1F3CB
:10068000130140F2FF3341F480119A4202DA002054
:100690000146704740F233439A42A2F2334202DCF1
:1006A0005242FFF752BEFFF741BE000030B5041EB4
:1006B00071F1000404DB4FF00044404264EB01019F
:1006C000141E73F1000405DB1C464FF00043524238
:1006D00063EB0403994208BF904230BD064C074DBE
:1006E00006E0E06840F0010394E807009847103402
:1006F000AC42F6D3FFF74CFD204700084047000806
:10070000202A06DBCB17203A41FA02F043EAE073D5
:1007100006E041FA02F3D040C2F1200291400843C2
:100720001946704710B5141E73F1000408DA401C16
:1007300041F1000192185B411A4301D120F0010000
:1007400010BD2DE9F04D92469B4611B1B1FA81F2F0
:1007500002E0B0FA80F220329046FFF7E7FD04464F
:100760000F4640EA0A0041EA0B0153465A46084345
:1007700013D0114653EA010019D0C8F14002504687
:10078000FFF7E3FD05460E46504659464246FFF741
:10079000CDFD084305D0012004E020463946BDE8E0
:1007A000F08D0020054346EAE0762C4337430A9853
:1007B0006305E40AA0EB08000022FD0A44EA47545E
:1007C0000A3002D500200146E9E701051019694108
:1007D000DDE9084500196941BDE8F04DA2E70000D8
:1007E0001CB5012403F014FA1648022100230A0262
:1007F000CDE9001014A1174803F002FE04461CB115
:1008000015A002F077F902E019A002F073F91E4872
:10081000032100234FF40072CDE900101BA11E48F4
:1008200003F0EEFD04461CB11CA002F063F902E0E7
:1008300020A002F05FF92548006803F007FB03F0F1
:1008400029FA1CBD140000204C45445F5461736BB1
:1008500000000000351E00084C45445F5461736B76
:10086000C8CECEF1B4B4BDA8B3C9B9A6210A000060
:100870004C45445F5461736BC8CECEF1B4B4BDA88F
:10088000CAA7B0DC210A0000180000204B45595FC0
:100890005461736B00000000851B0008B4B4BDA850
:1008A0004B45595F5461736BC8CECEF1B3C9B9A63D
:1008B000210A0000B4B4BDA84B45595F5461736B65
:1008C000C8CECEF1CAA7B0DC210A0000100000207B
:1008D00010B501F021FB032000F0C0F901F030FA5F
:1008E00001F0A0F900F006F801F0C3FE10BD00BF52
:1008F000FEE7000010B50C480C4908604FF4E130E9
:100900004860002109488160C160016181610C215A
:10091000416101F038F805480068C06840F02000E7
:1009200002490968C86010BD001001408C00002019
:1009300070477047F8B502460B460025002400209A
:100940000021DCE0012606FA01F51E6806EA05042E
:10095000AC4273D15E68022E02D05E68122E13D1B3
:10096000CF0802F1200656F827004E07F70E0F2693
:10097000BE40B0434F07FF0E1E69BE403043CF0854
:1009800002F1200646F8270010684F000326BE40FB
:10099000B0431E7906F003064F00BE40304310609E
:1009A0005E68012E08D05E68022E05D05E68112EAA
:1009B00002D05E68122E13D190684F000326BE400D
:1009C000B0434F00DE68BE4030439060506801265F
:1009D0008E40B0431E79C6F300168E4030435060FF
:1009E000D0684F000326BE40B0434F009E68BE4013
:1009F0003043D0605E6806F08056B6F1805F7DD1EE
:100A000000BF00260096404E366846F480463E4FB2
:100A10003E603E46366806F48046009600BF00BF42
:100A20003A4E8F0856F827008E07370F0F26BE4024
:100A3000B043374EB24202D1002624E05EE0354E8C
:100A4000B24201D101261EE0334EB24201D102264C
:100A500019E0324EB24201D1032614E0304EB242C8
:100A600001D104260FE02F4EB24201D105260AE043
:100A70002D4EB24201D1062605E02C4EB24201D1E4
:100A8000072600E008268F073F0FBE4030431F4E69
:100A90008F0846F82700264E3068A0435E6806F4AB
:100AA0008036B6F5803F00D12043214E3060361DA0
:100AB0003068A0435E6806F40036B6F5003F00D10A
:100AC00020431B4E361D3060361D3068A0435E68E3
:100AD00006F48016B6F5801F00D12043144E083668
:100AE0003060361D3068A0435E6806F40016B6F527
:100AF000001F00D120430E4E0C363060491C1029D7
:100B0000FFF420AFF8BD000044380240083801402F
:100B1000000002400004024000080240000C0240B5
:100B2000001002400014024000180240001C024065
:100B3000003C0140024613690B400BB1012000E06C
:100B40000020704701480068000C7047002004E056
:100B50000148006870470000040000200348006856
:100B600003490978084401490860704704000020DF
:100B70000C00002070B504460E4800784FF47A71DE
:100B8000B1FBF0F00C490968B1FBF0F5284600F024
:100B9000DBFB08B1012070BD102C07D200222146DA
:100BA000501E00F01DF80548046001E00120F2E746
:100BB0000020F0E70C0000200000002008000020CA
:100BC00001460846002809DB00F01F0301229A4075
:100BD00043099B0003F1E023C3F8002100BF7047E5
:100BE0002DE9F05F80460D461646002701F092FF82
:100BF000074639462A46334601F00700C0F1070A86
:100C0000BAF1040F02D94FF0040A01E0C0F1070A5B
:100C1000D14600F1040ABAF1070F02D24FF0000AE0
:100C200001E0A0F1030AD4464FF0010A0AFA09FADA
:100C3000AAF1010A0AEA020A0AFA0CFA4FF0010BB9
:100C40000BFA0CFBABF1010B0BEA030B4AEA0B04AA
:100C50002146404601F066FFBDE8F09F00BF00F06E
:100C60000702064B19684FF6FF031940044B0B436C
:100C700043EA0221014B196000BF70470CED00E010
:100C80000000FA0570B504460D460CB9012070BD90
:100C90005848006800F00F00A84209D255490D706D
:100CA0000846006800F00F00A84201D00120EEE7DE
:100CB000207800F0020002281DD1207800F0040006
:100CC000042805D14C48006840F4E0504A490860C7
:100CD000207800F00800082805D14748006840F453
:100CE0006040454908604448006820F0F000A16871
:100CF000084341490860207800F00100A8B360680B
:100D0000012807D13C4808380068C0F34040B8B912
:100D10000120BCE76068022802D06068032807D180
:100D2000354808380068C0F3406048B90120AEE794
:100D3000314808380068C0F3400008B90120A6E730
:100D40002D48006820F00300616808432A490860C4
:100D5000FFF7FEFE064609E0FFF7FAFE801B41F2B0
:100D60008831884202D9032091E707E022480068D1
:100D700000F00C006168B0EB810FEDD11D480068F8
:100D800000F00F00A84209D91A490D700846006802
:100D900000F00F00A84201D0012078E7207800F091
:100DA0000400042807D11448006820F4E050E168EA
:100DB000084311490860207800F00800082808D18D
:100DC0000D48006820F46040216940EAC1000A49EA
:100DD000086000F03DF808490968C1F30311074AAB
:100DE000515CC840064908600F20FFF7C3FE002091
:100DF0004DE70000003C0240083802400847000868
:100E0000000000200148006870470000000000203A
:100E100000B5FFF7F7FF04490968C1F38221034ACF
:100E2000515CC84000BD0000083802401847000867
:100E300000B5FFF7E7FF04490968C1F34231034AEF
:100E4000515CC84000BD0000083802401847000847
:100E50002DE9F047002400250026A146254800681A
:100E600000F00C0020B1042805D008283AD105E094
:100E7000DFF8849039E0DFF8849036E01D48001FE9
:100E8000006800F03F041B48001F006800F4800069
:100E900078B11A481749091F0968C1F38811A0FBE6
:100EA00001700146224600233846FFF7E5F9054662
:100EB0000EE011480F49091F0968C1F38811A0FB12
:100EC00001700146224600233846FFF7D5F9054652
:100ED0000848001F0068C0F30140401C4600B5FBF5
:100EE000F6F902E0DFF8109000BF00BF4846BDE809
:100EF000F0870000083802400024F40040787D01AB
:100F0000F8B504460CB90120F8BD207800F00100C6
:100F1000002874D0F948006800F00C0004280DD0B7
:100F2000F648006800F00C00082813D1F348001FB1
:100F3000006800F48000B0F5800F0BD1EF4808384E
:100F40000068C0F34040002859D06068002856D19E
:100F50000120D9E700BF6068B0F5803F08D1E748BD
:100F60000838006840F48030E449083908601EE021
:100F70006068B0F5A02F0DD1E0480838006840F453
:100F80008020DE49083908600846006840F4803057
:100F900008600CE0D9480838006820F48030D74950
:100FA000083908600846006820F48020086000BF07
:100FB000606890B1FFF7CCFD054606E0FFF7C8FD7D
:100FC000401B642801D903209EE7CC4808380068FC
:100FD000C0F340400028F1D011E0FFF7B9FD05460D
:100FE00006E0FFF7B5FD401B642801D903208BE71D
:100FF000C24808380068C0F340400028F1D120788A
:1010000000F0020002285FD1BC48006800F00C002C
:1010100058B1BA48006800F00C0008281CD1B74845
:10102000001F006800F48000B0B9B44808380068B8
:10103000C0F3400020B1E068012801D0012063E73F
:10104000AE480838006820F0F800216940EAC10085
:10105000AA490839086037E0E06800B30120A849D0
:101060000860FFF775FD054606E0FFF771FD401BC0
:10107000022801D9032047E7A04808380068C0F3D8
:1010800040000028F1D09D480838006820F0F800A2
:10109000216940EAC10099490839086014E000203C
:1010A00097490860FFF754FD054606E0FFF750FD3D
:1010B000401B022801D9032026E790480838006821
:1010C000C0F340000028F1D1207800F00800082883
:1010D0002CD16069A8B101208A490860FFF738FD6A
:1010E000054606E0FFF734FD401B022801D9032026
:1010F0000AE782486C300068C0F340000028F1D055
:1011000014E000207F490860FFF722FD054606E055
:10111000FFF71EFD401B022801D90320F4E67748A3
:101120006C300068C0F340000028F1D1207800F056
:101130000400042870D1002670483830006800F0A0
:10114000805090B900BF002000906C483830006893
:1011500040F080506949383108600846006800F066
:101160008050009000BF00BF01266748006800F46F
:101170008070B0B96448006840F4807062490860CB
:10118000FFF7E6FC054606E0FFF7E2FC401B0228FD
:1011900001D90320B8E65C48006800F4807000289C
:1011A000F2D000BFA068012808D154486830006818
:1011B00040F001005149683108601DE0A068052831
:1011C0000DD14E486830006840F004004B4968314A
:1011D00008600846006840F0010008600CE04748DD
:1011E0006830006820F00100444968310860084612
:1011F000006820F00400086000BFA068A8B1FFF7F5
:10120000A7FC054609E0FFF7A3FC401B41F288312B
:10121000884202D9032077E626E038486830006823
:10122000C0F340000028EED013E0FFF791FC054624
:1012300008E0FFF78DFC401B41F28831884201D95C
:10124000032061E62D4868300068C0F340000028A4
:10125000EFD1012E07D129483830006820F08050A6
:1012600026493831086000BFA069B8B32348006838
:1012700000F00C0008285ED0A069022846D10020AA
:101280001F490866FFF764FC054606E0FFF760FCAF
:10129000401B022801D9032036E6184808380068A8
:1012A000C0F340600028F1D1D4E907010843616A26
:1012B00040EA81110122A06AC2EB500041EA0041DC
:1012C0002C20005D41EA00600C49091F08600120E4
:1012D0000B490866FFF73CFC054607E02DE0FFF7E9
:1012E00037FC401B022801D903200DE603480838CB
:1012F0000068C0F340600028F1D01EE008380240CA
:1013000000004742800E47420070004000200C4918
:101310000866FFF71DFC054606E0FFF719FC401BB9
:10132000022801D90320EFE506480068C0F34060B9
:101330000028F2D101E00120E6E50020E4E500000C
:10134000000047420038024070B504462546681E3A
:10135000B0F1807F01D301200FE0681E4FF0E02143
:1013600048610F214FF0FF3001F0DCFB00204FF00F
:10137000E021886107200861002070BD7047704738
:1013800010B50446207F01283CD100211E4800F002
:10139000AAFA1E49088004211B4800F0A4FA1C493F
:1013A00008801A48008818B308460088401C642149
:1013B000484300EE100AF8EEC00A14480088401CAA
:1013C00000EE100AB8EEC00A80EE801A114880EDD7
:1013D000001A0E480088401C00EE100AB8EEC00A41
:1013E000DFED0D0A80EE801A0C4880ED001A09E04E
:1013F0009FED0B0A074880ED000A9FED090A074898
:1014000080ED000A10BD00000C0100201E0000202D
:101410001C0000202000002000247449240000202B
:10142000000000002DE9F04104460D46164600BFBD
:1014300094F83C00012802D10220BDE8F08101208F
:1014400084F83C0000BF022084F83D0096B9EB68A8
:10145000D5E90012206801F059F82068806920F071
:101460000C002168886120688069A96808432168A8
:1014700088613DE0042E13D1EB68D5E900122068A5
:1014800001F0A0F82068806920F44060216888613C
:1014900020688069A96840EA01202168886127E006
:1014A000082E12D1EB68D5E90012206801F0A7F8E8
:1014B0002068C06920F00C002168C8612068C069FC
:1014C000A96808432168C86112E0EB68D5E90012F9
:1014D000206801F0B0F82068C06920F440602168FD
:1014E000C8612068C069A96840EA01202168C86114
:1014F000012084F83D0000BF002084F83C0000BFBC
:1015000000BF9AE710B504460CB9012010BD94F84D
:101510003D0028B9002084F83C00204600F00CF87B
:10152000022084F83D00211D206800F08FFD01207D
:1015300084F83D000020E9E7704770B504460D4689
:1015400035B1042D0BD0082D10D00C2D1CD114E07A
:101550002068C06840F002002168C86015E020687B
:10156000C06840F004002168C8600EE02068C068D0
:1015700040F008002168C86007E02068C06840F0BB
:1015800010002168C86000E000BF00BF01222946AA
:10159000206800F0C7FD2068806800F00706062E6E
:1015A00005D02068006840F0010021680860002034
:1015B00070BD10B5044620680069C0F34000D8B182
:1015C0002068C068C0F34000B0B16FF0020021682D
:1015D0000861012020772068806900F0030018B1BD
:1015E0002046FFF7CDFE05E0204600F0ADF820468E
:1015F00000F04AF90020207720680069C0F38000DD
:10160000D8B12068C068C0F38000B0B16FF00400AA
:1016100021680861022020772068806900F440700A
:1016200018B12046FFF7ACFE05E0204600F08CF82C
:10163000204600F029F90020207720680069C0F3D7
:10164000C000D8B12068C068C0F3C000B0B16FF06E
:10165000080021680861042020772068C06900F034
:10166000030018B12046FFF78BFE05E0204600F08E
:101670006BF8204600F008F9002020772068006908
:10168000C0F30010D8B12068C068C0F30010B0B13A
:101690006FF0100021680861082020772068C06979
:1016A00000F4407018B12046FFF76AFE05E02046BE
:1016B00000F04AF8204600F0E7F800202077206884
:1016C000006900F0010058B12068C06800F0010016
:1016D00030B16FF0010021680861204600F002F986
:1016E00020680069C0F3C01058B12068C068C0F31A
:1016F000C01030B16FF08000216808612046FFF70C
:101700003DFE20680069C0F3801058B12068C068B1
:10171000C0F3801030B16FF04000216808612046AE
:1017200000F030F920680069C0F3401058B120681B
:10173000C068C0F3401030B16FF02000216808612C
:101740002046FFF71CFE10BD704770B504460D46DD
:10175000164600BF94F83C00012801D1022070BD5C
:10176000012084F83C0000BF022084F83D0036B11F
:10177000042E1BD0082E31D00C2E5ED145E0294618
:10178000206800F0EBFC2068806940F008002168C8
:1017900088612068806920F00400216888612068E1
:1017A0008069296908432168886147E029462068E3
:1017B00000F00CFD2068806940F4006021688861B9
:1017C0002068806920F480602168886120688069D1
:1017D000296940EA0120216888612FE029462068B4
:1017E00000F032FD2068C06940F008002168C8613F
:1017F0002068C06920F004002168C8612068C069C1
:10180000296908432168C86118E02946206800F06A
:1018100057FD2068C06940F400602168C8612068F5
:10182000C06920F480602168C8612068C0692969A6
:1018300040EA01202168C86100E000BF00BF01202C
:1018400084F83D0000BF002084F83C0000BF00BFCA
:1018500085E710B504460CB9012010BD94F83D0091
:1018600028B9002084F83C00204600F00CF8022043
:1018700084F83D00211D206800F0E8FB012084F879
:101880003D000020E9E770477047000070B504464E
:101890000E4601223146206800F044FC0F492068C2
:1018A000884203D00E492068884201D1012000E01F
:1018B000002028B12068406C40F400402168486452
:1018C0002068806800F00705062D05D020680068B4
:1018D00040F0010021680860002070BD0000014058
:1018E0000004014070470246002031B1042907D0AE
:1018F000082908D00C290CD108E01368586B09E0BE
:101900001368986B06E01368D86B03E01368186CD3
:1019100000E000BF00BF704770B504460D4600BF31
:1019200094F83C00012801D1022070BD012084F808
:101930003C0000BF022084F83D002946204600F00C
:101940007DFD48B1012084F83D0000BF002084F8EF
:101950003C0000BF0120E8E72068C06820F040009C
:101960002168C8602068C06820F480402168C86091
:10197000012084F83D0000BF002084F83C0000BF37
:1019800000BFD2E7704710B504460CB9012010BD66
:10199000A06900B100E000BF94F8390028B9002028
:1019A00084F83800204600F027F8242084F8390015
:1019B0002068C06820F400502168C860204600F00C
:1019C000ADFE2068006920F490402168086120681D
:1019D000406920F02A00216848612068C06840F40E
:1019E00000502168C8600020E063202084F839009E
:1019F00084F83A000020CAE710B586B0044600BF5C
:101A0000002000902648006840F01000244908603B
:101A10000846006800F01000009000BF00BF00BF43
:101A2000002000901E481438006840F002001C4955
:101A3000143908600846006800F00200009000BFFA
:101A400000BF00BF002000900846006840F0020080
:101A500008600846006800F00200009000BF00BF68
:101A60004020019002200290012003900320049066
:101A70000720059001A90B48FEF75CFF802001902C
:101A80000720059001A90748FEF754FF0122002115
:101A90002520FFF7A5F82520FFF792F806B010BD26
:101AA00044380240000402402DE9F84304460D4644
:101AB00016461F464FF0000994F8390020285CD1E3
:101AC00005B116B90120BDE8F88300BF94F83800CD
:101AD000012801D10220F6E7012084F8380000BF78
:101AE0000020E063212084F83900FFF731F88146B7
:101AF000A684E6842BE0E08C401EE084A068B0F56C
:101B0000805F16D14B46002280212046009700F0CE
:101B1000B9FF08B10320D6E7A846B8F80000C0F323
:101B2000080021684860206908B9AD1C0FE06D1CF1
:101B30000DE04B46002280212046009700F0A2FFD6
:101B400008B10320BFE715F8010B21684860E08C5D
:101B50000028D0D14B46002240212046009700F0BB
:101B600091FF08B10320AEE7202084F8390000BFC0
:101B7000002084F8380000BFA5E70220A3E700BFDB
:101B8000FEE7000023E00121114800F0C5F801281C
:101B900009D110A000F0AEFF1248006802F08AFAE6
:101BA00011A000F0A7FF4FF40051144800F0B4F862
:101BB000012809D112A000F09DFF0A48006802F038
:101BC000CDF913A000F096FF142002F003F9DAE734
:101BD00000000240B9D2C6F04C4544C8CECEF1A3B5
:101BE000A10A000014000020B9D2C6F04C4544C838
:101BF000CECEF1B3C9B9A6A3A10A000000080240E5
:101C0000BBD6B8B44C4544C8CECEF1A3A10A00005F
:101C1000BBD6B8B44C4544C8CECEF1B3C9B9A6A31F
:101C2000A10A000000B587B000BF0020019036482F
:101C3000006840F00100344908600846006800F080
:101C40000100019000BF00BF00BF002001900846C6
:101C5000006840F0040008600846006800F00400D6
:101C6000019000BF00BF00BF00200190084600683F
:101C700040F0400008600846006800F04000019015
:101C800000BF00BF00BF002001900846006840F080
:101C9000400008600846006800F04000019000BF66
:101CA00000BF00BF002001900846006840F04000DF
:101CB00008600846006800F04000019000BF00BFC7
:101CC0000120029000200390049002A90F48FEF723
:101CD00031FE4FF40050029002A90D48FEF72AFE93
:101CE0000420029002A90B48FEF724FE082002906F
:101CF00002A90848FEF71EFE1020029002A905481E
:101D0000FEF718FE07B000BD303802400000024068
:101D1000000802400018024070B504460D462946EE
:101D20002046FEF707FF012808D100BF29462046BC
:101D3000FEF700FF0128F9D0012070BD0020FCE76C
:101D400000B587B000BF002001903548006840F022
:101D50000100334908600846006800F00100019066
:101D600000BF00BF00BF002001900846006840F09F
:101D7000100008600846006800F01000019000BFE5
:101D800000BF00BF002001900846006840F04000FE
:101D900008600846006800F04000019000BF00BFE6
:101DA00000BF002001900846006840F00200086073
:101DB0000846006800F00200019000BF00BF4FF429
:101DC000004002900120039004900320059002A996
:101DD0001448FEF7AFFD0420029002A91248FEF756
:101DE000A9FD4FF40040029002A91048FEF7A2FDA1
:101DF0004FF48070029002A90D48FEF79BFD4FF44E
:101E00000040084988610420074988614003074968
:101E100018310860C01106491831086007B000BDCC
:101E2000303802400000024000100240001802401A
:101E3000000402402DED048B82B032E04FF4FA70C2
:101E400001F0C8FF174802881748018817A000F062
:101E500051FE1E4890ED000A10EE100AFEF73DFA02
:101E600041EC180B1A4890ED000A10EE100AFEF72C
:101E700034FA41EC190B8DED008B53EC192B15A0A6
:101E800000F038FE002008490880064908809FEDD0
:101E90001A0A0F4880ED000A9FED170A0B4880EDE3
:101EA000000ACBE71C0000201E00002049433156E9
:101EB000616C7565203D20256420204943325661C0
:101EC0006C7565203D202564200000002400002062
:101ED00020000020D5BCBFD5B1C8A3BA25302E3212
:101EE000662525202020C6B5C2CAA3BA25302E32C9
:101EF00066487A0A000000000000000000BFFEE70C
:101F0000704710B502F0ACFA012801D002F05EFA79
:101F1000FEF724FE10BD000000B593B000BF002006
:101F200001902A48006840F080502849086008461F
:101F3000006800F08050019000BF00BF00BF00208B
:101F400001902348006840F4804021490860084619
:101F5000006800F48040019000BF00BF01200290A3
:101F600000040390022008904105099119210A916B
:101F70004FF4A8710B9102210C9107210D9102A839
:101F8000FEF7BEFF08B100BFFEE70F200E90022053
:101F90000F90002010904FF4A05011904FF48050FB
:101FA000129005210EA8FEF76DFE08B100BFFEE7F6
:101FB000FEF7C8FD41F20101884205D105480068DD
:101FC00040F480700349086013B000BD40380240FF
:101FD00000700040003C02401448006840F470006B
:101FE000124908601248006840F00100104908607A
:101FF00000200F49083108600D4800680D4908406D
:102000000B4908600C48091D0860081F006820F48F
:102010008020091F0860002005490C3108604FF03E
:1020200000600249803908607047000088ED00E0D8
:1020300000380240FFFFF6FE1030002410B50248C1
:10204000FFF7B7FA10BD00000C01002010B50268C0
:10205000294B98420ED0B0F1804F0BD0274B9842BD
:1020600008D0274B984205D0264B984202D0264BE9
:10207000984203D122F070024B681A431E4B9842DB
:1020800020D0B0F1804F1DD01C4B98421AD01C4B71
:10209000984217D01B4B984214D01B4B984211D03A
:1020A0001A4B98420ED01A4B98420BD0194B9842BB
:1020B00008D0194B984205D0184B984202D0184BC3
:1020C000984203D122F44072CB681A4322F0800375
:1020D0004C6943EA040202608B68C3620B68836246
:1020E000054B984202D0084B984201D10B6903631B
:1020F0000123436110BD00000000014000040040C6
:1021000000080040000C0040000401400040014075
:10211000004401400048014000180040001C0040FD
:102120000020004030B501F01F05012404FA05F33A
:10213000046A9C430462046A01F01F0502FA05F573
:102140002C43046230BD30B50C46816821F47F41D8
:1021500042EA032525432943816030BD30B5056A35
:1021600025F001050562026A4368846924F0700461
:1021700024F003040D682C4322F002028D682A43E8
:10218000104DA84200D103E00F4DA84206D100BF78
:1021900022F00802CD682A4322F00402094DA84229
:1021A00002D0094DA84207D123F4807323F40073B1
:1021B0004D692B438D692B43436084614D684563B2
:1021C000026230BD000001400004014030B5056AE4
:1021D00025F010050562026A4368846924F4E0442E
:1021E00024F440740D6844EA052422F020028D682E
:1021F00042EA0512124DA84200D103E0114DA84257
:1022000007D100BF22F08002CD6842EA051222F019
:1022100040020B4DA84202D00A4DA84209D123F436
:10222000806323F400634D6943EA85038D6943EAC3
:102230008503436084614D688563026230BD0000A0
:10224000000001400004014030B5056A25F48075A6
:102250000562026A4368C46924F0700424F0030430
:102260000D682C4322F400728D6842EA0522124D5B
:10227000A84200D103E0114DA84207D100BF22F4CB
:102280000062CD6842EA052222F480620A4DA8422B
:1022900002D00A4DA84209D123F4805323F40053FD
:1022A0004D6943EA05138D6943EA05134360C46130
:1022B0004D68C563026230BD00000140000401406A
:1022C00030B5056A25F480550562036A4468C26921
:1022D00022F4E04222F440720D6842EA052223F41F
:1022E00000538D6843EA0533084DA84202D0084DDB
:1022F000A84204D124F480444D6944EA8514446022
:10230000C2614D680564036230BD000000000140F9
:102310000004014000B58BB000BF002001902348AD
:10232000006840F00200214908600846006800F09B
:102330000200019000BF00BF1D481E4908604FF613
:10234000FF711C48C160D7201A4948600021194814
:1023500001618160FFF7D6F8002007900120089006
:10236000002009900A90002207A91248FFF75AF8A6
:10237000022007900890002009900A90042207A9E3
:102380000C48FFF74FF8042002905020039002A958
:102390000848FFF7C1FA00210648FFF7CEF80421EC
:1023A0000448FFF7CAF80BB000BD000044380240F3
:1023B000000401400C01002000B589B000BF0020DE
:1023C00001901B48006840F0040019490860084665
:1023D000006800F00400019000BF00BF15481649D6
:1023E000086042F20F711448C1606B2012494860C6
:1023F00000211148016181604161FFF72AFA6020E4
:10240000029041F2883003900020049005904FF430
:102410008070079000200890082202A90648FFF764
:1024200094F908210448FFF731FA09B000BD000013
:102430004038024000080040CC0000202DE9F04167
:1024400005460C462868866826F0700660680643D4
:1024500026F007062068064328688660606800F05A
:102460000F0100293BD10011082838D2DFE800F025
:10247000333435360B272D04D4E90313A2682868BA
:10248000FFF761FE2CE02068052802D10120BDE89D
:10249000F0812868D0F820802868006A20F00100C8
:1024A000296808622868876927F0F007206947EAE9
:1024B0000017286887612868C0F8208010E022692A
:1024C000A168286800F00FF80AE02269A16828686E
:1024D00000F064F804E000BF00BF00BF00E000BFF0
:1024E00000BF0020D3E730B50B461446026A056AE8
:1024F00025F001050562816921F0F00141EA04112E
:1025000022F00A021A438161026230BD70B50C46A6
:102510001546066A26F0010606628169026A184EAF
:10252000B04214D0B0F1804F11D0164EB0420ED050
:10253000154EB0420BD0154EB04208D0144EB042EA
:1025400005D0144EB04202D0134EB04201D1012644
:1025500000E000261EB121F00301294301E041F013
:10256000010121F0F001F02606EA0316314322F0C2
:102570000A0204F00A0632438161026270BD000063
:10258000000001400004004000080040000C004032
:1025900000040140004001400018004030B50B46E7
:1025A0001446056A25F0100505628169026A21F466
:1025B000704141EA043122F0A00242EA0312816133
:1025C000026230BD70B50C461546066A26F010064C
:1025D00006628169026A21F4407141EA052121F411
:1025E00070414FF4704606EA0336314322F0A002F0
:1025F000A02606EA041632438161026270BD70B5FE
:102600000C461546066A26F480760662C169026A9F
:1026100021F00301294321F0F001F02606EA031618
:10262000314322F420624FF4206606EA0426324346
:10263000C161026270BD70B50C461546066A26F48B
:1026400080560662C169026A21F4407141EA05219F
:1026500021F470414FF4704606EA0336314322F408
:1026600020424FF4204606EA04363243C16102623A
:1026700070BD10B500F008F800F046F8FFF79CFEBA
:10268000FFF748FE10BD000000B587B000BF002076
:1026900001901A48006840F0080018490860084690
:1026A000006800F00800019000BF00BF00BF0020DC
:1026B00001900846006840F0040008600846006881
:1026C00000F00400019000BF00BF4FF48040029072
:1026D0000220039000200490032005900220069021
:1026E00002A90748FEF726F9402002900320069031
:1026F00002A90448FEF71EF907B000BD30380240B9
:10270000000C02400008024010B5032200212E20D8
:10271000FEF766FA2E20FEF753FA10BD2DE9F041C0
:1027200004462068006920F44050E16808432168AD
:1027300008612169A068084361690843E16940EACA
:1027400001052068C06849F20C618843284321686C
:10275000C8602068406920F44070A169084321687E
:102760004861E069B0F5004F7ED1C44920688842D5
:1027700003D0C349206888425DD1FEF759FB00EBC6
:10278000C00101EB001061684900B0FBF1F0642169
:10279000B0FBF1F00601FEF74BFB00EBC00101EBD3
:1027A000001061684900B0FBF1F7FEF741FB00EB58
:1027B000C00101EB001061684900B0FBF1F0642139
:1027C000B0FBF1F000EBC00101EB0010A7EB8000C3
:1027D000322101EBC0006421B0FBF1F000F0F80001
:1027E00006EB4006FEF724FB00EBC00101EB0010F6
:1027F00061684900B0FBF1F7FEF71AFB00EBC0017E
:1028000001EB001061684900B0FBF1F06421B0FBFE
:10281000F1F000EBC00101EB0010A7EB80003221CA
:1028200001EBC0006421B0FBF1F000F00700304480
:102830002168886020E1FEF7EBFA00EBC00101EBB4
:10284000001061684900B0FBF1F06421B0FBF1F0C9
:102850000601FEF7DDFA00EBC00101EB0010616834
:102860004900B0FBF1F700E045E0FEF7D1FA00EBDC
:10287000C00101EB001061684900B0FBF1F0642178
:10288000B0FBF1F000EBC00101EB0010A7EB800002
:10289000322101EBC0006421B0FBF1F000F0F80040
:1028A00006EB4006FEF7B4FA00EBC00101EB0010A6
:1028B00061684900B0FBF1F7FEF7AAFA00EBC0012E
:1028C00001EB001061684900B0FBF1F06421B0FB3E
:1028D000F1F000EBC00101EB0010A7EB800032210A
:1028E00001EBC0006421B0FBF1F000F007003044C0
:1028F00021688860C0E061492068884203D060494F
:10290000206888425CD1FEF793FA00EBC00101EB2E
:10291000001061688900B0FBF1F6FEF789FA00EB60
:10292000C00101EB001061688900B0FBF1F0642187
:10293000B0FBF1F000EBC00101EB0010A6EB800052
:10294000322101EB00106421B0FBF1F000F0F00641
:10295000FEF76EFA00EBC00101EB00106168890020
:10296000B0FBF1F06421B0FBF1F006EB0016FEF7CE
:102970005FFA00EBC00101EB001061688900B0FB59
:10298000F1F7FEF755FA00EBC00101EB00106168AA
:102990008900B0FBF1F06421B0FBF1F000EBC00165
:1029A00001EB0010A7EB8000322101EB0010642145
:1029B000B0FBF1F000F00F003044216888605BE06C
:1029C000FEF726FA00EBC00101EB001061688900F8
:1029D000B0FBF1F6FEF71CFA00EBC00101EB0010B2
:1029E00061688900B0FBF1F06421B0FBF1F000EB0D
:1029F000C00101EB0010A6EB8000322101EB0010BA
:102A00006421B0FBF1F000F0F006FEF701FA00EBF4
:102A1000C00101EB001061688900B0FBF1F0642196
:102A2000B0FBF1F006EB0016FEF7F2F900EBC00187
:102A300001EB001061688900B0FBF1F7FEF7E8F9DF
:102A400000EBC00101EB001061688900B0FBF1F000
:102A50006421B0FBF1F000EBC00101EB0010A7EB2B
:102A60008000322101EB00106421B0FBF1F000F096
:102A70000F00304421688860BDE8F08100100140FB
:102A8000001401402DE9F04104460D4617469846D2
:102A9000069E21E0701CF8B12EB1FEF759F8A0EBAC
:102AA0000800B04218D92068C06820F4D0702168AE
:102AB000C8602068406920F001002168486120203A
:102AC00084F8390084F83A0000BF002084F8380008
:102AD00000BF0320BDE8F081206800682840A842BC
:102AE00001D1012000E00020B842D3D00020F1E75E
:102AF00000BFFEE70FB4054B10B503A9044A0298C6
:102B000000F0F6F810BC5DF814FB0000213400085A
:102B10008800002002480068C0F3022070470000CF
:102B20000CED00E010B5002804DB0A07130E054A7F
:102B3000135406E00A07140E034A00F00F031B1F8C
:102B4000D45410BD00E400E018ED00E002E008C835
:102B5000121F08C1002AFAD170477047002001E017
:102B600001C1121F002AFBD1704700002DE9FF5F51
:102B700082B00021DDE90430020DDDF840B00343EE
:102B800018D044F61050A2F2FF32424315141198A7
:102B900001281FD0A5EB0B00401C5FEA000A4FF094
:102BA00000064E4FDFF83891B046504615D5CAF1B1
:102BB000000413E0119801244AA3012801D16FEA0F
:102BC0000B010298119AC0E90031C0E9024206B037
:102BD000BDE8F09FCBF10000DFE704460021404A4A
:102BE000491842EB0450CDE9001012E0E00707D08D
:102BF00032463B4640464946FDF75EFC80468946E4
:102C000032463B4610461946FDF756FC06460F462F
:102C10006410002CEAD1DDE90401DDE90023BAF1FA
:102C2000000F06DAFDF748FC42464B46FDF744FC30
:102C300005E0FDF7B3FC42464B46FDF7AFFC04460A
:102C40000E460022284BFDF731FD03D84FF0FF3030
:102C5000014607E00022254B20463146FDF785FB63
:102C6000FDF70BFD102409E0002C0ADB0A220023EB
:102C7000FDF702FB039B30321A55641E50EA010235
:102C8000F2D1641C039AC4F111031444119A012A6D
:102C900003D0012208430DD10AE0084304D00020EC
:102CA0004FF0110B119072E7A3EB0B056D1E0DE0B9
:102CB0005B4504DD4FF0000205F1010504E003DA95
:102CC0004FF00002A5F10105002AECD002981199FD
:102CD000C0E90231C0E9004579E700000000144076
:102CE0000000F03F300000000000F0430000E03F33
:102CF0002DE9FF4F95B09B468946064600250FE219
:102D0000252877D100242746F84A0121059400E0C0
:102D1000044316F8013F203B01FA03F01042F7D1BB
:102D200030782A2811D06FF02F033078A0F13002CC
:102D3000092A16D8059A44F0020402EB820203EB3A
:102D400042021044761C0590EFE759F8042B0592D7
:102D5000002A03DA504244F40054059044F002047F
:102D6000761C30782E2816D116F8010F44F0040492
:102D70002A280DD06FF02F023078A0F13003092BF4
:102D800009D807EB870302EB4303C718761CF3E768
:102D900059F8047B761C30786C280FD006DC4C2860
:102DA00017D068280DD06A2814D104E0742810D0F8
:102DB0007A280FD10DE044F400140AE044F48014A2
:102DC00001E044F440147278824202D104F5801488
:102DD000761C761C307866280BD013DC582877D008
:102DE00009DC002875D04528F6D04628F4D04728BD
:102DF0001AD19DE118E0632835D0642879D0652880
:102E000012D195E1702873D008DC6728F1D06928C9
:102E10006FD06E280DD06F2806D1B5E073282CD066
:102E2000752875D0782874D05A46179990476D1C2C
:102E300075E1C4F30250022809D003280DD0D9F857
:102E4000001004280DD00D6009F1040967E1D9F8DC
:102E50000010EA17C1E90052F6E7D9F800100D801A
:102E6000F2E70D70F0E719F8041B8DF80010002050
:102E70008DF80100EA46012003E059F804AB4FF059
:102E8000FF3061074FF0000102D40DE008F10101AD
:102E90008846B9420FDA8045F8DB1AF80810002995
:102EA000F4D108E008F1010188468142FADB1AF802
:102EB00008100029F6D105985B46A0EB08072146CB
:102EC0003846179A00F094FA284400EB080507E00A
:102ED0004DE029E10DE01AF8010B5A461799904789
:102EE000B8F10108F7D25B4621463846179A13E13C
:102EF00042E00A220092C4F302524FF0000A022A72
:102F000008D059F804CB032A4FEAEC710AD00DE03F
:102F100029E02AE009F1070121F00702F2E802C1E5
:102F2000914609E00FFA8CFC4FEAEC71042A03D1B8
:102F30004FFA8CFC4FEAEC71002907DA0A460021AF
:102F4000DCF1000C61EB02012D2202E0220504D528
:102F50002B228DF80420012203E0E20701D0202279
:102F6000F7E7904659E00A2102E010220DE0102117
:102F70004FF0000A00910BE010224FF0000A44F0DD
:102F800004040827009203E008224FF0000A009290
:102F9000C4F30252022A05D059F804CB0021032AB7
:102FA00008D009E009F1070121F00702F2E802C1A7
:102FB000914605E01FFA8CFC042A01D10CF0FF0CAD
:102FC0004FF00008220728D5702806D0009B83F018
:102FD000100353EA0A0305D00EE040228DF80420C6
:102FE000012208E05CEA010206D030228DF80420BC
:102FF0008DF8050002229046009B83F0080353EAF7
:103000000A030AD15CEA010201D1620705D5302228
:103010008DF804204FF001087F1E582804D034A0FA
:1030200003900EA802900DE036A0F9E753466046E3
:10303000009AFDF721F984460398825C0298401EAD
:10304000029002705CEA0100F0D1029806A9081A09
:1030500000F1200A600702D524F4803400E0012743
:10306000574502DDA7EB0A0000E0002000EB0A0153
:10307000009005984144401A0590E00306D45B4651
:103080002146179A059800F0B3F90544002706E099
:1030900001A85A46C05D179990476D1C7F1C474593
:1030A000F6DBE0030CD55B462146179A059800F045
:1030B0009FF9054404E030205A46179990476D1C4B
:1030C0000099481E00900029F5DC08E0029802995A
:1030D0005A460078491C0291179990476D1CBAF125
:1030E0000001AAF1010AF1DC65E1000009280100F4
:1030F000303132333435363738396162636465666E
:10310000000000003031323334353637383941422F
:10311000434445460000000000F058F90544761C81
:10312000307800287FF4ECAD19B02846BDE8F08F68
:10313000620700D4062709F1070222F0070CFCE819
:103140000223E14603F000485FEA080C02D00FF2C8
:10315000702C0DE05FEA045C02D50FF2682C07E0EA
:103160005FEAC47C02D00FF2602C01E0AFF2700C79
:103170004FF0FF3823F00043CDF850C065280CD045
:1031800006DC452809D046281DD047283DD13DE022
:10319000662818D067287ED138E00021112F01DB86
:1031A000112000E0781CCDE9000106A90EA8FFF768
:1031B000DDFCDDE90F010E9A03910021009207F179
:1031C000010A04914DE04FF000400097CDE9011055
:1031D00006A90EA8FFF7CAFCDDE90F0203920E9BB9
:1031E00011990022DDF80CA00093049211B9791C0A
:1031F00000EB010AB7EB0A0004D4C0F1FF3007F17D
:10320000010A0490AAEB0700019044E0012F00DAC4
:1032100001270021112F01DD112000E03846CDE902
:10322000000106A90EA8FFF7A1FCDDE90F010E9A27
:103230000391002104910092BA4621070CD403990E
:10324000514500DA8A46BAF1010F05DD009AAAF16C
:103250000101515C302908D0B84202DA10F1040FA4
:1032600006DA0121CDE9011015E0AAF10101E9E733
:10327000002805DC049901440491AAEB000102E056
:10328000411C514500DD8A460499401A401C0190BA
:103290004FF000400290200704D40198504501DB14
:1032A000CDF8048000208DF84F0002980DF14F07F3
:1032B000B0F1004F25D02B200E9002984FF002085D
:1032C00000280CDA404202902D200E9007E00A21DF
:1032D0000298FDF715F83031029007F8011DB8F19A
:1032E0000001A8F10108F2DC02980028EFD1791E54
:1032F0000E980870307800F0200040F0450007F884
:10330000020D12A8C01B00F107081498007800B144
:10331000012000EB0A01019801EBE071059841449E
:10332000401A401E0590E00306D45B462146179ADA
:10333000059800F05DF805441498007818B15A46D5
:10334000179990476D1CE00324D55B462146179AD8
:10335000059800F04DF805441CE00498002807DBB0
:10336000DDE90301884203DD0098405C179901E024
:10337000179930205A469047049805F10105401CE2
:1033800004900198401E019004D12E205A461799AE
:1033900090476D1CBAF10001AAF1010ADDDC05E0DD
:1033A00017F8010B5A46179990476D1CB8F10001A8
:1033B000A8F10108F4DC5B462146179A0598ABE6B4
:1033C0002D0000002B000000200000002DE9F0413E
:1033D000044600251E461746880404D405E03946F5
:1033E0002020B0476D1C641EF9D52846BDE8F08149
:1033F0002DE9F041044600251E469046C80301D53C
:10340000302700E02027880404D505E041463846EF
:10341000B0476D1C641EF9D52846BDE8F081000058
:1034200013B50C464FF47A73012269460248FEF741
:103430003BFB00981CBD00008C0000201CB5012443
:10344000FDF746FA0AA0FFF755FB18A0FFF752FB5D
:103450001F48012100234A02CDE900101DA1214887
:1034600000F0CEFF04460CB100F0D0FD00BFFEE737
:10347000D5E2CAC7D2BBB8F65BD2B0BBF05D2D5364
:10348000544D3332C8ABCFB5C1D0BFAAB7A2B0E557
:103490002D4672656552544F53BBF9B4A1C0FDB3BC
:1034A000CCCAB5D1E9A3A10A0A000000B0B4CFC2CA
:1034B0004B455931B9D2C6F0C8CECEF1A3ACB0B4A9
:1034C000CFC24B455932BBD6B8B4C8CECEF10A00F4
:1034D000100000204170705461736B437265617419
:1034E00065000000E10700082DE9F04105460E46A1
:1034F0001C4807681C480068001D00F03FFB50B9DD
:103500001948006890F82C10012088401749096874
:10351000814316480160681C38B936B11248016809
:10352000091D134800F068FB1AE07C190E4800687A
:103530004460BC4207D20C480168091D0D48006870
:1035400000F040FB0CE008480168091D0A480068CB
:1035500000F038FB09480068844201D20748046043
:10356000BDE8F0813C000020280000204000002041
:103570001C040020300000202C00002058000020F7
:1035800010B5044600F044FB23480068401C224963
:1035900008602248006840B9204804600846006876
:1035A00001280DD100F036F90AE01D48006838B94D
:1035B0001A480068C06AE16A884201D81748046066
:1035C00018480068401C1749086094F82C10012026
:1035D000884015490968084313490860E16A01EB0E
:1035E0008101124A02EB8100211D00F005FB00F071
:1035F00051FB0B48006868B108480068C06AE16A7E
:10360000884207D24FF0805009490860BFF34F8FBE
:10361000BFF36F8F10BD000038000020280000208D
:103620004400002054000020400000204C010020F5
:1036300004ED00E070B523E000F0BEFD1348006823
:1036400008B9012000E00020054600F0CBFFBDB91D
:1036500000F0DEFA0D48C068C468201D00F08EFA44
:103660000B480068401E0A4908600A480068401E6E
:103670000849086000F00EFB204600F00DF800BF7E
:10368000044800680028D7D170BD0000080400205D
:10369000380000203400002010B50446206B00F0F4
:1036A0002FFB204600F02CFB10BD000030B54FF47E
:1036B0001043174800F007042CB1C01D20F007008C
:1036C000134C041B1B1B0246124C22600024114D9C
:1036D0006C60D018083820F007000F4C20600024E0
:1036E0000D4D2D686C600C4D2D682C601146441AF0
:1036F0004C60094C24680C60084D4C682C60084DE7
:103700004C682C604FF00044064D2C6030BD00002A
:1037100030040020640000206C00002074000020B1
:10372000700000207800002000BFFFF783FF0648EC
:1037300000680128F9D94FF0805004490860BFF3B0
:103740004F8FBFF36F8FF0E74C01002004ED00E0D6
:103750002DE9FF5F81460E469246DDE90E7B109C07
:10376000AAF10100216B01EB800828F0070808F09E
:10377000070008B9012000E0002028B940F22B32F0
:103780001AA120A0FFF7B6F9002507E0715D04F14A
:1037900034004155705D00B902E06D1C102DF5D369
:1037A00000BF002143200155202F00D31F27E762CF
:1037B000201D00F004FA04F1180000F000FA246162
:1037C000C7F12000A06164620020606484F84800B2
:1037D00049464046039A00F0BBF92060BBF1000F58
:1037E00001D0CBF80040BDE8FF9F00002E2E5C46C4
:1037F00072656552544F535C7372635C7461736B92
:10380000732E63004572726F723A25732C25640D16
:103810000A00000010B5002407E004EB84010F4A01
:1038200002EB810000F0BEF9641C202CF5D30C489B
:1038300000F0B8F90B4800F0B5F90B4800F0B2F908
:103840000A4800F0AFF90A4800F0ACF90448094909
:10385000086004480849086010BD00004C010020C1
:10386000CC030020E0030020F40300200804002023
:103870001C0400202C0000203000002010B5014660
:10388000164800E0006803688B42FBD30246436899
:1038900013448B4204D143684C682344436001467F
:1038A0000A464B6813440468A34211D10C4C0368C8
:1038B0002468A34208D04B680468646823444B60C2
:1038C00003681B680B6005E0054B1B680B6001E09B
:1038D00003680B60884200D0016010BD64000020C6
:1038E0006C0000200A490968096809B9012100E053
:1038F000002121B14FF0FF31064A116006E0044972
:103900000968C968C868034A4168116070470000C7
:103910002C000020580000200C480068401C08B90A
:10392000012000E0002028B940F20F1208A112A0E7
:10393000FFF7E0F800BF502080F31188BFF34F8FEE
:10394000BFF36F8F00BF00BFFEE700007C000020C8
:103950002E2E5C4672656552544F535C706F7274C4
:103960005C525644535C41524D5F434D34465C704B
:103970006F72742E630000004572726F723A257385
:103980002C25640D0A00000070B5054600262C4663
:103990002DB940F281620EA113A0FFF7ABF81649D2
:1039A0006069884201D1012000E0002070B1134914
:1039B000A06A884201D1012000E0002030B9A06A4D
:1039C00008B9012000E0002000B10126304670BD9A
:1039D0002E2E5C4672656552544F535C7372635C65
:1039E0007461736B732E63004572726F723A257344
:1039F0002C25640D0A0000001C040020F4030020A4
:103A00002DE9F04104464FF0000800F0D5FB3E4898
:103A1000006808B9FFF74AFE3C48006820400028CB
:103A20005FD1A4B1083404F0070080B104F00700AE
:103A3000C0F10800044404F0070008B9012000E0C8
:103A4000002020B9BF2232A13AA0FFF753F8002C82
:103A500047D03C480068844243D83B4E3046056816
:103A600001E02E462D686868A04202D2286800282E
:103A7000F7D125480068854233D0306800F1080846
:103A8000286830606868001B102813D92F1907F0C8
:103A9000070008B9012000E0002020B9EC221CA199
:103AA00024A0FFF727F86868001B78606C60384630
:103AB000FFF7E4FE234968680968081A214908608D
:103AC0000846006821490968884203D21D480068F9
:103AD0001E4908600D49686809680843686000204D
:103AE000286000F07FFD08F0070008B9012000E021
:103AF000002028B94FF4967205A10EA0FEF7FAFF38
:103B00004046BDE8F08100006C00002078000020F5
:103B10002E2E5C4672656552544F535C706F727402
:103B20005C4D656D4D616E675C686561705F342EDC
:103B3000630000004572726F723A25732C25640D84
:103B40000A000000700000206400002074000020C3
:103B5000001F4FF080730360001F21F0010303601A
:103B6000001F054B036014380260001F6FF0020352
:103B700003602038704700001939000801460A69BF
:103B8000D1E901309860D1E901035860506888425A
:103B900001D188685060002008611068401E1060E4
:103BA0001068704700F1080141604FF0FF318160FB
:103BB00000F10801C160016100210160704700212E
:103BC0000161704710B502460B685C1C0CB91069A6
:103BD00007E002F1080000E04068446824689C4265
:103BE000FAD944684C604C68A160886041600A6101
:103BF0001468641C146010BD42684A6093688B604E
:103C0000936859609160086103685B1C03607047AA
:103C100010B500BF502080F31188BFF34F8FBFF362
:103C20006F8F00BF0B480068401C0A4908600846B7
:103C3000006801280DD108480068C0B208B9012009
:103C400000E0002028B940F2B91204A10DA0FEF74F
:103C500051FF10BD7C00002004ED00E02E2E5C46DC
:103C600072656552544F535C706F72745C52564467
:103C7000535C41524D5F434D34465C706F72742EFD
:103C8000630000004572726F723A25732C25640D33
:103C90000A00000010B50B48006828B94FF4E07224
:103CA00009A113A0FEF726FF06480068401E05493B
:103CB00008600846006820B9002080F3118800BF22
:103CC00000BF10BD7C0000202E2E5C467265655240
:103CD000544F535C706F72745C525644535C415243
:103CE0004D5F434D34465C706F72742E630000006C
:103CF0004572726F723A25732C25640D0A0000001C
:103D000070B506463546002E35D0083D2C461A497A
:103D100060680968084008B1012000E0002028B967
:103D20004FF4A07215A11EA0FEF7E4FE206808B9AA
:103D3000012000E0002028B940F241120FA118A094
:103D4000FEF7D8FE0C4960680968084098B1206801
:103D500088B90949606809688843606000F02CFAF6
:103D60001349606809680844114908602046FFF754
:103D700085FD00F037FC70BD780000202E2E5C46DB
:103D800072656552544F535C706F72745C4D656D13
:103D90004D616E675C686561705F342E6300000082
:103DA0004572726F723A25732C25640D0A0000006B
:103DB00070000020064800684FF47A71B0FBF1F003
:103DC000401E4FF0E0214861072008617047000065
:103DD0000000002070B504460025ACB10F48006813
:103DE00008B9012000E0002028B940F2CF420CA120
:103DF00011A0FEF77FFE00F0DFF900212046FFF75B
:103E000073FB00F0EFFB05463DB94FF080500E49C3
:103E10000860BFF34F8FBFF36F8F70BD600000204D
:103E20002E2E5C4672656552544F535C7372635C10
:103E30007461736B732E63004572726F723A2573EF
:103E40002C25640D0A00000004ED00E070B5054665
:103E5000FFF7DEFE15B92D48006800E0284604464D
:103E6000201DFFF78BFE78B9E06A00EB800028493F
:103E700051F8200040B994F82C10012088402549C1
:103E80000968814323480160A06A18B104F1180051
:103E9000FFF774FE20480068401C1F4908601B485B
:103EA0000068844209D1211D1C48FFF7A5FE1C486B
:103EB0000068401C1A49086009E01A480068401E62
:103EC000184908602046FFF7E7FBFFF70BFDFFF7F7
:103ED000E1FE15480068C0B10C480068844214D166
:103EE0001248006808B9012000E0002028B940F21B
:103EF00065420FA114A0FEF7FDFD4FF0805016495A
:103F00000860BFF34F8FBFF36F8F70BD2800002094
:103F10004C01002040000020540000200804002034
:103F20003400002038000020440000206000002001
:103F30002E2E5C4672656552544F535C7372635CFF
:103F40007461736B732E63004572726F723A2573DE
:103F50002C25640D0A00000004ED00E070B5054654
:103F60002C462DB940F2AB621AA120A0FEF7C2FD8B
:103F700074B32248006884422AD0FFF749FE2046E5
:103F8000FFF702FD10B3201DFFF7F8FD94F82C1089
:103F9000012088401A490968084319490860E16A04
:103FA00001EB8101174A02EB8100211DFFF724FE7E
:103FB0001249E06A0968C96A884207D34FF0805005
:103FC00011490860BFF34F8FBFF36F8FFFF762FE99
:103FD00070BD00002E2E5C4672656552544F535CD6
:103FE0007372635C7461736B732E63004572726FDE
:103FF000723A25732C25640D0A0000002800002069
:10400000400000204C01002004ED00E01CB51848E1
:1040100000210B468022CDE9001016A1174800F0C0
:10402000EFF90446012C15D100BF502080F3118810
:10403000BFF34F8FBFF36F8F00BF4FF0FF301049BA
:10404000086001200F49086000200F49086000F057
:1040500011F90BE0601C08B1012000E0002028B934
:1040600040F2847209A10FA0FEF744FD1CBD0000C0
:104070005C00002049444C4500000000293700083E
:1040800058000020440000203C0000202E2E5C46FA
:1040900072656552544F535C7372635C7461736BE9
:1040A000732E63004572726F723A25732C25640D6E
:1040B0000A00000070B50546FFF7AAFD15B92C48A7
:1040C000006800E028460446201DFFF757FD78B938
:1040D000E06A00EB8000274951F8200040B994F8CD
:1040E0002C1001208840244909688143224801603E
:1040F000A06A18B104F11800FFF740FD211D1F4808
:10410000FFF77AFDFFF7C6FD1D48006828B1FFF7ED
:104110007FFDFFF7E7FBFFF7BDFD15480068844210
:1041200024D117480068A8B11648006808B90120D2
:1041300000E0002028B940F2576213A118A0FEF752
:10414000D9FC4FF080501A490860BFF34F8FBFF37E
:104150006F8F0BE00948006816490968884203D14F
:1041600000200349086001E000F02EF870BD000057
:10417000280000204C010020400000201C040020EA
:1041800044000020600000202E2E5C4672656552BF
:10419000544F535C7372635C7461736B732E630072
:1041A0004572726F723A25732C25640D0A00000067
:1041B00004ED00E03800002002480068401C01497E
:1041C000086070476000002010B51B48006818B1F7
:1041D00001201A4908602DE000201849086018489D
:1041E0000068B0FA80F0C0F11F0404EB84001549A8
:1041F00051F8200008B1012000E0002028B940F665
:10420000F62211A116A0FEF775FC04EB84010D4AFD
:1042100002EB810041684968416000F10801426891
:104220008A4202D14168496841604168C968104AC0
:10423000116000BF10BD0000600000204C00002095
:10424000400000204C0100202E2E5C467265655215
:10425000544F535C7372635C7461736B732E6300B1
:104260004572726F723A25732C25640D0A000000A6
:10427000280000201CB5404800684049884201D011
:10428000012000E0002028B940F259123CA146A0CC
:10429000FEF730FC384800683849491E884201D092
:1042A000012000E0002028B94FF4AD7234A13EA0F7
:1042B000FEF720FC404C204600780190FF2021466C
:1042C00008700846007800909DF8000000F0F000AB
:1042D0009DF80010884201D1012000E0002028B99B
:1042E00040F2731226A130A0FEF704FC9DF80000F6
:1042F00000F050003149087007203149086009E09A
:104300002F480068401E2E4908609DF800004006B6
:10431000000E00909DF8000000F080008028EFD093
:10432000274800680002264908600846008800F413
:10433000E06008602049019808700F48203000684C
:1043400040F470000C49203108600846006840F0D5
:1043500070400860FFF72EFD00201A490860FBF747
:104360003DFF1948006840F0404017490860FBF7DE
:1043700025FF00201CBD000000ED00E071C20F41D0
:104380002E2E5C4672656552544F535C706F72748A
:104390005C525644535C41524D5F434D34465C7011
:1043A0006F72742E630000004572726F723A25734B
:1043B0002C25640D0A00000000E400E080000020CD
:1043C000840000207C00002034EF00E010B500BF26
:1043D000502080F31188BFF34F8FBFF36F8F00BF62
:1043E00000F04EF818B14FF080500449086000BF4B
:1043F000002080F3118800BF10BD000004ED00E034
:104400002DE9FF4F85B0804689461746DDE912AB9E
:10441000B800FFF7F5FA064656B14C20FFF7F0FA60
:1044200004460CB1266304E03046FFF769FC00E067
:1044300000247CB10020CDE900ABCDE902403A4632
:1044400049464046089BFFF783F92046FFF798F856
:10445000012501E04FF0FF35284609B0BDE8F08F97
:104460000549096809B9012005E00449096809B945
:10447000022000E00020704744000020600000207F
:104480002DE9F0414FF0000841480068002872D142
:1044900040480068451C3F480560EDB93E4800684B
:1044A000006808B9012000E0002028B940F6D912C0
:1044B0003AA140A0FEF71EFB374807684148006854
:1044C000354908603F4807603F480068401C3E4946
:1044D0000860FFF707FA00BF3C48006885423CD3FC
:1044E00000BF2D480068006808B9012000E00020E6
:1044F00020B14FF0FF30354908602DE026480068B4
:10450000C068C4686668B54202D23048066023E0DD
:10451000201DFFF733FBA06A18B104F11800FFF764
:104520002DFB94F82C100120884029490968084384
:1045300027490860E16A01EB8101264A02EB81000C
:10454000211DFFF759FB2449E06A0968C96A8842BE
:10455000C7D34FF00108C4E700BF1F480068C06A16
:1045600000EB80001B4951F82000012801D94FF0D1
:10457000010805E0FFE719480068401C174908607A
:104580001748006808B14FF001084046BDE8F081C7
:10459000600000203C0000202C0000202E2E5C46F5
:1045A00072656552544F535C7372635C7461736BD4
:1045B000732E63004572726F723A25732C25640D59
:1045C0000A000000300000205000002058000020A9
:1045D000400000204C01002028000020480000205E
:1045E0004C00002070B5002400263448006828B92B
:1045F0004FF4FD6232A138A0FEF77CFAFFF708FB0A
:104600002E480068401E2D490860084600680028B2
:104610004FD13548006800284BD024E03348C068AB
:10462000C46804F11800FFF7A9FA201DFFF7A6FAE5
:1046300094F82C10012088402D49096808432C4922
:104640000860E16A01EB81012A4A02EB8100211D29
:10465000FFF7D2FA2849E06A0968C96A884202D39A
:104660000120264908602148006808B9012000E0BF
:1046700000200028D2D00CB1FFF734F9204805689B
:1046800065B100BFFFF7FCFE10B101201B490860B7
:104690006D1E002DF6D100201949086017480068EA
:1046A00038B10126300717490860BFF34F8FBFF3B9
:1046B0006F8FFFF7EFFA304670BD000060000020FA
:1046C0002E2E5C4672656552544F535C7372635C68
:1046D0007461736B732E63004572726F723A257347
:1046E0002C25640D0A00000038000020F40300208F
:1046F000400000204C010020280000204C00002039
:104700004800002004ED00E0000000000000000070
:104710000102030406070809000000000102030467
:1047200040470008000000208C0000004C2B0008CF
:10473000CC4700088C000020A49700005C2B0008E8
:104740000024F40000000000100000000100000040
:104750000000000000000000000000000000000059
:104760000000000000000000000000000000000049
:104770000000000000000000000000000000000039
:104780000000000000000000000000000000000029
:104790000000000000000000000000000000000019
:1047A0000000000000000000000000000000000009
:1047B000000000000000000000000000AAAAAAAA51
:0C47C000000000000000000000000000ED
:040000050800018965
:00000001FF
