:020000040800F2
:1000000038DD002055020008B92500084B1A000809
:10001000B52500080D050008012E000800000000AD
:100020000000000000000000000000009D0100082A
:100030004D05000800000000F1010008ED2800084F
:100040006F0200086F0200086F0200086F020008CC
:100050006F0200086F020008610500086F020008C7
:100060006F0200086F0200086F0200086F020008AC
:100070006F0200086F0200086F0200086F0200089C
:100080006F0200086F0200086F0200086F0200088C
:100090006F0200086F0200086F0200086F0200087C
:1000A0006F0200086F0200086F0200086F0200086C
:1000B0006F0200086F0200086F0200086F0200085C
:1000C0006F0200086F0200086F0200086F0200084C
:1000D0006F0200086F0200086F0200086F0200083C
:1000E0006F0200086F0200086F0200086F0200082C
:1000F0006F0200086F0200086F0200086F0200081C
:100100006F0200086F0200086F0200086F0200080B
:100110006F0200086F0200086F0200086F020008FB
:100120006F0200086F0200086F0200086F020008EB
:100130006F0200086F0200086F0200086F020008DB
:100140006F0200086F0200086F0200086F020008CB
:100150006F0200086F0200086F0200086F020008BB
:100160006F0200086F0200086F0200086F020008AB
:100170006F0200086F0200086F0200080000000014
:100180006F0200086F020008DFF80CD000F0DAF808
:10019000004800478530000838DD00202A4B1968E8
:1001A0000868B0E8F04F80F30988BFF36F8F4FF015
:1001B000000080F3118870470000000006480068C6
:1001C000006880F3088862B661B6BFF34F8FBFF353
:1001D0006F8F00DF00BF00BF08ED00E0DFF80C000C
:1001E000016841F470010160704700BF88ED00E0D4
:1001F000EFF30980BFF36F8F134B1A681EF0100FD7
:1002000008BF20ED108A20E9F04F106008B44FF0CD
:10021000500080F31188BFF34F8FBFF36F8F03F04F
:10022000FBFD4FF0000080F3118808BC19680868D6
:10023000B0E8F04F1EF0100F08BFB0EC108A80F34A
:100240000988BFF36F8F70474C000020EFF30580E3
:10025000704700000648804706480047FEE7FEE773
:10026000FEE7FEE7FEE7FEE7FEE7FEE7FEE7FEE766
:10027000C1290008890100082DE9F05F054600202A
:1002800092469B4688460646814640241BE0284607
:1002900041464746224600F045F853465A46C01AA2
:1002A000914110D311461846224600F02CF82D1A21
:1002B00067EB01084F4622460120002100F023F899
:1002C00017EB00094E41201EA4F10104DFDC484673
:1002D00031462A464346BDE8F09F30B50B460146FD
:1002E00000202022012409E021FA02F59D4205D3D5
:1002F00003FA02F5491B04FA02F52844151EA2F17F
:100300000102F1DC30BD202A04DB203A00FA02F1C0
:10031000002070479140C2F1200320FA03F31943F3
:1003200090407047202A04DB203A21FA02F0002195
:10033000704721FA02F3D040C2F1200291400843F5
:1003400019467047064C074D06E0E06840F001038F
:1003500094E8070098471034AC42F6D3FFF718FF33
:1003600090960008B09600081CB5012403F078FAB6
:100370001348022100230A02CDE9001011A11448FC
:1003800003F066FE0446012C02D112A002F03AFDF1
:100390001748032100234FF40072CDE9001015A186
:1003A000174803F055FE0446012C02D115A002F0B7
:1003B00029FD1A48006803F071FB03F093FA1CBD95
:1003C00014000020546573745F5461736B00000067
:1003D000252A0008B4B4BDA8546573745F546173D2
:1003E0006BC8CECEF1B3C9B9A6210D0A000000003A
:1003F000180000204B45595F5461736B00000000EA
:10040000F9220008B4B4BDA84B45595F5461736B21
:10041000C8CECEF1B3C9B9A6210D0A001000002044
:1004200008B502F06DFA032000F0A4FA02F048F8D3
:1004300001F0B2FF00F06CF802F02CFA01F0FCFCC5
:10044000062001F09BFC02F0D1F800211A4800F0D0
:10045000DDFE43F2F321884202D002F03DF92AE0AA
:1004600016480068C0F3C06018B115A002F0CAFCBD
:1004700007E012480068C0F3806010B116A002F0D7
:10048000C1FC1BA002F0BEFC00BF002000900B4886
:100490003438006840F08050084934390860084614
:1004A000006800F08050009000BF00BF00F076FAB6
:1004B000014801F099F808BD344600207438024024
:1004C0000D0A20B7A2C9FAB5E7D4B4B8B4CEBB2E92
:1004D0002E2E2E0D0A0000000D0A20B7A2C9FACD5B
:1004E000E2B2BFB8B4CEBB2E2E2E2E0D0A000000F5
:1004F0000D0A20B2BBD0E8D2AAD6D8D0C2C5E4D665
:10050000C35254432E2E2E2E0D0A000000BFFEE7CC
:1005100010B50C480C4908604FF4E13048600021E8
:1005200009488160C160016181610C21416101F074
:1005300090F905480068C06840F020000249096849
:10054000C86010BD00100140B0000020704701B528
:1005500002E00098401E009000980028F9D108BDE4
:100560007047000070B504461D460023B5F5804F66
:1005700013D154F822300C480340D1E9000640EA78
:1005800006108E6840EA06208E8940EA06408E6991
:100590003043034344F8223003E06FF0704044F8E6
:1005A0002200002070BD00000000F0CF10B503460F
:1005B0000022086853F8202012480240D1E90104C3
:1005C0002043CC6820430C6920434C6920438C694C
:1005D0002043CC6920430C6A20434C6A20438C6A38
:1005E0002043CC6A2043CC6B20430C6B2043024356
:1005F0008868082801D142F04002086843F82020AA
:10060000002010BD8000F0FF30B503460024501CD0
:1006100053F8204004F04044D1E9000540EA0510B9
:100620008D6840EA05208D8940EA0545088A401E0C
:1006300045EA0055087D801E45EA00608D69284323
:100640000443501C43F82040002030BDF8B502465A
:100650000B460025002400200021DCE0012606FADC
:1006600001F51E6806EA0504AC4273D15E68022EED
:1006700002D05E68122E13D1CF0802F1200656F880
:1006800027004E07F70E0F26BE40B0434F07FF0E60
:100690001E69BE403043CF0802F1200646F827000D
:1006A00010684F000326BE40B0431E7906F00306D3
:1006B0004F00BE40304310605E68012E08D05E6877
:1006C000022E05D05E68112E02D05E68122E13D164
:1006D00090684F000326BE40B0434F00DE68BE4026
:1006E00030439060506801268E40B0431E79C6F3B7
:1006F00000168E4030435060D0684F000326BE4045
:10070000B0434F009E68BE403043D0605E6806F044
:100710008056B6F1805F7DD100BF00260096404E26
:10072000366846F480463E4F3E603E46366806F4E4
:100730008046009600BF00BF3A4E8F0856F827004B
:100740008E07370F0F26BE40B043374EB24202D15C
:10075000002624E05EE0354EB24201D101261EE0C3
:10076000334EB24201D1022619E0324EB24201D1DB
:10077000032614E0304EB24201D104260FE02F4E82
:10078000B24201D105260AE02D4EB24201D1062621
:1007900005E02C4EB24201D1072600E008268F0763
:1007A0003F0FBE4030431F4E8F0846F82700264EAD
:1007B0003068A0435E6806F48036B6F5803F00D10D
:1007C0002043214E3060361D3068A0435E6806F439
:1007D0000036B6F5003F00D120431B4E361D306079
:1007E000361D3068A0435E6806F48016B6F5801F9B
:1007F00000D12043144E08363060361D3068A043C7
:100800005E6806F40016B6F5001F00D120430E4EB8
:100810000C363060491C1029FFF420AFF8BD0000F1
:100820004438024008380140000002400004024001
:1008300000080240000C0240001002400014024078
:1008400000180240001C0240003C014002461369AF
:100850000B400BB1012000E0002070470148006808
:10086000000C7047002004E0014800687047000059
:10087000040000200348006803490978084401493E
:1008800008607047040000200C00002070B504468A
:100890000E4800784FF47A71B1FBF0F00C4909680A
:1008A000B1FBF0F5284600F0BAFF08B1012070BD99
:1008B000102C07D200222146501E00F01DF80548DA
:1008C000046001E00120F2E70020F0E70C000020C6
:1008D000000000200800002001460846002809DB2F
:1008E00000F01F0301229A4043099B0003F1E0231B
:1008F000C3F8002100BF70472DE9F05F80460D4628
:100900001646002702F0A2FA074639462A46334621
:1009100001F00700C0F1070ABAF1040F02D94FF045
:10092000040A01E0C0F1070AD14600F1040ABAF155
:10093000070F02D24FF0000A01E0A0F1030AD446EB
:100940004FF0010A0AFA09FAAAF1010A0AEA020AB0
:100950000AFA0CFA4FF0010B0BFA0CFBABF1010B8E
:100960000BEA030B4AEA0B042146404602F076FAF2
:10097000BDE8F09F00BF00F00702064B19684FF674
:10098000FF031940044B0B4343EA0221014B19605A
:1009900000BF70470CED00E00000FA05012001499E
:1009A0000862704700000E42F8B504460025002694
:1009B000207800F0010020B9207800F0040004281D
:1009C0002FD100205B498866FFF74EFF054606E001
:1009D000FFF74AFF401B022801D90320F8BD564803
:1009E0000068C0F3C0600028F2D160688101207AFD
:1009F00041EA007050498431086001204D49886601
:100A0000FFF732FF054606E0FFF72EFF401B0228E6
:100A100001D90320E2E748480068C0F3C06000281D
:100A2000F2D0207800F0020002287DD100BF002023
:100A3000009041484030006840F080503E494031CD
:100A400008600846006800F08050009000BF00BFBA
:100A50003A48006840F4807038490860FFF704FFA6
:100A6000054606E0FFF700FF401B022801D90320DE
:100A7000B4E73248006800F480700028F2D02E48B5
:100A80007030006800F440764EB3A08900F44070E6
:100A9000B04224D028487030006820F4407601200D
:100AA000274908600020086023487030066000680D
:100AB00000F0010098B1FFF7D7FE054608E0FFF708
:100AC000D3FE401B41F28831884201D9032085E7DB
:100AD000194870300068C0F340000028EFD000BF14
:100AE000A08900F44070B0F5407F0CD11248083066
:100AF000006820F4F810134AE168114008430E49D9
:100B00000831086007E00C480830006820F4F8104D
:100B1000094908310860084870300068A189C1F3AC
:100B20000B010843044900E002E07031086000BF97
:100B3000002053E7000047420038024000700040A8
:100B4000400E4742FFFCFF0F70B504460D460CB93E
:100B5000012070BD5848006800F00F00A84209D27B
:100B600055490D700846006800F00F00A84201D0FA
:100B70000120EEE7207800F0020002281DD1207845
:100B800000F00400042805D14C48006840F4E0500F
:100B90004A490860207800F00800082805D1474835
:100BA000006840F46040454908604448006820F00F
:100BB000F000A168084341490860207800F0010076
:100BC000A8B36068012807D13C4808380068C0F322
:100BD0004040B8B90120BCE76068022802D06068D4
:100BE000032807D1354808380068C0F3406048B989
:100BF0000120AEE7314808380068C0F3400008B96A
:100C00000120A6E72D48006820F003006168084332
:100C10002A490860FFF728FE064609E0FFF724FE90
:100C2000801B41F28831884202D9032091E707E016
:100C30002248006800F00C006168B0EB810FEDD134
:100C40001D48006800F00F00A84209D91A490D702C
:100C50000846006800F00F00A84201D0012078E7A4
:100C6000207800F00400042807D11448006820F41C
:100C7000E050E168084311490860207800F008005E
:100C8000082808D10D48006820F46040216940EA36
:100C9000C1000A49086000F03DF808490968C1F33D
:100CA0000311074A515CC840064908600F20FFF74E
:100CB000EDFD00204DE70000003C024008380240F6
:100CC00058430008000000200148006870470000F9
:100CD0000000002000B5FFF7F7FF04490968C1F3E1
:100CE0008221034A515CC84000BD00000838024020
:100CF0006843000800B5FFF7E7FF04490968C1F33E
:100D00004231034A515CC84000BD0000083802402F
:100D1000684300082DE9F047002400250026A1467D
:100D20002548006800F00C0020B1042805D00828F0
:100D30003AD105E0DFF8849039E0DFF8849036E0BE
:100D40001D48001F006800F03F041B48001F00689A
:100D500000F4800078B11A481749091F0968C1F3E7
:100D60008811A0FB01700146224600233846FFF798
:100D700083FA05460EE011480F49091F0968C1F3BF
:100D80008811A0FB01700146224600233846FFF778
:100D900073FA05460848001F0068C0F30140401C74
:100DA0004600B5FBF6F902E0DFF8109000BF00BF87
:100DB0004846BDE8F0870000083802400024F400EF
:100DC00040787D01F8B504460CB90120F8BD2078C3
:100DD00000F00100002874D0F948006800F00C0011
:100DE00004280DD0F648006800F00C00082813D144
:100DF000F348001F006800F48000B0F5800F0BD1AD
:100E0000EF4808380068C0F34040002859D06068B7
:100E1000002856D10120D9E700BF6068B0F5803FB7
:100E200008D1E7480838006840F48030E4490839C0
:100E300008601EE06068B0F5A02F0DD1E0480838CA
:100E4000006840F48020DE490839086008460068E0
:100E500040F4803008600CE0D9480838006820F47D
:100E60008030D749083908600846006820F480209F
:100E7000086000BF606890B1FFF7F6FC054606E029
:100E8000FFF7F2FC401B642801D903209EE7CC4801
:100E900008380068C0F340400028F1D011E0FFF7A7
:100EA000E3FC054606E0FFF7DFFC401B642801D9A0
:100EB00003208BE7C24808380068C0F34040002890
:100EC000F1D1207800F0020002285FD1BC48006810
:100ED00000F00C0058B1BA48006800F00C00082877
:100EE0001CD1B748001F006800F48000B0B9B448B6
:100EF00008380068C0F3400020B1E068012801D044
:100F0000012063E7AE480838006820F0F800216946
:100F100040EAC100AA490839086037E0E06800B338
:100F20000120A8490860FFF79FFC054606E0FFF78F
:100F30009BFC401B022801D9032047E7A048083842
:100F40000068C0F340000028F1D09D4808380068D0
:100F500020F0F800216940EAC10099490839086089
:100F600014E0002097490860FFF77EFC054606E084
:100F7000FFF77AFC401B022801D9032026E790489E
:100F800008380068C0F340000028F1D1207800F054
:100F9000080008282CD16069A8B101208A4908609E
:100FA000FFF762FC054606E0FFF75EFC401B0228E7
:100FB00001D903200AE782486C300068C0F3400082
:100FC0000028F1D014E000207F490860FFF74CFCB6
:100FD000054606E0FFF748FC401B022801D9032024
:100FE000F4E677486C300068C0F340000028F1D187
:100FF000207800F00400042870D1002670483830B2
:10100000006800F0805090B900BF002000906C484C
:101010003830006840F0805069493831086008462F
:10102000006800F08050009000BF00BF01266748B4
:10103000006800F48070B0B96448006840F48070C3
:1010400062490860FFF710FC054606E0FFF70CFC5C
:10105000401B022801D90320B8E65C48006800F470
:1010600080700028F2D000BFA068012808D1544841
:101070006830006840F001005149683108601DE0A7
:10108000A06805280DD14E486830006840F0040083
:101090004B49683108600846006840F0010008606C
:1010A0000CE047486830006820F00100444968318E
:1010B00008600846006820F00400086000BFA068CF
:1010C000A8B1FFF7D1FB054609E0FFF7CDFB401BB8
:1010D00041F28831884202D9032077E626E0384879
:1010E00068300068C0F340000028EED013E0FFF73E
:1010F000BBFB054608E0FFF7B7FB401B41F2883118
:10110000884201D9032061E62D4868300068C0F3A9
:1011100040000028EFD1012E07D12948383000685F
:1011200020F0805026493831086000BFA069B8B36C
:101130002348006800F00C0008285ED0A06902284F
:1011400046D100201F490866FFF78EFB054606E0E2
:10115000FFF78AFB401B022801D9032036E6184816
:1011600008380068C0F340600028F1D1D4E90701D5
:101170000843616A40EA81110122A06AC2EB500073
:1011800041EA00412C20005D41EA00600C49091F42
:10119000086001200B490866FFF766FB054607E07B
:1011A0002DE0FFF761FB401B022801D903200DE66B
:1011B000034808380068C0F340600028F1D01EE002
:1011C0000838024000004742800E4742007000404D
:1011D00000200C490866FFF747FB054606E0FFF7CD
:1011E00043FB401B022801D90320EFE506480068B5
:1011F000C0F340600028F2D101E00120E6E50020C4
:10120000E4E50000000047420038024002460023A7
:10121000106800F1500303EB81031868704710B5A4
:101220000023046804F1500303EB81031A6010BD2E
:1012300070B505460B4616460024286840680E49DE
:1012400000EA0104200CD870C4F30420587004F0A4
:101250003F009870C4F3423018705EB9D87801F03E
:10126000ACF9D870587801F0A8F95870987801F066
:10127000A4F99870002070BD3FFFFF0070B50446D0
:101280000B46164600252068806A58602068006971
:10129000C0F30E009860206800680F4900EA01055D
:1012A000C5F305401870C5F30620587005F07F009F
:1012B000987005F48000000CD8705EB9187801F0C1
:1012C0007CF91870587801F078F95870987801F026
:1012D00074F99870002070BD7F7F7F0010B50446C0
:1012E0000CB9012010BD607F20B900202077204676
:1012F00000F060F80220607700BFCA2021684862D1
:1013000053202168486200BF204601F0C5F940B172
:1013100000BFFF202168486200BF042060770120E1
:10132000E0E72068806822490840216888602169D8
:101330006068084361690843216889680843216837
:1013400088602168E068086120680169208941EAB5
:101350000040216808612068C06820F08000216892
:10136000C8602068806800F0200060B9204600F066
:101370003BF940B100BFFF202168486200BF042054
:1013800060770120AEE72068006C20F4802021689F
:1013900008642068006CA16908432168086400BFE4
:1013A000FF202168486200BF01206077002099E794
:1013B000BFFF8FFF704700002DE9F04104460D4646
:1013C0001646002700BF207F012802D10220BDE879
:1013D000F0810120207700BF022060774EB9687845
:1013E00000F01000102804D1687800F0EF000A30F7
:1013F000687086B9E87801F0EBF80304687801F0CA
:10140000E7F843EA0023A87801F0E2F803432878DC
:1014100043EA403709E0E8780004697840EA0120AF
:10142000A9780843297840EA413700BFCA202168DB
:10143000486253202168486200BF204601F02CF921
:1014400060B100BFFF202168486200BF04206077C0
:1014500000BF0020207700BF0120B8E716483840C1
:10146000216848602068C06820F080002168C8605A
:101470002068806800F0200080B9204600F0B4F8B1
:1014800060B100BFFF202168486200BF0420607780
:1014900000BF0020207700BF012098E700BFFF2099
:1014A0002168486200BF0120607700BF00202077DC
:1014B00000BF00BF8BE700003FFFFF002DE9F041B8
:1014C00004460D461646002700BF207F012802D1A2
:1014D0000220BDE8F0810120207700BF0220607764
:1014E000CEB92068806800F0400000B102E0002022
:1014F000E87000BF287801F06BF80304687801F009
:1015000067F843EA0023A87801F062F80343E8781B
:1015100043EA004712E02068806800F0400000B114
:1015200002E00020E87000BF28780004697840EAF3
:101530000120A9780843E97840EA014700BFCA20A2
:101540002168486253202168486200BF204601F0AC
:10155000A3F860B100BFFF202168486200BF0420EB
:10156000607700BF0020207700BF0120B1E71D4851
:101570003840216808602068806820F48020216855
:101580008860D5E903010843216889680843216818
:1015900088602068C06820F080002168C8602068EA
:1015A000806800F0200080B9204600F01DF860B18E
:1015B00000BFFF202168486200BF0420607700BFA1
:1015C0000020207700BF012083E700BFFF202168B3
:1015D000486200BF0120607700BF0020207700BF75
:1015E00000BF76E77F7F7F0070B504460025206846
:1015F000C06820F0A0002168C860FFF735F90546F3
:1016000007E0FFF731F9401BB0F57A7F01D90320DD
:1016100070BD2068C06800F020000028F1D00020D4
:10162000F6E710B504460CB9012010BD606A00B998
:1016300000BFA06AB0F5005F00D100BF94F8510070
:1016400028B9002084F85000204600F03BF8022022
:1016500084F851002068006820F04000216808608C
:10166000D4E901010843E16808432169084361693D
:101670000843218B01F400710843E1690843216AA2
:101680000843A16A0843216808600421A06901EAAF
:101690001040616A084321684860A06AB0F5005FA5
:1016A00002D12168E06A08612068C06920F4006006
:1016B0002168C86100206065012084F85100002085
:1016C000B3E7000010B586B0044600BF00200090CC
:1016D0003948006840F00200374908600846006851
:1016E00000F00200009000BF00BF00BF002000908B
:1016F0000846006840F0020008600846006800F0F4
:101700000200009000BF00BF00BF0020009008460C
:10171000006840F0020008600846006800F002001F
:10172000009000BF00BF00BF002000900846006886
:1017300040F0400008600846006800F0400000905B
:1017400000BF00BF00BF002000901B48143000689D
:1017500040F480501849143108600846006800F4CD
:101760008050009000BF00BF08200190022002902E
:1017700001200390022004900520059001A90F4844
:10178000FEF764FF102001900520059001A90B4889
:10179000FEF75CFF202001900520059001A9074875
:1017A000FEF754FF402001900120029001A9044857
:1017B000FEF74CFF06B010BD303802400004024076
:1017C0000018024070B504460E4615460CB90120BB
:1017D00070BD94F8490028B9002084F848002046DC
:1017E00000F01CF804F108012068FEF7DFFE314626
:1017F000A2682068FEF708FF2946236BD4E901029E
:10180000FEF7B0FEA168206850F8210040F001000A
:10181000A268216841F822000020D9E7704770B51E
:1018200004462546681EB0F1807F01D301200FE0F9
:10183000681E4FF0E02148610F214FF0FF3001F0AA
:101840000DFB00204FF0E021886107200861002097
:1018500070BD10B504460CB9012010BDA06900B1DF
:1018600000E000BF94F8390028B9002084F838005F
:10187000204600F027F8242084F839002068C0684A
:1018800020F400502168C860204601F0CFF820689D
:10189000006920F49040216808612068406920F0C8
:1018A0002A00216848612068C06840F4005021681F
:1018B000C8600020E063202084F8390084F83A00F2
:1018C0000020CAE710B586B0044600BF0020009093
:1018D0002648006840F01000244908600846006867
:1018E00000F01000009000BF00BF00BF002000907B
:1018F0001E481438006840F002001C491439086082
:101900000846006800F00200009000BF00BF00BF62
:10191000002000900846006840F002000860084679
:10192000006800F00200009000BF00BF402001905E
:1019300002200290012003900320049007200590CC
:1019400001A90B48FEF782FE802001900720059038
:1019500001A90748FEF77AFE012200212520FEF7A3
:10196000CBFF2520FEF7B8FF06B010BD443802407B
:10197000000402402DE9F84304460D4616461F4672
:101980004FF0000994F8390020285CD105B116B950
:101990000120BDE8F88300BF94F83800012801D188
:1019A0000220F6E7012084F8380000BF0020E06341
:1019B000212084F83900FEF757FF8146A684E6848B
:1019C0002BE0E08C401EE084A068B0F5805F16D16B
:1019D0004B46002280212046009701F0DBF908B138
:1019E0000320D6E7A846B8F80000C0F30800216835
:1019F0004860206908B9AD1C0FE06D1C0DE04B4636
:101A0000002280212046009701F0C4F908B103208C
:101A1000BFE715F8010B21684860E08C0028D0D1A1
:101A20004B46002240212046009701F0B3F908B14F
:101A30000320AEE7202084F8390000BF002084F89E
:101A4000380000BFA5E70220A3E700BFFEE70000C3
:101A500018B12021034A916103E04FF40011014ABB
:101A600091617047001002402DE9F04106460F4693
:101A700014461D462B4622463946304600F0FCF9F6
:101A800004FB05F00249098800F0DAF8BDE8F081AE
:101A90002A00002001B502E00098401E0090009846
:101AA0000028F9D108BD00002DE9F05F8046894685
:101AB0001646A6F120001FFA80FA1E490968898897
:101AC0001C4A1268D28801FB02F0C11700EB517169
:101AD000C1F3C7071748006800680AFB070B1548E1
:101AE0000068C3881348006882884946404600F071
:101AF000C3F92C2000F0F8FB002416E0002510E0CC
:101B00001BF8040080212941084020B10A480088C0
:101B100000F0EEFB03E00948008800F0E9FB681CD8
:101B2000C5B2082DECDB601CC4B2BC42E6DBBDE8EC
:101B3000F09F000024000020280000202A00002040
:101B400070B504460D46002624E030461349096866
:101B50008988084412490988884205DD00260F4813
:101B60000068C088204484B220460C490968C988AE
:101B700008440C490988884201DD002600242A789F
:101B800021463046FFF790FF6D1C044800688088AE
:101B9000304486B228780028D7D170BD24000020B8
:101BA0001C0000201E00002008B54FF020402049F6
:101BB00008602048486000BF002000901E48006870
:101BC00040F001001C4908600846006800F0010070
:101BD000009000BF00BF0420184908600020486042
:101BE000042088600020C860086148614FF0805080
:101BF000886104200E49886000210D48C1600821D9
:101C000001611021416100218161C16141624FF494
:101C1000805181620021C1620163416381634FF49D
:101C20008011C163054A1146FFF7CCFD08BD0000D5
:101C300048010020040100A038380240980100202B
:101C400070B504460D4600262C2000F04DFB00BF69
:101C500003E0284600F04CFB761CA642F9D370BD89
:101C600000B587B000BF002001903F48006840F0F9
:101C700008003D4908600846006800F0080001902F
:101C800000BF00BF00BF002001900846006840F080
:101C9000100008600846006800F01000019000BFC6
:101CA00000BF00BF002001900846006840F02000FF
:101CB00008600846006800F02000019000BF00BFE7
:101CC00000BF002001900846006840F04000086016
:101CD0000846006800F04000019000BF00BF00BF50
:101CE0000020019020480830006840F001001E49A3
:101CF000083108600846006800F00100019000BF4C
:101D000000BF012003900490032005902020029042
:101D100002A91648FEF79AFC4FF48060029002A9CF
:101D20001348FEF793FC4FF40060029002A911489B
:101D3000FEF78CFC022003900C2006904CF23370CE
:101D4000029002A90C48FEF781FC4FF680700290C9
:101D500002A90648FEF77AFC0120029002A9054874
:101D6000FEF774FC07B000BD30380240001002409E
:101D70000018024000140240000C024010B5044656
:101D8000072C00DD10BD29480470204604EBD071FB
:101D90004910A4EB410141B94FF4F0702449088087
:101DA00040F256302349088007E040F2563020497F
:101DB00008804FF4F0701F490880362000F094FA34
:101DC000002141EA441000F093FA2A2000F08CFA36
:101DD000002000F08DFA002000F08AFA14490988EA
:101DE000491EC1F3072000F083FA11490978491E02
:101DF000C8B200F07DFA2B2000F076FA002000F047
:101E000077FA002000F074FA0A490988491EC1F3E4
:101E1000072000F06DFA07490978491EC8B200F0A2
:101E200067FA2C2000F060FA00BFABE7200000202A
:101E30001C0000201E00002010B5FFF711FFFFF767
:101E4000B3FE00F03DFA00F047F808480078FFF7CD
:101E500095FF074803880748028800210846FFF7D6
:101E600003FE0120FFF7F4FD10BD0000200000205C
:101E70001E0000201C0000202DE9F04104460D4604
:101E800016461F462A2000F02FFA201200F030FAE2
:101E9000E0B200F02DFAA119491EC1F30F2000F0A5
:101EA00027FAA119491EC8B200F022FA2B2000F02F
:101EB0001BFA281200F01CFAE8B200F019FAE9192E
:101EC000491EC1F30F2000F013FAE919491EC8B2E8
:101ED00000F00EFABDE8F08110B54FF4A040FEF717
:101EE00036FBFF2000F000FAFF2000F001FA9820F6
:101EF00000F0FEF9062000F0FBF94FF4A040FEF7D9
:101F000026FBBA2000F0F0F9602000F0F1F94FF460
:101F1000A040FEF71CFBBC2000F0E6F9032000F017
:101F2000E7F90E2000F0E4F9612000F0E1F9FF206C
:101F300000F0DEF9052000F0DBF9052000F0D8F90B
:101F40001B2000F0D5F9102000F0D2F9732000F02A
:101F5000CFF9632000F0CCF9FF2000F0C9F9FF2091
:101F600000F0C6F9052000F0C3F9052000F0C0F923
:101F7000002000F0BDF9002000F0BAF9D52000F0F3
:101F8000B7F9D02000F0B4F9012000F0B1F9002039
:101F900000F0AEF9402000F0ABF94FF4A040FEF79E
:101FA000D6FABD2000F0A0F9012000F0A1F923200D
:101FB00000F09EF9452000F09BF9672000F098F9A9
:101FC000012000F095F9232000F092F9452000F05F
:101FD0008FF9672000F08CF94FF4A040FEF7B7FAB4
:101FE000BE2000F081F9012000F082F92D2000F0E0
:101FF0007FF9CB2000F07CF9A22000F079F9622073
:1020000000F076F9F22000F073F9E22000F070F9A8
:10201000222000F06DF9222000F06AF94FF4A04070
:10202000FEF795FAC72000F05FF9632000F060F931
:102030004FF4A040FEF78BFAED2000F055F97F2019
:1020400000F056F90F2000F053F9002000F050F98D
:102050004FF4A040FEF77BFAC02000F045F90320C2
:1020600000F046F90B2000F043F9002000F040F9A1
:102070004FF4A040FEF76BFAFC2000F035F9082081
:1020800000F036F94FF4A040FEF761FADF2000F0CF
:102090002BF9002000F02CF9002000F029F9002095
:1020A00000F026F9002000F023F9002000F020F9CC
:1020B000202000F01DF94FF4A040FEF748FAF3206D
:1020C00000F012F9742000F013F94FF4A040FEF76D
:1020D0003EFAF92000F008F9002000F009F9FD208F
:1020E00000F006F9802000F003F9802000F000F9EC
:1020F000C02000F0FDF84FF4A040FEF728FAB4200D
:1021000000F0F2F8022000F0F3F8022000F0F0F8FE
:10211000022000F0EDF84FF4A040FEF718FAF72087
:1021200000F0E2F8812000F0E3F84FF4A040FEF761
:102130000EFAB12000F0D8F8002000F0D9F81320F2
:1021400000F0D6F8132000F0D3F84FF4A040FEF7CB
:10215000FEF9F22000F0C8F8C02000F0C9F8022013
:1021600000F0C6F8402000F0C3F8282000F0C0F8C6
:102170004FF4A040FEF7EBF9C12000F0B5F81720AE
:1021800000F0B6F8752000F0B3F8752000F0B0F854
:10219000202000F0ADF84FF4A040FEF7D8F9E02081
:1021A00000F0A2F8002000F0A3F8052000F0A0F84D
:1021B000082000F09DF80C2000F09AF80F2000F0A5
:1021C00097F8152000F094F8092000F091F8072006
:1021D00000F08EF8012000F08BF8062000F088F85F
:1021E000092000F085F8162000F082F8142000F095
:1021F0007FF83E2000F07CF83E2000F079F80020C7
:1022000000F076F84FF4A040FEF7A1F9E12000F0CD
:102210006BF8002000F06CF8092000F069F812203B
:1022200000F066F8122000F063F8132000F060F868
:102230001C2000F05DF8072000F05AF8082000F09C
:1022400057F8052000F054F8082000F051F803205A
:1022500000F04EF8022000F04BF8042000F048F89F
:102260001E2000F045F81B2000F042F8002000F08E
:102270003FF84FF4A040FEF76AF93A2000F034F836
:10228000552000F035F84FF4A040FEF760F93520F6
:1022900000F02AF8002000F02BF84FF4A040FEF7E1
:1022A00056F9112000F020F84FF4A040FEF74FF946
:1022B000292000F019F84FF4A040FEF748F910BDAE
:1022C00010B54FF000600749086040F6FF20FFF7A7
:1022D000E1FB4FF400600349086040F6FF20FFF780
:1022E000D9FB10BD181402404FF0D0410880704750
:1022F0004FF0D0414880704723E00121114800F0A1
:10230000C5F8012809D110A000F07CFD1248006832
:1023100001F0F8FC11A000F075FD4FF400511448D5
:1023200000F0B4F8012809D112A000F06BFD0A48B2
:10233000006801F03BFC13A000F064FD142001F0E4
:1023400071FBDAE700000240B9D2C6F0546573743D
:10235000C8CECEF1A3A10A0014000020B9D2C6F065
:1023600054657374C8CECEF1B3C9B9A6A3A10A004F
:1023700000080240BBD6B8B454657374C8CECEF121
:10238000A3A10A00BBD6B8B454657374C8CECEF10D
:10239000B3C9B9A6A3A10A0000B587B000BF002049
:1023A00001903648006840F0010034490860084652
:1023B000006800F00100019000BF00BF00BF0020D6
:1023C00001900846006840F0040008600846006874
:1023D00000F00400019000BF00BF00BF002001908A
:1023E0000846006840F0400008600846006800F0B9
:1023F0004000019000BF00BF00BF002001900846D0
:10240000006840F0400008600846006800F04000A6
:10241000019000BF00BF00BF002001900846006887
:1024200040F0400008600846006800F0400001905D
:1024300000BF00BF0120029000200390049002A979
:102440000F48FEF703F94FF40050029002A90D481F
:10245000FEF7FCF80420029002A90B48FEF7F6F8FC
:102460000820029002A90848FEF7F0F81020029018
:1024700002A90548FEF7EAF807B000BD303802406F
:1024800000000240000802400018024070B50446F7
:102490000D4629462046FEF7D9F9012808D100BF8C
:1024A00029462046FEF7D2F90128F9D0012070BD57
:1024B0000020FCE70148006870470000240000206D
:1024C00000B587B000BF002001903548006840F09B
:1024D0000100334908600846006800F001000190DF
:1024E00000BF00BF00BF002001900846006840F018
:1024F000100008600846006800F01000019000BF5E
:1025000000BF00BF002001900846006840F0400076
:1025100008600846006800F04000019000BF00BF5E
:1025200000BF002001900846006840F002000860EB
:102530000846006800F00200019000BF00BF4FF4A1
:10254000004002900120039004900320059002A90E
:102550001448FEF77BF80420029002A91248FEF707
:1025600075F84FF40040029002A91048FEF76EF88B
:102570004FF48070029002A90D48FEF767F84FF4FF
:1025800000400849886104200749886140030749E1
:1025900018310860C01106491831086007B000BD45
:1025A0003038024000000240001002400018024093
:1025B0000004024000BFFEE77047014600BF080963
:1025C00000EB8000420001F00F001044C0B27047E1
:1025D0000146002203E0521CA1F10A00C1B20A29FF
:1025E000F9D2100741EA10607047000000B591B0C1
:1025F0001E481F49086000BF002000901D48006869
:1026000040F080501B4908600846006800F0805088
:10261000009000BF00BFFEF7C1F90C20059000201C
:102620000B900120079000200A9005A8FEF7CAFB36
:1026300002200190C001049001A8FEF7B5F9012025
:102640000D4908600A48FEF7CFFF7F2108488160E6
:10265000FF21C1600020064948600846FEF73EFEA3
:1026600010B106A000F0CEFB11B000BD0028004064
:1026700034460020403802403C0E47420A0D2052AA
:10268000544320CAB1D6D3B3F5CABCBBAFCAA7B0B6
:10269000DC200D0A0000000070B50446002520680B
:1026A000C06800F04000A0B9681E2168C860FEF74D
:1026B000DBF8054607E0FEF7D7F8401BB0F57A7F58
:1026C00001D9032070BD2068C06800F040000028D8
:1026D000F1D00020F6E7000000B587B000208DF8AB
:1026E000070001208DF804008DF805008DF8060024
:1026F000002201A90C48FEF7E1FE01208DF8180028
:102700008DF81A008DF819008DF81B00002206A91B
:102710000548FEF751FE43F2F22200210248FEF77F
:102720007EFD07B000BD000034460020A2B00024AA
:1027300052E0002204A92948FEF7A0FD002203A9C7
:102740002648FEF775FD9DF81200A04242D09DF884
:102750000C0000909DF80E309DF80D209DF80F1094
:102760001FA000F04FFB9DF80C009DF80E10CDE966
:1027700000109DF80D309DF80F2027A109A800F04A
:1027800051FBFFF797FEC0884004050C09A92846B5
:10279000FFF7D6F99DF812309DF811209DF8101022
:1027A0002AA000F02FFB9DF8120000909DF8113038
:1027B0009DF810202EA109A800F034FBFFF77AFE47
:1027C000C08800EB800085B209A92846FFF7B8F958
:1027D0002F4800689DF81240ABE700003446002007
:1027E0005468652044617465203A2020593A32309B
:1027F00025302E3264202D204D3A25302E32642093
:102800002D20443A25302E3264202D20573A253091
:102810002E32640D0A00000054686520446174651E
:10282000203A2020593A323025302E3264202D2093
:102830004D3A25302E3264202D20443A25302E3258
:1028400064202D20573A25302E32640054686520CC
:1028500054696D65203A202025302E32643A2530A7
:102860002E32643A25302E3264200D0A0D0A000003
:102870005468652054696D65203A202025302E3239
:10288000643A25302E32643A25302E32640000003E
:102890000428004010B5134813490860002112486D
:1028A000C1618160012141610221016100218162D8
:1028B0000721C1620021C16001624FF40071816192
:1028C000002141624FF48270074948600846FEF7D4
:1028D000A8FE05480068006840F040000249096809
:1028E000086010BD00300140F000002010B501F07C
:1028F000DFFB012801D001F091FBFDF7BBFF10BD0C
:1029000000B593B000BF002001902A48006840F055
:102910008050284908600846006800F08050019007
:1029200000BF00BF00BF002001902348006840F4B2
:102930008040214908600846006800F4804001900A
:1029400000BF00BF01200290000403900220089005
:102950004105099119210A914FF4A8710B910221A7
:102960000C9107210D9102A8FEF72CFA08B100BFC7
:10297000FEE70F200E9002200F90002010904FF4E1
:10298000A05011904FF48050129005210EA8FEF730
:10299000DBF808B100BFFEE7FDF760FF41F201017F
:1029A000884205D10548006840F4807003490860FA
:1029B00013B000BD4038024000700040003C0240AF
:1029C0001448006840F4700012490860124800681A
:1029D00040F001001049086000200F4908310860EC
:1029E0000D4800680D4908400B4908600C48091D56
:1029F0000860081F006820F48020091F086000207C
:102A000005490C3108604FF00060024980390860C8
:102A10007047000088ED00E000380240FFFFF6FE3E
:102A20001030002401E0FFF781FEFCE72DE9F041C2
:102A300004462068006920F44050E168084321689A
:102A400008612169A068084361690843E16940EAB7
:102A500001052068C06849F20C6188432843216859
:102A6000C8602068406920F44070A169084321686B
:102A70004861E069B0F5004F7ED1C44920688842C2
:102A800003D0C349206888425DD1FEF733F900EBDB
:102A9000C00101EB001061684900B0FBF1F0642156
:102AA000B0FBF1F00601FEF725F900EBC00101EBE8
:102AB000001061684900B0FBF1F7FEF71BF900EB6D
:102AC000C00101EB001061684900B0FBF1F0642126
:102AD000B0FBF1F000EBC00101EB0010A7EB8000B0
:102AE000322101EBC0006421B0FBF1F000F0F800EE
:102AF00006EB4006FEF7FEF800EBC00101EB00100C
:102B000061684900B0FBF1F7FEF7F4F800EBC00193
:102B100001EB001061684900B0FBF1F06421B0FBEB
:102B2000F1F000EBC00101EB0010A7EB80003221B7
:102B300001EBC0006421B0FBF1F000F0070030446D
:102B40002168886020E1FEF7C5F800EBC00101EBC9
:102B5000001061684900B0FBF1F06421B0FBF1F0B6
:102B60000601FEF7B7F800EBC00101EB0010616849
:102B70004900B0FBF1F700E045E0FEF7ABF800EBF1
:102B8000C00101EB001061684900B0FBF1F0642165
:102B9000B0FBF1F000EBC00101EB0010A7EB8000EF
:102BA000322101EBC0006421B0FBF1F000F0F8002D
:102BB00006EB4006FEF78EF800EBC00101EB0010BB
:102BC00061684900B0FBF1F7FEF784F800EBC00143
:102BD00001EB001061684900B0FBF1F06421B0FB2B
:102BE000F1F000EBC00101EB0010A7EB80003221F7
:102BF00001EBC0006421B0FBF1F000F007003044AD
:102C000021688860C0E061492068884203D060493B
:102C1000206888425CD1FEF76DF800EBC00101EB43
:102C2000001061688900B0FBF1F6FEF763F800EB75
:102C3000C00101EB001061688900B0FBF1F0642174
:102C4000B0FBF1F000EBC00101EB0010A6EB80003F
:102C5000322101EB00106421B0FBF1F000F0F0062E
:102C6000FEF748F800EBC00101EB00106168890035
:102C7000B0FBF1F06421B0FBF1F006EB0016FEF7BB
:102C800039F800EBC00101EB001061688900B0FB6E
:102C9000F1F7FEF72FF800EBC00101EB00106168BF
:102CA0008900B0FBF1F06421B0FBF1F000EBC00152
:102CB00001EB0010A7EB8000322101EB0010642132
:102CC000B0FBF1F000F00F003044216888605BE059
:102CD000FEF700F800EBC00101EB0010616889000D
:102CE000B0FBF1F6FDF7F6FF00EBC00101EB0010C1
:102CF00061688900B0FBF1F06421B0FBF1F000EBFA
:102D0000C00101EB0010A6EB8000322101EB0010A6
:102D10006421B0FBF1F000F0F006FDF7DBFF00EB03
:102D2000C00101EB001061688900B0FBF1F0642183
:102D3000B0FBF1F006EB0016FDF7CCFF00EBC00195
:102D400001EB001061688900B0FBF1F7FDF7C2FFED
:102D500000EBC00101EB001061688900B0FBF1F0ED
:102D60006421B0FBF1F000EBC00101EB0010A7EB18
:102D70008000322101EB00106421B0FBF1F000F083
:102D80000F00304421688860BDE8F08100100140E8
:102D9000001401402DE9F04104460D4617469846BF
:102DA000069E21E0701CF8B12EB1FDF75DFDA0EB91
:102DB0000800B04218D92068C06820F4D07021689B
:102DC000C8602068406920F0010021684861202027
:102DD00084F8390084F83A0000BF002084F83800F5
:102DE00000BF0320BDE8F081206800682840A842A9
:102DF00001D1012000E00020B842D3D00020F1E74B
:102E000000BFFEE70FB4054B10B503A9044A0298B2
:102E100000F048F810BC5DF814FB000069300008B1
:102E2000AC0000200FB4084B10B504A902AA039807
:102E300000F038F8044602A9002000F00FF92046FF
:102E400010BC5DF814FB00005D300008024800680B
:102E5000C0F30220704700000CED00E010B5002820
:102E600004DB0A07130E054A135406E00A07140E82
:102E7000034A00F00F031B1FD45410BD00E400E010
:102E800018ED00E002E008C8121F08C1002AFAD1BC
:102E900070477047002001E001C1121F002AFBD1DA
:102EA000704700002DE9FF4F8BB09A460F4605464C
:102EB000002606E025280BD052460D9990476D1C40
:102EC000761C28780028F5D10FB03046BDE8F08F89
:102ED0000024A0460122604900E0044315F8013FA8
:102EE000203B02FA03F00842F7D128782E2817D1A8
:102EF00015F8010F44F004042A280ED06FF02F02B9
:102F00002878A0F1300109290AD808EB880102EBE2
:102F1000410100EB01086D1CF2E757F8048B6D1CB2
:102F2000287869283ED006DC0028CDD063280BD055
:102F3000642804D136E0732810D075284BD052464F
:102F40000D999047761C85E017F8040B8DF800006A
:102F500000208DF80100E946012003E057F8049BAA
:102F60004FF0FF3061074FF0000401D40AE0641C09
:102F700044450DDA8442FADB19F804100029F6D131
:102F800006E0641C8442FCDB19F804100029F8D127
:102F9000264404E019F8010B52460D999047641E2F
:102FA000F8D257E001CF4FF00A0B002802DA404276
:102FB0002D2102E0210504D52B218DF824100121BB
:102FC00003E0E10705D02021F7E70DF12009089182
:102FD0000CE00021F9E701CF4FF00A0BF9E7594661
:102FE000FDF77BF901F1300209F8012D0028F6D137
:102FF000ADEB090000F1200B600701D44FF0010890
:10300000D84502DDA8EB0B0000E00020804600243C
:1030100006E009A85246005D0D999047641C761C95
:1030200008988442F5DB04E0302052460D99904721
:10303000761CB8F10001A8F10108F5DC05E019F8EB
:10304000010B52460D999047761CBBF10001ABF184
:10305000010BF4DC6D1C34E7092801000A68531CDD
:103060000B6010707047000013B50C464FF47A7374
:10307000012269460248FEF77DFC00981CBD000055
:10308000B00000201CB50124FDF7CAF90AA0FFF723
:10309000B9FE17A0FFF7B6FE2148012100234A021E
:1030A000CDE900101FA1234800F0D2FF04460CB167
:1030B00000F0D4FD00BFFEE7D5E2CAC7D2BBB8F628
:1030C0005BD2B0BBF05D2D53544D3332C8ABCFB59E
:1030D000C1D0BFAAB7A2B0E52D4672656552544F64
:1030E00053B9CCBCFEBFE2C0FDB3CCA3A10A0A0019
:1030F000B0B4CFC24B455931B9D2C6F0C8CECEF12B
:10310000A3ACB0B4CFC24B455932BBD6B8B4C8CECD
:10311000CEF1A3AC4C4344CFD6CAB50A00000000A0
:10312000100000204170705461736B4372656174CC
:1031300065000000690300082DE9F04105460E46D0
:103140001C4807681C480068001D00F03FFB50B990
:103150001948006890F82C10012088401749096828
:10316000814316480160681C38B936B112480168BD
:10317000091D134800F068FB1AE07C190E4800682E
:103180004460BC4207D20C480168091D0D48006824
:1031900000F040FB0CE008480168091D0A4800687F
:1031A00000F038FB09480068844201D207480460F7
:1031B000BDE8F081600000204C0000206400002089
:1031C0002449002054000020500000207C000020F2
:1031D00010B5044600F044FB23480068401C224917
:1031E00008602248006840B920480460084600682A
:1031F00001280DD100F036F90AE01D48006838B901
:103200001A480068C06AE16A884201D81748046019
:1032100018480068401C1749086094F82C100120D9
:10322000884015490968084313490860E16A01EBC1
:103230008101124A02EB8100211D00F005FB00F024
:1032400051FB0B48006868B108480068C06AE16A31
:10325000884207D24FF0805009490860BFF34F8F72
:10326000BFF36F8F10BD00005C0000204C000020F9
:1032700068000020780000206400002054460020F0
:1032800004ED00E070B523E000F0BEFD13480068D7
:1032900008B9012000E00020054600F0CBFFBDB9D1
:1032A00000F0DEFA0D48C068C468201D00F08EFAF8
:1032B0000B480068401E0A4908600A480068401E22
:1032C0000849086000F00EFB204600F00DF800BF32
:1032D000044800680028D7D170BD000010490020C4
:1032E0005C0000205800002010B50446206B00F060
:1032F0002FFB204600F02CFB10BD000030B54FF432
:103300001043174800F007042CB1C01D20F007003F
:10331000134C041B1B1B0246124C22600024114D4F
:103320006C60D018083820F007000F4C2060002493
:103330000D4D2D686C600C4D2D682C601146441AA3
:103340004C60094C24680C60084D4C682C60084D9A
:103350004C682C604FF00044064D2C6030BD0000DE
:1033600038490020880000209000002098000020AC
:10337000940000209C00002000BFFFF783FF064858
:1033800000680128F9D94FF0805004490860BFF364
:103390004F8FBFF36F8FF0E75446002004ED00E03D
:1033A0002DE9FF5F81460E469246DDE90E7B109CBB
:1033B000AAF10100216B01EB800828F0070808F052
:1033C000070008B9012000E0002028B940F22B32A4
:1033D0001AA120A0FFF716FD002507E0715D04F19A
:1033E00034004155705D00B902E06D1C102DF5D31D
:1033F00000BF002143200155202F00D31F27E76283
:10340000201D00F004FA04F1180000F000FA246115
:10341000C7F12000A06164620020606484F8480065
:1034200049464046039A00F0BBF92060BBF1000F0B
:1034300001D0CBF80040BDE8FF9F00002E2E5C4677
:1034400072656552544F535C7372635C7461736B45
:10345000732E63004572726F723A25732C25640DCA
:103460000A00000010B5002407E004EB84010F4AB5
:1034700002EB810000F0BEF9641C202CF5D30C484F
:1034800000F0B8F90B4800F0B5F90B4800F0B2F9BC
:103490000A4800F0AFF90A4800F0ACF904480949BD
:1034A000086004480849086010BD00005446002028
:1034B000D4480020E8480020FC48002010490020A3
:1034C00024490020500000205400002010B501467F
:1034D000164800E0006803688B42FBD3024643684D
:1034E00013448B4204D143684C6823444360014633
:1034F0000A464B6813440468A34211D10C4C03687C
:103500002468A34208D04B680468646823444B6075
:1035100003681B680B6005E0054B1B680B6001E04E
:1035200003680B60884200D0016010BD8800002055
:10353000900000200A490968096809B9012100E0E2
:10354000002121B14FF0FF31064A116006E0044925
:103550000968C968C868034A41681160704700007B
:10356000500000207C0000200C480068401C08B976
:10357000012000E0002028B940F20F1208A112A09B
:10358000FFF740FC00BF502080F31188BFF34F8F3E
:10359000BFF36F8F00BF00BFFEE70000A000002058
:1035A0002E2E5C4672656552544F535C706F727478
:1035B0005C525644535C41524D5F434D34465C70FF
:1035C0006F72742E630000004572726F723A257339
:1035D0002C25640D0A00000070B5054600262C4617
:1035E0002DB940F281620EA113A0FFF70BFC164922
:1035F0006069884201D1012000E0002070B11349C8
:10360000A06A884201D1012000E0002030B9A06A00
:1036100008B9012000E0002000B10126304670BD4D
:103620002E2E5C4672656552544F535C7372635C18
:103630007461736B732E63004572726F723A2573F7
:103640002C25640D0A00000024490020FC480020BD
:103650002DE9F04104464FF0000800F0D5FB3E484C
:10366000006808B9FFF74AFE3C480068204000287F
:103670005FD1A4B1083404F0070080B104F0070062
:10368000C0F10800044404F0070008B9012000E07C
:10369000002020B9BF2232A13AA0FFF7B3FB002CD3
:1036A00047D03C480068844243D83B4E30460568CA
:1036B00001E02E462D686868A04202D228680028E2
:1036C000F7D125480068854233D0306800F10808FA
:1036D000286830606868001B102813D92F1907F07C
:1036E000070008B9012000E0002020B9EC221CA14D
:1036F00024A0FFF787FB6868001B78606C60384681
:10370000FFF7E4FE234968680968081A2149086040
:103710000846006821490968884203D21D480068AC
:103720001E4908600D496868096808436860002000
:10373000286000F07FFD08F0070008B9012000E0D4
:10374000002028B94FF4967205A10EA0FFF75AFB8E
:103750004046BDE8F0810000900000209C00002061
:103760002E2E5C4672656552544F535C706F7274B6
:103770005C4D656D4D616E675C686561705F342E90
:10378000630000004572726F723A25732C25640D38
:103790000A0000009400002088000020980000200B
:1037A000001F4FF080730360001F21F001030360CE
:1037B000001F054B036014380260001F6FF0020306
:1037C00003602038704700006935000801460A6927
:1037D000D1E901309860D1E901035860506888420E
:1037E00001D188685060002008611068401E106098
:1037F0001068704700F1080141604FF0FF318160AF
:1038000000F10801C16001610021016070470021E1
:103810000161704710B502460B685C1C0CB9106959
:1038200007E002F1080000E04068446824689C4218
:10383000FAD944684C604C68A160886041600A61B4
:103840001468641C146010BD42684A6093688B6001
:10385000936859609160086103685B1C036070475E
:1038600010B500BF502080F31188BFF34F8FBFF316
:103870006F8F00BF0B480068401C0A49086008466B
:10388000006801280DD108480068C0B208B90120BD
:1038900000E0002028B940F2B91204A10DA0FFF702
:1038A000B1FA10BDA000002004ED00E02E2E5C4611
:1038B00072656552544F535C706F72745C5256441B
:1038C000535C41524D5F434D34465C706F72742EB1
:1038D000630000004572726F723A25732C25640DE7
:1038E0000A00000010B50B48006828B94FF4E072D8
:1038F00009A113A0FFF786FA06480068401E054993
:1039000008600846006820B9002080F3118800BFD5
:1039100000BF10BDA00000202E2E5C4672656552CF
:10392000544F535C706F72745C525644535C4152F6
:103930004D5F434D34465C706F72742E630000001F
:103940004572726F723A25732C25640D0A000000CF
:1039500070B506463546002E35D0083D2C461A492E
:1039600060680968084008B1012000E0002028B91B
:103970004FF4A07215A11EA0FFF744FA206808B901
:10398000012000E0002028B940F241120FA118A048
:10399000FFF738FA0C4960680968084098B1206858
:1039A00088B90949606809688843606000F02CFAAA
:1039B0001349606809680844114908602046FFF708
:1039C00085FD00F037FC70BD9C0000202E2E5C466B
:1039D00072656552544F535C706F72745C4D656DC7
:1039E0004D616E675C686561705F342E6300000036
:1039F0004572726F723A25732C25640D0A0000001F
:103A000094000020064800684FF47A71B0FBF1F092
:103A1000401E4FF0E0214861072008617047000018
:103A20000000002070B504460025ACB10F480068C6
:103A300008B9012000E0002028B940F2CF420CA1D3
:103A400011A0FFF7DFF900F0DFF900212046FFF7B2
:103A500073FB00F0EFFB05463DB94FF080500E4977
:103A60000860BFF34F8FBFF36F8F70BD84000020DD
:103A70002E2E5C4672656552544F535C7372635CC4
:103A80007461736B732E63004572726F723A2573A3
:103A90002C25640D0A00000004ED00E070B5054619
:103AA000FFF7DEFE15B92D48006800E02846044601
:103AB000201DFFF78BFE78B9E06A00EB80002849F3
:103AC00051F8200040B994F82C1001208840254975
:103AD0000968814323480160A06A18B104F1180005
:103AE000FFF774FE20480068401C1F4908601B480F
:103AF0000068844209D1211D1C48FFF7A5FE1C481F
:103B00000068401C1A49086009E01A480068401E15
:103B1000184908602046FFF7E7FBFFF70BFDFFF7AA
:103B2000E1FE15480068C0B10C480068844214D119
:103B30001248006808B9012000E0002028B940F2CE
:103B400065420FA114A0FFF75DF94FF080501649B0
:103B50000860BFF34F8FBFF36F8F70BD4C00002024
:103B60005446002064000020780000201049002006
:103B7000580000205C000020680000208400002025
:103B80002E2E5C4672656552544F535C7372635CB3
:103B90007461736B732E63004572726F723A257392
:103BA0002C25640D0A00000004ED00E070B5054608
:103BB0002C462DB940F2AB621AA120A0FFF722F9E2
:103BC00074B32248006884422AD0FFF749FE204699
:103BD000FFF702FD10B3201DFFF7F8FD94F82C103D
:103BE000012088401A490968084319490860E16AB8
:103BF00001EB8101174A02EB8100211DFFF724FE32
:103C00001249E06A0968C96A884207D34FF08050B8
:103C100011490860BFF34F8FBFF36F8FFFF762FE4C
:103C200070BD00002E2E5C4672656552544F535C89
:103C30007372635C7461736B732E63004572726F91
:103C4000723A25732C25640D0A0000004C000020F8
:103C5000640000205446002004ED00E01CB5184824
:103C600000210B468022CDE9001016A1174800F074
:103C7000EFF90446012C15D100BF502080F31188C4
:103C8000BFF34F8FBFF36F8F00BF4FF0FF3010496E
:103C9000086001200F49086000200F49086000F00B
:103CA00011F90BE0601C08B1012000E0002028B9E8
:103CB00040F2847209A10FA0FFF7A4F81CBD000018
:103CC0008000002049444C45000000007933000882
:103CD0007C00002068000020600000202E2E5C4642
:103CE00072656552544F535C7372635C7461736B9D
:103CF000732E63004572726F723A25732C25640D22
:103D00000A00000070B50546FFF7AAFD15B92C485A
:103D1000006800E028460446201DFFF757FD78B9EB
:103D2000E06A00EB8000274951F8200040B994F880
:103D30002C100120884024490968814322480160F1
:103D4000A06A18B104F11800FFF740FD211D1F48BB
:103D5000FFF77AFDFFF7C6FD1D48006828B1FFF7A1
:103D60007FFDFFF7E7FBFFF7BDFD154800688442C4
:103D700024D117480068A8B11648006808B9012086
:103D800000E0002028B940F2576213A118A0FFF705
:103D900039F84FF080501A490860BFF34F8FBFF3D6
:103DA0006F8F0BE00948006816490968884203D103
:103DB00000200349086001E000F02EF870BD00000B
:103DC0004C000020544600206400002024490020BC
:103DD00068000020840000202E2E5C46726565522B
:103DE000544F535C7372635C7461736B732E630026
:103DF0004572726F723A25732C25640D0A0000001B
:103E000004ED00E05C00002002480068401C01490D
:103E1000086070478400002010B51B48006818B186
:103E200001201A4908602DE0002018490860184850
:103E30000068B0FA80F0C0F11F0404EB840015495B
:103E400051F8200008B1012000E0002028B940F618
:103E5000F62211A116A0FEF7D5FF04EB84010D4A4E
:103E600002EB810041684968416000F10801426845
:103E70008A4202D14168496841604168C968104A74
:103E8000116000BF10BD0000840000207000002001
:103E900064000020544600202E2E5C467265655258
:103EA000544F535C7372635C7461736B732E630065
:103EB0004572726F723A25732C25640D0A0000005A
:103EC0004C0000201CB5404800684049884201D0A1
:103ED000012000E0002028B940F259123CA146A080
:103EE000FEF790FF384800683849491E884201D0E3
:103EF000012000E0002028B94FF4AD7234A13EA0AB
:103F0000FEF780FF404C204600780190FF202146BC
:103F100008700846007800909DF8000000F0F0005E
:103F20009DF80010884201D1012000E0002028B94E
:103F300040F2731226A130A0FEF764FF9DF8000046
:103F400000F050003149087007203149086009E04D
:103F50002F480068401E2E4908609DF8000040066A
:103F6000000E00909DF8000000F080008028EFD047
:103F7000274800680002264908600846008800F4C7
:103F8000E06008602049019808700F482030006800
:103F900040F470000C49203108600846006840F089
:103FA00070400860FFF72EFD00201A490860FCF7FA
:103FB00015F91948006840F0404017490860FCF7BF
:103FC000FDF800201CBD000000ED00E071C20F41B3
:103FD0002E2E5C4672656552544F535C706F72743E
:103FE0005C525644535C41524D5F434D34465C70C5
:103FF0006F72742E630000004572726F723A2573FF
:104000002C25640D0A00000000E400E0A40000205C
:10401000A8000020A000002034EF00E010B500BF91
:10402000502080F31188BFF34F8FBFF36F8F00BF15
:1040300000F04EF818B14FF080500449086000BFFE
:10404000002080F3118800BF10BD000004ED00E0E7
:104050002DE9FF4F85B0804689461746DDE912AB52
:10406000B800FFF7F5FA064656B14C20FFF7F0FA14
:1040700004460CB1266304E03046FFF769FC00E01B
:1040800000247CB10020CDE900ABCDE902403A46E6
:1040900049464046089BFFF783F92046FFF798F80A
:1040A000012501E04FF0FF35284609B0BDE8F08F4B
:1040B0000549096809B9012005E00449096809B9F9
:1040C000022000E0002070476800002084000020EB
:1040D0002DE9F0414FF0000841480068002872D1F6
:1040E00040480068451C3F480560EDB93E480068FF
:1040F000006808B9012000E0002028B940F6D91274
:104100003AA140A0FEF77EFE3748076841480068A4
:10411000354908603F4807603F480068401C3E49F9
:104120000860FFF707FA00BF3C48006885423CD3AF
:1041300000BF2D480068006808B9012000E0002099
:1041400020B14FF0FF30354908602DE02648006867
:10415000C068C4686668B54202D23048066023E091
:10416000201DFFF733FBA06A18B104F11800FFF718
:104170002DFB94F82C100120884029490968084338
:1041800027490860E16A01EB8101264A02EB8100C0
:10419000211DFFF759FB2449E06A0968C96A884272
:1041A000C7D34FF00108C4E700BF1F480068C06ACA
:1041B00000EB80001B4951F82000012801D94FF085
:1041C000010805E0FFE719480068401C174908602E
:1041D0001748006808B14FF001084046BDE8F0817B
:1041E0008400002060000020500000202E2E5C463D
:1041F00072656552544F535C7372635C7461736B88
:10420000732E63004572726F723A25732C25640D0C
:104210000A00000054000020740000207C000020F0
:1042200064000020544600204C0000206C00002058
:104230007000002070B5002400263448006828B9BA
:104240004FF4FD6232A138A0FEF7DCFDFFF708FB5A
:104250002E480068401E2D49086008460068002866
:104260004FD13548006800284BD024E03348C0685F
:10427000C46804F11800FFF7A9FA201DFFF7A6FA99
:1042800094F82C10012088402D49096808432C49D6
:104290000860E16A01EB81012A4A02EB8100211DDD
:1042A000FFF7D2FA2849E06A0968C96A884202D34E
:1042B0000120264908602148006808B9012000E073
:1042C00000200028D2D00CB1FFF734F9204805684F
:1042D00065B100BFFFF7FCFE10B101201B4908606B
:1042E0006D1E002DF6D1002019490860174800689E
:1042F00038B10126300717490860BFF34F8FBFF36D
:104300006F8FFFF7EFFA304670BD00008400002089
:104310002E2E5C4672656552544F535C7372635C1B
:104320007461736B732E63004572726F723A2573FA
:104330002C25640D0A0000005C000020FC480020D1
:1043400064000020544600204C0000207000002033
:104350006C00002004ED00E0000000000000000000
:10436000010203040607080900000000010203041B
:10437000000000000000000000000000000000003D
:104380000000001818181818180800081800000075
:10439000000000342424240000000000000000007D
:1043A0000000000016247F2424247E242400000022
:1043B000000000083E6848681C1612127C101000AD
:1043C00000000061D296740810162949C60000004A
:1043D000000000003C646438724ACE467F00000052
:1043E000000000181818180000000000000000006D
:1043F00000000004081810303030301010180C0481
:10440000000000201008080C0404040C08181020F8
:10441000000000080A341C6A0800000000000000C8
:104420000000000000001818187F1818180000007D
:104430000000000000000000000000181808300014
:104440000000000000000000003C00000000000030
:10445000000000000000000000000018180000002C
:104460000000000206040C08081010202040000084
:10447000000000003C6642475B7342663C0000005F
:104480000000000018784808080808087E000000AE
:10449000000000003C460606040810207E000000D4
:1044A000000000007C0606043C0202067C000000BE
:1044B000000000000C1C14246444FF0404000000ED
:1044C000000000007E6060607E0202067C0000004A
:1044D000000000001E306048764242623C0000004E
:1044E000000000007E0206040C08181030000000D6
:1044F000000000003C6242361C6642423C00000064
:10450000000000003C664242661A02047800000087
:10451000000000000000181800000018180000003B
:1045200000000000000018180000001818083000F3
:1045300000000000000004183060100C06000000AD
:1045400000000000000000007E007E00000000006F
:10455000000000000000301804060C1020000000CD
:10456000000000301C0606061810001010000000A5
:104570000000001C224141DDB5A5A5AF94C0403C20
:1045800000000000181C342426627E43C100000095
:10459000000000007C4642467C4242427C00000013
:1045A000000000001E204040404040603E000000EF
:1045B000000000007C46424343434246780000002E
:1045C000000000007E6060607E6060607E00000031
:1045D000000000007E6060607E606060600000003F
:1045E000000000001E604040CE4242623E000000DB
:1045F00000000000424242427E424242420000002D
:10460000000000007E181818181818187E00000006
:10461000000000007C04040404040444780000004A
:10462000000000004244485070584C4442000000D2
:104630000000000020202020202020203E0000003C
:10464000000000006266675F5B5BC1C1C1000000E3
:1046500000000000626272525A4A4E464600000054
:10466000000000003C6243C3C3C343623C0000003F
:10467000000000007C464242467840404000000076
:10468000000000003C6243C3C3C343623C180F00F8
:10469000000000007C6662667C6C6466620000005C
:1046A000000000003E6040601C0602027C0000002A
:1046B000000000007F1818181818181818000000BB
:1046C0000000000042424242424242623C0000007E
:1046D00000000000C14342622624341C1800000080
:1046E00000000000C1C141495B5B766666000000C6
:1046F0000000000043663418181C2466C300000044
:1047000000000000C14266341C1818181800000090
:10471000000000007E02040C181020607E000000E3
:104720000000001C10101010101010101010101CA1
:10473000000000402020101008080C0406020000B1
:104740000000003C0C0C0C0C0C0C0C0C0C0C0C3C6D
:1047500000000000181C246200000000000000009F
:10476000000000000000000000000000000000FF4A
:104770000000002010000000000000000000000009
:104780000000000000003C06023E42467A000000A5
:104790000000004040405C62424242427C00000017
:1047A0000000000000001E20604060203E0000006D
:1047B0000000000202023E62424242663A000000ED
:1047C0000000000000003C62427E40603E000000AD
:1047D0000000000F1810107E1010101010000000C4
:1047E0000000000000003F66426658403E43423CE5
:1047F0000000004040405C624242424242000000F1
:104800000000001818007808080808087E0000005A
:10481000000000040C007C040404040404040C786C
:10482000000000606060626C787068646200000084
:104830000000007808080808080808087E00000042
:10484000000000000000764B4B4B4B4B4B00000030
:104850000000000000005C62424242424200000050
:104860000000000000003C62424342623C00000045
:104870000000000000005C62424242427C40404036
:104880000000000000003E62424242663A0202021C
:104890000000000000006E72636060606000000055
:1048A0000000000000003E20203C06027C000000CA
:1048B000000000001010FE10101010101E0000006C
:1048C0000000000000004242424242663A000000FE
:1048D0000000000000004342662434181800000065
:1048E000000000000000C1C15B5A5E666600000067
:1048F00000000000000062261C181C266200000058
:1049000000000000000043426624341C181830E008
:104910000000000000007E060C1810207E00000041
:104920000000000E18101010307010101010180E2B
:104930000000080808080808080808080808080807
:1049400000000030180808080C0E08080808183085
:104950000000000000000000714B06000000000095
:104960000000000000000000000000000000000047
:104970000000000000000000000000000000000037
:104980000000000000000000000000000000000027
:104990000000000000000000000000000000000017
:1049A0000000000000000000000000000380038001
:1049B00001800180018001800180018001800180EF
:1049C000018001800180018000000000038003C09D
:1049D0000380000000000000000000000000000054
:1049E0000000000000000000000000000E700E70CB
:1049F0000E700E700E700C300C30000000000000C5
:104A000000000000000000000000000000000000A6
:104A10000000000000000000000000000000000096
:104A20000000000000000000000000000000000086
:104A300006180638063006307FFE7FFE0C300C303C
:104A40000C300C307FFE7FFE0C601C60186018601C
:104A500018600000000000000000000000000000DE
:104A60000000000000000000000000C000C000C006
:104A700007F81FF838C031C0318039803D801F8071
:104A800007F001F803BC031C030C031C233C3FF894
:104A90003FE00700060006000000000000000000E4
:104AA0000000000000000000000000001C077E065F
:104AB000630C6318633863307E603CE000C00180A3
:104AC00003800338067E0CC61CC618C630C670EEBE
:104AD000607C0000000000000000000000000000FA
:104AE00000000000000000000000000000000FC0F7
:104AF0001FE018703870387018701CE00FC00F007D
:104B00003F8C3B8C71CC60EC607C7038707C3FFEDD
:104B10001FCF0000000000000000000000000000A7
:104B200000000000000000000000000003C003C0FF
:104B300003800180018001800180000000000000EE
:104B40000000000000000000000000000000000065
:104B50000000000000000000000000000000000055
:104B600000000000000000000000000000300060B5
:104B700000E001C0038003000700070006000E00EC
:104B80000E000E000E000E000E00060007000700CB
:104B90000380038001C000E00070003000000000CE
:104BA0000000000000000000000000000C000E00EB
:104BB0000700038001C001C000E000E00060007059
:104BC00000700070007000700060006000E000E0A5
:104BD00001C001C0038007000E000C0000000000AF
:104BE00000000000000000000000000001800180C3
:104BF000018819980FF803C003C01FF819980180A5
:104C000001800180000000000000000000000000A2
:104C10000000000000000000000000000000000094
:104C20000000000000000000000000000000000084
:104C300000000000000001800180018001800180EF
:104C400001807FFE7FFE0180018001800180018064
:104C50000000000000000000000000000000000054
:104C60000000000000000000000000000000000044
:104C70000000000000000000000000000000000034
:104C800000000000000000000000038003C003C01B
:104C900001C001C001C007801F001000000000001B
:104CA0000000000000000000000000000000000004
:104CB00000000000000000000000000000000000F4
:104CC00000000FF00FF000000000000000000000E6
:104CD00000000000000000000000000000000000D4
:104CE00000000000000000000000000000000000C4
:104CF00000000000000000000000000000000000B4
:104D00000000000000000000000003C003C003C05A
:104D100003C00000000000000000000000000000D0
:104D2000000000000000000000000000001C00184F
:104D30000038003000700060006000C000C001C09A
:104D4000018003800300070006000E000C000C0029
:104D500018001800380030000000000000000000BB
:104D60000000000000000000000000000000000043
:104D700007F01FF81838381C300C303C707E71EE8C
:104D800073CE7F0E7E0E380C300C381C1C381FF092
:104D900007E000000000000000000000000000002C
:104DA0000000000000000000000000000000000003
:104DB00003C00FC03FC039C001C001C001C001C065
:104DC00001C001C001C001C001C001C001C03FFC61
:104DD0003FFC000000000000000000000000000098
:104DE00000000000000000000000000000000000C3
:104DF0000FE03FF018380038001800180038003075
:104E0000007000E001C0038007000E001C003FFCA2
:104E10003FFC000000000000000000000000000057
:104E20000000000000000000000000000000000082
:104E30001FE01FF00038003800380038007007E02D
:104E400007F00078001C001C001C001C00383FF01C
:104E50003FC0000000000000000000000000000053
:104E60000000000000000000000000000000000042
:104E700000F001F001B00330073006300C301C3078
:104E80003830303070307FFE7FFE00300030003030
:104E900000300000000000000000000000000000E2
:104EA0000000000000000000000000000000000002
:104EB0001FF81FF8180018001800180018001FE04D
:104EC0001FF80038001C001C001C001800381FF0E0
:104ED0001FC00000000000000000000000000000F3
:104EE00000000000000000000000000000000000C2
:104EF00001F807F80E001C001800380031C03FF818
:104F00003E3C301C300C300C380C380C1C1C1FF88C
:104F100007E00000000000000000000000000000AA
:104F20000000000000000000000000000000000081
:104F30003FFC3FFC001C001800380030007000608F
:104F400000E000C001C001800380070007000E00E0
:104F50000E00000000000000000000000000000043
:104F60000000000000000000000000000000000041
:104F70000FF01E78381C381C381C3C181E780FE0C7
:104F800007E01E783C3C381C300C300C381C1FF8F5
:104F90000FF0000000000000000000000000000012
:104FA0000000000000000000000000000000000001
:104FB0000FE01E783838301C701C700C300C381C18
:104FC0003EFC0FEC001C001C0018003800F01FE035
:104FD0001F000000000000000000000000000000B2
:104FE00000000000000000000000000000000000C1
:104FF000000000000000000003C003C003C00180E7
:1050000000000000000000000000018003C003C099
:1050100003C00000000000000000000000000000CD
:105020000000000000000000000000000000000080
:10503000000000000000000003C003C003C00180A6
:105040000000000000000000000003C003C003C017
:1050500001C001C001C007800F0000000000000077
:105060000000000000000000000000000000000040
:105070000000000000100038007001E003C00700CD
:105080000E003C001C000E00078001C000E000780C
:105090000010000000000000000000000000000000
:1050A0000000000000000000000000000000000000
:1050B00000000000000000000000000000003FFCB5
:1050C0000000000000003FFC3FFC0000000000006A
:1050D00000000000000000000000000000000000D0
:1050E00000000000000000000000000000000000C0
:1050F0000000000008001C000E00070003C000E0D4
:105100000070003C0038007001E0038007001E00C2
:105110000800000000000000000000000000000087
:105120000000000000000000000000000E000FC0A2
:1051300003E000700038003800380038007803F0D1
:1051400003C0030003000300000000000700078005
:105150000700000000000000000000000000000048
:1051600000000000000000000000000001E007F85F
:105170000E1C1C0E18063006300361F363F3663311
:10518000E673CE63CC63CC66CC66CCE6CFFCC73C82
:1051900060006000600030003C301FF00000000044
:1051A00000000000000000000000000000000000FF
:1051B00003C003C007E006E006600E700C700C3000
:1051C0001C381838381C3FFC3FFC700E700E60060F
:1051D000E0070000000000000000000000000000E8
:1051E00000000000000000000000000000000000BF
:1051F0003FF03FF83838381C381C381838383FF042
:105200003FF0383C381C380C380C381C383C3FF820
:105210003FE000000000000000000000000000006F
:10522000000000000000000000000000000000007E
:1052300007FC0FFC1E0038003800300070007000C2
:10524000700070007000300038003C001E040FFC3D
:1052500003FC00000000000000000000000000004F
:10526000000000000000000000000000000000003E
:105270003FE03FF03038301C300C300E300E300E36
:10528000300E300E300E300C301C301C30783FF0B9
:105290003F8000000000000000000000000000004F
:1052A00000000000000000000000000000000000FE
:1052B0001FF81FF8180018001800180018001FF831
:1052C0001FF81800180018001800180018001FF820
:1052D0001FF80000000000000000000000000000B7
:1052E00000000000000000000000000000000000BE
:1052F0001FF81FF8180018001800180018001FF8F1
:105300001FF81800180018001800180018001800DE
:105310001800000000000000000000000000000075
:10532000000000000000000000000000000000007D
:1053300007FC0FFC1C00380030007000700070FC8F
:1053400070FC700C700C700C300C380C1C0C0FFCCA
:1053500007FC00000000000000000000000000004A
:10536000000000000000000000000000000000003D
:10537000300C300C300C300C300C300C300C3FFC4E
:105380003FFC300C300C300C300C300C300C300C3E
:10539000300C0000000000000000000000000000D1
:1053A00000000000000000000000000000000000FD
:1053B0003FFC3FFC01800180018001800180018071
:1053C00001800180018001800180018001803FFC1B
:1053D0003FFC000000000000000000000000000092
:1053E00000000000000000000000000000000000BD
:1053F0001FF01FF00030003000300030003000306F
:1054000000300030003000300030003010701FE0FD
:105410001FC00000000000000000000000000000AD
:10542000000000000000000000000000000000007C
:10543000381C3838387038E038C039803B003F00BD
:105440003F003B003B8039C038E038703838383C8A
:10545000381C0000000000000000000000000000F8
:10546000000000000000000000000000000000003C
:105470001C001C001C001C001C001C001C001C004C
:105480001C001C001C001C001C001C001C001FFC3D
:105490001FFC0000000000000000000000000000F1
:1054A00000000000000000000000000000000000FC
:1054B000381C381C6C3E6C3E6C6E666E666E67CE39
:1054C00063CE6386618660066006600660066006DD
:1054D0006006000000000000000000000000000066
:1054E00000000000000000000000000000000000BC
:1054F000380C3C0C3C0C3E0C360C370C330C338C0B
:10550000318C31CC30CC30EC306C307C303C303CA9
:10551000301C00000000000000000000000000003F
:10552000000000000000000000000000000000007B
:105530000FF01FF8381C381C700E700E700E6006CD
:1055400060066006700E700E700C381C3C381FF838
:105550000FE000000000000000000000000000005C
:10556000000000000000000000000000000000003B
:105570003FE03FF8383C381C380C380C380C381CED
:1055800038783FF03FC03800380038003800380025
:1055900038000000000000000000000000000000D3
:1055A00000000000000000000000000000000000FB
:1055B0000FF01FF8381C381C700E700E700E60064D
:1055C00060066006700E700E700C381C3C381FF8B8
:1055D0000FE00180018001E200FF003C00000000BC
:1055E00000000000000000000000000000000000BB
:1055F0003FE03FF8383838183818381838383FF056
:105600003FC039E03860387038383838381C381CBA
:10561000380E000000000000000000000000000044
:10562000000000000000000000000000000000007A
:105630000FF81FF838003800300038001E000F80C7
:1056400007F000F8003C001C001C001C003C3FF868
:105650003FE000000000000000000000000000002B
:10566000000000000000000000000000000000003A
:105670007FFE7FFE0180018001800180018001802A
:105680000180018001800180018001800180018012
:105690000180000000000000000000000000000089
:1056A00000000000000000000000000000000000FA
:1056B000300C300C300C300C300C300C300C300C0A
:1056C000300C300C300C300C300C301C381C1FF8F7
:1056D0000FE00000000000000000000000000000DB
:1056E00000000000000000000000000000000000BA
:1056F000E0077006700E700E380C381C38181C1835
:105700001C380C300E700E70066007E007E003C016
:1057100003C00000000000000000000000000000C6
:105720000000000000000000000000000000000079
:10573000600660066006600660066006618663C6F5
:1057400073C673CE76EE366C366C3C7C3C3C3C3C8F
:10575000381C0000000000000000000000000000F5
:105760000000000000000000000000000000000039
:10577000700E381C1C381C380E7006E007E003C0A1
:1057800003C003C007E00E701C301C38381C701EAC
:10579000700E00000000000000000000000000008B
:1057A00000000000000000000000000000000000F9
:1057B000E006700E380C381C1C381C300E70066069
:1057C00007E003C001800180018001800180018029
:1057D0000180000000000000000000000000000048
:1057E00000000000000000000000000000000000B9
:1057F0003FFC3FFC001C00380070006000E001C06E
:105800000380038007000E000C001C0038003FFCE2
:105810003FFC00000000000000000000000000004D
:1058200000000000000000000000000007F007F08A
:105830000600060006000600060006000600060038
:105840000600060006000600060006000600060028
:105850000600060006000600060007F00000000033
:1058600000000000000000000000000038001800E8
:105870001C000C000C00060006000700030003805B
:10588000018001C000C000E0006000600030003016
:1058900000380018001C000C000000000000000090
:1058A0000000000000000000000000000FE00FE01A
:1058B00000600060006000600060006000600060E8
:1058C00000600060006000600060006000600060D8
:1058D000006000600060006000600FE000000000F9
:1058E00000000000000000000000000000000000B8
:1058F000038003C006E006600C301C381818301C0A
:105900000000000000000000000000000000000097
:105910000000000000000000000000000000000087
:105920000000000000000000000000000000000077
:105930000000000000000000000000000000000067
:105940000000000000000000000000000000000057
:105950000000000000000000FFFFFFFF000000004B
:105960000000000000000000000000001C000E000D
:10597000070001800000000000000000000000009F
:105980000000000000000000000000000000000017
:105990000000000000000000000000000000000007
:1059A00000000000000000000000000000000000F7
:1059B00000000000000000001FF01EF80018001C8E
:1059C000001C07FC1FFC3C1C381C301C387C3FFCB6
:1059D0001FDC0000000000000000000000000000CC
:1059E0000000000000000000000000003800380047
:1059F00038003800380038003BF03FF83E1C380CC7
:105A0000380C380C380C380C380C381C38383FF04F
:105A10001FE0000000000000000000000000000087
:105A20000000000000000000000000000000000076
:105A3000000000000000000003F80FF81E001C002A
:105A4000380038003800380038001C001E000FF8FD
:105A500003F800000000000000000000000000004B
:105A6000000000000000000000000000001C001CFE
:105A7000001C001C001C001C07FC1FFC181C381C10
:105A8000301C301C301C301C301C383C387C1FDC77
:105A90000F9C00000000000000000000000000005B
:105AA00000000000000000000000000000000000F6
:105AB000000000000000000007F01E78181C381CD1
:105AC000300C3FFC3FFC3000300038001C001FFC55
:105AD00007FC0000000000000000000000000000C3
